:020000040800F2
:10000000E0000120750200080D8500082584000825
:10001000098500089509000821C0000800000000BB
:10002000000000000000000000000000E986000859
:1000300099090008000000001185000821B300089C
:100040008F0200088F0200088F0200088F0200084C
:100050008F0200088F0200088F0200088F0200083C
:100060008F0200088F0200088F0200088F0200082C
:100070008F0200088F0200088F0200088F0200081C
:100080008F0200088F0200088F0200088F0200080C
:100090008F0200088F0200088F0200088F020008FC
:1000A0008F0200088F0200088F0200088F020008EC
:1000B0008F0200088F0200088F0200088F020008DC
:1000C0008F0200088F0200088F0200088F020008CC
:1000D0008F02000815C000088F0200088F02000878
:1000E0008F0200088F0200088F0200088F020008AC
:1000F0008F0200088F0200088F0200088F0200089C
:100100008F0200088F0200088F0200088F0200088B
:10011000BDBD00088F0200088F0200088F02000892
:100120008F0200088F0200088F0200088F0200086B
:100130008F0200088F0200088F0200088F0200085B
:100140008F0200088F0200088F0200088F0200084B
:100150008F0200088F0200088F0200088F0200083B
:100160008F0200088F0200088F0200088F0200082B
:100170008F0200088F0200088F02000800000000B4
:100180008F0200088F02000800F002F800F063F808
:1001900014A696E8000CB244B344DA4501D100F04D
:1001A0005AF8BAE80F000FA696E83000A5EB040550
:1001B00004EB0607AAEB0704A7F101074FEA1515A0
:1001C0004FEA3414A4F10104AC4201D300F043F827
:1001D00013F0010F18BFFB1A43F0010300F001F800
:1001E000DBE7184728C8020048C80200103A24BFBD
:1001F00078C878C1FAD8520724BF30C830C144BF8C
:1002000004680C6070470000704700000023002461
:1002100000250026103A28BF78C1FBD8520728BF16
:1002200030C148BF0B607047642900F02B817529ED
:1002300000F02881782900F06181632900F0608353
:10024000732900F06583002070471FB50EF0AFF9E9
:100250001FBD10B510BD00F067FB1146FFF7F5FF9D
:100260000DF056FB00F085FB03B4FFF7F2FF03BC73
:1002700000F088FB0948804709480047FEE7FEE791
:10028000FEE7FEE7FEE7FEE7FEE7FEE7FEE7FEE746
:1002900004480549054A064B70470000CDB30008E5
:1002A00089010008E0EE0020E0000120E0F00020DD
:1002B000E0F0002053EA020C00F069802DE9F04BD9
:1002C0004FF00006002B1FBFB3FA83F503FA05F4C5
:1002D00024FA05F65E4012BF1643B2FA82F502FA1E
:1002E00005F4C5F120051EBF22FA05FC44EA0C0402
:1002F000203556EA044C4FEA144418BF641C4FF0F2
:1003000000084FF00009904271EB030C39D300292B
:1003100019BFB1FA81F701FA07F6B0FA80F700FACF
:1003200007F6C7F120071EBF20FA07FC46EA0C06B5
:100330002037B6FBF4FCA7EB0507103F07F01F0BB7
:10034000CBF120062CFA06F60CFA0BFB44BFB346A1
:100350000026202FA4BF5E464FF0000B5BEA060C80
:1003600008BF4FF0010B19EB0B0948EB0608ABFB7C
:10037000027C06FB02CC0BFB03CCC01B71EB0C0117
:10038000C1E70B46024641464846BDE8F08B13B52F
:10039000084318BF4FF0FF300146AFF30080BDE8BF
:1003A0001C4070470FB41CB50C0007AA009007D082
:1003B0004142A14202D32044401E01E04FF0FF30F1
:1003C000074B7B4469460190069800F074FA0021BF
:1003D000002C01D0009A11701CBC5DF814FB0000C9
:1003E0001705000070B5044685690068C10601D58F
:1003F000302600E02026C00707D070BDD4E90121D7
:1004000030469047206A401C20626D1EF6D570BDB4
:1004100070B5044685690078C00707D170BDD4E97E
:10042000012120209047206A401C20626D1EF6D5D5
:1004300070BD70B50C460546012A05D028788006A7
:1004400000D5EA69002302E0012305E05B1C93422A
:1004500002D2E05C0028F9D1A869E618C01AA861A8
:10046000286A184428622846FFF7BCFF04E0D5E953
:10047000012114F8010B9047B442F8D32846FFF746
:10048000C7FF70BD2DE9F0410646002410687529AC
:10049000314616A510D0AFF30080002802DA4042A2
:1004A00013A507E031688A0701D512A502E04907C4
:1004B00004D511A5012401E0AFF3008000210A2238
:1004C00006F1240709E0B0FBF2FCB0FBF2F302FBFB
:1004D0001C00303078541846491C0028F3D12346BC
:1004E0002A463046BDE8F04100F086B90000000021
:1004F0002D0000002B0000002000000070B5044615
:100500000D4621461068AFF300802188090502D509
:100510000F4A7A4402E00E4A7A440E32002104F176
:10052000240305E000F00F060009965D5E54491CA7
:100530000028F7D120780023000704D5702D02D0C1
:1005400009B1022311322046BDE8704000F054B9D1
:1005500012E100002DE9F05F894604464FF0000AE1
:10056000DFF874B1FB44C0F820A02046E16888475A
:10057000002874D0252806D0D4E901219047206AAC
:10058000401C2062F1E700265F462046E16888476C
:100590002028054607DB312D05D2781910F8200CEC
:1005A00008B10643F1E7B00701D526F00406C4F808
:1005B0001CA00027C4F818A02A2D09D028460DF049
:1005C000A9FF38B304EB8708303DC8F8185019E08C
:1005D00059F8041B204604EB87029161E1688847C3
:1005E000012F054618D1E069002820DA26F0200600
:1005F0001DE0D8F8180000EB800005EB4000303813
:10060000C8F818002046E168884705460DF082FFCB
:100610000028EED1012F0AD02E2D08D12046E16806
:1006200088477F1C0546022F46F02006C4DBA069E0
:10063000002803DA404246F00106A061F00701D02D
:1006400026F010066C2D0BD0682D09D04C2D39D01A
:100650006A2D35D0742D35D07A2D33D016E038E0A0
:10066000E1682F4620468847B842054609D16C2FDD
:1006700026D04FF48060E16806432046884705464F
:1006800004E06C2F1AD04FF4807006430DB3A5F12F
:100690004100192802D8203546F400664A4629460A
:1006A000204626604E46FFF7BFFD80B101280BD0E3
:1006B000F61D26F0070000F1080956E74020E4E7A0
:1006C0008020D8E70020D6E706F104094DE7284648
:1006D00052E7206ABDE8F09FE8E0000010B5431C37
:1006E00002E010F8011B71B18107FAD14FF001321D
:1006F00002C88C1A8C4314EAC211F9D0C01A0A0637
:1007000003D0C01E10BDC01A10BD0A0401D0801E47
:1007100010BD0902FCD0401E10BD10B5203AC0F03B
:100720000B80B1E81850A0E81850B1E81850A0E8C4
:100730001850203ABFF4F5AF5FEA027C24BFB1E85D
:100740001850A0E8185044BF18C918C0BDE81040A0
:100750005FEA827C24BF51F8043B40F8043B08BFA9
:100760007047D20728BF31F8023B48BF11F8012B70
:1007700028BF20F8023B48BF00F8012B704702F069
:10078000FF0343EA032242EA024200F002B84FF0BC
:10079000000200B5134694469646203922BFA0E8D1
:1007A0000C50A0E80C50B1F12001BFF4F7AF0907DD
:1007B00028BFA0E80C5048BF0CC05DF804EB8900CE
:1007C00028BF40F8042B08BF704748BF20F8022B11
:1007D00011F0804F18BF00F8012B70477047704729
:1007E000704710B500F098F8006810BD10B50446C9
:1007F00000F092F8046010BD2DE9F0470D469946CF
:100800009246044600F124080168880604D5E06990
:1008100021F01001216000E00120A84201DD471B0A
:1008200000E00027A1697A1902EB0900081AA0610B
:100830002078C00602D42046FFF7D4FD002608E049
:10084000D4E901211AF806009047206A401C761C62
:1008500020624E45F4DB2078C0060AD52046FFF71B
:10086000C1FD06E0D4E9012130209047206A401CF8
:100870002062381EA7F10107F4DC07E0D4E901216A
:1008800018F805009047206A401C2062281EA5F138
:100890000105F3DC2046FFF7BBFD2078000602D5FA
:1008A0000220BDE8F0870120FBE7000001694A1C37
:1008B00002610878704700B58FB0CDE901310021A1
:1008C000059105497944CDE9031011466846FFF7C3
:1008D00041FE0FB000BD0000E5FFFFFFD1E900239E
:1008E0009A4202D2531C0B601070704710B54369D6
:1008F00013B1AFF3008001E0FFF79BFD012010BDB5
:10090000127800F124010A7000224A700122EDE7FA
:1009100011684FF0FF32E9E70048704710000020EF
:1009200000487047100000207546FFF7F9FFAE46FB
:1009300005006946534620F00700854618B020B5EB
:10094000FFF7A6FCBDE820404FF000064FF000077F
:100950004FF000084FF0000BAC46ACE8C009ACE823
:10096000C009ACE8C009ACE8C00921F007018D4618
:10097000704710B50446AFF300802046BDE8104034
:10098000FFF772BC01491820ABBEFEE7260002004B
:1009900070470000FEE700007047000072B600BF1D
:1009A000FEE700002DE9F04186B0002643F6300056
:1009B0000496CDE90266CDE900660596C4F2020010
:1009C0000168002441F0010101600068C4F20204E2
:1009D00000F001000590059841F204052046102121
:1009E0000122CEF200054FF01008012706F0B4F9FD
:1009F0000320039069462046CDE90087029606F061
:100A0000DBF84EF6FC50CEF20000016841F0807138
:100A100001602E6055F8040C42F2DC1140F0010038
:100A200045F8040C55F8040CC2F2000110F0010066
:100A3000087017D1402005900598411E0591C8B354
:100A400000BF0598411E0591A0B300BF0598411E47
:100A5000059178B300BF0598411E059150B300BFC2
:100A6000EAE700BF40F20800C2F2000000684DF65D
:100A70008361C4F21B31A0FB010128682B686FF071
:100A8000010202EA51411A1A8A4213D200BF2A68AF
:100A9000121A8A420ED200BF2A68121A8A4209D25A
:100AA00000BF2A68121A8A4204D200BF2A68121AAA
:100AB0008A42EBD306B0BDE8F08100002DE9F04199
:100AC00084B0002041F20405C4F20200102101228A
:100AD000CEF2000506F040F942F2DC16C2F2000642
:100AE000307840F208084DF683670028C2F200080B
:100AF000C4F21B3760D0D8F80000A0FB07012868BB
:100B00002A68890C01EB8101121AB2EB410F15D250
:100B1000490000BF00BF2A68121A8A420ED200BFE5
:100B20002A68121A8A4209D200BF2A68121A8A4217
:100B300004D200BF2A68121A8A42EBD340F23C1456
:100B4000C2F20004204606F0B3FC2068016821F0E0
:100B50004001016000210191C1680191816801910A
:100B60000199016841F0400101603078002841D0CE
:100B7000D8F800006FF00102A0FB070128682B687D
:100B800002EA51411A1A8A4213D200BF2A68121A85
:100B90008A420ED200BF2A68121A8A4209D200BFC6
:100BA0002A68121A8A4204D200BF2A68121A8A429C
:100BB000EBD304B0BDE8F0814FF4A070029000BF09
:100BC0000298411E00280291B8D000BF0298411E31
:100BD00000280291B2D000BF0298411E0028029165
:100BE000ACD000BF0298411E00280291A6D000BFE1
:100BF000E6E700BF402003900398411E00280391C0
:100C0000D7D000BF0398411E00280391D1D000BF68
:100C10000398411E00280391CBD000BF0398411ECA
:100C200000280391C5D000BFE6E700002DE9F0479A
:100C300084B00C4640F200080021C4F20208019181
:100C4000010C164641F20407ADF80810ADF80A0091
:100C5000404610210122CEF2000706F07DF842F254
:100C6000DC15C2F20005287840F2080A4DF68369C7
:100C70000028C2F2000AC4F21B3900F08980DAF8B9
:100C800000006FF00102A0FB090138683B6802EA2E
:100C900051411A1A8A4213D200BF3A68121A8A4284
:100CA0000ED200BF3A68121A8A4209D200BF3A68CF
:100CB000121A8A4204D200BF3A68121A8A42EBD34F
:100CC00040461021002206F047F8287800287DD001
:100CD000DAF80000A0FB090138683A68121AB2EB92
:100CE000914F15D2890C00BF00BF3A68121A8A4290
:100CF0000ED200BF3A68121A8A4209D200BF3A687F
:100D0000121A8A4204D200BF3A68121A8A42EBD3FE
:100D100040F23C10C2F2000002A901AA0223009690
:100D200006F048FD2978064600296BD0DAF8000065
:100D3000A0FB090138683A68121AB2EB914F15D23C
:100D4000890C00BF00BF3A68121A8A420ED200BF57
:100D50003A68121A8A4209D200BF3A68121A8A42C5
:100D600004D200BF3A68121A8A42EBD340461021DF
:100D7000012205F0F1FF002E60D0FFF79FFE00205A
:100D8000002C4FF0000161D104B0BDE8F08700BF36
:100D9000402003900398411E0028039190D000BF8B
:100DA0000398411E002803913FF48AAF00BF0398C7
:100DB000411E002803913FF483AF00BF0398411EFA
:100DC000002803913FF47CAF00BFE3E720200390AD
:100DD0000398411E002803919AD000BF0398411E3A
:100DE0000028039194D000BF0398411E002803916E
:100DF0008ED000BF0398411E002803913FF488AFB6
:100E000000BFE5E7202003900398411E00280391CE
:100E1000ACD000BF0398411E00280391A6D000BFAC
:100E20000398411E00280391A0D000BF0398411EE3
:100E3000002803919AD000BFE6E700BF64B1BDF877
:100E40000400BDF8061041EA004001212060084678
:100E500004B0BDE8F08700BF012004B0BDE8F08712
:100E60002DE9F04F83B0824600284FF0000000F0DB
:100E7000658141F201028A1A12F5805FC0F05E813D
:100E8000CDE900104FF0085000210A22FFF7CEFEF6
:100E900090B3009802281ED3009801264442C2F263
:100EA000002601AF4FF6FF7B554600BF304639465E
:100EB0000A22FFF7BBFEF8B10198002220EA0B01DD
:100EC000C5F24132914217D10136A119B1F1085F43
:100ED00025F8020BEAD101A900200A22FFF7A6FE9D
:100EE00050B101984FF6FF71002220EA0101C5F2CE
:100EF0004132914200F0E48041F20407CEF2000753
:100F0000FFF7DCFD42F2DC10C2F2000000784DF683
:100F10008361002840F20800C2F20000C4F21B31D5
:100F200000F010810068A0FB010138683A68890C64
:100F300001EB8101121AB2EB410F15D2490000BF3B
:100F400000BF3A68121A8A420ED200BF3A68121ADB
:100F50008A4209D200BF3A68121A8A4204D200BFFC
:100F60003A68121A8A42EBD3002001904FF00850E1
:100F700000210A22FFF75AFE98B30098022820D3D6
:100F800000984FF00009441E4FF4083501AE4FF6AB
:100F9000FF7800BF09F1010B584665F31F30314659
:100FA0000A22FFF743FEE0B10198002220EA08017F
:100FB000C5F24132914214D12AF819005C45D94654
:100FC000E8D101A900200A22FFF730FE48B10198BC
:100FD0004FF6FF71002220EA0101C5F24132914231
:100FE0006ED0FFF76BFD42F2DC10C2F20000007819
:100FF000002800F0C98040F20800C2F2000000683A
:101000004DF68361C4F21B31A0FB010138683A68D8
:10101000890C01EB8101121AB2EB410F14D2490085
:1010200000BF3A68121A8A420ED200BF3A68121AFA
:101030008A4209D200BF3A68121A8A4204D200BF1B
:101040003A68121A8A42EBD3002001904FF0085000
:1010500000210A22FFF7EAFDE0B3009802281FD31F
:1010600000980026441E4FF4083B0DF104094FF68A
:10107000FF7800BF751C28466BF31F3049460A22D3
:10108000FFF7D4FD30B30198002220EA0801C5F231
:10109000413291421ED12AF81600AC422E46E9D1C7
:1010A00001A900200A22FFF7C1FD98B101984FF66F
:1010B000FF71002220EA0101C5F24132914209D1BB
:1010C00000990AEB410121F8020C012003B0BDE8B0
:1010D000F08F00BFFFF7F2FC42F2DC10C2F200001A
:1010E0000078002872D040F20800C2F200000068C8
:1010F0004DF68361C4F21B31A0FB0101880C3968F5
:101100003A6800EB8000521AB2EB400F78D24200EE
:1011100000BF3868401A904272D200BF3868401A47
:1011200090426DD200BF3868401A904268D200BF2A
:101130003868401A90424FF00000E9D303B0BDE890
:10114000F08F00BF4FF4A070029000BF0298411EC4
:10115000002802913FF408AF00BF0298411E00280A
:1011600002913FF401AF00BF0298411E0028029196
:101170003FF4FAAE00BF0298411E002802913FF4EE
:10118000F3AE00BFE2E700BF4FF4A070029000BFD3
:101190000298411E002802913FF456AF00BF02980A
:1011A000411E002802913FF44FAF00BF0298411E3C
:1011B000002802913FF448AF00BF0298411E00286A
:1011C00002913FF441AF00BFE2E700BF4FF4A070CF
:1011D000029000BF0298411E029188B100BF0298A0
:1011E000411E029160B100BF0298411E029138B1C8
:1011F00000BF0298411E029110B100BFEAE700BF94
:10120000002003B0BDE8F08F2DE9F04182B0044624
:101210000020002C009000F0C58020604FF00450AA
:1012200000210A22FFF702FD60B1694600200A2270
:10123000FFF7FCFC30B1009820F00701B1F1805FAE
:1012400000F0838042F2DC16C2F20006307841F2F0
:10125000040540F208084DF68367CEF20005002829
:10126000C2F20008C4F21B3700F0A080D8F80000DA
:10127000A0FB070128682A68890C01EB8101121A7A
:10128000B2EB410F14D2490000BF2A68121A8A42F9
:101290000ED200BF2A68121A8A4209D200BF2A68F9
:1012A000121A8A4204D200BF2A68121A8A42EBD369
:1012B0004FF0045000210A22FFF7B8FC58B16946EC
:1012C00000200A22FFF7B2FC28B1009820F00701A5
:1012D000B1F1805F39D03078002800F08980D8F8EB
:1012E0000000A0FB070128682A68890C01EB810136
:1012F000121AB2EB410F15D2490000BF00BF2A6895
:10130000121A8A420ED200BF2A68121A8A4209D2E1
:1013100000BF2A68121A8A4204D200BF2A68121A31
:101320008A42EBD34FF0045000210A22FFF77EFCE3
:1013300080B1694600200A22FFF778FC50B100987E
:1013400020F00701B1F1805F04D12060012002B0DC
:10135000BDE8F081307800286AD0D8F80000A0FB02
:101360000701880C29682A6800EB8000521AB2EB4A
:10137000400F77D2420000BF00BF2868401A904259
:1013800070D200BF2868401A90426BD200BF286814
:10139000401A904266D200BF2868401A90424FF02F
:1013A0000000E9D302B0BDE8F08100BF4FF4A070A7
:1013B000019000BF0198411E002801913FF478AFD1
:1013C00000BF0198411E002801913FF471AF00BF9A
:1013D0000198411E002801913FF46AAF00BF0198B7
:1013E000411E002801913FF463AF00BFE2E700BF58
:1013F0004FF4A070019000BF0198411E0028019198
:1014000090D000BF0198411E002801913FF48AAF9F
:1014100000BF0198411E002801913FF483AF00BF37
:101420000198411E002801913FF47CAF00BFE3E723
:101430004FF4A070019000BF0198411E019188B146
:1014400000BF0198411E019160B100BF0198411E8B
:10145000019138B100BF0198411E019110B100BF48
:10146000EAE700BF002002B0BDE8F0812DE9F041BD
:1014700082B004460020002C009018BF20604FF07E
:10148000005000210A22FFF7D1FB58B16946002025
:101490000A22FFF7CBFB28B1009840F2D2418842E4
:1014A00000F0808042F2DC16C2F20006307841F291
:1014B000040540F208084DF68367CEF200050028C7
:1014C000C2F20008C4F21B3700F0A280D8F8000076
:1014D000A0FB070128682A68890C01EB8101121A18
:1014E000B2EB410F14D2490000BF2A68121A8A4297
:1014F0000ED200BF2A68121A8A4209D200BF2A6897
:10150000121A8A4204D200BF2A68121A8A42EBD306
:101510004FF0005000210A22FFF788FB50B16946C6
:1015200000200A22FFF782FB20B1009840F2D2414E
:10153000884237D03078002800F08C80D8F800003E
:10154000A0FB070128682A68890C01EB8101121AA7
:10155000B2EB410F14D2490000BF2A68121A8A4226
:101560000ED200BF2A68121A8A4209D200BF2A6826
:10157000121A8A4204D200BF2A68121A8A42EBD396
:101580004FF0005000210A22FFF750FB90B169464E
:1015900000200A22FFF74AFB60B1009840F2D241D6
:1015A000884207D1002C4FF0010018BF216002B023
:1015B000BDE8F081307800286ED0D8F80000A0FB9C
:1015C000070128682A68890C01EB8101121AB2EB25
:1015D000410F15D2490000BF00BF2A68121A8A4283
:1015E0000ED200BF2A68121A8A4209D200BF2A68A6
:1015F000121A8A4204D200BF2A68121A8A42EBD316
:10160000002C67D000990020216002B0BDE8F08175
:101610004FF4A070019000BF0198411E0028019175
:101620003FF476AF00BF0198411E002801913FF4BE
:101630006FAF00BF0198411E002801913FF468AFD1
:1016400000BF0198411E002801913FF461AF00BF27
:10165000E2E700BF4FF4A070019000BF0198411E67
:10166000002801913FF48CAF00BF0198411E002873
:1016700001913FF485AF00BF0198411E0028019100
:101680003FF47EAF00BF0198411E002801913FF456
:1016900077AF00BFE2E700BF4FF4A070019000BF3A
:1016A0000198411E00280191AAD000BF0198411E57
:1016B00000280191A4D000BF0198411E002801918B
:1016C0009ED000BF0198411E0028019198D000BF14
:1016D000E6E700BF002002B0BDE8F0812DE9F0434D
:1016E00083B045F245664FF044540028C5F2417678
:1016F0004FF0000008BF4FF0405404BF44F6594675
:10170000C4F24E160190204600210A22FFF78EFAFD
:1017100040B101A900200A22FFF788FA10B1019810
:10172000B0427AD042F2DC17C2F20007387841F2B8
:10173000040540F208094DF68368CEF20005002842
:10174000C2F20009C4F21B3800F09880D9F80000FA
:10175000A0FB080128682A68890C01EB8101121A94
:10176000B2EB410F14D2490000BF2A68121A8A4214
:101770000ED200BF2A68121A8A4209D200BF2A6814
:10178000121A8A4204D200BF2A68121A8A42EBD384
:10179000204600210A22FFF749FA40B101A90020A2
:1017A0000A22FFF743FA10B10198B04235D03878D9
:1017B000002800F08580D9F80000A0FB0801286807
:1017C0002A68890C01EB8101121AB2EB410F15D284
:1017D000490000BF00BF2A68121A8A420ED200BF19
:1017E0002A68121A8A4209D200BF2A68121A8A424B
:1017F00004D200BF2A68121A8A42EBD32046002185
:101800000A22FFF713FA68B101A900200A22FFF7A4
:101810000DFA38B10198B04204D1012003B0BDE8FF
:10182000F08300BF387800286AD0D9F80000A0FB08
:101830000801880C29682A6800EB8000521AB2EB74
:10184000400F77D2420000BF00BF2868401A904284
:1018500070D200BF2868401A90426BD200BF28683F
:10186000401A904266D200BF2868401A90424FF05A
:101870000000E9D303B0BDE8F08300BF4FF4A070CF
:10188000029000BF0298411E002802913FF480AFF1
:1018900000BF0298411E002802913FF479AF00BFBB
:1018A0000298411E002802913FF472AF00BF0298D7
:1018B000411E002802913FF46BAF00BFE2E700BF7A
:1018C0004FF4A070029000BF0298411E00280291C0
:1018D00094D000BF0298411E002802918ED000BF14
:1018E0000298411E002802913FF488AF00BF029881
:1018F000411E002802913FF481AF00BFE4E700BF22
:101900004FF4A070029000BF0298411E029188B16E
:1019100000BF0298411E029160B100BF0298411EB3
:10192000029138B100BF0298411E029110B100BF70
:10193000EAE700BF002003B0BDE8F08344F2A850FE
:10194000C0F60100704700002DE9F0472DED108B27
:101950000E4602F0FD0101293ED10546E0B3042EFA
:101960003AD3CBB3B5EE400AB0EE408AF1EE10FAAE
:1019700032DDF5EE400AB0EE609AF1EE10FA2BDDA2
:10198000B6EE00AA28EE0A0AB4EE409AF1EE10FA7A
:1019900022DA18464FF4047191469846FEF7F7FE96
:1019A00088EE09DA00EE109AB8EE400AB01E2DEE6D
:1019B00000BA00EE100AB8EE400AB4EE40BAF1EEFA
:1019C00010FA00F3AD81042E06F0030A0ED29FED4B
:1019D000DF0A002035E000BF002B00F0A18118468F
:1019E0004FF40471FEF7D3FE9AE100BF9FEDD70AD2
:1019F00026F00301A5F10802002000BF32F9083FDC
:101A0000043001EE103AB2F90230B8EEC11A30EEED
:101A1000010AB2F9044001EE103AB8EEC11AB2F967
:101A2000067030EE010A01EE104AB8EEC11A30EE2F
:101A3000010A01EE107AB8EEC11A814230EE010AB5
:101A4000DCD1BAF1000F1FD035F91010BAF1010F37
:101A500001EE101AB8EEC11A30EE010A14D005EBEF
:101A60004000B0F90210BAF1020F01EE101AB8EE00
:101A7000C11A30EE010A07D0B0F9040001EE100AD5
:101A8000B8EEC11A30EE010A01EE106A9FEDB02ADD
:101A9000B8EE411A80EE01CA29EE020A80EE088AE9
:101AA000B0EE480A0CF0C0F9B0EE409AB0EE480A29
:101AB0000CF09EFB042EB1EE402A80F03781DFED62
:101AC000A30AB7EE003A0020B0EE601AB0EE605AFA
:101AD000BAF1000F00F0818035F9101025EE024AAE
:101AE00023EE096A36EE044A06EE101AB8EEC66A0C
:101AF00036EE4C6A26EE037A26EE056A20EE033AAD
:101B000025EE095AC1B2FF2935EE033A14D123EE6E
:101B1000035A64EE041A31EE855AF7EE002AB5EE48
:101B2000405AF1EEC51AF1EE10FAC8BFF0EE612A84
:101B300083EE223A84EE224A77EE200ABAF1010FB0
:101B400036EE011A49D0411C35F9112023EE022A44
:101B500005EE102AB8EEC55A35EE4C5A25EE046A49
:101B600025EE035A24EE097A20EE040A23EE093A00
:101B7000C9B237EE022AFF2933EE000A14D120EE53
:101B8000003A22EE024A34EE033AB7EE007AB5EE9E
:101B9000403AB1EEC34AF1EE10FAC8BFB0EE447A53
:101BA00080EE070A82EE072A76EE200ABAF1020FCB
:101BB00035EE011A11D005EB4000B0F9040003EE38
:101BC000100AB8EEC33A33EE4C3A23EE022A23EE63
:101BD000000A72EE200A30EE011AB0EEE00AB0EE12
:101BE000C12A9FEDC43A32EE000AB4EE430AF1EE88
:101BF00010FAC0F29580B1EE410A0BF0BFFFB1EED2
:101C0000400A80EE088A4146B5EE408AF1EE10FAAD
:101C100033DA3DEE088AB5EE408AF1EE10FA2CDA9E
:101C20003DEE088AB5EE408AF1EE10FA25DA3DEE77
:101C3000088AB5EE408AF1EE10FA1EDA3DEE088A07
:101C4000B5EE408AF1EE10FAE3DB16E038EE4D8A8D
:101C5000B4EE4D8AF1EE10FA14DB38EE4D8AB4EE94
:101C60004D8AF1EE10FA0DDB38EE4D8AB4EE4D8A56
:101C7000F1EE10FA06DB38EE4D8AB4EE4D8AF1EE45
:101C800010FAE3DAF01E00EE100AB7EE00EAB8EE42
:101C9000409AB4EE4E8AF1EE10FA39EE4BFA1BDAA6
:101CA0003DEE088AB4EE4E8AF1EE10FA14DA3DEEFB
:101CB000088AB4EE4E8AF1EE10FA0DDA3DEE088A8B
:101CC000B4EE4E8AF1EE10FA06DA3DEE088AB4EE72
:101CD0004E8AF1EE10FAE3DBB4EE4F8AF1EE10FA21
:101CE0001EDC3FEE0E0A60EE0A8AF4EE488AF1EE40
:101CF00010FA40F3D18038EEC80A80EE0D0A0CF0DD
:101D00003BF920EE0D0A30EE088A3DEE080AB4EEEB
:101D10004F0AF1EE10FA40F3AF804146BCE000BF3D
:101D20000020BDEC108BBDE8F08700BFDFED070A97
:101D3000B7EE004A26F003012A1D0020B0EE601A1B
:101D4000B0EE446AB0EE607A4CE000BF00000000E4
:101D5000DB0FC94032F9043C32F9027C07EE903ABD
:101D6000F8EEE77A77EECC7A27EE877A37EE011A2B
:101D700007EE107AB8EEC77A27EE866A37EE4C7A0D
:101D800032F9083B36EE206A67EE250A27EE267AFE
:101D900037EE011A07EE103AB8EEC77A37EE4C7AF2
:101DA00032F9063C30EE866A67EE230A27EE247A83
:101DB00037EE011A07EE103AB8EEC77A37EE4C7AD2
:101DC00030EE866A67EE210A70EE860A27EE226AF6
:101DD000043036EE011A8142B0EE436AB0EE457A25
:101DE0003FF476AE27EE023A26EE095A75EE035A14
:101DF00020EE063A27EE095A75EE036A26EE823A7D
:101E000025EE895A75EE033A20EE253A26EE895AD8
:101E100075EE034A24EE823A23EE895A75EE031AD0
:101E200020EE233A24EE895A75EE032A22EE823AF6
:101E300021EE895AC31C35EE033ADBB220EE215A5B
:101E400062EE897AFF2B37EE855A83D165EE057AEB
:101E500023EE03EA7EEE277AB1EEE7EAF5EE407A6A
:101E6000F0EE447AF1EE10FAC8BFF0EE4E7A85EE4D
:101E7000275A83EE273A6DE730EE681A38EE682A63
:101E8000B0EEC11AB0EEC22AB4EE421A4146F1EEEB
:101E900010FAB8BFB0EE408AB4EE4E8AF1EE10FAF6
:101EA0004FF00000C0F24F813BEE080AB4EE490A41
:101EB000F1EE10FA00F3478147F6FF70C8F2000018
:101EC0009FEDA30A9FEDA35A9FEDA36A48F2000C71
:101ED000C8604FF40046002047F6FF73B1EE041AC5
:101EE000B9EE002AB0EE083ABEEE004ACFF6FF7C0B
:101EF0002BE000BFBD378635B5EE407AF0EE440AE0
:101F0000F1EE10FAA8BFF0EE4A0A77EE200AFDEED5
:101F1000E00AB4EE467A10EE902AF1EE10FA1FB203
:101F2000D8BF6246BA4201EB40077A82BCBF8A81C1
:101F3000134637B214B2BC4200F10200C4BFCA81DA
:101F40001646B0F5807F00F0F38082B207EE102ACB
:101F5000B8EE477A2BEE077A87EE007A38EE077AEA
:101F6000FDEEC70A10EE902A05EB420434F9027C1C
:101F7000F8EE600A37EE607A00EE907AB4F90270FB
:101F800035F9122002EE907AF8EEE00A01EE902A7E
:101F9000F8EEE22AF8EEE11A70EEE23A67EE233A42
:101FA00071EEA14A73EEE43A61EE814A70EEA05AF6
:101FB000B4F9042074EEE54A62EE825A75EEA44A42
:101FC00005EE902A61EE831AF8EEE55A70EEE10A0A
:101FD00062EE831A67EE076A75EEA44A70EEA10AF4
:101FE00027EE267A64EEA64A70EEE50A74EEA33A6E
:101FF00020EE877A37EE237A27EE047A37EE4C7A92
:10200000B4EE457AF1EE10FA1EDAB5EE407AF0EE53
:10201000440AF1EE10FAA8BFF0EE4A0A77EE200A61
:10202000FDEEE00AB4EE467A10EE902AF1EE10FAD8
:102030001FB2D8BF6246BA4201EB40073A82BCBF2A
:102040008A81134605E000BF01EB400747F6FF72A7
:102050003A8237B214B2BC42C4BFCA811646421C8F
:1020600092B207EE102AB8EE477A2BEE077A87EE87
:10207000007A38EE077AFDEEC70A10EE902A05EBDB
:10208000420737F9024CF8EE600A37EE607A00EE4C
:10209000904AB7F9024035F9122002EE904AF8EE64
:1020A000E00A01EE902AF8EEE22AF8EEE11A70EE6C
:1020B000E23A67EE233A71EEA14A73EEE43A61EE3A
:1020C000814A70EEA05AB7F9042074EEE54A62EE38
:1020D000825A75EEA44A05EE902A61EE831AF8EE54
:1020E000E55A70EEE10A62EE831A67EE076A75EE52
:1020F000A44A70EEA10A27EE267A64EEA64A70EE94
:10210000E50A74EEA33A20EE877A37EE237A27EEBB
:10211000047A37EE4C7AB4EE457AF1EE10FAFFF617
:10212000EBAE01EB400747F6FF727A8201E700BF92
:102130004FF480704880012081F8019081ED018A80
:1021400081ED02BA0870BDEC108BBDE8F08700BFCE
:1021500000007F4300FEFF46000000C72DE9F04F5E
:1021600081B02DED108B86B01446002818BF002CCE
:1021700002D134B909E000BF0278002A18BF002953
:102180000AD120464821FEF702FB002006B0BDEC34
:10219000108B01B0BDE8F08F8278043A12F1030F82
:1021A000EFD30B68002BECD00A79002AE9D093ED2D
:1021B000000AB5EE400AF1EE10FAE2DD93ED010AF5
:1021C000B5EE400AF1EE10FADBDD012A40F0E280C4
:1021D0000A7BFAB18B68002BCBD093ED000AB5EEE9
:1021E000400AF1EE10FAC4DD012A13D0013A083397
:1021F00093ED000AB5EE400AF1EE10FAB9DD13EDE9
:10220000021AB4EE410AF1EE10FAB2DD013A03F11E
:102210000803EDD10A7D002A5ED00B69002BA8D0FF
:1022200003F10C0C4FF0000E0EEB4E0703EB0717FB
:1022300097ED000AB5EE400AF1EE10FA99DD3D790E
:10224000AE1F16F1040FFFF494AFBEF1000F07D0DC
:1022500017ED0C1AB4EE410AF1EE10FA7FF789AFD0
:1022600097ED020AB5EE400AF1EE10FA7FF781AF62
:1022700097ED030AB5EE400AF1EE10FA7FF779AF59
:10228000013D674697ED010AB5EE400AF1EE10FAFE
:102290007FF76FAF97ED021AB5EE401AF1EE10FA24
:1022A0007FF767AF17ED012AB4EE420AF1EE10FA9C
:1022B0007FF75FAF97ED000AB4EE401AF1EE10FA27
:1022C0007FF757AF013D07F10807DBD10EF1010E93
:1022D00096450CF1300CA7D100902046049148217E
:1022E000FEF755FA04980099D0F808909FEDDA0AA5
:1022F00091ED011A91F802B0B9F1000FB0EE40AAC9
:1023000084ED011A84F801B066D0037BB0EE40AAD8
:10231000002B61D0012B5DD099ED002AB4EE421A5A
:10232000F1EE10FA56DD9F1E09F1200212ED062A89
:10233000B4EE421AF1EE10FA40F3848207B312EDC4
:10234000042AB4EE421AF1EE10FA40F37D82012F16
:1023500016D012ED022AB4EE421AF1EE10FA40F352
:102360007582022F0CD092ED002AB4EE421AF1EEE3
:1023700010FA40F36C82043F7E1C02F12002D5D19A
:1023800009EBC30212ED01AABBF1000FB0EE408AC7
:1023900028D12FE2013A083393ED000AB5EE400A46
:1023A000F1EE10FA7FF7E5AE93ED011AB5EE401AA3
:1023B000F1EE10FA7FF7DDAE13ED021AB4EE410A2A
:1023C000F1EE10FA7FF7D5AE013A03F10803E3D13D
:1023D000FEE600BF99ED01AABBF1000FB0EE408A06
:1023E00000F008829FED9CBA01F1180704F1180172
:1023F0009FED9ACA9FED9ADA9FED9AEA9FED9A9A1D
:10240000A9F10402059109F120014FF0000AB0EE94
:102410004BFA019203910AE020EE000A0AF1010A48
:10242000DA4530EE0FFA88ED031A00F0BF8007EBB3
:102430000A164FEA0A11059A96ED018A7D5CD6EDDF
:10244000020A02EB0A18B0EE480A555488ED018AD8
:1024500000F01CFA049896ED031AB9F1000FB0EEE3
:102460004B2A88ED020A3DD0027BB0EE4B2ACAB35C
:10247000012A35D099ED002AB4EE428AF1EE10FA25
:102480002EDD0399931E11ED062AB4EE428AF1EE79
:1024900010FA73DDEBB111ED042AB4EE428AF1EECD
:1024A00010FA6DDD012B14D011ED022AB4EE428A30
:1024B000F1EE10FA66DD022B0BD091ED002AB4EE9E
:1024C000428AF1EE10FA5EDD043B5E1C01F1200150
:1024D000D9D1019901EBC20191ED002A02E000BFC0
:1024E00099ED012A03EE105AB8EE433A23EE0A3A68
:1024F00033EE422A31EE021AB4EE4C1AF1EE10FA23
:102500001EDC31EE091AB4EE4C1AF1EE10FA17DCAB
:1025100031EE091AB4EE4C1AF1EE10FA10DC31EE7D
:10252000091AB4EE4C1AF1EE10FA09DC31EE091A70
:10253000B4EE4C1AF1EE10FAE3DD01E031EE0E1AC2
:10254000B4EE4D1AF1EE10FA7FF766AF31EE0E1AC7
:10255000B4EE4D1AF1EE10FA7FF75EAF31EE0E1ABF
:10256000B4EE4D1AF1EE10FA7FF756AF31EE0E1AB7
:10257000B4EE4D1AF1EE10FAE0DC4DE7183902E046
:10258000103900E0083911ED023A38EE434A32EED4
:10259000432A84EE022A91ED013A11ED014A33EE0D
:1025A000443A22EE032A32EE042A9BE7B6EE000AF2
:1025B0002FEE000AB1EEC00ABBF1000F84ED030A52
:1025C00000F014819FEDAE8A6FF030009FEDADAA50
:1025D0000BF0030600EA0B170021B0EE48BAB0EE8C
:1025E00048CA4FF0000A0020CDE9010B21E000BFEE
:1025F0005FEA0A4000F0E080B4EE4BDA0399F1EEB6
:1026000010FABCBF5146B0EE4DBADDF808B0B4EEDA
:102610004CDAF1EE10FACCBFCDF804A0B0EE4CDAF3
:1026200040F2FF700AF1010A8145B0EE4DCA80F018
:10263000CB801FFA8AF900EE109AB8EE400A20EE1D
:10264000090ABBF1040F20EE0AEA03910ED24FF003
:10265000000BB0EE48DA66E000000000DB0F49C076
:10266000DB0F4940DB0FC9C0DB0FC9404FF000084A
:102670004FF0000BB0EE48DA04EB0805287E95ED2C
:10268000091A00EE100AB8EE400A20EE0E0A95ED87
:1026900008FA30EE010A0BF0C7FB95F828002FEE80
:1026A000000A30EE0DDA00EE100AB8EE400A95EDA1
:1026B0000D1A20EE0E0A95ED0CFA30EE010A0BF021
:1026C000B3FB95F838002FEE000A30EE0DDA00EE7D
:1026D000100AB8EE400A95ED111A20EE0E0A95ED9B
:1026E00010FA30EE010A0BF09FFB95F848002FEE30
:1026F000000A30EE0DDA00EE100AB8EE400A95ED51
:10270000151A20EE0E0A95ED14FA30EE010A0BF0C0
:102710008BFB2FEE000A08F1400830EE0DDA47453A
:102720000BF1040BA8D1002E3FF462AF05994FEADC
:102730000B10085C01EB0B1500EE100AB8EE400A16
:1027400095ED031A20EE0E0A95ED02FA30EE010A1D
:102750000BF06AFB2FEE000A012E30EE0DDA3FF48B
:1027600047AF287C95ED071A00EE100AB8EE400A34
:1027700020EE0E0A95ED06FA30EE010A0BF054FB3E
:102780002FEE000A022E30EE0DDA3FF431AF95F84D
:10279000200095ED0B1A00EE100AB8EE400A20EE6C
:1027A0000E0A95ED0AFA30EE010A0BF03DFB2FEE12
:1027B000000A30EE0DDA1BE70020DDF808B00190CA
:1027C0000021B0EE4DBA2BE701989FED2F1A80B291
:1027D00000EE100A88B202EE100AB8EE400AB8EE17
:1027E000422A20EE010A22EE018A03E09FED240A2C
:1027F000B0EE408A20460121012500F0EBFAB0EE50
:10280000409A2046B0EE480A002100F0E3FA009812
:1028100039EE400AC17884ED020A59B190ED040AFC
:10282000D0ED050A0498A57084ED040A00F02EF896
:1028300084ED050A0120207006B0BDEC108B01B0BC
:10284000BDE8F08F183A02E0103A00E0083A12EDC5
:10285000023A31EE431A32EE432A81EE021A92ED29
:10286000012A12ED013A32EE432A21EE021A31EE2C
:1028700003AABBF1000FB0EE408A7FF4B3ADB9E715
:10288000000000000000003ADB0F493BB0B50269D0
:10289000002A00F08180017D00297DD0012900F00F
:1028A000C58092ED001AB4EE410AF1EE10FA40F341
:1028B000BD808B1E02F1C00010ED241AB4EE410A57
:1028C000F1EE10FA40F3268103B310ED181AB4EEBE
:1028D000410AF1EE10FA40F31F81012B16D010EDE2
:1028E0000C1AB4EE410AF1EE10FA40F31781022BF4
:1028F0000CD090ED001AB4EE410AF1EE10FA40F35C
:102900000E81043B5D1C00F1C000D5D101EB4100FC
:1029100002EB001010ED0A0AF4EE400AF1EE10FA94
:1029200040F3F08010F82C2CA0F1280C022A30D3B0
:10293000514210380123042410ED040AF4EE400A39
:10294000F1EE10FA40F396810D19022D21D010ED11
:10295000020AF4EE400AF1EE10FA40F39581012DDF
:1029600017D090ED000AF4EE400AF1EE10FA40F3B1
:10297000938175B190ED020AF4EE400AF1EE10FA7F
:1029800040F3228204340D190433032D00F120009A
:10299000D2D10CEBC2008CE00179006801293BD058
:1029A00090ED001AB4EE410AF1EE10FA34DD002980
:1029B00000F09C808B1E00F1200212ED061AB4EE8E
:1029C000410AF1EE10FA40F31381002B00F08F80E2
:1029D00012ED041AB4EE410AF1EE10FA40F30A8146
:1029E000012B00F0848012ED021AB4EE410AF1EEE0
:1029F00010FA40F30181022B79D092ED001AB4EE67
:102A0000410AF1EE10FA40F3F880043B5D1C02F13C
:102A10002002D2D16BE000BF90ED010A20EE800AC7
:102A2000B6EE001A20EE010AB0BD00BF92ED020A18
:102A3000F4EE400AF1EE10FA50DD92F804E002F1F3
:102A4000080CBEF1020F32D3CEF1000102F12800D2
:102A50000124042210ED060AF4EE400AF1EE10FA09
:102A600040F3E4808B18022B21D010ED040AF4EE21
:102A7000400AF1EE10FA40F3DB80012B17D010ED85
:102A8000020AF4EE400AF1EE10FA40F3D58073B179
:102A900090ED000AF4EE400AF1EE10FA40F3D08017
:102AA00004328B180434032B00F12000D2D10CEB3C
:102AB000CE0010ED040A10ED021A30EEC02A31EEFD
:102AC000400A82EE000A10ED031A10ED012A32EEE0
:102AD000412A20EE020A30EE010AB0BD92ED031A3F
:102AE00020EE811A81EE000AB0BD00BF002100EB8C
:102AF000C10010ED010A20EE800AB6EE001A20EEA9
:102B0000010AB0BD10ED091A20EE811A81EE000A0B
:102B1000B0BD00BF903802E0603800E0303810ED02
:102B20000A2AF4EE420AF1EE10FA4BDD10F82CEC12
:102B3000A0F1280CBEF1020F32D3CEF10003A0F1B8
:102B400010010122042411ED042AF4EE420AF1EEF0
:102B500010FA40F38B801D19022D21D011ED022AAD
:102B6000F4EE420AF1EE10FA40F38A80012D17D0FC
:102B700091ED002AF4EE420AF1EE10FA40F38A8059
:102B800075B191ED022AF4EE420AF1EE10FA40F32B
:102B9000878004341D190432032D01F12001D2D1A4
:102BA0000CEBCE0111ED042A11ED023A30EEC24ACF
:102BB00033EE422A84EE022A11ED033A11ED014A66
:102BC0007EE000BF10ED093A20EE833A83EE022A40
:102BD00090ED023AF4EE430AF1EE10FA00F37E8033
:102BE00090ED034A20EE844A84EE033ADDE000BF14
:102BF000183A02E0103A00E0083A12ED022A30EEEC
:102C0000420A31EE421A80EE010A92ED011A12EDEB
:102C1000012A31EE421A20EE010A30EE020A20EEBD
:102C2000800AB6EE001A20EE010AB0BD183808E09E
:102C30000134103805E000BF0234083801E000BF5D
:102C400014460CEBC40111ED021A30EEC12A30EE2D
:102C5000410A82EE000A11ED011A90ED012A32EECE
:102C6000412A20EE020A30EE010AB0BD1039E21E00
:102C700018E000BFE11E10380CEBC101E3E700BF14
:102C8000013208390EE000BF591C08380CEBC101B5
:102C9000D9E700BF023205E0991C0CEBC101D2E775
:102CA000033208310CEBC20212ED023A30EEC34A95
:102CB00032EE432A84EE022A12ED013A91ED014AE6
:102CC00034EE434A22EE042A32EE032A90ED023A11
:102CD000F4EE430AF1EE10FA7FF782AF90F804E0C9
:102CE00000F1080CBEF1020F2ED3CEF1000200F16C
:102CF00028010123042411ED063AF4EE430AF1EE13
:102D000010FA33DD1519022D1ED011ED043AF4EE40
:102D1000430AF1EE10FA2BDD012D15D011ED023A28
:102D2000F4EE430AF1EE10FA26DD6DB191ED003AB2
:102D3000F4EE430AF1EE10FA22DD043415190433DF
:102D4000032D01F12001D6D10CEBCE0111ED043A97
:102D500011ED024A30EEC35A34EE433A85EE033A9F
:102D600011ED034A11ED015A19E000BF183908E0CE
:102D70000133103905E000BF0233083901E000BF1C
:102D800023460CEBC30212ED024A30EEC45A33EE76
:102D9000443A85EE033A12ED014A91ED015A35EEBF
:102DA000445A23EE053A33EE043A10ED0C4A30EE65
:102DB000440A31EE441A80EE010A33EE421A20EE44
:102DC000010A30EE020AB0BDD91C08300CEBC1017B
:102DD00039E700002DE9F04F81B02DED108B84B064
:102DE0004278FAB19FEDEB1A9FEDEB2A30EE01FA33
:102DF00030EE02DA9FEDE99A3DEE4F8A28EE090A9D
:102E00009FEDE7AA834630EE0DBA1830042A02F08F
:102E100003080191039002920CD29FEDE2CA0026B2
:102E200066E000BF9FEDDF8AB1FA81F04309B0EEA2
:102E300048CA11E36FF030009FEDDACA00EA0219C8
:102E4000002700260BEB0705287E95ED091A00EEFA
:102E5000100AB8EE400A20EE0B0A95ED08EA30EEB3
:102E6000010A0AF0E1FF95F828002EEE000A30EE84
:102E70000CCA00EE100AB8EE400A95ED0D1A20EECD
:102E80000B0A95ED0CEA30EE010A0AF0CDFF95F839
:102E900038002EEE000A30EE0CCA00EE100AB8EE32
:102EA000400A95ED111A20EE0B0A95ED10EA30EE6E
:102EB000010A0AF0B9FF95F848002EEE000A30EE3C
:102EC0000CCA00EE100AB8EE400A95ED151A20EE75
:102ED0000B0A95ED14EA30EE010A0AF0A5FF2EEE7A
:102EE000000A403730EE0CCAB94506F10406A9D1F4
:102EF000029DB8F1000F28EE0A8A43D003993001F1
:102F0000085C01EB061400EE100AB8EE400A94EDDE
:102F1000031A20EE0B0A94ED02EA30EE010A0AF0E1
:102F200083FF2EEE000AB8F1010F30EE0CCA29D053
:102F3000207C94ED071A00EE100AB8EE400A20EE4D
:102F40000B0A94ED06EA30EE010A0AF06DFF2EEE50
:102F5000000AB8F1020F30EE0CCA13D094F820002A
:102F600094ED0B1A00EE100AB8EE400A20EE0B0AA0
:102F700094ED0AEA30EE010A0AF056FF2EEE000A3E
:102F800030EE0CCA042D38EE0FEA03D29FED858A8D
:102F900000265DE06FF030009FED828A00EA05199F
:102FA000002700260BEB0705287E95ED091A00EE99
:102FB000100AB8EE400A20EE0E0AD5ED088A30EE6F
:102FC000010A0AF031FF95F8280028EE800A30EE59
:102FD000088A00EE100AB8EE400A95ED0D1A20EEB0
:102FE0000E0AD5ED0C8A30EE010A0AF01DFF95F8A5
:102FF000380028EE800A30EE088A00EE100AB8EE9B
:10300000400A95ED111A20EE0E0AD5ED108A30EE29
:10301000010A0AF009FF95F8480028EE800A30EE10
:10302000088A00EE100AB8EE400A95ED151A20EE57
:103030000E0AD5ED148A30EE010A0AF0F5FE28EEEC
:10304000800A403730EE088AB94506F10406A9D156
:10305000DDE90179B8F1000F43D003993001085C34
:1030600001EB061400EE100AB8EE400A94ED031AC4
:1030700020EE0E0AD4ED028A30EE010A0AF0D4FEE8
:1030800028EE800AB8F1010F30EE088A29D0207CA2
:1030900094ED071A00EE100AB8EE400A20EE0E0A70
:1030A000D4ED068A30EE010A0AF0BEFE28EE800A50
:1030B000B8F1020F30EE088A13D094F8200094ED96
:1030C0000B1A00EE100AB8EE400A20EE0E0AD4EDFC
:1030D0000A8A30EE010A0AF0A7FE28EE800A30EED6
:1030E000088AB7FA87F0B9F1000F4FEA501300F0E1
:1030F000B3816FF03000DFED2B8A00EA09164FF044
:10310000000A009317E000BF019FB0EE4EDAB0EE68
:1031100048EAF0EE4B9AB0EE6A8AB0EE4FBAB0EEE3
:103120004BFABAF1110F0AF1010AB0EE4EBAB0EE45
:1031300069EA80F03783B4EE4C8AF1EE10FA4FF072
:1031400000004FF00001C8BF0120B8BF0121002FCF
:1031500018BF014601290DD13DEE4B0A20EE0A0AA7
:10316000B9F1040F70EE0B9A1ED24FF00009B0EEC9
:1031700068FA75E03EEE4F0A20EE090AF0EE4CAA1E
:10318000B9F1040F30EE0E8A80F090800025B0EE89
:1031900068CAE5E0DB0F49BBDB0F493B7A371EBF4E
:1031A0007A371E3F0000000000254FF00009B0EE06
:1031B00068FA00BF0BEB0504207E94ED091A00EEBF
:1031C000100AB8EE400A20EE290A94ED08CA30EE43
:1031D000010A0AF029FE94F828002CEE000A30EECD
:1031E0000FCA00EE100AB8EE400A94ED0D1A20EE58
:1031F000290A94ED0CFA30EE010A0AF015FE94F853
:1032000038002FEE000A30EE0CCA00EE100AB8EEBD
:10321000400A94ED111A20EE290A94ED10FA30EECE
:10322000010A0AF001FE94F848002FEE000A30EE81
:103230000CCA00EE100AB8EE400A94ED151A20EE02
:10324000290A94ED14FA30EE010A0AF0EDFD2FEE92
:10325000000A403530EE0CFAAE4209F10409A9D15A
:10326000B8F1000F1BD003994FEA0910085C01EB7D
:10327000091400EE100AB8EE400A94ED031A20EE8D
:10328000290A94ED02CA30EE010A0AF0CDFD2CEEB7
:10329000000AB8F1010F30EE0FFA40F0AD80DDF812
:1032A0000890B0EE48CAB0EE4F8A38E700270025F4
:1032B000B0EE68CA0BEB0704207E94ED091A00EE0D
:1032C000100AB8EE400A20EE080A94ED08DA30EE53
:1032D000010A0AF0A9FD94F828002DEE000A30EE4C
:1032E0000CCA00EE100AB8EE400A94ED0D1A20EE5A
:1032F000080A94ED0CDA30EE010A0AF095FD94F814
:1033000038002DEE000A30EE0CCA00EE100AB8EEBE
:10331000400A94ED111A20EE080A94ED10DA30EE0E
:10332000010A0AF081FD94F848002DEE000A30EE03
:103330000CCA00EE100AB8EE400A94ED151A20EE01
:10334000080A94ED14DA30EE010A0AF06DFD2DEE54
:10335000000A403730EE0CCABE4205F10405A9D17F
:10336000B8F1000F3FF4D0AE03992801085C01EBDF
:10337000051400EE100AB8EE400A94ED031A20EE90
:10338000080A94ED02DA30EE010A0AF04DFD2DEE46
:10339000000A019FB8F1010F30EE0CCA3FF4B5AE40
:1033A000207C94ED071A00EE100AB8EE400A20EED9
:1033B000080A94ED06DA30EE010A0AF035FD2DEE2A
:1033C000000AB8F1020F30EE0CCA3FF49EAE94F83A
:1033D000200094ED0B1A00EE100AB8EE400A20EE21
:1033E000080A94ED0ADA30EE010A0AF01DFD2DEE0E
:1033F000000A30EE0CCA88E6207C94ED071A00EE35
:10340000100AB8EE400A20EE290A94ED06CA30EE02
:10341000010A0AF009FD2CEE000ADDF80890B8F167
:10342000020F30EE0FFA3FF43CAF94F8200094ED19
:103430000B1A00EE100AB8EE400A20EE290A94EDAD
:103440000ACA30EE010A0AF0EFFC2CEE000AB0EED8
:1034500048CA30EE0F8A62E6B0EE4C0AB4EE4C8AEF
:103460009FEDDACAF1EE10FA4FF000014FF00002C2
:10347000C8BF0121B8BF0122002BB0EE4C1A08BF13
:103480000A46002A1CBFB0EE481AB0EE4C0AB4EE51
:10349000410AF1EE10FA4FF000014FF00002C8BFF0
:1034A0000121B8BF0122002BB0EE4C2A08BF0A460A
:1034B000002A1CBFB0EE402AB0EE4C1AB4EE421AFD
:1034C000F1EE10FA4FF000014FF00002C8BF0121E9
:1034D000B8BF0122002BB0EE4C0A08BF0A46002AF2
:1034E0001CBFB0EE410AB0EE4C2AB4EE402AF1EE19
:1034F00010FA4FF000014FF00002C8BF0121B8BF21
:103500000122002BB0EE4C1A08BF0A46002A1CBF4D
:10351000B0EE421AB0EE4C0AB4EE410AF1EE10FAE7
:103520004FF000014FF00002C8BF0121B8BF0122D7
:10353000002BB0EE4C2A08BF0A46002A1CBFB0EE92
:10354000402AB0EE4C1AB4EE421AF1EE10FA4FF0E7
:1035500000014FF00002C8BF0121B8BF0122002BBB
:10356000B0EE4C0A08BF0A46002A1CBFB0EE410A62
:10357000B0EE4C2AB4EE402AF1EE10FA4FF0000102
:103580004FF00002C8BF0121B8BF0122002BB0EEEE
:103590004C1A08BF0A46002A1CBFB0EE421AB0EE11
:1035A0004C0AB4EE410AF1EE10FA4FF000014FF070
:1035B0000002C8BF0121B8BF0122002BB0EE4C2A87
:1035C00008BF0A46002A1CBFB0EE402AB0EE4C1AD3
:1035D000B4EE421AF1EE10FA4FF000014FF0000283
:1035E000C8BF0121B8BF0122002BB0EE4C0A08BFB2
:1035F0000A46002A1CBFB0EE410AB0EE4C2AB4EED7
:10360000402AF1EE10FA4FF000014FF00002C8BF5F
:103610000121B8BF0122002BB0EE4C1A08BF0A46A8
:10362000002A1CBFB0EE421AB0EE4C0AB4EE410ABA
:10363000F1EE10FA4FF000014FF00002C8BF012177
:10364000B8BF0122002BB0EE4C2A08BF0A46002A60
:103650001CBFB0EE402AB0EE4C1AB4EE421AF1EEA6
:1036600010FA4FF000014FF00002C8BF0121B8BFAF
:103670000122002BB0EE4C0A08BF0A46002A1CBFEC
:10368000B0EE410AB0EE4C2AB4EE402AF1EE10FA48
:103690004FF000014FF00002C8BF0121B8BF012266
:1036A000002BB0EE4C1A08BF0A46002A1CBFB0EE31
:1036B000421AB0EE4C0AB4EE410AF1EE10FA4FF0A5
:1036C00000014FF00002C8BF0121B8BF0122002B4A
:1036D000B0EE4C2A08BF0A46002A1CBFB0EE402AB2
:1036E000B0EE4C1AB4EE421AF1EE10FA4FF00001AF
:1036F0004FF00002C8BF0121B8BF0122002BB0EE7D
:103700004C3A08BF0A46002A1CBFB0EE413AB0EE60
:103710004C2AB4EE432AF1EE10FA4FF000014FF0BC
:103720000002C8BF0121B8BF0122002BB0EE4C0A35
:1037300008BF0A46002A1CBFB0EE420AB0EE4C3A5F
:10374000B4EE403AF1EE10FA4FF000014FF00002F3
:10375000C8BF0121B8BF0122002BB0EE4C8A08BFC0
:103760000A46002A1CBFB0EE438AB0EE4C0AB4EE03
:10377000480A0020F1EE10FA4FF00001C8BF012105
:10378000B8BF0120002B08BF084601280BD19FEDD0
:103790000F8A63B9B4EE480AF1EE10FAC8BFB0EE72
:1037A000408A0BE0009B002BB0EE4C0AF2D0B4EE46
:1037B000480AF1EE10FAB8BFB0EE408AB0EE480AFF
:1037C00004B0BDEC108B01B0BDE8F08F000000002C
:1037D00010B540F27004C2F2000400206060A060E6
:1037E0002070607040F29410A11CC2F2000001220F
:1037F00004F0F4FC002808BF10BDA0680130A060F0
:1038000010BD0000002804BF0020704740F2700285
:10381000EFF3108C72B6C2F20002537811788B422B
:1038200004D18CF310880020704700BF51781144F8
:10383000097B01705078013000F0070050708CF364
:10384000108801207047000013460A4601460028F0
:103850004FF0000018BF002A00D1704780B540F239
:103860009410C2F2000004F011FDB0FA80F040099B
:10387000BDE8804070470000F0B599B040F2840682
:10388000C2F20006746901AD0F4603461EA2284627
:1038900060210094FCF786FD2846FCF71FFF4FF6D9
:1038A000FF71884238BF014628463222FFF7CCFF1D
:1038B0007178707A032907D130B10120A6F807008A
:1038C0000420307013E000BF0022F2710422327035
:1038D00047B10139012905D800203072384608F077
:1038E00067F9707A68B1032070700120F07103F0FD
:1038F00039FA00F5FA7030610AA026213222FFF76A
:10390000A3FF19B0F0BD00BF475F464C4F572C6571
:1039100072726F723D25732C7365713D256C750D48
:103920000A000000475F53545245414D2C737461A7
:1039300074653D7265747279696E672C6166746531
:10394000725F6D733D3530300D0A00002DE9F04F88
:1039500089B040F28405C2F200054EF66C47D5ED01
:103960000B0A02464CF66C00C2F200079FED2F0ACC
:10397000C2F200004FF480513B46FDF7E5FF08B36B
:103980003878AC8900284FF00000ADF8224000F0F4
:103990007F827988B1F5807F40F07A82B7F90CB0E8
:1039A000B7F90E00BBF1000F48BFCBF1000B584533
:1039B000C8BF834654B1B4F5806F16D94FF4806404
:1039C000DEE100BF002009B0BDE8F08F0FF2C84073
:1039D0000DF1220107F004FD002800F0CF81BDF8B1
:1039E0002240AC81B4F5806FE8D8002C00F03E8214
:1039F0004EF66C0ABBF1000FC2F2000A00F0CA8159
:103A0000B7F8029045F25652601EA9F1010104F088
:103A10000308042CC5F25552CDE9061B08D24FF01D
:103A2000000CB8F1000F40F0FF80BBE18096984A8F
:103A300009EB490103396FF00303059103EB890199
:103A4000049124F00301494203916FF00101CDF884
:103A5000048001EB49014FF0000C07F110080094BD
:103A6000029100BFBCFBF0F14FF0010A8FB21AFACD
:103A700081F601FB10C538F917704E4538BF314645
:103A800089B2441B38F911107C4305FB01414FF00A
:103A9000EA0E91FBF0F1C1EBC11191FBFBF17F311B
:103AA00051FB02F101EBD17B6FF013011BF1140FFD
:103AB000D8BF8B460699BBF1EA0F6144B1FBF0F425
:103AC0004FF0EA02A6B21AFA84F704FB1011A8BF5D
:103AD000934638F916604F4538BF3C46A4B2451AA4
:103AE00038F91440754301FB0451079A91FBF0F13A
:103AF000C1EBC11191FBF2F145F256527F31C5F293
:103B0000555251FB02F101EBD1756FF0130115F124
:103B1000140FD8BF0D460299EA2D6144B1FBF0F4B1
:103B2000A8BF7546A7B21AFA84FE04FB101138F933
:103B30001770CE4538BF7446A4B2461A38F91440FF
:103B4000774301FB0471079A91FBF0F14FF0EA0E05
:103B5000C1EBC11191FBF2F145F256527F31C5F232
:103B6000555251FB02F101EBD1716FF0130211F1CB
:103B7000140FD8BF1146059AEA2902EB0C07B7FBD0
:103B8000F0F6A8BF71461AFA86F206FB1077B4B2B7
:103B90004A4538BF164638F91440B6B2C21B38F948
:103BA0001660624307FB06220BF1140792FBF0F24A
:103BB000DDF81CB04EF66C0AC2EBC212C2F2000A6B
:103BC00092FBFBF20AEB03061431B17102F17F01A3
:103BD00045F25652C5F2555251FB02F1377105F1CB
:103BE000140701EBD171777111F1140F6FF0130409
:103BF000D8BF2146EA29A8BF71461431F171039953
:103C000004331944043104998C447FF42BAF009C95
:103C10004EF66C47DDF8048003F1040CC2F2000795
:103C2000B8F1000F00F0BE80069901250CFB01F1F0
:103C3000B1FBF0F307F1100E15FA83F503FB101139
:103C40009AB24D4538BF2B463EF912509BB2461AE8
:103C50003EF91330754301FB035145F2565291FB77
:103C6000F0F1C5F25552C1EBC11191FBFBF16FF0C0
:103C700013037F3151FB02F101EBD17111F1140FEC
:103C8000D8BF1946EA26EA29A8BF31461431B8F14F
:103C9000010F0AF80C1000F0858006990CF1010262
:103CA0005143B1FBF0F5059222460124CDF8048082
:103CB00014FA85F805FB10111FFA85FBC84538BFBB
:103CC00045463EF91BB0ADB2441A3EF9158004FBDF
:103CD0000BF501FB0851079F91FBF0F11446C1EB76
:103CE000C11191FBF7F145F25652C5F255527F31A1
:103CF00051FB02F101EBD17111F1140FC8BF0B465A
:103D0000EA2BB8BF1E460199059B022906F1140152
:103D10000AF80310069945D00CF1020808FB01F3DC
:103D2000B3FBF0F5012105FB103311FA85F11646BE
:103D3000AAB249453EF9122038BF0D46A9B2A0EB00
:103D4000030C3EF911100CFB02F203FB012191FB65
:103D5000F0F0C0EBC01090FBF7F07F3050FB06F0A6
:103D600000EBD07010F1140FD8BF6FF01300EA28E9
:103D7000A8BFEA2014300AF8080013E04FF40074DA
:103D8000ADF822404EF66C0ABBF1000FC2F2000AF9
:103D90007FF436AE4EF66C00C2F2000021463E22A1
:103DA000FCF7EDFC610861D0481E032801F0030018
:103DB00002D2002132E000BF21F00302002100BF47
:103DC000CB43E718BFB21AF807601AF801500AF897
:103DD00001600AF807504F1CFF4327440AEB010318
:103DE000BFB21AF807605D785E700AF807508F1C42
:103DF000FF432744BFB21AF807609D789E700AF807
:103E00000750CF1CFF432744BFB21AF80760DD7884
:103E100004318A42DE700AF80750D1D130B3CA4368
:103E2000224492B21AF802301AF8017001280AF8F6
:103E300001300AF8027019D04A1CD34323449BB2C4
:103E40001AF803701AF8026002280AF802700AF8D9
:103E500003600BD0881CC143214489B21AF80120A9
:103E60001AF800300AF800200AF8013044F6252438
:103E7000C0F601042046002109F05CFDBDF82230A7
:103E80004EF66C02C2F200022046002109F0FAFD53
:103E900009B0BDE8F08F00BF7330000040F284012C
:103EA000C2F200014B7891F809C0032B08D1BCF194
:103EB000000F05D00122A1F8072004220A700FE0AC
:103EC0000022013BCA710422012B0A700AD8012387
:103ED000BCF1000F0B7208BF704703224A70CB7110
:103EE000143008617047000070B59AB040F2DC10E1
:103EF000C2F200004FF40051FCF749FC4CF66C0094
:103F0000C2F200004FF40051FCF741FC4CF22820B3
:103F1000C2F200004821FCF73AFC4CF2E010C2F279
:103F200000004821FCF733FC4EF66C40C2F2000062
:103F30004FF40471FCF72BFC4EF66C00C2F200004B
:103F40004FF48061FCF723FC4CF26C40C2F200009D
:103F50004FF48061FCF71BFC40F28406C2F20006BD
:103F600000243480B47002F0FDFEC6E90404B4619C
:103F700002F0F8FE3546C6E9070445F8244F02F082
:103F8000F1FE40F20111A6F80310C6F80540747264
:103F9000C6E90A04346302F0E5FE7838706302F083
:103FA000E1FE7838B06302F0DDFE7838F063F4604B
:103FB00007F0AAFBFCF7F6FC2846FDF757FA2B683A
:103FC00044F2E07202AD0446B072C0F60102284627
:103FD00060210094FCF7E6F92846FCF77FFB4FF6DA
:103FE000FF71884238BF014628463222FFF72CFC79
:103FF0000AA036213222FFF727FC01207072F071EF
:1040000040F20330308002F0ADFE306111A030216B
:104010003222FFF719FC1AB070BD00BF475F53543E
:104020005245414D2C72656164793D312C61757446
:104030006F3D312C636D643D433A726573746172F8
:10404000742C533A73746F702C71756572793D3F9F
:104050000D0A0000475F53545245414D2C73746163
:1040600074653D72756E6E696E672C6D6F64653D2B
:1040700063616C6962726174696F6E2C6175746FD3
:104080003D310D0A000000002DE9F04F95B002F01F
:1040900069FE029003A8FFF7B5FB40F284070028F1
:1040A000C2F2000762D044F6DC0A44F2A07B00258D
:1040B00003AE4FF0010840F20339C0F6010A0FF6D3
:1040C0007014C0F6010B11E0BD7087F80980A7F8E5
:1040D0000780A7F800903861504629213222FFF767
:1040E000B3FB3046FFF78EFB00283FD002F03AFECC
:1040F0009DF80C1001F0DF02532A09D0432A15D194
:10410000397811F0FB0FDFD020461B21E6E700BF16
:104110003A787978787A12F0FB0F7D720CD0032907
:10412000DFD10FF6A8002D21D8E700BF3F29D8D155
:1041300058463F21D2E700BF0329A1F10301B1FA9C
:1041400081F14FEA511140EA0100FD7108BF7D7015
:1041500010F001000FF6C0000FF6A00118BF0846CE
:104160004FF0150118BF1821B8E700BF00208DF8E7
:104170004F0014A80DF14F0107F050FB002800F08C
:10418000518102F0EFFD9DF85010042922D0022940
:1041900018D0012934D1796B411A7829C0F04281B5
:1041A0003978786311F0FB0F00F0CA807878032823
:1041B00040F01A810120B87044F61500C0F60100E5
:1041C0002C212CE1F9780122012908BF03228DF866
:1041D0004F201AE0F96B411A7829C0F02381397811
:1041E000F86311F0FB0F3FD07878032840F0F68099
:1041F0000220B87044F64200C0F6010031210EE101
:1042000001F0FE01022940F00D81B96B411A7829B5
:10421000C0F008819DF84F30B86303F0FD0101291B
:1042200040F000817878FB7001280BD13878013894
:10423000022807D8012044F61E267871C0F6010630
:10424000DAE000BFB8793B71012840F0D38018460E
:10425000FFF77CFBFB780FF604060FF2F8710028DD
:1042600008BF0E46C8E000BF0221054601900120AC
:104270007970012407F04AFC05F59670386344F61E
:104280002D10C0F6010017213222A7F80740FFF7D2
:10429000DBFA43F27430ADF8510000208DF8530082
:1042A00044F6F820C0F6010090E8300344F6842B71
:1042B00003A9B0F810A0C0F6010B03AE81E83001ED
:1042C0000DF1510059463246CDF81890ADF81CA0BA
:1042D00009F094FB43F27440ADF8510000208DF8D2
:1042E000530003A880E830030DF1510059463246CF
:1042F000ADF81CA009F082FB43F27450ADF85100F8
:1043000000208DF8530003A880E830030DF1510020
:1043100059463246ADF81CA009F070FB44F62B203C
:10432000C0F60100002109F005FB44F69710C0F625
:10433000010009F03FFB032038700198386171E0FB
:104340000124054601207C7007F0E0FB05F596701E
:10435000386344F67400C0F6010012213222A7F837
:104360000740FFF771FAF87844F68424387100208A
:10437000787144F69110C0F6010444F61622C0F696
:104380000100C0F60102214609F038FB44F69E10F8
:1043900044F6EA12C0F60100C0F60102214609F017
:1043A0002DFB44F6A11044F6F812C0F60100C0F649
:1043B0000102214609F022FB44F62520C0F6010047
:1043C000002109F0B7FA44F68A10C0F6010009F09E
:1043D000F1FA032038703D6124E000BF44F6651017
:1043E000C0F6010024211AE044F64510C0F6010091
:1043F0001F2114E00FF2546644F6061203ACC0F617
:104400000102204640210096FBF7CCFF2046FCF736
:1044100065F94FF6FF71884238BF014620463222C7
:10442000FFF712FABC78029E1CB1387810F0FB0F2F
:1044300010D0387A012840F0BE8002F093FC396B2E
:10444000401A00F1B8800020002407F05FFB3C72A6
:10445000B1E000BF4FF00008012087F802807C70B7
:10446000012507F053FB06F59670012C3863A7F879
:10447000075039D144F67400C0F6010012213222EF
:10448000FFF7E2F9F87844F68424387144F6911085
:10449000C0F6010444F61622C0F60100C0F601027F
:1044A000214687F8058009F0A9FA44F69E1044F6E3
:1044B000EA12C0F60100C0F60102214609F09EFA98
:1044C00044F6A11044F6F812C0F60100C0F601024D
:1044D000214609F093FA44F68A1444F62520C0F6E2
:1044E0000104C0F6010059E044F62D10C0F60100A9
:1044F00017213222FFF7A8F943F27430ADF85100CA
:1045000044F6F820C0F6010044F6842A8DF8538062
:10451000D0E90056D0E90248B0F81090C0F6010A80
:104520000DF10C0B0DF1510051465A46CDE90356E1
:104530000594CDF81880ADF81C9009F05FFA43F2AD
:104540007440ADF8510000208DF853000DF151007A
:1045500051465A46CDE90356CDE90548ADF81C90C1
:1045600009F04CFA43F27450ADF8510000208DF878
:104570005300CDE90356029E0DF1510051465A46B3
:10458000CDE90548ADF81C9009F038FA44F69714C7
:1045900044F62B20C0F60104C0F60100002109F00A
:1045A000C9F9204609F006FA032038703E61387ACE
:1045B00001283FF442AF3878042800F093800028A7
:1045C00040F0A280B86A301A00F19A8044F6552073
:1045D000C0F6010009F0EEF944F6842A44F6911081
:1045E000C0F6010A44F61622C0F60100C0F6010228
:1045F000514609F003FA44F69E1044F6EA12C0F65A
:104600000100C0F60102514609F0F8F944F6A11084
:1046100044F6F812C0F60100C0F60102514609F056
:10462000EDF943F27430ADF8510000208DF85300DD
:1046300044F6F820C0F60100D0E90056D0E902485F
:10464000B0F810900DF1510B03AA58465146CDE930
:1046500003560594CDF81880ADF81C90924609F0E9
:10466000CDF943F27440ADF85100002044F68421A6
:104670008DF853005846C0F601015246CDE9035665
:10468000CDE90548ADF81C9009F0B8F943F2745033
:10469000ADF85100002044F684218DF853005846AF
:1046A000C0F601015246CDE90356CDE90548ADF803
:1046B0001C9009F0A3F9002007F028FA44F62B20FB
:1046C000C0F60100002109F035F944F69710C0F654
:1046D000010009F06FF9029800F5FA60B86215B0B0
:1046E000BDE8F08F787A01280AD17878032807D1BD
:1046F0003869301A04D40120F871032038703E6103
:1047000015B0BDE8F08F00BF3969711AF8D40328DD
:1047100036D1F87900284FD0B87A38B907F124009B
:10472000FCF7A4FE0028B87200F0D4800020FCF74B
:10473000D5FF002800F0B2804CF22820C2F2000021
:104740004821FCF724F84CF2E010C2F200004821A6
:10475000FCF71DF8787801280AD14EF66C40C2F2B9
:1047600000004FF40471FCF712F80020B871F862F1
:104770000120FE613870B01C386115B0BDE8F08FC3
:104780000020039003A8FCF73FFD08B30398C1077E
:104790002CD1F869301AB0F5FA6F13D344F67C20A7
:1047A00044F6E211C0F60100C0F60101FFF764F81B
:1047B00015B0BDE8F08F00BF0020387015B0BDE81F
:1047C000F08F00BFB01C386115B0BDE8F08F00BF9E
:1047D00044F65E2044F6CF11C0F60100C0F6010198
:1047E000FFF74AF815B0BDE8F08F00BF4FF6FF7134
:1047F0008843B0F1805F5FD1397840F2DC104CF62D
:104800006C02C2F2000002294FF48051C2F2000291
:1048100008BF1046FCF724FB002865D03878022832
:1048200070D001287FF46CAF4CF2282440F2DC10E9
:10483000C2F20004C2F20000214603F057FF002834
:1048400076D07869411CC7E9051002F08BFAF96946
:10485000401A386201F032F800F078FE002800F0CB
:104860008F8000F001F97878022800F09D800328FD
:1048700000F09F8002F060F86068F8620120FCF7A9
:104880002DFF002800F09C800220387002F06AFAA8
:104890000230386115B0BDE8F08F00BF44F67620D5
:1048A00044F6D811C0F60100C0F60101FEF7E4FF9E
:1048B00015B0BDE8F08F00BF44F63C2044F6C711A8
:1048C000C0F60100C0F60101FEF7D6FF15B0BDE845
:1048D000F08F00BF44F6AD1162A0C0F60101FEF7F3
:1048E000CBFF15B0BDE8F08F44F6312044F6B4118B
:1048F000C0F60100C0F60101FEF7BEFF15B0BDE82D
:10490000F08F00BF787928B1F8780021387179717B
:1049100001E000BF3879FFF719F818B30120B8712A
:1049200002F020FAFFF7BAFA15B0BDE8F08F00BF29
:10493000607802282AD17869411CC7E9051002F085
:1049400011FAF969401A386200F072FF787803288A
:1049500018BF01F09FFA02F005FAFFF79FFA15B0B1
:10496000BDE8F08F44F64320C0F6010044F6BE11C6
:10497000C0F60101FEF780FF15B0BDE8F08F00BF63
:1049800044F66520C0F6010004E000BF44F64C2068
:10499000C0F6010044F6A411C0F60101FEF76CFF59
:1049A00015B0BDE8F08F00BF01F00EF9012001F055
:1049B0000BFB02F0D7F9FFF771FA15B0BDE8F08FE5
:1049C00044F67120C0F60100D0E700BF475F5354A2
:1049D0005245414D2C73746174653D73746F7070F2
:1049E000696E672C61667465723D63757272656E7F
:1049F000745F6672616D650D0A000000475F535475
:104A00005245414D2C73746174653D73746F7070C1
:104A100065640D0A00000000475F53545245414D44
:104A20002C73746174653D69646C650D0A00000047
:104A3000475F53545245414D2C73746174653D6218
:104A40007573792C636D643D430D0A006E6578744F
:104A5000000000006572726F72000000726564727F
:104A600061770000696400002DE9F04F81B02DED01
:104A7000108BFCB04CF2E010C2F2000090ED010A85
:104A80009FEDDD8A20EE080AB5EE400AF1EE10FA3D
:104A900010DD9FEDDA1AB4EE410AF1EE10FA0BDAEE
:104AA000B6EE001A30EE010ABCEEC00A10EE100A93
:104AB00004E000BF002001E04FF0FF3048F21F513A
:104AC000C5F2EB11A0FB01125309642103FB11078E
:104AD00044F6CB2236ACC0F60102204618210097DE
:104AE000FBF760FC4CF2E010C2F2000090ED020A0D
:104AF0009FEDC39A20EE090AB5EE400AF1EE10FAD6
:104B000010DD9FEDBE1AB4EE410AF1EE10FA0BDA99
:104B1000B6EE001A30EE010ABCEEC00A10EE100A22
:104B200004E000BF002001E04FF0FF3044F6D35115
:104B3000C1F26201A0FB011293094FF47A7603FBE4
:104B4000160744F6D52230ADC0F6010228461821DA
:104B50000097FBF727FC4CF2E010C2F2000090ED4A
:104B6000030A20EE090AB5EE400AF1EE10FA0FDD55
:104B70009FEDA21AB4EE410AF1EE10FA0ADAB6EE8F
:104B8000001A30EE010ABCEEC00A10EE100A03E073
:104B9000002001E04FF0FF3044F6D351C1F2620132
:104BA000A0FB0112930903FB160744F6D5222AAE97
:104BB000C0F60102304618210097FBF7F3FB4CF2D8
:104BC000E010C2F2000040F284014078C2F200011D
:104BD0008B690F6ACDE900403CAC0FF6EC02204631
:104BE0004FF48071CDE902560497FBF7DBFB2046BA
:104BF000FBF774FD4FF6FF71884238BF014620462F
:104C00003222FEF721FE4CF22826C2F20006B178CD
:104C10009FEDBCAA41B1304610F8182F012A0BD1E4
:104C20000121079153E000BF44F637270020C0F66A
:104C30000107079084E000BF44F6372706F13800EB
:104C40004B420222C0F601079E18012E1ED010F81A
:104C5000105C012D22D0CEB10578012D26D0751C17
:104C600014D0057C012D27D002360FD090F820609B
:104C70000432012E00F14000E6D1023A00238A42BC
:104C800038BF0123079320381DE000BF00204CF2FD
:104C900028260790C2F2000652E000BF013A002326
:104CA00010388A4238BF012307930CE000238A4260
:104CB00038BF0123079306E0013200238A4238BF40
:104CC0000123079310304CF22826C2F2000690ED23
:104CD000030A9FEDDA1A9FEDDA2A20EE010A30EE80
:104CE00002AAB5EE40AAF1EE10FA1DDA9FEDD50A40
:104CF0003AEE00AAB5EE40AAF1EE10FA14DA3AEE56
:104D000000AAB5EE40AAF1EE10FA0DDA3AEE00AACA
:104D1000B5EE40AAF1EE10FA06DA3AEE00AAB5EEC8
:104D200040AAF1EE10FAE3DB9FEDC60AB4EE40AA0A
:104D3000F1EE10FA80F25C8144F69417C0F6010798
:104D400040F28400C2F2000083690FF2B8723CA8FE
:104D50004FF480710097FBF725FB002800F1AD832D
:104D60000546B078002800F03A81FF2D00F2378127
:104D70009FEDB2BA9FEDB2CA9FEDB2DA9FED61EA44
:104D80009FEDB1FADFEDB18ADFEDB19ADFED1BAA3D
:104D90004FF00008F6EE00BA4FF064090DF1900AEA
:104DA0000DF1780B06EB081090ED090A20EE0B0AC6
:104DB00030EE0C0AB5EE400AF1EE10FA24DA30EECD
:104DC0000D0AB5EE400AF1EE10FA1DDA30EE0D0ACA
:104DD000B5EE400AF1EE10FA16DA30EE0D0AB5EE35
:104DE000400AF1EE10FA0FDA30EE0D0AB5EE400A85
:104DF000F1EE10FAE3DB07E00000C842FFFF7F4F4F
:104E000000007A4430EE290AB4EE4D0AF1EE10FAB1
:104E100014DB30EE290AB4EE4D0AF1EE10FA0DDB88
:104E200030EE290AB4EE4D0AF1EE10FA06DB30EE50
:104E3000290AB4EE4D0AF1EE10FAE3DA00F1180493
:104E40000798F0EE4ECA002846D0207801EE100AEE
:104E5000B8EE411A21EE0A1A70EE41CAF4EE4FCABA
:104E6000F1EE10FA1EDC7CEE8DCAF4EE4FCAF1EEC4
:104E700010FA17DC7CEE8DCAF4EE4FCAF1EE10FA90
:104E800010DC7CEE8DCAF4EE4FCAF1EE10FA09DCAC
:104E90007CEE8DCAF4EE4FCAF1EE10FAE3DD01E0CC
:104EA0007CEEA9CAF4EE68CAF1EE10FA14DD7CEECD
:104EB000A9CAF4EE68CAF1EE10FA0DDD7CEEA9CABB
:104EC000F4EE68CAF1EE10FA06DD7CEEA9CAF4EE43
:104ED00068CAF1EE10FAE3DC20EE080AB5EE400AEB
:104EE000F1EE10FA10DDB4EE6A0AF1EE10FAAFBF7F
:104EF0004FF0FF3030EE2B0ABCEEC00A10EE100A65
:104F000003E000BF00000000002048F21F51C5F27E
:104F1000EB11A0FB0112530903FB190744F6CB2246
:104F200050461421C0F601020097FBF73BFAB0EEA1
:104F3000EC0AF5EE40CA20EE080AF1EE10FA4FF046
:104F40002B03B5EE400AB8BF2D23F1EE10FA0DDDAC
:104F5000B4EE6A0AF1EE10FAAFBF4FF0FF3030EE58
:104F60002B0ABCEEC00A10EE100A00E0002048F246
:104F70001F51C5F2EB11A0FB0112570907FB1906DF
:104F800044F6C92258461421C0F60102CDE9007644
:104F9000FBF708FA3CA82378C5F58074284421461D
:104FA0000FF28452CDE900ABFBF7FCF9A0424FF0C1
:104FB000FF0138BF4119B0F1FF3FC8BF0D460028BF
:104FC00048D44CF22826A042C2F2000607D2B0789C
:104FD00008F10108804502D2FF297FF6E3AEFD2DDE
:104FE0003ED83CA8284440F60D2120F8021B3DE0A5
:104FF0009FED171A44F69417C0F601073AEE01AA7E
:10500000B4EE40AAF1EE10FAFFF69AAE3AEE01AA1B
:10501000B4EE40AAF1EE10FAFFF692AE3AEE01AA13
:10502000B4EE40AAF1EE10FAFFF68AAE3AEE01AA0B
:10503000B4EE40AAF1EE10FAE0DA81E6E12E654224
:105040000000B4420000B443000034C30000344305
:105050000000B4C34CF22826C2F20006FD2DC0D9D0
:1050600040F60D20ADF8ED013CA8FF3000213CAC2E
:1050700001702046FBF732FB4FF6FF71884238BFC4
:10508000014620463222FEF7DFFBB078002800F010
:1050900014824CF2E010C2F200004078002800F0C8
:1050A0000C821FED1ABA1FED1ACA1FED1ADA1FED96
:1050B0006BEA1FED1BFA5FED1B8A5FED1B9A5FED3C
:1050C000B1AADFEDBDCA4FF0000AF6EE00BA4FF00C
:1050D000640B0DF120080DF1F0094FF6FF7700BFCA
:1050E00006EB0A1090ED090A20EE0B0A70EE0CDABE
:1050F000F5EE40DAF1EE10FA1EDA7DEE8DDAF5EE1D
:1051000040DAF1EE10FA17DA7DEE8DDAF5EE40DADC
:10511000F1EE10FA10DA7DEE8DDAF5EE40DAF1EE0E
:1051200010FA09DA7DEE8DDAF5EE40DAF1EE10FADA
:10513000E3DB01E07DEEA9DAF4EE4DDAF1EE10FAF0
:1051400014DB7DEEA9DAF4EE4DDAF1EE10FA0DDBA8
:105150007DEEA9DAF4EE4DDAF1EE10FA06DB7DEE23
:10516000A9DAF4EE4DDAF1EE10FAE3DA00F1180400
:105170000798F0EE4EEA002846D0207800EE100A9C
:10518000B8EE400A20EE0A0A7DEEC0EAF4EE4FEADD
:10519000F1EE10FA1EDC7EEE8DEAF4EE4FEAF1EE4F
:1051A00010FA17DC7EEE8DEAF4EE4FEAF1EE10FA1B
:1051B00010DC7EEE8DEAF4EE4FEAF1EE10FA09DC37
:1051C0007EEE8DEAF4EE4FEAF1EE10FAE3DD01E057
:1051D0007EEEA9EAF4EE68EAF1EE10FA14DD7EEE56
:1051E000A9EAF4EE68EAF1EE10FA0DDD7EEEA9EA26
:1051F000F4EE68EAF1EE10FA06DD7EEEA9EAF4EECE
:1052000068EAF1EE10FAE3DC4CF2E01094ED020AE9
:10521000C2F2000000EB0A10B5EE400A00F11805DA
:10522000F1EE10FAF0EE4EFA05DD95ED021A81EE80
:10523000000A70EE00FA94ED010A20EE080AB5EEBD
:10524000400AF1EE10FA0DDDB4EE6A0AF1EE10FA42
:10525000AFBF4FF0FF3030EE2B0ABCEEC00A10EEAD
:10526000100A00E0002048F21F51C5F2EB11A0FB2C
:105270000112530903FB1B0644F6CB2224A8182174
:10528000C0F601020096FBF78DF894ED020A20EEBD
:10529000090AB5EE400AF1EE10FA0DDDB4EE6A0A25
:1052A000F1EE10FAAFBF4FF0FF3030EE2B0ABCEE3C
:1052B000C00A10EE100A00E0002044F6D351C1F2FB
:1052C0006201A0FB011293094FF47A7103FB1106EE
:1052D00044F6D5221EA81821C0F601020096FBF75D
:1052E00061F82FEEAC0AB5EE400AF1EE10FA0DDDD2
:1052F000B4EE6A0AF1EE10FAAFBF4FF0FF3030EEB5
:105300002B0ABCEEC00A10EE100A00E0002043F6A3
:105310008931C5F2E651A0FB01124EF20011530E85
:10532000C0F2F55103FB110618A8182184A20096BB
:10533000FBF738F895ED020A20EE090AB5EE400AAF
:10534000F1EE10FA0EDDB4EE6A0AF1EE10FAAFBF1C
:105350004FF0FF3030EE2B0ABCEEC00A10EE100A00
:1053600001E000BF002044F6D351C1F26201A0FB6E
:10537000011293094FF47A7103FB110644F6D5220A
:1053800012A81821C0F601020096FBF70BF82DEECB
:10539000880AB5EE400AF1EE10FA0FDDB4EE6A0AA3
:1053A000F1EE10FAAFBF4FF0FF3030EE2B0ABCEE3B
:1053B000C00A10EE100A02E020BCBE4C002048F2E9
:1053C0001F51C5F2EB11A0FB0112530903FB1B0691
:1053D00044F6CB220DA81421C0F601020096FAF77C
:1053E000E1FFB0EEEE0AF5EE40EA20EE080AF1EE3B
:1053F00010FA4FF02B03B5EE400AB8BF2D23F1EEA3
:1054000010FA0DDDB4EE6A0AF1EE10FAAFBF4FF0FC
:10541000FF3030EE2B0ABCEEC00A10EE100A00E09E
:10542000002048F21F51C5F2EB11A0FB01125609F2
:1054300006FB1B0544F6C92240461421C0F60102B2
:10544000CDE90065FAF7AEFF40F28400C2F2000039
:105450008369207844F68702009024A801901EA852
:10546000029018A8039012A804900DA80590484631
:105470004FF48071C0F60102CDF81880FAF792FF60
:105480004846FBF72BF90146B84248464FF0320236
:1054900028BF3946FEF7D8F94CF22826C2F200069A
:1054A000B0780AF1010A824507D24CF2E010C2F24C
:1054B000000040788245FFF413AE7CB0BDEC108B49
:1054C00001B0BDE8F08F00BF475F43414C2C7365CE
:1054D000713D256C752C66303D2573487A2C6E3DE8
:1054E00025752C7570703D25736D562C75726D7316
:1054F0003D25736D562C745F6D733D256C750D0ADB
:1055000000000000475F50484153452C7365713DD2
:10551000256C752C62617369733D73696E2C7265BD
:10552000663D2573000000002C6825753D257364D9
:1055300065673A72656C3D2573646567000000001D
:10554000256C752E2530386C750000002DE9F0476C
:105550002DED048BC4B0FCF7F1F94CF2E01A0146D2
:105560004CF22820C2F2000AC2F200005246FCF7B8
:10557000F5FD40F28401C2F200018B69F0B19AEDB1
:10558000010AB5EE400AF1EE10FA1FDD9FED891A0F
:10559000B4EE410AF1EE10FA38DAB6EE001A30EE47
:1055A000010ABCEEC00A10EE100A9AED020AB5EE2E
:1055B000400AF1EE10FA11DC31E000BF91A204A81C
:1055C0004FF48071FAF7EEFE0024E0E000209AED3F
:1055D000020AB5EE400AF1EE10FA20DD9FED751AD1
:1055E000B4EE410AF1EE10FA32DAB6EE001A30EEFD
:1055F000010ABCEEC00A10EE101A9AED030AB5EECD
:10560000400AF1EE10FA12DC2BE000BF4FF0FF3041
:105610009AED020AB5EE400AF1EE10FADEDC002146
:105620009AED030AB5EE400AF1EE10FA19DD9FED8E
:10563000611AB4EE410AF1EE10FA15DAB6EE001A6C
:1056400030EE010ABCEEC00A10EE102A0EE000BFD8
:105650004FF0FF319AED030AB5EE400AF1EE10FA71
:10566000E5DC002202E000BF4FF0FF329AF8017043
:105670000DF110098DE807004FA248464FF48071E4
:105680000397FAF78FFE002870D406469AF80100B7
:10569000002861D0FF2E5FD89FED468A0AF12005D1
:1056A0000124B6EE009A0FF2481800BF15ED010A6A
:1056B00015F8083CB5EE400AF1EE10FA16DDB4EE2E
:1056C000480AF1EE10FAAFBF4FF0FF3C30EE090A86
:1056D000BCEEC00A10EE10CA95ED000AB5EE400A05
:1056E000F1EE10FA0BDC4FF0000E15E04FF0000C5D
:1056F00095ED000AB5EE400AF1EE10FAF3DDB4EED6
:10570000480AF1EE10FAAFBF4FF0FF3E30EE090A43
:10571000BCEEC00A10EE10EAC6F5807709EB060071
:1057200039464246CDE900CEFAF73CFEB8424FF08A
:10573000FF0138BF8119B0F1FF3FC8BF0E460028F6
:105740000AD4B84208D29AF80100844204D2103533
:10575000FF2904F10104A9D9FD2E0FD809EB060099
:1057600040F60D2120F8021B0EE000BF0024204669
:1057700044B0BDEC048BBDE8F08700BF40F60D20BF
:10578000ADF80D0109F1FF0000210124017004AD05
:105790002846FAF7A3FF4FF6FF71884238BF01464B
:1057A00028463222FEF750F8204644B0BDEC048B68
:1057B000BDE8F087FFFF7F4F475F4D4541532C7396
:1057C00065713D256C752C63616C3D312C66303DF7
:1057D000256C75487A2C7570703D256C756D562C4E
:1057E00075726D733D256C756D562C6E3D2575007B
:1057F0002C6825753D256C75487A3A256C756D5673
:1058000000000000475F4D4541532C7365713D25F5
:105810006C752C63616C3D302C726561736F6E3DED
:105820006E6F5F6D765F7461626C650D0A000000DB
:1058300010B5A4B040F28400C2F200008369006A8F
:105840000021B0F5FA6F98BF012104AC4FF0100CA5
:10585000CDE900010AA220468021CDF808C0FAF760
:10586000A1FD2046FAF73AFF4FF6FF71884238BF94
:10587000014620463222FDF7E7FF24B010BD00BFED
:10588000475F464C4F572C6E6F5F7369676E616C54
:105890002C7365713D256C752C745F6D733D256CA3
:1058A000752C756E64657232733D25752C74687243
:1058B0006573686F6C643D25750D0A002DE9F04F26
:1058C00081B02DED048BC6B04CF22829C2F200093C
:1058D00040F2840099ED010AC2F200008369B5EE3E
:1058E000400AF1EE10FA0FDD9FEDAB1AB4EE410A5B
:1058F000F1EE10FA0ADAB6EE001A30EE010ABCEE4A
:10590000C00A10EE101A03E0002101E04FF0FF3151
:1059100099ED020A99F80220B5EE400AF1EE10FA6C
:1059200010DD9FED9D1AB4EE410AF1EE10FA0BDA8C
:10593000B6EE001A30EE010ABCEEC00A10EE107A84
:1059400004E000BF002701E04FF0FF3799ED030AA4
:105950000026B5EE400AF1EE10FA4FF0000511DD19
:105960009FED8D1AB4EE410AF1EE10FA08DAB6EEA8
:10597000001A30EE010ABCEEC00A10EE105A01E027
:105980004FF0FF35006A0DF11808B0F5FA6F98BFB7
:1059900001268DE8860044F68822CDE90350C0F642
:1059A000010240464FF480710596FAF7FBFC00288F
:1059B00000F1EB80834699F80200002863D0BBF128
:1059C000FF0F60D89FED748A09F120040126B6EE1E
:1059D000009A0FF2C81A00BF14ED010A14F8083C2F
:1059E000B5EE400AF1EE10FA16DDB4EE480AF1EE1B
:1059F00010FAAFBF4FF0FF3C30EE090ABCEEC00A10
:105A000010EE10CA94ED000AB5EE400AF1EE10FA5D
:105A10000BDC002516E000BF4FF0000C94ED000AEF
:105A2000B5EE400AF1EE10FAF3DDB4EE480AF1EEFD
:105A300010FAAFBF4FF0FF3530EE090ABCEEC00AD6
:105A400010EE105ACBF5807708EB0B003946524622
:105A5000CDE900C5FAF7A6FCB8424FF0FF0138BF08
:105A600000EB0B01B0F1FF3FC8BF8B4600280AD402
:105A7000B84208D299F80200864204D21034FF29B5
:105A800006F10106A8D9BBF1FF0F69D899F80310F8
:105A900008EB0B00CBF58076F1B199ED040AB5EE79
:105AA000400AF1EE10FA21DD9FED3B1AB4EE410AF7
:105AB000F1EE10FA32DAB6EE001A30EE010ABCEE60
:105AC000C00A10EE103A99ED050AB5EE400AF1EE63
:105AD00010FA13DC2BE000BF38A23146FAF762FC63
