:020000040800F2
:10000000D8DC002071020008015B0008195A0008C2
:10001000FD5A00082D090008C98E000800000000E4
:10002000000000000000000000000000DD5C00088F
:100030003109000800000000055B00087985000810
:100040008B0200088B0200088B0200088B0200085C
:100050008B0200088B0200088B0200088B0200084C
:100060008B0200088B0200088B0200088B0200083C
:100070008B0200088B0200088B0200088B0200082C
:100080008B0200088B0200088B0200088B0200081C
:100090008B0200088B0200088B0200088B0200080C
:1000A0008B0200088B0200088B0200088B020008FC
:1000B0008B0200088B0200088B0200088B020008EC
:1000C0008B0200088B0200088B0200088B020008DC
:1000D0008B020008BD8E00088B0200088B0200080E
:1000E0008B0200088B0200088B0200088B020008BC
:1000F0008B0200088B0200088B0200088B020008AC
:100100008B0200088B0200088B0200088B0200089B
:10011000658C00088B0200088B0200088B02000827
:100120008B0200088B0200088B0200088B0200087B
:100130008B0200088B0200088B0200088B0200086B
:100140008B0200088B0200088B0200088B0200085B
:100150008B0200088B0200088B0200088B0200084B
:100160008B0200088B0200088B0200088B0200083B
:100170008B0200088B0200088B02000800000000C0
:100180008B0200088B02000800F002F800F060F813
:1001900014A696E8000CB244B344DA4501D100F04D
:1001A00057F8BAE80F000FA696E83000A5EB040553
:1001B00004EB0607AAEB0704A7F101074FEA1515A0
:1001C0004FEA3414A4F10104AC4201D300F040F82A
:1001D00013F0010F18BFFB1A43F0010300F001F800
:1001E000DBE71847CC880200EC880200103A24BFF5
:1001F00078C878C1FAD8520724BF30C830C144BF8C
:1002000004680C6070470000704700000023002461
:1002100000250026103A28BF78C1FBD8520728BF16
:1002200030C148BF0B607047642900F029817529EF
:1002300000F02681782900F05F81732900F0348373
:10024000002070471FB50BF098F81FBD10B510BD0A
:1002500000F036FB1146FFF7F5FF0AF0ADFA00F0AB
:1002600054FB03B4FFF7F2FF03BC00F057FB0000A0
:100270000948804709480047FEE7FEE7FEE7FEE73A
:10028000FEE7FEE7FEE7FEE7FEE7FEE70448054976
:10029000054A064B704700002586000889010008C2
:1002A000D8CA0020D8DC0020D8CC0020D8CC002030
:1002B00053EA020C00F069802DE9F04B4FF0000684
:1002C000002B1FBFB3FA83F503FA05F424FA05F6F1
:1002D0005E4012BF1643B2FA82F502FA05F4C5F188
:1002E00020051EBF22FA05FC44EA0C04203556EA1C
:1002F000044C4FEA144418BF641C4FF000084FF040
:100300000009904271EB030C39D3002919BFB1FAEF
:1003100081F701FA07F6B0FA80F700FA07F6C7F19D
:1003200020071EBF20FA07FC46EA0C062037B6FB62
:10033000F4FCA7EB0507103F07F01F0BCBF12006DD
:100340002CFA06F60CFA0BFB44BFB3460026202F0E
:10035000A4BF5E464FF0000B5BEA060C08BF4FF0EF
:10036000010B19EB0B0948EB0608ABFB027C06FB03
:1003700002CC0BFB03CCC01B71EB0C01C1E70B469D
:10038000024641464846BDE8F08B13B5084318BF06
:100390004FF0FF300146AFF30080BDE81C407047CE
:1003A0000FB41CB50C0007AA009007D04142A1422F
:1003B00002D32044401E01E04FF0FF30074B7B4446
:1003C00069460190069800F042FA0021002C01D005
:1003D000009A11701CBC5DF814FB0000B30400000F
:1003E00070B5044685690068C10601D5302600E075
:1003F0002026C00707D070BDD4E9012130469047C0
:10040000206A401C20626D1EF6D570BD70B5044692
:1004100085690078C00707D170BDD4E9012120208B
:100420009047206A401C20626D1EF6D570BD70B5E5
:100430000C460546012A05D02878800600D5EA69D1
:10044000002302E0012305E05B1C934202D2E05C42
:100450000028F9D1A869E618C01AA861286A1844CA
:1004600028622846FFF7BCFF04E0D5E9012114F813
:10047000010B9047B442F8D32846FFF7C7FF70BD81
:100480002DE9F0410646002410687529314616A56D
:1004900010D0AFF30080002802DA404213A507E035
:1004A00031688A0701D512A502E0490704D511A5D4
:1004B000012401E0AFF3008000210A2206F12407A5
:1004C00009E0B0FBF2FCB0FBF2F302FB1C003030A1
:1004D00078541846491C0028F3D123462A46304652
:1004E000BDE8F04100F054B9000000002D0000000C
:1004F0002B0000002000000070B504460D46214688
:100500001068AFF300802188090502D50F4A7A44AC
:1005100002E00E4A7A440E32002104F1240305E081
:1005200000F00F060009965D5E54491C0028F7D1C3
:1005300020780023000704D5702D02D009B10223D2
:1005400011322046BDE8704000F022B9E2AE000052
:100550002DE9F05F894604464FF0000ADFF874B1D8
:10056000FB44C0F820A02046E1688847002874D0EA
:10057000252806D0D4E901219047206A401C20623A
:10058000F1E700265F462046E168884720280546B7
:1005900007DB312D05D2781910F8200C08B106437D
:1005A000F1E7B00701D526F00406C4F81CA0002727
:1005B000C4F818A02A2D09D028460AF091FE38B3B5
:1005C00004EB8708303DC8F8185019E059F8041BAF
:1005D000204604EB87029161E1688847012F0546B8
:1005E00018D1E069002820DA26F020061DE0D8F8AE
:1005F000180000EB800005EB40003038C8F8180008
:100600002046E168884705460AF06AFE0028EED1D8
:10061000012F0AD02E2D08D12046E16888477F1C83
:100620000546022F46F02006C4DBA069002803DA45
:10063000404246F00106A061F00701D026F0100606
:100640006C2D0BD0682D09D04C2D39D06A2D35D0AA
:10065000742D35D07A2D33D016E038E0E1682F467E
:1006600020468847B842054609D16C2F26D04FF462
:100670008060E168064320468847054604E06C2F09
:100680001AD04FF4807006430DB3A5F1410019282C
:1006900002D8203546F400664A46294620462660A0
:1006A0004E46FFF7C1FD80B101280BD0F61D26F0A4
:1006B000070000F1080956E74020E4E78020D8E76A
:1006C0000020D6E706F104094DE7284652E7206AE4
:1006D000BDE8F09FB8AE000010B5431C02E010F872
:1006E000011B71B18107FAD14FF0013202C88C1A97
:1006F0008C4314EAC211F9D0C01A0A0603D0C01EF6
:1007000010BDC01A10BD0A0401D0801E10BD090220
:10071000FCD0401E10BD02F0FF0343EA032242EA70
:10072000024200F002B84FF0000200B513469446B2
:100730009646203922BFA0E80C50A0E80C50B1F139
:100740002001BFF4F7AF090728BFA0E80C5048BF4D
:100750000CC05DF804EB890028BF40F8042B08BFEB
:10076000704748BF20F8022B11F0804F18BF00F8E7
:10077000012B704770477047704710B500F098F82C
:10078000006810BD10B5044600F092F8046010BD7A
:100790002DE9F0470D4699469246044600F124089B
:1007A0000168880604D5E06921F01001216000E0AD
:1007B0000120A84201DD471B00E00027A1697A194A
:1007C00002EB0900081AA0612078C00602D4204676
:1007D000FFF706FE002608E0D4E901211AF806001A
:1007E0009047206A401C761C20624E45F4DB20783E
:1007F000C0060AD52046FFF7F3FD06E0D4E9012143
:1008000030209047206A401C2062381EA7F1010763
:10081000F4DC07E0D4E9012118F805009047206ACC
:10082000401C2062281EA5F10105F3DC2046FFF7DD
:10083000EDFD2078000602D50220BDE8F0870120FA
:10084000FBE7000001694A1C02610878704700B5A7
:100850008FB0CDE901310021059105497944CDE9F9
:10086000031011466846FFF773FE0FB000BD00008D
:10087000E5FFFFFFD1E900239A4202D2531C0B602F
:100880001070704710B5436913B1AFF3008001E0F9
:10089000FFF7CDFD012010BD127800F124010A7090
:1008A00000224A700122EDE711684FF0FF32E9E7BC
:1008B00000487047100000200048704710000020DA
:1008C0007546FFF7F9FFAE4605006946534620F02E
:1008D0000700854618B020B5FFF7D8FCBDE82040DA
:1008E0004FF000064FF000074FF000084FF0000BEC
:1008F000AC46ACE8C009ACE8C009ACE8C009ACE85B
:10090000C00921F007018D46704710B50446AFF3CA
:1009100000802046BDE81040FFF7A3BC0149182025
:10092000ABBEFEE72600020070470000FEE70000B5
:100930007047000072B600BFFEE700002DE9F041ED
:1009400086B0002643F630000496CDE90266CDE974
:1009500000660596C4F202000168002441F001011E
:1009600001600068C4F2020400F0010005900598DF
:1009700041F20405204610210122CEF200054FF07D
:100980001008012703F0E2FC03200390694620468B
:10099000CDE90087029603F009FC4EF6FC50CEF23A
:1009A0000000016841F0807101602E6055F8040C70
:1009B00042F2182140F0010045F8040C55F8040CEF
:1009C000C2F2000110F00100087017D1402005901C
:1009D0000598411E0591C8B300BF0598411E0591B9
:1009E000A0B300BF0598411E059178B300BF0598DC
:1009F000411E059150B300BFEAE700BF40F2080076
:100A0000C2F2000000684DF68361C4F21B31A0FB06
:100A1000010128682B686FF0010202EA51411A1A9D
:100A20008A4213D200BF2A68121A8A420ED200BF2D
:100A30002A68121A8A4209D200BF2A68121A8A4208
:100A400004D200BF2A68121A8A42EBD306B0BDE86E
:100A5000F08100002DE9F04184B0002041F204054E
:100A6000C4F2020010210122CEF2000503F06EFC58
:100A700042F21826C2F20006307840F208084DF61D
:100A800083670028C2F20008C4F21B3760D0D8F890
:100A90000000A0FB070128682A68890C01EB81018E
:100AA000121AB2EB410F15D2490000BF00BF2A68ED
:100AB000121A8A420ED200BF2A68121A8A4209D23A
:100AC00000BF2A68121A8A4204D200BF2A68121A8A
:100AD0008A42EBD340F27814C2F20004204603F0BD
:100AE000E1FF2068016821F04001016000210191CF
:100AF000C1680191816801910199016841F040014B
:100B000001603078002841D0D8F800006FF0010271
:100B1000A0FB070128682B6802EA51411A1A8A4291
:100B200013D200BF2A68121A8A420ED200BF2A6866
:100B3000121A8A4209D200BF2A68121A8A4204D2C3
:100B400000BF2A68121A8A42EBD304B0BDE8F081D4
:100B50004FF4A070029000BF0298411E002802913D
:100B6000B8D000BF0298411E00280291B2D000BF49
:100B70000298411E00280291ACD000BF0298411E8D
:100B800000280291A6D000BFE6E700BF40200390F6
:100B90000398411E00280391D7D000BF0398411E3F
:100BA00000280391D1D000BF0398411E0028039173
:100BB000CBD000BF0398411E00280391C5D000BFD1
:100BC000E6E700002DE9F04784B00C4640F200084B
:100BD0000021C4F202080191010C164641F20407FB
:100BE000ADF80810ADF80A00404610210122CEF2FF
:100BF000000703F0ABFB42F21825C2F2000528788B
:100C000040F2080A4DF683690028C2F2000AC4F2D5
:100C10001B3900F08980DAF800006FF00102A0FBB8
:100C2000090138683B6802EA51411A1A8A4213D214
:100C300000BF3A68121A8A420ED200BF3A68121AEE
:100C40008A4209D200BF3A68121A8A4204D200BF0F
:100C50003A68121A8A42EBD340461021002203F070
:100C600075FB287800287DD0DAF80000A0FB090188
:100C700038683A68121AB2EB914F15D2890C00BF4E
:100C800000BF3A68121A8A420ED200BF3A68121A9E
:100C90008A4209D200BF3A68121A8A4204D200BFBF
:100CA0003A68121A8A42EBD340F27810C2F200007E
:100CB00002A901AA0223009604F076F829780646D4
:100CC00000296BD0DAF80000A0FB090138683A6807
:100CD000121AB2EB914F15D2890C00BF00BF3A68CF
:100CE000121A8A420ED200BF3A68121A8A4209D2F8
:100CF00000BF3A68121A8A4204D200BF3A68121A38
:100D00008A42EBD340461021012203F01FFB002E44
:100D100060D0FFF79FFE0020002C4FF0000161D152
:100D200004B0BDE8F08700BF402003900398411E47
:100D30000028039190D000BF0398411E0028039122
:100D40003FF48AAF00BF0398411E002803913FF48F
:100D500083AF00BF0398411E002803913FF47CAF8E
:100D600000BFE3E7202003900398411E0028039171
:100D70009AD000BF0398411E0028039194D000BF71
:100D80000398411E002803918ED000BF0398411E96
:100D9000002803913FF488AF00BFE5E720200390CF
:100DA0000398411E00280391ACD000BF0398411E58
:100DB00000280391A6D000BF0398411E002803918C
:100DC000A0D000BF0398411E002803919AD000BF15
:100DD000E6E700BF64B1BDF80400BDF8061041EAC3
:100DE000004001212060084604B0BDE8F08700BF44
:100DF000012004B0BDE8F0872DE9F04F83B08246B2
:100E000000284FF0000000F0658141F201028A1ACB
:100E100012F5805FC0F05E81CDE900104FF0085000
:100E200000210A22FFF7CEFE90B3009802281ED3BD
:100E3000009801264442C2F2002601AF4FF6FF7B24
:100E4000554600BF304639460A22FFF7BBFEF8B1CF
:100E50000198002220EA0B01C5F24132914217D1DC
:100E60000136A119B1F1085F25F8020BEAD101A9F9
:100E700000200A22FFF7A6FE50B101984FF6FF713D
:100E8000002220EA0101C5F24132914200F0E480E3
:100E900041F20407CEF20007FFF7DCFD42F2182012
:100EA000C2F2000000784DF68361002840F208008D
:100EB000C2F20000C4F21B3100F010810068A0FBF8
:100EC000010138683A68890C01EB8101121AB2EB12
:100ED000410F15D2490000BF00BF3A68121A8A427A
:100EE0000ED200BF3A68121A8A4209D200BF3A688D
:100EF000121A8A4204D200BF3A68121A8A42EBD30D
:100F0000002001904FF0085000210A22FFF75AFEFE
:100F100098B30098022820D300984FF00009441E8F
:100F20004FF4083501AE4FF6FF7800BF09F1010B11
:100F3000584665F31F3031460A22FFF743FEE0B101
:100F40000198002220EA0801C5F24132914214D1F1
:100F50002AF819005C45D946E8D101A900200A22E7
:100F6000FFF730FE48B101984FF6FF71002220EAEA
:100F70000101C5F2413291426ED0FFF76BFD42F2A2
:100F80001820C2F200000078002800F0C98040F26A
:100F90000800C2F2000000684DF68361C4F21B3104
:100FA000A0FB010138683A68890C01EB8101121A33
:100FB000B2EB410F14D2490000BF3A68121A8A42BC
:100FC0000ED200BF3A68121A8A4209D200BF3A68AC
:100FD000121A8A4204D200BF3A68121A8A42EBD32C
:100FE000002001904FF0085000210A22FFF7EAFD8F
:100FF000E0B3009802281FD300980026441E4FF447
:10100000083B0DF104094FF6FF7800BF751C284618
:101010006BF31F3049460A22FFF7D4FD30B3019825
:10102000002220EA0801C5F2413291421ED12AF87D
:101030001600AC422E46E9D101A900200A22FFF792
:10104000C1FD98B101984FF6FF71002220EA01011D
:10105000C5F24132914209D100990AEB410121F8D0
:10106000020C012003B0BDE8F08F00BFFFF7F2FCD7
:1010700042F21820C2F200000078002872D040F23C
:101080000800C2F2000000684DF68361C4F21B3113
:10109000A0FB0101880C39683A6800EB8000521A05
:1010A000B2EB400F78D2420000BF3868401A90423D
:1010B00072D200BF3868401A90426DD200BF3868C3
:1010C000401A904268D200BF3868401A90424FF0F0
:1010D0000000E9D303B0BDE8F08F00BF4FF4A0706B
:1010E000029000BF0298411E002802913FF408AF11
:1010F00000BF0298411E002802913FF401AF00BFDB
:101100000298411E002802913FF4FAAE00BF0298F7
:10111000411E002802913FF4F3AE00BFE2E700BF9A
:101120004FF4A070029000BF0298411E0028029167
:101130003FF456AF00BF0298411E002802913FF4D1
:101140004FAF00BF0298411E002802913FF448AF04
:1011500000BF0298411E002802913FF441AF00BF3A
:10116000E2E700BF4FF4A070029000BF0298411E5A
:10117000029188B100BF0298411E029160B100BF88
:101180000298411E029138B100BF0298411E02919F
:1011900010B100BFEAE700BF002003B0BDE8F08F48
:1011A0002DE9F04182B004460020002C009000F0B0
:1011B000C58020604FF0045000210A22FFF702FD95
:1011C00060B1694600200A22FFF7FCFC30B10098AC
:1011D00020F00701B1F1805F00F0838042F2182611
:1011E000C2F20006307841F2040540F208084DF6DC
:1011F0008367CEF200050028C2F20008C4F21B3754
:1012000000F0A080D8F80000A0FB070128682A6839
:10121000890C01EB8101121AB2EB410F14D2490083
:1012200000BF2A68121A8A420ED200BF2A68121A18
:101230008A4209D200BF2A68121A8A4204D200BF29
:101240002A68121A8A42EBD34FF0045000210A2276
:10125000FFF7B8FC58B1694600200A22FFF7B2FC3C
:1012600028B1009820F00701B1F1805F39D03078C3
:10127000002800F08980D8F80000A0FB070128684A
:101280002A68890C01EB8101121AB2EB410F15D2C9
:10129000490000BF00BF2A68121A8A420ED200BF5E
:1012A0002A68121A8A4209D200BF2A68121A8A4290
:1012B00004D200BF2A68121A8A42EBD34FF00450BE
:1012C00000210A22FFF77EFC80B1694600200A2235
:1012D000FFF778FC50B1009820F00701B1F1805F72
:1012E00004D12060012002B0BDE8F08130780028F0
:1012F0006AD0D8F80000A0FB0701880C29682A688A
:1013000000EB8000521AB2EB400F77D2420000BFD0
:1013100000BF2868401A904270D200BF2868401A67
:1013200090426BD200BF2868401A904266D200BF3C
:101330002868401A90424FF00000E9D302B0BDE89F
:10134000F08100BF4FF4A070019000BF0198411ED2
:10135000002801913FF478AF00BF0198411E00289A
:1013600001913FF471AF00BF0198411E0028019127
:101370003FF46AAF00BF0198411E002801913FF47D
:1013800063AF00BFE2E700BF4FF4A070019000BF61
:101390000198411E0028019190D000BF0198411E84
:1013A000002801913FF48AAF00BF0198411E002838
:1013B00001913FF483AF00BF0198411E00280191C5
:1013C0003FF47CAF00BFE3E74FF4A070019000BF93
:1013D0000198411E019188B100BF0198411E019101
:1013E00060B100BF0198411E019138B100BF019862
:1013F000411E019110B100BFEAE700BF002002B01A
:10140000BDE8F0812DE9F04182B004460020002CB7
:10141000009018BF20604FF0005000210A22FFF713
:10142000D1FB58B1694600200A22FFF7CBFB28B157
:10143000009840F2D241884200F0808042F21826A3
:10144000C2F20006307841F2040540F208084DF679
:101450008367CEF200050028C2F20008C4F21B37F1
:1014600000F0A280D8F80000A0FB070128682A68D5
:10147000890C01EB8101121AB2EB410F14D2490021
:1014800000BF2A68121A8A420ED200BF2A68121AB6
:101490008A4209D200BF2A68121A8A4204D200BFC7
:1014A0002A68121A8A42EBD34FF0005000210A2218
:1014B000FFF788FB50B1694600200A22FFF782FB44
:1014C00020B1009840F2D241884237D030780028CD
:1014D00000F08C80D8F80000A0FB070128682A687B
:1014E000890C01EB8101121AB2EB410F14D24900B1
:1014F00000BF2A68121A8A420ED200BF2A68121A46
:101500008A4209D200BF2A68121A8A4204D200BF56
:101510002A68121A8A42EBD34FF0005000210A22A7
:10152000FFF750FB90B1694600200A22FFF74AFB03
:1015300060B1009840F2D241884207D1002C4FF0B0
:10154000010018BF216002B0BDE8F08130780028AA
:101550006ED0D8F80000A0FB070128682A68890C23
:1015600001EB8101121AB2EB410F15D2490000BF05
:1015700000BF2A68121A8A420ED200BF2A68121AC5
:101580008A4209D200BF2A68121A8A4204D200BFD6
:101590002A68121A8A42EBD3002C67D000990020E7
:1015A000216002B0BDE8F0814FF4A070019000BF4F
:1015B0000198411E002801913FF476AF00BF0198C9
:1015C000411E002801913FF46FAF00BF0198411EFA
:1015D000002801913FF468AF00BF0198411E002828
:1015E00001913FF461AF00BFE2E700BF4FF4A0708C
:1015F000019000BF0198411E002801913FF48CAF7B
:1016000000BF0198411E002801913FF485AF00BF43
:101610000198411E002801913FF47EAF00BF019860
:10162000411E002801913FF477AF00BFE2E700BF01
:101630004FF4A070019000BF0198411E0028019155
:10164000AAD000BF0198411E00280191A4D000BF7C
:101650000198411E002801919ED000BF0198411EB3
:101660000028019198D000BFE6E700BF002002B03B
:10167000BDE8F0812DE9F04383B045F245664FF0B7
:1016800044540028C5F241764FF0000008BF4FF0E7
:10169000405404BF44F65946C4F24E160190204609
:1016A00000210A22FFF78EFA40B101A900200A2288
:1016B000FFF788FA10B10198B0427AD042F21827A9
:1016C000C2F20007387841F2040540F208094DF6ED
:1016D0008368CEF200050028C2F20009C4F21B386C
:1016E00000F09880D9F80000A0FB080128682A685B
:1016F000890C01EB8101121AB2EB410F14D249009F
:1017000000BF2A68121A8A420ED200BF2A68121A33
:101710008A4209D200BF2A68121A8A4204D200BF44
:101720002A68121A8A42EBD3204600210A22FFF7C8
:1017300049FA40B101A900200A22FFF743FA10B18B
:101740000198B04235D03878002800F08580D9F86B
:101750000000A0FB080128682A68890C01EB8101C0
:10176000121AB2EB410F15D2490000BF00BF2A6820
:10177000121A8A420ED200BF2A68121A8A4209D26D
:1017800000BF2A68121A8A4204D200BF2A68121ABD
:101790008A42EBD3204600210A22FFF713FA68B1F0
:1017A00001A900200A22FFF70DFA38B10198B042D2
:1017B00004D1012003B0BDE8F08300BF38780028D1
:1017C0006AD0D9F80000A0FB0801880C29682A68B3
:1017D00000EB8000521AB2EB400F77D2420000BFFC
:1017E00000BF2868401A904270D200BF2868401A93
:1017F00090426BD200BF2868401A904266D200BF68
:101800002868401A90424FF00000E9D303B0BDE8C9
:10181000F08300BF4FF4A070029000BF0298411EF9
:10182000002802913FF480AF00BF0298411E0028BB
:1018300002913FF479AF00BF0298411E0028029147
:101840003FF472AF00BF0298411E002802913FF49E
:101850006BAF00BFE2E700BF4FF4A070029000BF83
:101860000298411E0028029194D000BF0298411EA8
:10187000002802918ED000BF0298411E00280291DC
:101880003FF488AF00BF0298411E002802913FF448
:1018900081AF00BFE4E700BF4FF4A070029000BF2B
:1018A0000298411E029188B100BF0298411E029128
:1018B00060B100BF0298411E029138B100BF02988A
:1018C000411E029110B100BFEAE700BF002003B043
:1018D000BDE8F08340F61420C0F601007047000018
:1018E0002DE9F0472DED0E8B0E4602F0FD0101298A
:1018F0003ED10546E0B3042E3AD3CBB3B5EE400A51
:10190000B0EE408AF1EE10FA32DDF5EE400AB0EEAC
:10191000609AF1EE10FA2BDDB6EE00AA28EE0A0A64
:10192000B4EE409AF1EE10FA22DA18464FF4047140
:1019300092469846FEF7F7FE88EE09DA00EE10AA06
:10194000B8EE400AB01E2DEE00BA00EE100AB8EE56
:10195000400AB4EE40BAF1EE10FA00F36E81042EA4
:1019600006F0030912D29FEDB70A002039E000BF4C
:10197000002B00F0628118464FF40471FEF7D3FE8D
:101980000020BDEC0E8BBDE8F08700BF9FEDAD0AD7
:1019900026F00301A5F10802002000BF32F9083F3C
:1019A000043001EE103AB2F90230B8EEC11A30EE4E
:1019B000010AB2F9047001EE103AB8EEC11AB2F998
:1019C000064030EE010A01EE107AB8EEC11A30EE90
:1019D000010A01EE104AB8EEC11A814230EE010A46
:1019E000DCD1B9F1000F1FD035F91010B9F1010F9A
:1019F00001EE101AB8EEC11A30EE010A14D005EB50
:101A00004000B0F90210B9F1020F01EE101AB8EE61
:101A1000C11A30EE010A07D0B0F9040001EE100A35
:101A2000B8EEC11A30EE010A01EE106A9FEDE42A09
:101A3000B8EE411A80EE01CA29EE020A80EE088A49
:101A4000B0EE480A09F00EF9B0EE409AB0EE480A3E
:101A500009F0B4FA042EB1EE402A80F0F580DFEDF3
:101A6000790AB7EE003A0020B0EE601AB0EE605A84
:101A7000B9F1000F00F0818035F9101025EE024A0F
:101A800023EE096A36EE044A06EE101AB8EEC66A6C
:101A900036EE4C6A26EE037A26EE056A20EE033A0D
:101AA00025EE095AC1B2FF2935EE033A14D123EECF
:101AB000035A64EE041A31EE855AF7EE002AB5EEA9
:101AC000405AF1EEC51AF1EE10FAC8BFF0EE612AE5
:101AD00083EE223A84EE224A77EE200AB9F1010F12
:101AE00036EE011A49D0411C35F9112023EE022AA5
:101AF00005EE102AB8EEC55A35EE4C5A25EE046AAA
:101B000025EE035A24EE097A20EE040A23EE093A60
:101B1000C9B237EE022AFF2933EE000A14D120EEB3
:101B2000003A22EE024A34EE033AB7EE007AB5EEFE
:101B3000403AB1EEC34AF1EE10FAC8BFB0EE447AB3
:101B400080EE070A82EE072A76EE200AB9F1020F2C
:101B500035EE011A11D005EB4000B0F9040003EE98
:101B6000100AB8EEC33A33EE4C3A23EE022A23EEC3
:101B7000000A72EE200A30EE011AB0EEE00AB0EE72
:101B8000C12A9FED903A32EE000AB4EE430AF1EE1C
:101B900010FA52DBB1EE410A08F00EFFB1EE400A36
:101BA00080EE080AB5EE400AF1EE10FA33DA3DEEA7
:101BB000000AB5EE400AF1EE10FA2CDA3DEE000A0A
:101BC000B5EE400AF1EE10FA25DA3DEE000AB5EE68
:101BD000400AF1EE10FA1EDA3DEE000AB5EE400AB8
:101BE000F1EE10FAE3DB16E030EE4D0AB4EE4D0AEA
:101BF000F1EE10FA14DB30EE4D0AB4EE4D0AF1EEC0
:101C000010FA0DDB30EE4D0AB4EE4D0AF1EE10FA8B
:101C100006DB30EE4D0AB4EE4D0AF1EE10FAE3DACF
:101C2000701E02EE100A3BEE001AB8EE422AB4EE25
:101C3000421AF1EE10FA40F3A9800020BDEC0E8BA1
:101C4000BDE8F08700000000DFEDC90AB7EE004AEA
:101C500026F003012A1D0020B0EE601AB0EE446A9F
:101C6000B0EE607A48E000BF32F9043C32F9027C01
:101C700007EE903AF8EEE77A77EECC7A27EE877A9D
:101C800037EE011A07EE107AB8EEC77A27EE866AA9
:101C900037EE4C7A32F9083B36EE206A67EE250AB9
:101CA00027EE267A37EE011A07EE103AB8EEC77A19
:101CB00037EE4C7A32F9063C30EE866A67EE230A3C
:101CC00027EE247A37EE011A07EE103AB8EEC77AFB
:101CD00037EE4C7A30EE866A67EE210A70EE860A9D
:101CE00027EE226A043036EE011A8142B0EE436AD2
:101CF000B0EE457A3FF4BCAE27EE023A26EE095A22
:101D000075EE035A20EE063A27EE095A75EE036A7D
:101D100026EE823A25EE895A75EE033A20EE253AF0
:101D200026EE895A75EE034A24EE823A23EE895A4A
:101D300075EE031A20EE233A24EE895A75EE032A33
:101D400022EE823A21EE895AC31C35EE033ADBB209
:101D500020EE215A62EE897AFF2B37EE855A83D125
:101D600065EE057A23EE03EA7EEE277AB1EEE7EA26
:101D7000F5EE407AF0EE447AF1EE10FAC8BFF0EEDC
:101D80004E7A85EE275A83EE273A6DE747F6FF70C5
:101D9000C8F200009FED771A9FED773A9FED775AD2
:101DA00048F20003C8F80C004FF40047002047F643
:101DB000FF72B7EE002ABEEE004ACFF6FF732EE0A8
:101DC000DB0FC940BD378635B5EE406AB0EE447AC8
:101DD000F1EE10FAA8BFB0EE4A7A36EE077ABDEE01
:101DE000C77AB4EE456A17EE101AF1EE10FA16B281
:101DF000D8BF1946B14208EB40067182BCBFA8F8B3
:101E00000C100A463EB20CB2B44200F10200C4BF4C
:101E1000A8F80E100F46B0F5807F00F0978081B2D1
:101E200006EE101AB8EE466A2BEE066A86EE016AD6
:101E300030EE066ABDEEC67A17EE101A35F911605B
:101E4000013189B235F91110B8EE477A00EE901AD7
:101E500036EE476A07EE106AF8EEE00AB8EEC77A87
:101E600070EECC0A37EE4C7A66EE200A32EE466A05
:101E700027EE066A36EE206AB4EE436AF1EE10FAF7
:101E80001EDAB5EE406AB0EE447AF1EE10FAA8BF61
:101E9000B0EE4A7A36EE077ABDEEC77AB4EE456AFE
:101EA00017EE101AF1EE10FA16B2D8BF1946B14269
:101EB00008EB40063182BCBFA8F80C100A4604E0CB
:101EC00008EB400647F6FF7131823EB20CB2B442D5
:101ED000C4BFA8F80E100F46411C89B206EE101AB6
:101EE000B8EE466A2BEE066A86EE016A30EE066AA6
:101EF000BDEEC67A17EE101A35F91160013189B2BC
:101F000035F91110B8EE477A00EE901A36EE476AAE
:101F100007EE106AF8EEE00AB8EEC77A70EECC0A67
:101F200037EE4C7A66EE200A32EE466A27EE066AF3
:101F300036EE206AB4EE436AF1EE10FAFFF644AFD3
:101F400008EB400647F6FF7171825BE74FF4807043
:101F5000A8F80200012088F801A088ED010A88EDA8
:101F600002BA88F80000BDEC0E8BBDE8F08700BF18
:101F70000000000000007F4300FEFF46000000C795
:101F80002DE9F04F81B02DED108B88B0144600285C
:101F900018BF002C02D134B909E000BF0278002A32
:101FA00018BF00290AD120464821FEF7BCFB0020BB
:101FB00008B0BDEC108B01B0BDE8F08F8278043A18
:101FC00012F1030FEFD30B68002BECD00A79002A33
:101FD000E9D093ED000AB5EE400AF1EE10FAE2DD29
:101FE00093ED010AB5EE400AF1EE10FADBDD012AAD
:101FF0002CD1CDE9040120464821FEF794FBDDF801
:1020000010E09FEDA00A9EF80250DEF80410616017
:102010006570CDB3DDF814A00EF118009AF8041025
:10202000DAF80060CBB204F11807012B06F1040BBB
:102030000290039506972BD19BED002A042D05F005
:10204000030C7BD29FED8F1A0023CDE0013A0833B9
:1020500093ED000AB5EE400AF1EE10FA9BDD93ED28
:10206000011AB5EE401AF1EE10FA94DD13ED021AE2
:10207000B4EE410AF1EE10FA7FF78DAF013A03F1A9
:102080000803E5D1B5E700BFDDF814A0E6E300BF23
:1020900096ED002A0806A6F1040200F0E980012D61
:1020A00002EBC3000790CDE9003640F0ED809FEDD4
:1020B000751A00220398C00700F0D382029800EB43
:1020C000021696ED013A07EB0212B4EE423AF1EE37
:1020D00010FA40F39B820098811E019800F12003C2
:1020E00013ED062AB4EE423AF1EE10FA40F3928272
:1020F00001B313ED042AB4EE423AF1EE10FA40F3C4
:102100008B82012916D013ED022AB4EE423AF1EE89
:1021100010FA40F3838202290CD093ED002AB4EE2A
:10212000423AF1EE10FA40F37A820439481C03F186
:102130002003D5D1079890ED002A82E26FF030019C
:102140009FED501A01EA0517002600230EEB060545
:1021500095ED083AE869A1192A7E22EE033AC86192
:10216000686A81ED083A23EE033A0A7633EE011AE3
:1021700095ED0C3A486295F8280022EE033A81F872
:102180002800686B81ED0C3A23EE033A33EE011A16
:1021900095ED103AEA6A486395F8380022EE033A62
:1021A000CA6281F83800686C81ED103A23EE033A78
:1021B000EA6B33EE011A95ED143A486495F848003D
:1021C000CA6322EE033AEA6C81F84800686D81ED3B
:1021D000143A23EE033A403633EE011AB74203F1C4
:1021E0000403CA644865B1D1069FBCF1000F00F03A
:1021F0003882DDF80880190108EB031090ED023AEF
:1022000007EB031222EE033A18F801504668C06843
:1022100082ED023A23EE033ABCF1010F33EE011ACC
:102220007D545660D06000F01C82581C08EB0011F1
:1022300091ED023A020107EB001022EE033A18F882
:1022400002504E68C96880ED023A23EE033ABCF1B1
:10225000020F33EE011ABD544660C16000F00182E6
:10226000981C08EB001696ED013A07EB0012E8E126
:10227000042D05F0030C80F0E1809FED021A00258B
:102280005EE100BF00000000A3F1020C1FED031A85
:10229000029B05F0FE0006F1200900221DE000BFB0
:1022A0009BED005A24EE044A069F34EE011A95ED88
:1022B000024A297807EB061686ED013A25EE043A24
:1022C0003170E96886ED023A23EE033A0232824227
:1022D00033EE011AF1603FF4EDAE03EB021595ED1C
:1022E000013A4E46B4EE423AF1EE10FA614629DD6B
:1022F00016ED064AB4EE443AF1EE10FA26DDE9B1E5
:1023000016ED044AB4EE443AF1EE10FA20DD01294C
:1023100014D016ED024AB4EE443AF1EE10FA19DD8B
:1023200002290BD096ED004AB4EE443AF1EE10FAD1
:1023300011DD04394F1C06F12006D9D1079991ED22
:10234000004A01E09BED004A069917E0183E02E0C2
:10235000103E00E0083E16ED025A069933EE456A3B
:1023600034EE454A86EE044A96ED015A16ED016AAE
:1023700035EE465A24EE054A34EE064A2E7801EB35
:10238000021181ED013A95ED023A0E7042F001061C
:10239000EF6803EB061524EE034A95ED013A81ED53
:1023A000024AB4EE423ACF60F1EE10FA4F4661466F
:1023B0007FF776AF17ED065AB4EE453AF1EE10FA14
:1023C00024DDF1B117ED045AB4EE453AF1EE10FAFE
:1023D0001EDD012915D017ED025AB4EE453AF1EE93
:1023E00010FA17DD02290CD097ED005AB4EE453AE9
:1023F000F1EE10FA0FDD043911F1010807F12007A1
:10240000D8D1079991ED005A4CE700BF183F02E080
:10241000103F00E0083F17ED026A33EE467A35EED2
:10242000465A87EE055A97ED016A17ED017A36EEA6
:10243000476A25EE065A35EE075A33E76FF030004B
:102440001FED701A00EA0518002700250EEB07069D
:1024500096ED073A5846B4EE423AF1EE10FAC8BF8C
:102460001046E11990ED004A307E81ED073A96ED75
:10247000085A0876706A96ED0B3A24EE054A4862CF
:10248000B4EE423A584681ED084A24EE044AF1EE91
:1024900010FAC8BF104690ED005A96F8280034EEA6
:1024A000011A96ED0C4A81ED0B3A81F8280025EED1
:1024B000043A706B96ED0F4A4863B4EE424A5846B0
:1024C00081ED0C3AF1EE10FAC8BF104623EE033A44
:1024D00090ED005A96F8380033EE011A96ED103A56
:1024E00081ED0F4A81F83800706C96ED134A25EEA5
:1024F000033A81ED103A486423EE033AB4EE424ABF
:102500005846F1EE10FAC8BF104690ED005A33EE6F
:10251000011A96ED143A96F8480025EE033A81F830
:102520004800706D81ED143A23EE033A403733EEE4
:10253000011AB84505F1040581ED134A486585D1B6
:10254000069EBCF1000F00F08C80029B5F4603EBFF
:10255000051090ED013A2901B4EE423AF1EE10FA7D
:10256000C8BF174697ED004A90ED025A13F8018054
:10257000069F06EB051624EE054A07F80180069F24
:1025800086ED013AC06824EE043ABCF1010F33EE47
:10259000011A86ED024AF06063D0681C03EB00115B
:1025A00091ED013A060107EB0010B4EE423A5F46A6
:1025B000F1EE10FAC8BF174697ED004A91ED025AA6
:1025C00013F80680069F24EE054A07F80680069F4A
:1025D00080ED013AC96824EE043ABCF1020F33EEF3
:1025E000011A80ED024AC1603BD0A81C03EB001623
:1025F00096ED013AB4EE423AF1EE10FAC8BF9346B6
:102600009BED002A07EB00121BE000BF9BED002AA8
:1026100017E000BF183B02E0103B00E0083B13ED61
:10262000024A33EE445A32EE442A85EE022A93EDF2
:10263000014A13ED015A34EE454A22EE042A32EEE5
:10264000052A82ED013A96ED023A307822EE032A0D
:102650001070F06882ED022A22EE022A32EE011A90
:10266000D060B6EE002A21EE021AB1EEC11A03992B
:10267000002984ED031A00F0F1809FEDB18A6FF01C
:1026800030009FEDB09A9FEDB0AA01F0030800EA78
:1026900001170025B0EE48BAB0EE48CA16E000BFF8
:1026A000B4EE4BEAF1EE10FAB4EE4CEAB8BFB0EE7D
:1026B0004EBAF1EE10FAC8BFB0EE4ECA079A40F219
:1026C000FF70824205F1010580F0C680A8B200EEDD
:1026D000100AB8EE400A20EE090A46468B46042945
:1026E00020EE0ADA079005D24FF0000AB0EE48EA71
:1026F0005EE000BF4FF000084FF0000AB0EE48EA7D
:1027000004EB080999F8180099ED091A00EE100A6F
:10271000B8EE400A20EE0D0A99ED08FA30EE010AF3
:1027200008F0A0FA99F828002FEE000A30EE0EEA21
:1027300000EE100AB8EE400A99ED0D1A20EE0D0ACF
:1027400099ED0CFA30EE010A08F08CFA99F838008D
:102750002FEE000A30EE0EEA00EE100AB8EE400A44
:1027600099ED111A20EE0D0A99ED10FA30EE010ADA
:1027700008F078FA99F848002FEE000A30EE0EEAD9
:1027800000EE100AB8EE400A99ED151A20EE0D0A77
:1027900099ED14FA30EE010A08F064FA2FEE000AFF
:1027A00008F1400830EE0EEA47450AF1040AA7D1C5
:1027B000B046002E594645D006994FEA0A10085CEB
:1027C00001EB0A1600EE100AB8EE400A96ED031A65
:1027D00020EE0D0A96ED02FA30EE010A08F042FAF8
:1027E0002FEE000AB8F1010F30EE0EEA29D0307C4E
:1027F00096ED071A00EE100AB8EE400A20EE0D0A18
:1028000096ED06FA30EE010A08F02CFA2FEE000AD7
:10281000B8F1020F30EE0EEA13D096F8200096EDD4
:102820000B1A00EE100AB8EE400A20EE0D0A96EDE3
:102830000AFA30EE010A08F015FA2FEE000A30EE1F
:102840000EEA0399DDE904EA28047FF429AFB0EE2B
:102850004ECAB0EE4EBA31E73CEE4B0A9EF803008A
:1028600084ED020A002845D001209AF80420A070C7
:102870009EED041A9EED050ADAF80000012A84EDA7
:10288000041A31D090ED002AB4EE421AF1EE10FA9B
:102890002ADDBAB3931E00F1200111ED062AB4EE31
:1028A000421AF1EE10FA33DD6BB311ED042AB4EEE7
:1028B000421AF1EE10FA2DDD012B24D011ED022A7F
:1028C000B4EE421AF1EE10FA26DD022B1BD091ED88
:1028D000002AB4EE421AF1EE10FA1EDD043B5F1C32
:1028E00001F12001D9D10EE090ED011A20EE010A8C
:1028F00084ED050A0120207008B0BDEC108B01B0FA
:10290000BDE8F08F002200EBC20010ED011AEDE7E8
:10291000183902E0103900E0083911ED023A31EEC1
:10292000431A32EE432A81EE021A91ED012A11ED8B
:10293000013A32EE432A21EE021A31EE031AD5E7AC
:1029400000000000DB0FC9400000003A10B540F263
:102950007004C2F2000400206060A060207060700B
:1029600040F2D010A11CC2F20000012202F030FFA0
:10297000002808BF10BDA0680130A06010BD000095
:1029800013460A46014600284FF0000018BF002AEF
:1029900000D1704780B540F2D010C2F2000002F0C2
:1029A0006FFFB0FA80F04009BDE88040704700003A
:1029B000F0B599B040F28406C2F20006346940F6E0
:1029C0006C2201AD0F460346C0F601022846602185
:1029D0000094FDF7E5FC2846FDF77EFE4FF6FF71FB
:1029E000884238BF014628463222FFF7C9FF00203F
:1029F0007071A6F8070004203070384606F0EAF837
:102A000019B0F0BD80B540F28401C2F20001D1EDF1
:102A10000E0A024640F218204CF660039FED080AA9
:102A2000C2F20000C2F200034FF48051FEF758FFDB
:102A300020B101F031F9012080BD00BF002080BD30
:102A40008096984AB0B59AB040F21820C2F20000C1
:102A50004FF40051FDF767FE40F28404C2F2000417
:102A600004F134004821FDF75EFE4CF21C20C2F256
:102A700000004821FDF757FE4CF66000C2F200004E
:102A80004FF40471FDF74FFE4CF26040C2F20000BB
:102A90004FF48061FDF747FE0025257001F05CFCD6
:102AA000C4E90305656101F057FC44F8205F44E97F
:102AB000020501F051FC40F2011124F81F1C44F8FA
:102AC0001D5C24F8195CC4E9010501F045FC783867
:102AD000E06001F041FC7838206124F8165C05F0D4
:102AE00095FEFDF72BFF2046FEF78CFC236804F8CB
:102AF000170C02AC84460AA220466021CDF800C023
:102B0000FDF74EFC2046FDF7E7FD4FF6FF718842CA
:102B100038BF014620463222FFF732FF1AB0B0BD5F
:102B2000475F464C4F572C626F6F742C69643D3081
:102B3000782530386C582C6F6E6C696E653D257544
:102B40002C66733D313235303030302C6E3D3430B0
:102B500039360D0A00000000F0B59DB001F0FCFB15
:102B6000074600208DF8130003A80DF1130105F0AE
:102B7000BDFE40F284060028C2F2000652D001F0E9
:102B8000EBFB9DF80C1002290ED0012914D1F16A3B
:102B9000411A782946D33178F06211F0FB0F25D025
:102BA0000FF234702021C3E171780122012908BF9E
:102BB00003228DF8132003E001F0FE01022931D138
:102BC000316B411A78292DD39DF81310306301F031
:102BD000FD02012A26D130787170421E022A00F2CD
:102BE000FB800120F0700FF240748FE10FF20C7146
:102BF0000446084613213222FFF7C2FE01200125B8
:102C000005F096FF04F59670B0624FF4807071780D
:102C1000A6F807000020A6F8030003207571B17024
:102C20003070F460F079012840F08981B079022891
:102C30003CD001281ED0002854D14CF21C20C2F2F6
:102C4000000090ED010AB5EE400AF1EE10FA40F3F3
:102C500085809FEDCF1AB4EE410AF1EE10FA80F2B2
:102C6000F580B6EE001A30EE010ABCEEC00A10EE96
:102C7000103AEDE04CF21C20C2F2000090ED020A86
:102C8000B5EE400AF1EE10FA64DD9FEDC11AB4EE24
:102C9000410AF1EE10FA80F2B980B6EE001A30EE79
:102CA000010ABCEEC00A10EE103AB1E04CF21C2052
:102CB000C2F2000090ED030AB5EE400AF1EE10FA00
:102CC0004ADD9FEDB31AB4EE410AF1EE10FA80F23C
:102CD000AD80B6EE001A30EE010ABCEEC00A10EE6E
:102CE000103AA5E005283BD80FF280630428A0F134
:102CF00003010FF2746208BF134603284CF21C2034
:102D00000FF26C65C2F2000018BF1D464278C9B2CE
:102D1000914201F1010380F0B78000EB011212F83B
:102D2000180F92ED010AB5EE400AF1EE10FA40F3E9
:102D3000B3809FED971AB4EE410AF1EE10FA80F2DB
:102D4000AD80B6EE001A30EE010ABCEEC00A10EEFD
:102D5000101AA5E000235BE0002369E0002377E080
:102D6000082800F2898074218DF80C1040F03001A1
:102D70008DF80D1000218DF80E104CF21C21C2F2BE
:102D800000014A780538C3B2FAB101F14800511E7A
:102D900010F8302C9A4200F02982B1B110F8202CA2
:102DA0009A4200F0258201290FD010F8102C9A4287
:102DB00000F02082022908D002789A4200F01B829B
:102DC00004394A1C00F14000E2D140F6CD22C0F6A1
:102DD000010205A828212DE2327904280FF230548F
:102DE000B17040F09380002A00F09080012005F03F
:102DF0009FFEB078FFF706FE002800F07F800020DD
:102E000005F096FE0FF2105480E000BF4FF0FF3344
:102E100040F6EE2205ADC0F6010228462821FDF756
:102E2000BFFA40F68920C0F601001EE04FF0FF33E4
:102E300040F6F92205ADC0F6010228462821FDF72B
:102E4000AFFA40F68C20C0F601000EE04FF0FF33E1
:102E500040F68D3205ADC0F6010228462821FDF767
:102E60009FFA40F68620C0F6010040F64831C0F6D1
:102E700001012A4607F0F2FCB0790130C1B20829FD
:102E8000B07173D9F01D6FE040F60532C0F6010253
:102E900005A8282129E000BF002101E04FF0FF3103
:102EA00092ED020AB5EE400AF1EE10FA10DD9FED48
:102EB000381AB4EE410AF1EE10FA0BDAB6EE001A47
:102EC00030EE010ABCEEC00A10EE104A04E000BF6A
:102ED000002401E04FF0FF3440F6D822CDE9000194
:102EE000C0F6010205A828210294FDF759FA40F620
:102EF0004831C0F6010105AA2846BBE740F6A920E3
:102F0000C0F6010005F066FE0FF21444737805ADBB
:102F10000FF21C42284640210094FDF741FA284652
:102F2000FDF7DAFB4FF6FF71884238BF01462846AD
:102F30003222FFF725FDF07901283FF477AE317A90
:102F40003078012908BF042804D0042811D11DB00D
:102F5000F0BD00BF01F000FAB16A401A06D40020AB
:102F600005F0E6FD06F10800002101703078042824
:102F7000EDD078B9706A381AE9D400F0E1FD00208C
:102F800005F0D6FD07F5FA6070621DB0F0BD00BF18
:102F9000FFFF7F4FF168791AD9D4032830D17079B7
:102FA000002847D0707A38B906F12000FEF72AFAD7
:102FB0000028707200F0DE8000200025FEF75AFB2A
:102FC000002800F0A98006F134004821FDF7ABFB92
:102FD0004CF21C20C2F200004821FDF7A4FB4CF685
:102FE0006000C2F200004FF40471FDF79CFB012069
:102FF0003571B7613070B81CF0601DB0F0BD00BF16
:10300000002503A80395FEF7CBF8D8B10398C107B4
:1030100040D1B069381AB0F5FA6F0FD340F640309E
:1030200040F6C521C0F60100C0F60101FFF7C0FC63
:103030001DB0F0BD002030701DB0F0BDB81CF060B8
:103040001DB0F0BD376940F66C2240F6223305AC66
:10305000C0F60102C0F60103204660210097FDF78B
:103060009FF92046FDF738FB4FF6FF71884238BFC5
:10307000014620463222FFF783FC0420307040F6E0
:10308000B2207571A6F80750C0F6010005F0A2FD48
:103090001DB0F0BD4FF6FF718843B0F1805F63D182
:1030A00040F21820C2F200004FF48051FDF7A4FE58
:1030B000002800F085803078022800F08D800128FB
:1030C0007FF445AF40F2182006F13401C2F200004F
:1030D00002F006FE002800F0C3803069411CC6E9FA
:1030E000041001F039F9B169401AF06100F0A4FB55
:1030F00000F050F9002800F0D1800120FEF7BAFA64
:10310000002800F0DD800220307001F025F9023047
:10311000F0601DB0F0BD00BF376940F66C2240F68C
:103120003A3305ACC0F60102C0F601032046602127
:103130000097FDF735F92046FDF7CEFA4FF6FF71FF
:10314000884238BF014620463222FFF719FC04208E
:10315000307040F6BB207571A6F80750C0F601002C
:1031600005F038FD1DB0F0BD82A084A1FFF720FC62
:103170001DB0F0BD376940F66C2205ACC0F6010207
:1031800083A3204660210097FDF70AF92046FDF74A
:10319000A3FA4FF6FF71884238BF0146204632221B
:1031A000FFF7EEFB00207071A6F8070004203070D6
:1031B00040F69820C0F6010005F00CFD1DB0F0BDF2
:1031C00040F6133040F69F21C0F60100C0F6010121
:1031D000FFF7EEFB1DB0F0BDF0780121317198B31F
:1031E00070780021B070F1702FE000BF303802E03D
:1031F000203800E0103890ED020AB5EE400AF1EEFA
:1032000010FA0FDD9FED541AB4EE410AF1EE10FAF8
:103210000ADAB6EE001A30EE010ABCEEC00A10EE71
:10322000105A03E0002501E04FF0FF354BA205A83E
:1032300028210095FDF7B4F840F64831C0F60101A9
:1032400003A805AA16E600BFB078FFF7DBFB18B3AA
:1032500000F022FD01F080F80020707116E000BF40
:1032600096F8350002281FD13069411CC6E90410C8
:1032700001F072F8B169401AF06100F097FA002489
:10328000F47100F05DFC01F067F874710420307097
:10329000012030721DB0F0BD3AA015E040F6293093
:1032A000C0F6010004E000BF40F61930C0F601008E
:1032B00040F68F21C0F60101FFF77AFB1DB0F0BD8B
:1032C00040F63530C0F6010040F6A921C0F60101F4
:1032D000FFF76EFB1DB0F0BD475F484D492C65768A
:1032E000656E743D73746172742C69676E6F72657C
:1032F000643D627573790D0A00000000475F484D18
:10330000492C6576656E743D73746172740D0A00A4
:103310006E65787400000000726564726177000069
:103320006572726F720000007175657565640000EA
:10333000475F484D492C6576656E743D6379636CD3
:1033400065732C76616C75653D25752C6170706CAC
:10335000793D25730D0A0000FFFF7F4F4825753D1D
:10336000256C75206D560000743400007435000023
:10337000743300006C656E67746800004C454E2025
:103380004552520077617665666F726D00000000ED
:10339000696400002DE9F0472DED048BC4B0FEF701
:1033A00099FA40F284054CF21C28C2F20005C2F2E0
:1033B0000008014605F134004246FEF7E1FDB8B1D0
:1033C00098ED010AB5EE400AF1EE10FA22DD9FED0C
:1033D000D81AB4EE410AF1EE10FA1DDAB6EE001A70
:1033E00030EE010ABCEEC00A10EE103A16E000BF43
:1033F0006B6904ACE2A220464FF48071FCF7D0FF69
:103400002046FDF769F94FF6FF71884238BF014643
:10341000002482E1002301E04FF0FF3340F68D32BB
:1034200004ACC0F6010220462821FCF7B9FF40F6A3
:10343000862040F64831C0F60100C0F60101224660
:1034400007F00CFA98ED020AB5EE400AF1EE10FA18
:1034500010DD9FEDB71AB4EE410AF1EE10FA0BDA67
:10346000B6EE001A30EE010ABCEEC00A10EE103AB9
:1034700004E000BF002301E04FF0FF3340F6EE22EE
:1034800004ACC0F6010220462821FCF789FF40F673
:10349000892040F64831C0F60100C0F601012246FD
:1034A00007F0DCF998ED030AB5EE400AF1EE10FAE8
:1034B00010DD9FED9F1AB4EE410AF1EE10FA0BDA1F
:1034C000B6EE001A30EE010ABCEEC00A10EE103A59
:1034D00004E000BF002301E04FF0FF3340F6F92283
:1034E00004ACC0F6010220462821FCF759FF40F643
:1034F0008C2040F64831C0F60100C0F6010122469A
:1035000007F0ACF998ED010A6B69B5EE400A40F29C
:103510000310F1EE10FAE88016DD9FED851AB4EE87
:10352000410AF1EE10FA2FDAB6EE001A30EE010A77
:10353000BCEEC00A10EE100A98ED020AB5EE400A81
:10354000F1EE10FA08DC28E0002098ED020AB5EE52
:10355000400AF1EE10FA20DD9FED751AB4EE410A33
:10356000F1EE10FA32DAB6EE001A30EE010ABCEED5
:10357000C00A10EE101A98ED030AB5EE400AF1EEFB
:1035800010FA12DC2BE000BF4FF0FF3098ED020A7A
:10359000B5EE400AF1EE10FADEDC002198ED030AE8
:1035A000B5EE400AF1EE10FA19DD9FED611AB4EEA6
:1035B000410AF1EE10FA15DAB6EE001A30EE010A01
:1035C000BCEEC00A10EE102A0EE000BF4FF0FF3133
:1035D00098ED030AB5EE400AF1EE10FAE5DC0022A0
:1035E00002E000BF4FF0FF3298F801700DF1100AB1
:1035F0008DE807004FA250464FF480710397FCF707
:10360000CFFE002870D4064698F80100002861D04B
:10361000FF2E5FD89FED468A08F120070125B6EE00
:10362000009A0FF2481900BF17ED010A17F8083C7D
:10363000B5EE400AF1EE10FA16DDB4EE480AF1EEEE
:1036400010FAAFBF4FF0FF3C30EE090ABCEEC00AE3
:1036500010EE10CA97ED000AB5EE400AF1EE10FA2E
:103660000BDC4FF0000E15E04FF0000C97ED000A58
:10367000B5EE400AF1EE10FAF3DDB4EE480AF1EED1
:1036800010FAAFBF4FF0FF3E30EE090ABCEEC00AA1
:1036900010EE10EAC6F580740AEB060021464A4691
:1036A000CDE900CEFCF77CFEA0424FF0FF0138BF11
:1036B0008119B0F1FF3FC8BF0E4600280AD4A042CE
:1036C00008D298F80100854204D21037FF2905F18D
:1036D0000105A9D9FD2E0FD80AEB060040F60D21F1
:1036E00020F8021B0EE000BF0024204644B0BDECD1
:1036F000048BBDE8F08700BF40F60D20ADF80D014A
:103700000AF1FF000021017004A8FCF7E5FF4FF665
:10371000FF710124884238BF014689B204A83222D1
:10372000FFF72EF9204644B0BDEC048BBDE8F087CE
:10373000FFFF7F4F475F4D4541532C7365713D251A
:103740006C752C63616C3D312C66303D256C754881
:103750007A2C7570703D256C756D562C75726D7375
:103760003D256C756D562C6E3D2575002C682575B4
:103770003D256C75487A3A256C756D560000000041
:10378000475F4D4541532C7365713D256C752C6326
:10379000616C3D302C726561736F6E3D6E6F5F6D55
:1037A000765F7461626C650D0A00000010B5A4B00C
:1037B00040F28400C2F200004369C0690021B0F504
:1037C000FA6F98BF012104AC4FF0100CCDE9000155
:1037D0000AA220468021CDF808C0FCF7E1FD204672
:1037E000FCF77AFF4FF6FF71884238BF014620464A
:1037F0003222FFF7C5F824B010BD00BF475F464C2A
:103800004F572C6E6F5F7369676E616C2C736571B7
:103810003D256C752C745F6D733D256C752C756E34
:1038200064657232733D25752C7468726573686FB8
:103830006C643D25750D0A002DE9F04F81B02DED2A
:10384000048BC6B040F2840AC2F2000A9AED0E0A56
:10385000DAF81430B5EE400AF1EE10FA10DD9FED03
:10386000AC1AB4EE410AF1EE10FA0BDAB6EE001A19
:1038700030EE010ABCEEC00A10EE100A04E000BFF0
:10388000002001E04FF0FF309AED0F0A9AF8361051
:10389000B5EE400AF1EE10FA10DD9FED9D1AB4EE80
:1038A000410AF1EE10FA0BDAB6EE001A30EE010A18
:1038B000BCEEC00A10EE102A04E000BF002201E0B6
:1038C0004FF0FF329AED100A0027B5EE400AF1EEF4
:1038D00010FA4FF0000611DD9FED8D1AB4EE410A8B
:1038E000F1EE10FA08DAB6EE001A30EE010ABCEE7C
:1038F000C00A10EE106A01E04FF0FF36DAF81C50F3
:103900000DF11808B5F5FA6F98BF01278DE847004B
:1039100040F64C32C0F6010240464FF480710495E7
:103920000597FCF73DFD002800F1EB8083469AF8EF
:103930003600002863D0BBF1FF0F60D89FED748A7A
:103940000AF154060124B6EE009A0FF2C81900BF1E
:1039500016ED010A16F8083CB5EE400AF1EE10FA31
:1039600016DDB4EE480AF1EE10FAAFBF4FF0FF3C9F
:1039700030EE090ABCEEC00A10EE10CA96ED000A3D
:10398000B5EE400AF1EE10FA0BDC002516E000BFA0
:103990004FF0000C96ED000AB5EE400AF1EE10FA79
:1039A000F3DDB4EE480AF1EE10FAAFBF4FF0FF3589
:1039B00030EE090ABCEEC00A10EE105ACBF5807743
:1039C00008EB0B0039464A46CDE900C5FCF7E8FC98
:1039D000B8424FF0FF0138BF00EB0B01B0F1FF3FE1
:1039E000C8BF8B4600280AD4B84208D29AF83600DD
:1039F000844204D21036FF2904F10104A8D9BBF196
:103A0000FF0F69D89AF8371008EB0B00CBF58076DA
:103A1000F1B19AED110AB5EE400AF1EE10FA21DD8E
:103A20009FED3B1AB4EE410AF1EE10FA32DAB6EE2F
:103A3000001A30EE010ABCEEC00A10EE103A9AED00
:103A4000120AB5EE400AF1EE10FA13DC2BE000BFCB
:103A500038A23146FCF7A4FC002830D5BBF1FD0F9D
:103A600033D939E000239AED120AB5EE400AF1EE9F
:103A700010FA18DD9FED261AB4EE410AF1EE10FAA5
:103A800014DAB6EE001A30EE010ABCEEC00A10EEEF
:103A9000107A0DE04FF0FF339AED120AB5EE400AAE
:103AA000F1EE10FAE6DC002702E000BF4FF0FF372E
:103AB0001CA231460097FCF773FC0028CED4B0421C
:103AC0000AD28344BBF1FD0F06D808EB0B0040F689
:103AD0000D2120F8021B05E040F60D20ADF8150180
:103AE00008F1FF00002106AC01702046FCF7F4FD50
:103AF0004FF6FF71884238BF014620463222FEF75A
:103B00003FFF46B0BDEC048B01B0BDE8F08F00BFB5
:103B1000FFFF7F4F2C6825753D256C75487A3A2547
:103B20006C7500002C737075723D256C75487A3A7F
:103B3000256C75002C737075723D6E6F6E6500009C
:103B40002DE9F04186B040F6483440F68620C0F6B4
:103B50000104C0F6010047A2214606F07FFE40F6B0
:103B60008920C0F6010046A2214606F077FE40F605
:103B70008C20C0F6010045A2214606F06FFE40F6FB
:103B8000053643F27430C0F601060DF10105ADF8BB
:103B900015004FF0000828460C21324601238DF80D
:103BA0001780FCF7FDFB0DF11507384621462A4624
:103BB00006F054FE43F27440ADF8150028460C217F
:103BC000324602238DF81780FCF7EAFB384621467F
:103BD0002A4606F043FE43F27450ADF8150028461D
:103BE0000C21324603238DF81780FCF7D9FB3846A9
:103BF00021462A4606F032FE40F6CD2643F2746096
:103C0000C0F601060DF10105ADF815002846142196
:103C1000324601238DF81780FCF7C2FB0DF1150722
:103C2000384621462A4606F019FE43F27470ADF874
:103C3000150028461421324602238DF81780FCF720
:103C4000AFFB384621462A4606F008FE43F67400CC
:103C5000ADF8150028461421324603238DF817804D
:103C6000FCF79EFB384621462A4606F0F7FD06B0D3
:103C7000BDE8F08166303D58585820487A00000071
:103C80005670703D585858206D56000055726D732F
:103C90003D585858206D56002DE9F04F89B04CF62C
:103CA000600440F28406C2F20004C2F200062078EA
:103CB00071890028ADF8221000F004826088B0F508
:103CC000807F40F0FF81B4F90C00B4F90E500790EA
:103CD00031B1B1F5806F11D94FF48061D0E100BFEF
:103CE000FAA00DF1220104F0A7FC002800F0C68123
:103CF000BDF822107181B1F5806FEDD8002900F078
:103D0000CF810798A5EB000BBBF1010FC0F2C18179
:103D1000B4F8029045F256564B1EA9F1010E01F07F
:103D200003058F084FF0000AC5F2555600F0FA80DF
:103D3000009509EB4905E81E049048466FF0030919
:103D400009EB800105900391AAEB87016FF0010751
:103D5000DDF814C007EB400004F110080291019057
:103D6000CDF818B0BAFBF3F7012007FB13A1BAB2E4
:103D700010FA87F038F91220604538BF0746B8B20C
:103D80005C1A38F91000624301FB0020079990FB90
:103D9000F3F00124401AC0EBC010400090FBFBF090
:103DA000EA2250FB06F000EBD07B6FF013001BF112
:103DB000140FD8BF83460EEB0A00B0FBF3F1BBF142
:103DC000EA0F8FB214FA81F401FB1300A8BF9346E7
:103DD00038F91770644538BF214689B21A1A38F984
:103DE00011107A4300FB0120079990FBF3F0EA25BC
:103DF000401AC0EBC0100699400090FBF1F050FB58
:103E000006F000EBD0776FF0130017F1140FD8BF56
:103E100007460198EA2F5044B0FBF3F1A8BF2F46A4
:103E2000354601268CB216FA81F601FB130038F9EB
:103E30001440664538BF314689B21A1A38F9111054
:103E4000624300FB0120079990FBF3F02E46401AD5
:103E5000C0EBC0100699400090FBF1F0012450FB2C
:103E600005F0754600EBD07E6FF013001EF1140FC5
:103E7000D8BF86460498BEF1EA0F5044B0FBF3F178
:103E80004FF0EA0214FA81F4A8BF964601FB130032
:103E90008AB2644538BF214638F9122089B21C1A0B
:103EA00038F91110624300FB01204CF26042C2F26B
:103EB00000020BF114014A44117107F1140190FB47
:103EC000F3F0079FDDF818B0C01BC0EBC010400036
:103ED00090FBFBF0517150FB06F00EF1140100EB6A
:103EE000D070917110F1140F6FF01301D8BF084614
:103EF000EA284FF0EA01A8BF08461430D0710298B2
:103F000009F10409484404300398AE4682447FF422
:103F100029AF09F1040ADDF814904CF66004009D05
:103F2000C2F20004002D00F0BB800EFB0AF0B0FBD3
:103F3000F3F2012111FA82F102FB130097B2494515
:103F400038BF0A4604F1100C3CF9174092B2191A16
:103F50003CF912204C4300FB0240079990FBF3F020
:103F60006FF01308401AC0EBC010400090FBFBF04C
:103F7000EA2750FB06F000EBD07010F1140FD8BF09
:103F80004046EA28A8BF38464CF260421430012D62
:103F9000C2F2000202F80A0000F082800AF1010079
:103FA00005900EFB00F0B0FBF3F229467546B646CD
:103FB000012616FA82F602FB130094B24E4538BF72
:103FC00032463CF9144092B21E1A3CF91220664364
:103FD00000FB0260079A90FBF3F0801AC0EBC01060
:103FE000400090FBFBF04CF2604250FB0EF000EB07
:103FF000D07010F1140FC8BF8046B8F1EA0FB8BFF7
:1040000047460229059907F11400C2F200025054F4
:1040100046D00AF1020705FB07F0B0FBF3F20125D9
:1040200015FA82F594B202FB13004D453CF9144099
:1040300038BF2A4692B21E1A3CF9121006FB04F24F
:1040400000FB0120079990FBF3F0401AC0EBC01071
:10405000400090FBFBF04CF2604150FB0EF000EB97
:10406000D07010F1140FD8BF6FF01300EA28A8BF6A
:10407000EA201430C2F20001C85511E04FF400717B
:10408000ADF822100798A5EB000BBBF1010FBFF6AE
:104090003FAE4CF26040C2F200001422FCF73BFB42
:1040A00040F60D34C0F601042046002106F096FBD0
:1040B000BDF822304CF26042C2F2000220460021DC
:1040C00006F010FC09B0BDE8F08F00BF73300000AF
:1040D00070B5866D044600F03FF994F8351002295A
:1040E00028D105462068216C026822F01602026081
:1040F000426922F08002426109B9A16C19B10168DC
:1041000021F008010160016821F00101016000BF98
:1041100020680068C00715D000F01EF9401B062873
:10412000F6D320206065032084F83500002184F850
:10413000341070BD802060650120002184F83410A7
:1041400070BD00BFE06D3F2101FA00F0B0600120BA
:1041500084F835000020002184F8341070BD000080
:1041600090F83510022909D1052180F83510006832
:10417000016821F001010160002070478021416544
:1041800001207047B0B5044600F0E6F8054640F25D
:104190000000C2F200000078611C18BF044400BF98
:1041A00000F0DAF8401BA042FAD3B0BD2DE9F04F81
:1041B00083B000F1200200F13E4741F60045009235
:1041C00007F1FF77C4F2020508224FEAB726A8429A
:1041D00008BF072200254FF000084FF00009072E06
:1041E00038BF4FEAB72201920AE000BF09F1010986
:1041F00008F10208B9F1100F05F1040500F0A280E2
:104200000F68012202FA09FE17EA0E0AEED0D1F871
:1042100004C003220CF003077E1E02FA08F4012EEC
:104220006FEA040B12D88468CE6804EA0B0406FA1D
:1042300008F634438460446824EA0E06CCF3001484
:1042400004FA09F42643466004E000BF032F01D1BD
:1042500003271EE0C6688C6806EA0B0604FA08F419
:104260002643022FC66014D16FF00302009E02EABB
:10427000590756F807C005F01C040F220B69A2402D
:104280002CEA0202A3401A43F251D1F804C00CF008
:104290000307026807FA08F302EA0B021A431CF448
:1042A000403F0260A2D0002243F644030292C4F2CF
:1042B00002031A6843F6004442F480421A601A6806
:1042C000C4F2010402F480420292029A29F003022D
:1042D0004FF6084C2244CFF6FF7C52F80C3005F024
:1042E0000C070F26BE40B343019E06FA07F73B4377
:1042F00042F80C30A2684B6842EA0A0743F60C4CBD
:10430000DE0258BF22EA0A07A760C4F2010CDCF8FB
:1043100000209E0242EA0A0758BF22EA0A07CCF8A8
:10432000007062689E0342EA0A0758BF22EA0A0741
:1043300067602268DB0342EA0A0758BF22EA0A07DD
:10434000276053E703B0BDE8F08F0000002A08BFE4
:1043500009048161704700004CF6D020C2F20000D1
:104360000068704740F200004CF6D021C2F2000015
:10437000C2F2000100780A6810440860704700002B
:1043800080B543F60040C4F20200016841F40071B8
:104390000160016841F480610160016841F480714D
:1043A0000160032000F086F80F2000F005F800F00F
:1043B00027F8002080BD000070B540F20006C2F270
:1043C000000640F208013278C2F200014FF47A731D
:1043D0000968B3FBF2F20446B1FBF2F1084600F0C3
:1043E00083FE0F2C4FF0010508D838B94FF0FF308D
:1043F00021460022002500F031F87460284670BD87
:1044000082B0002043F640010190C4F202014A68E4
:1044100042F480424A604A6802F480420192019A62
:104420000090086840F080500860086800F08050F4
:104430000090009802B07047002848BF704700F015
:104440001F01012202FA01F11C2202EAD0004EF201
:104450000012CEF2000281507047000010B54EF6F7
:104460000C5CCEF2000CDCF80030C3F3022E8EF0B0
:104470000704042C28BF0424BEF103034FF0FF3EC1
:104480000EFA04F438BF0023A14399400EFA03F357
:104490009A43114300F00F0200F160430901043A0E
:1044A00003F564436244002848BF02F10C0319700D
:1044B00010BD00004EF60C51CEF200010A684FF616
:1044C000FF031A4060F30A2242F0806040F0FD7062
:1044D00008607047002804BF012070472DE9F041B3
:1044E00043F60808C4F202080446D8F8F8030D465B
:1044F00000F00700814207D988F8F853D8F8F8038C
:1045000000F00700A84277D12068810717D541073E
:1045100005D5D8F8001041F4E051C8F800100107A3
:1045200005D5D8F8001041F46041C8F80010D8F85B
:104530000010A26821F0F0011143C8F80010C00774
:1045400040D1D8F8F80300F00700854207D288F878
:10455000F853D8F8F80300F00700A8424CD12068BF
:10456000410707D5D8F80010E26821F4E051114363
:10457000C8F80010000708D5D8F80000216920F419
:10458000604040EAC100C8F8000000F07DF8D8F8AB
:1045900000104BF29042C1F30311C0F60002515CCF
:1045A00040F2080220FA01F140F20400C2F20000D9
:1045B0000068C2F200021160FFF7FEFE0020BDE8B5
:1045C000F08100BF6068811E022907D258F8081CDC
:1045D00089015CBF0120BDE8F08111E0012807D10D
:1045E00058F8081C89035CBF0120BDE8F08107E092
:1045F00058F8081C890703D40120BDE8F08100BFEA
:10460000D8F8001021F003010843C8F80000FFF7B4
:10461000A3FE064641F28837D8F80000616800F032
:104620000C00B0EB810F8CD0FFF796FE801BB842D8
:10463000F2D90320BDE8F08140F2080043F60801FA
:10464000C2F20000C4F20201006809684BF2A04205
:10465000C1F38221C0F60002515CC84070470000DF
:1046600040F2080043F60801C2F20000C4F2020161
:10467000006809684BF2A042C1F34231C0F6000263
:10468000515CC8407047000010B543F60404C4F202
:1046900002046168C1F3810142F20040C0F2F400FB
:1046A000DFE801F002040A0210BD00BF47F6400037
:1046B000C0F27D1010BD00BF206821682368490248
:1046C00047F64001C0F27D1100F03F02C3F38810AD
:1046D0005CBF42F20041C0F2F401A1FB00010023E3
:1046E000FBF7E6FD21680222C1F3014102EB410123
:1046F000B0FBF1F010BD0000002804BF012070479E
:104700002DE9F04182B00446007843F60006C00768
:10471000C4F202060CD0B06800F00C00042840F08F
:1047200081803068800303D56068002800F06881CC
:10473000207880071BD5B06810F00C0F09D0B06846
:1047400000F00C00082840F087807068400200F1FB
:1047500083803068800703D5E068012840F05081ED
:104760003068216920F0F80040EAC100306020780C
:10477000000713D4207840072AD4A569002D00F043
:104780003A81B06800F00C00082840F0A580012DA7
:1047900040F00E81012002B0BDE8F0816069002880
:1047A00000F082800020C4F247200121C0F8801E62
:1047B000FFF7D2FD054600BF706F8007DAD4FFF720
:1047C000CBFD401B0228F7D9032002B0BDE8F081E1
:1047D000306C5FEAC0080AD400200190306C40F0D1
:1047E00080503064306C00F080500190019847F2A6
:1047F0000007C4F200073868C00547D4386840F4A1
:1048000080703860FFF7A8FD054600BF3868C00516
:104810003CD4FFF7A1FD401B0228F7D9032002B0CA
:10482000BDE8F081B06800F00C00082803D1706882
:1048300040023FF576AF61683068B1F5803F07D040
:10484000B1F5A02F40F09A8040F4802030603068AD
:1048500040F4803030609AE0E068002840F20000C8
:10486000C4F247205CD001210160FFF775FD0546C9
:10487000306880073FF574AFFFF76EFD401B0228DC
:10488000F6D9032002B0BDE8F08100BFA168306F07
:10489000012905D0052955D140F004003067306F5B
:1048A00040F00100306756E00020C4F247200021AC
:1048B000C0F8801EFFF750FD054600BF706F8007EF
:1048C0007FF558AFFFF748FD401B0228F6D90320BB
:1048D00002B0BDE8F08100BF0027C4F247270020E6
:1048E0003866FFF739FD022D05460DD1306880018D
:1048F00040F18A80FFF730FD401B02284FF0030093
:10490000F4D902B0BDE8F0813068800173D5FFF7BB
:1049100023FD401B02284FF00300F5D9F1E700BF4B
:1049200000210160FFF718FD054600BF30688007D1
:104930007FF51DAFFFF710FD401B02284FF003006D
:10494000F4D9DEE720F001003067306F002920F055
:10495000040030677AD0FFF7FFFC054641F2883744
:10496000306F800700F18480FFF7F6FC401BB842EF
:10497000F6D9032002B0BDE8F08100BF20F48030FA
:1049800030603068002920F4802030607AD0FFF752
:10499000E3FC0546306880033FF5CAAEFFF7DCFC58
:1049A000401B6428F6D9032002B0BDE8F08100BFA7
:1049B0007068E16900F480028A4221D1216A00F026
:1049C0003F028A421CD147F6C071626A0140B1EBD6
:1049D000821F15D1A16A4FF6FF73C903994300F4F2
:1049E0004032A1F580318A420AD1E16A00F070605C
:1049F000B0EB016F04D1002002B0BDE8F08100BF30
:104A0000012002B0BDE8F08104F11C052FCD084360
:104A100040EA8210D9034FF6FF729143A1F580312D
:104A200040EA05600843706001203866FFF794FC97
:104A3000044600BF30688001DDD4FFF78DFC001B09
:104A400002284FF00300F5D95BE700BFFFF784FCB5
:104A5000054641F2883700BF306F800708D5FFF761
:104A60007BFC401BB8424FF00300F5D949E700BF7B
:104A7000B8F1000F3FF581AE306C20F0805030640B
:104A80007BE600BFFFF768FC054600BF3068800387
:104A90007FF54EAEFFF760FC401B64284FF003002B
:104AA000F4D92EE710B584B040F20801C2F200013B
:104AB000096841F6F112C0F27652A1FB0212510AC6
:104AC00064225143029102990446039101684868A7
:104AD00020F0200048604868000607D44868400677
:104AE00037D44868800768D49CE000BF45F69D3005
:104AF000C0F600006064039810B303980138039077
:104B000094F8510007281FD00398C8B103980138C2
:104B1000039094F85100072816D0039880B10398A9
:104B20000138039094F8510007280DD0039838B14C
:104B300003980138039094F851000728DBD103E073
:104B4000606D40F040006065029803904868400640
:104B5000C7D545F60930C0F600002064039818B3A5
:104B600003980138039094F85100072820D0039847
:104B7000D0B103980138039094F85100072817D05A
:104B8000039888B103980138039094F851000728DE
:104B90000ED0039840B103980138039094F8510067
:104BA0000728DBD104E000BF606D40F04000606585
:104BB000029803904868800734D5A06C90B3002118
:104BC0000165FFF785FA00281CBF40206065216859
:104BD000486820F0020048600398F8B10398013853
:104BE0000390886880071DD40398B8B103980138F2
:104BF00003908868800715D4039878B1039801382A
:104C00000390886880070DD4039838B10398013861
:104C1000039088688007DFD504E000BF606D40F036
:104C2000400060654868C00712D0E06C80B1002188
:104C30000165FFF74DFA00281CBF40206065216820
:104C4000086820F040000860486820F001004860D3
:104C50000023E387E386606D4FF0010C40284FF09E
:104C600001001CBF636500200193CA6801928A6835
:104C70000192019A019389680191019984F851C0C8
:104C800004B010BD70B528B1416A29B1002101619D
:104C9000142106E0012070BD4168B1F5827F02D089
:104CA0001C21002242500026866290F8511029B93A
:104CB00080F85060054600F03DF82846022180F853
:104CC000511090E82E0002F482720C6803F4044341
:104CD00024F040040C601A4405F4006305691A448A
:104CE00005F0020345691A4405F001038569C469AA
:104CF0001A4405F400731A4404F03803046A1A4491
:104D000004F08003846A1A4304F400531A430A60CF
:104D1000436A042202EA154203F010031A444A606F
:104D2000CA6922F40062CA610121466580F8511007
:104D3000304670BD80B586B043F200010068C4F211
:104D40000101002288420592CDE9032202920192DC
:104D500002D006B080BD00BF43F630000092C4F21E
:104D60000200436943F480534361436903F4805371
:104D70000093009B0092036843F001030360006806
:104D800000F0010000900098E02001900220CDE9A1
:104D90000202032004900520059001F5504001A96E
:104DA000FFF704FA06B080BD2DE9F04383B01E463C
:104DB00015460F460446FFF7CFFA94F85110814686
:104DC000012909D1002F4FF0010018BF002D0FD18C
:104DD00003B0BDE8F08300BF6068B0F5827F0DD1FD
:104DE00004294FF00200F3D1A1680029EAD0EFE7CF
:104DF000002EEDD094F85000012803D1022003B01A
:104E0000BDE8F083012084F8500094F8510000219F
:104E100004281CBF052084F851006165A563E6875E
:104E2000A6872763E6862068A686216461640168F8
:104E3000490603D4016841F0400101606168731EB6
:104E4000E268B1FA81F1B3FA83F3DDF82880490909
:104E50005B09B2F5006F41EA030165D131B137F862
:104E6000021BC1602763E08E0138E086012518F13E
:104E7000010032D102E000BFFFF76EFAE08E18B9F0
:104E8000E08F002800F0B8802068816889070CD581
:104E9000E18E51B1012D08D1216B002531F8022B93
:104EA000C2602163E18E0139E1868168C907E3D0E0
:104EB000E18F0029E0D0C068A16B012521F8020B29
:104EC000A163E08F0138E087D6E700BFFFF744FA1F
:104ED000A0EB0900404580F0A580E08E18B9E08F76
:104EE000002800F089802068816889070CD5E18E50
:104EF00051B1012D08D1216B002531F8022BC26080
:104F00002163E18E0139E1868168C907DED0E18F36
:104F10000029DBD0C068A16B012521F8020BA16339
:104F2000E08F0138E087D1E739B139780173206B20
:104F300001302063E08E0138E086012518F1010080
:104F400032D101E0FFF708FAE08E10B9E08F0028B7
:104F500052D02068816889070ED5E18E61B1012D9C
:104F60000AD1216B002509780173216B206801317A
:104F70002163E18E0139E1868168C907E2D0E18FC2
:104F80000029DFD0C068A16B01250870A06B01303B
:104F9000A063E08F0138E087D4E700BFFFF7DCF9BA
:104FA000A0EB090040453DD2E08E08B9E08F18B370
:104FB0002068816889070ED5E18E61B1012D0AD183
:104FC000216B002509780173216B20680131216371
:104FD000E18E0139E1868168C907DFD0E18F0029C0
:104FE000DCD0C068A16B01250870A06B0130A06304
:104FF000E08F0138E087D1E72046022101224346B5
:10500000CDF8009000F0D8FDB0B1606D40F0200008
:10501000606520206065002084F85000012003B006
:10502000BDE8F083012084F85100002084F850008E
:10503000032003B0BDE8F08340F20800C2F2000094
:10504000006849F68171C1F25E61A0FB0101480D63
:105050004FF47A71484302906068B0F5827F0BD1BB
:105060002046802100224346CDF8009000F0A4FDA8
:105070000028CAD121E000BF0298F0B1029801389F
:10508000029020688168090617D50299A9B1029992
:1050900001390291816809060FD5029969B1029917
:1050A000013902918168090607D5029929B102994F
:1050B0000139029180680006DED4A06838B900206A
:1050C00001902068C16801918068019001980120D9
:1050D00084F85100002084F85000606D002818BF4B
:1050E000012003B0BDE8F083411E0020B0EB116F3A
:1050F0001CBF012070474EF21002CEF20002516038
:105100004EF62351CEF20001F0230B700721906080
:10511000116070477047000040F2D011C2F20001E8
:10512000884218BF704710B540F27004C2F2000404
:10513000A068A11C0130A06040F2D010C2F20000B3
:10514000012200F045FB10B1A0680130A060BDE86D
:1051500010407047B0B582B001680A68CC684B69EE
:1051600002F02F05202D04F0200505D125B102B055
:10517000BDE8B04003F0AEBD5FEA027C1EBF03F0A5
:10518000010E04F4907313EB0E0341D1036BD506AB
:1051900018D5012B16D114F0100313D00022019260
:1051A0000A6801924A680192019A496949064BD4FA
:1051B000818DC28DC38D002B18BF914240F00682B5
:1051C00002B0B0BD13062DD514F080032AD090F89C
:1051D0004120212AF4D18268B2F5805F03D10269AF
:1051E000002A00F07982026A531C036212784A6036
:1051F000C28C013A1304C284E2D1C86820F0800056
:10520000C860C86840F04000C86002B0B0BD00BFD0
:10521000D30718BF14F4807340F0E280530700F105
:10522000E580EAE05206CBD514F04002C8D0CA6847
:1052300022F04002CA60202180F8411002B0BDE88F
:10524000B04000F0E7BB00BFC26B11684B68858DB2
:1052500099B2002900F0B480A94280F0B180C385E2
:10526000D169B1F5807F00F0A080016851E8031F8B
:10527000026821F4807142E80313DBB1016851E850
:10528000031F026821F4807142E8031393B101689F
:1052900051E8031F026821F4807142E803134BB107
:1052A000016851E8031F026821F4807142E803138A
:1052B000002BDAD1016851E8051F026821F00101D5
:1052C00042E80513BBB3016851E8051F026821F0ED
:1052D000010142E8051373B3016851E8051F026834
:1052E00021F0010142E805132BB3016851E8051FC5
:1052F000026821F0010142E80513002BDAD11AE01F
:10530000016851E8051F026821F0400142E80513D9
:10531000DBB1016851E8051F026821F0400142E855
:10532000051393B1016851E8051F026821F040019F
:1053300042E805134BB1016851E8051F026821F0EE
:10534000400142E80513002BDAD1202180F84210F9
:1053500000210163016851E8031F026821F0100178
:1053600042E80313DBB1016851E8031F026821F032
:10537000100142E8031393B1016851E8031F02686A
:1053800021F0100142E803134BB1016851E8031FFB
:10539000026821F0100142E80313002BDAD1C16B3F
:1053A00004460846FEF794FE204602214163818DA3
:1053B000C28D891A89B202B0BDE8B040FFF7AABE1B
:1053C0008D427FF4FDAED269B2F5807F7FF4F8AEF6
:1053D0000222426302B0BDE8B040FFF79BBE00BFAF
:1053E000436C43F001034364530706D5BEF1000F3D
:1053F00003D0436C43F002034364930706D5BEF128
:10540000000F03D0436C43F004034364BCF1000F6E
:1054100006D55EEA050303D0436C43F008034364FA
:10542000436C002B3FF4CCAE920605D525B1044663
:1054300003F050FC216820464969426C01F04001AC
:1054400002F00802891800F0B98000BF016851E835
:10545000031F026821F4907142E80313BBB3016893
:1054600051E8031F026821F4907142E8031373B3FB
:10547000016851E8031F026821F4907142E80313A8
:105480002BB3016851E8031F026821F4907142E8D0
:105490000313002BDAD11AE0016851E8051F0268F6
:1054A00021F0010142E80513DBB1016851E8051F55
:1054B000026821F0010142E8051393B1016851E847
:1054C000051F026821F0010142E805134BB1016894
:1054D00051E8051F026821F0010142E80513002B85
:1054E000DAD1016B012924D1016851E8031F026858
:1054F00021F0100142E80313DBB1016851E8031FFA
:10550000026821F0100142E8031393B1016851E8E9
:10551000031F026821F0100142E803134BB1016838
:1055200051E8031F026821F0100142E80313002B29
:10553000DAD1202180F84210002101630168496915
:10554000490640F1C380016851E8051F026821F057
:10555000400142E80513DBB1016851E8051F02680C
:1055600021F0400142E8051393B1016851E8051F9D
:10557000026821F0400142E805134BB1016851E88F
:10558000051F026821F0400142E80513002BDAD123
:10559000C16B002900F09A8048F6C942C0F60002AB
:1055A000044608460A65FEF7DBFD00283FF408AE16
:1055B000E06B016D02B0BDE8B04008470446FFF75C
:1055C000ABFD0020606402B0B0BD00BF891A00BF0F
:1055D000026852E8032F036822F4907243E803251F
:1055E000BDB3026852E8032F036822F4907243E8C7
:1055F000032575B3026852E8032F036822F4907202
:1056000043E803252DB3026852E8032F036822F410
:10561000907243E80325002DDAD11AE0026852E8BF
:10562000052F036822F0010243E80525DDB1026879
:1056300052E8052F036822F0010243E8052595B1E1
:10564000026852E8052F036822F0010243E80525AD
:105650004DB1026852E8052F036822F0010243E8C9
:105660000525002DDAD1202280F842200022026395
:10567000026852E8032F036822F0100243E8032572
:10568000DDB1026852E8032F036822F0100243E8FC
:10569000032595B1026852E8032F036822F0100237
:1056A00043E803254DB1026852E8032F036822F056
:1056B000100243E80325002DDAD1022289B24263A9
:1056C00002B0BDE8B040FFF725BD00BF02B0BDE8A5
:1056D000B040FFF721BD00BF026A32F8023B6FF312
:1056E0005F234B60026283E5002804BF01207047FE
:1056F00010B5044690F8410028B9002084F8400015
:10570000204600F021F8242084F841002068C16878
:1057100021F40051C160204603F05CFB2068016960
:1057200021F490410161416921F02A014161C16880
:1057300041F40051C16000202021606484F84110D0
:1057400084F84210606310BD80B586B041F200015C
:105750000068C4F20101002288420592CDE90322CB
:105760000292019202D006B080BD00BF43F6300025
:105770000092C4F20200436943F01003436143699D
:1057800003F010030093009B0092036843F00103B1
:105790000360006800F00100009000984FF4C060C2
:1057A00001900220CDE90202032004900720059019
:1057B00001F5704001A9FEF7F9FC25200521002222
:1057C000FEF74CFE2520FEF737FE06B080BD000038
:1057D00090F84230202B07D100294FF0010318BF69
:1057E000002A05D11846704702231846704700BFAB
:1057F00000230363816222218285C285436480F88D
:1058000042100169006819B1C16841F48071C1603A
:10581000416941F001014161C16841F02001C1606D
:105820001846704740F2D011C2F20001884218BFFA
:10583000704710B540F27004C2F200046068013095
:10584000606020786178013000F00700884203D161
:10585000A0680130A06004E02178A27821440A7396
:10586000207040F2D010A11CC2F200000122FFF70C
:10587000AFFF10B1A0680130A060BDE810407047D4
:105880002DE9F04381B0044690F84100202809D169
:1058900000294FF0010018BF002A07D101B0BDE870
:1058A000F08300BF022001B0BDE8F08300206064F7
:1058B00021201D460E4684F841001746FEF74CFD98
:1058C000A784E784A1688146B1F5805F02D1206991
:1058D00000285DD037460020E28C2168002A5DD088
:1058E0006A1C24D0002D4AD0804600BF08680006FC
:1058F00008D4FEF731FDA0EB0900A8427AD8216850
:10590000C868F3E717B117F8010B04E038F8020B89
:1059100000276FF35F204860E08C0138E084E08C62
:105920000028E3D13AE000BF0A68120609D40A68E9
:10593000120606D40A6812065CBF0A685FEA0262B1
:10594000F2D51FB117F8012B05E000BF30F8022B8C
:1059500000276FF35F224A60E28C013AE284E28C16
:10596000002AE4D11AE000BF30F8022B00276FF3C1
:105970005F224A60E28C013AE284E28C72B10A68EA
:10598000120635D5002FEFD017F8012BF1E700BF35
:1059900000273046E28C2168002AA1D10868400621
:1059A0001ED42DB3681C14D1086840062AD4086898
:1059B000400627D40868400624D4086840064FF003
:1059C0000000F1D50DE000BF2068C1680068400606
:1059D00018D4FEF7C1FCA0EB0900A842F4D909E0F5
:1059E0000020202184F8411001B0BDE8F08300BF01
:1059F000FEF7B2FC0320202184F8411001B0BDE87D
:105A0000F08300BF0020202184F8411001B0BDE8E0
:105A1000F083000070470000FEE70000F0B587B09B
:105A2000002543F630000695CDE90455CDE9025531
:105A30000195C4F202000168002441F001010160F7
:105A40000068C4F2020400F00100019001982046B1
:105A50001021012210260127FEF778FC0320059073
:105A600002A92046CDE902670495FEF79FFB07B027
:105A7000F0BD000010B540F2781043F20001C2F210
:105A80000000C4F201014FF4827200234FF4006C55
:105A90004FF4007E282480E80E100A21C0E9043368
:105AA000C0E906E4C0E90833C0E90A31FFF7EAF8C3
:105AB000002808BF10BDBDE81040FAF73BBF00004A
:105AC00080B540F2D01041F20001C2F20000C4F2F1
:105AD000010100234FF00C0C4FF4E13280E80E007E
