:020000040800F2
:1000000020080120750200082DA3000845A2000861
:1000100029A30008110A0008A1DF00080000000061
:1000200000000000000000000000000009A500081A
:10003000150A00080000000031A300088DD1000857
:100040008F0200088F0200088F0200088F0200084C
:100050008F0200088F0200088F0200088F0200083C
:100060008F0200088F0200088F0200088F0200082C
:100070008F0200088F0200088F0200088F0200081C
:100080008F0200088F0200088F0200088F0200080C
:100090008F0200088F0200088F0200088F020008FC
:1000A0008F0200088F0200088F0200088F020008EC
:1000B0008F0200088F0200088F0200088F020008DC
:1000C0008F0200088F0200088F0200088F020008CC
:1000D0008F02000895DF00088F0200088F020008D9
:1000E0008F0200088F0200088F0200088F020008AC
:1000F0008F0200088F0200088F0200088F0200089C
:100100008F0200088F0200088F0200088F0200088B
:100110003DDD00088F0200088F0200088F020008F2
:100120008F0200088F0200088F0200088F0200086B
:100130008F0200088F0200088F0200088F0200085B
:100140008F0200088F0200088F0200088F0200084B
:100150008F0200088F0200088F0200088F0200083B
:100160008F0200088F0200088F0200088F0200082B
:100170008F0200088F0200088F02000800000000B4
:100180008F0200088F02000800F002F800F063F808
:1001900014A696E8000CB244B344DA4501D100F04D
:1001A0005AF8BAE80F000FA696E83000A5EB040550
:1001B00004EB0607AAEB0704A7F101074FEA1515A0
:1001C0004FEA3414A4F10104AC4201D300F043F827
:1001D00013F0010F18BFFB1A43F0010300F001F800
:1001E000DBE71847C0000300E0000300103A24BF1B
:1001F00078C878C1FAD8520724BF30C830C144BF8C
:1002000004680C6070470000704700000023002461
:1002100000250026103A28BF78C1FBD8520728BF16
:1002200030C148BF0B607047642900F02B817529ED
:1002300000F02881782900F06181632900F09E8315
:10024000732900F0A383002070471FB510F06FF9E9
:100250001FBD10B510BD00F0A5FB1146FFF7F5FF5F
:100260000FF016FB00F0C3FB03B4FFF7F2FF03BC73
:1002700000F0C6FB0948804709480047FEE7FEE753
:10028000FEE7FEE7FEE7FEE7FEE7FEE7FEE7FEE746
:1002900004480549054A064B7047000039D200085A
:1002A0008901000820F600202008012020F8002005
:1002B00020F8002053EA020C00F069802DE9F04B91
:1002C0004FF00006002B1FBFB3FA83F503FA05F4C5
:1002D00024FA05F65E4012BF1643B2FA82F502FA1E
:1002E00005F4C5F120051EBF22FA05FC44EA0C0402
:1002F000203556EA044C4FEA144418BF641C4FF0F2
:1003000000084FF00009904271EB030C39D300292B
:1003100019BFB1FA81F701FA07F6B0FA80F700FACF
:1003200007F6C7F120071EBF20FA07FC46EA0C06B5
:100330002037B6FBF4FCA7EB0507103F07F01F0BB7
:10034000CBF120062CFA06F60CFA0BFB44BFB346A1
:100350000026202FA4BF5E464FF0000B5BEA060C80
:1003600008BF4FF0010B19EB0B0948EB0608ABFB7C
:10037000027C06FB02CC0BFB03CCC01B71EB0C0117
:10038000C1E70B46024641464846BDE8F08B13B52F
:10039000084318BF4FF0FF300146AFF30080BDE8BF
:1003A0001C4070470FB41CB50C0007AA009007D082
:1003B0004142A14202D32044401E01E04FF0FF30F1
:1003C000074B7B4469460190069800F0B2FA002181
:1003D000002C01D0009A11701CBC5DF814FB0000C9
:1003E0009305000070B5044685690068C10601D513
:1003F000302600E02026C00707D070BDD4E90121D7
:1004000030469047206A401C20626D1EF6D570BDB4
:1004100070B5044685690078C00707D170BDD4E97E
:10042000012120209047206A401C20626D1EF6D5D5
:1004300070BD70B50C460546012A05D028788006A7
:1004400000D5EA69002302E0012305E05B1C93422A
:1004500002D2E05C0028F9D1A869E618C01AA861A8
:10046000286A184428622846FFF7BCFF04E0D5E953
:10047000012114F8010B9047B442F8D32846FFF746
:10048000C7FF70BD2DE9F0410646002410687529AC
:10049000314616A510D0AFF30080002802DA4042A2
:1004A00013A507E031688A0701D512A502E04907C4
:1004B00004D511A5012401E0AFF3008000210A2238
:1004C00006F1240709E0B0FBF2FCB0FBF2F302FBFB
:1004D0001C00303078541846491C0028F3D12346BC
:1004E0002A463046BDE8F04100F0C4B900000000E3
:1004F0002D0000002B0000002000000070B5044615
:100500000D4621461068AFF300802188090502D509
:100510000F4A7A4402E00E4A7A440E32002104F176
:10052000240305E000F00F060009965D5E54491CA7
:100530000028F7D120780023000704D5702D02D0C1
:1005400009B1022311322046BDE8704000F092B993
:10055000920001002DE9F05F894604464FF0000A41
:10056000DFF874B1FB44C0F820A02046E16888475A
:10057000002874D0252806D0D4E901219047206AAC
:10058000401C2062F1E700265F462046E16888476C
:100590002028054607DB312D05D2781910F8200CEC
:1005A00008B10643F1E7B00701D526F00406C4F808
:1005B0001CA00027C4F818A02A2D09D028460FF047
:1005C00069FF38B304EB8708303DC8F8185019E0CC
:1005D00059F8041B204604EB87029161E1688847C3
:1005E000012F054618D1E069002820DA26F0200600
:1005F0001DE0D8F8180000EB800005EB4000303813
:10060000C8F818002046E168884705460FF042FF09
:100610000028EED1012F0AD02E2D08D12046E16806
:1006200088477F1C0546022F46F02006C4DBA069E0
:10063000002803DA404246F00106A061F00701D02D
:1006400026F010066C2D0BD0682D09D04C2D39D01A
:100650006A2D35D0742D35D07A2D33D016E038E0A0
:10066000E1682F4620468847B842054609D16C2FDD
:1006700026D04FF48060E16806432046884705464F
:1006800004E06C2F1AD04FF4807006430DB3A5F12F
:100690004100192802D8203546F400664A4629460A
:1006A000204626604E46FFF7BFFD80B101280BD0E3
:1006B000F61D26F0070000F1080956E74020E4E7A0
:1006C0008020D8E70020D6E706F104094DE7284648
:1006D00052E7206ABDE8F09F6800010030B505468A
:1006E0000B462A4613F8014B12F8010B08B1A04241
:1006F000F8D01CB1002802D06D1CF1E7284630BDAF
:1007000040EA010310B59B070FD1042A0DD310C88E
:1007100008C9121F9C42F8D020BA19BA884201D9E0
:10072000012010BD4FF0FF3010BD1AB1D30703D028
:10073000521C07E0002010BD10F8013B11F8014BDE
:100740001B1B07D110F8013B11F8014B1B1B01D1FA
:10075000921EF1D1184610BD10B5431C02E010F8EE
:10076000011B71B18107FAD14FF0013202C88C1A16
:100770008C4314EAC211F9D0C01A0A0603D0C01E75
:1007800010BDC01A10BD0A0401D0801E10BD0902A0
:10079000FCD0401E10BD10B5203AC0F00B80B1E86F
:1007A0001850A0E81850B1E81850A0E81850203AA6
:1007B000BFF4F5AF5FEA027C24BFB1E81850A0E8AF
:1007C000185044BF18C918C0BDE810405FEA827CC9
:1007D00024BF51F8043B40F8043B08BF7047D207E0
:1007E00028BF31F8023B48BF11F8012B28BF20F881
:1007F000023B48BF00F8012B704702F0FF0343EAB9
:10080000032242EA024200F002B84FF0000200B5B3
:10081000134694469646203922BFA0E80C50A0E823
:100820000C50B1F12001BFF4F7AF090728BFA0E8D1
:100830000C5048BF0CC05DF804EB890028BF40F89D
:10084000042B08BF704748BF20F8022B11F0804FDF
:1008500018BF00F8012B704770477047704710B5FC
:1008600000F098F8006810BD10B5044600F092F84A
:10087000046010BD2DE9F0470D46994692460446A6
:1008800000F124080168880604D5E06921F0100110
:10089000216000E00120A84201DD471B00E00027A5
:1008A000A1697A1902EB0900081AA0612078C00634
:1008B00002D42046FFF796FD002608E0D4E9012186
:1008C0001AF806009047206A401C761C20624E45AC
:1008D000F4DB2078C0060AD52046FFF783FD06E04A
:1008E000D4E9012130209047206A401C2062381E44
:1008F000A7F10107F4DC07E0D4E9012118F80500AD
:100900009047206A401C2062281EA5F10105F3DCF7
:100910002046FFF77DFD2078000602D50220BDE8C5
:10092000F0870120FBE7000001694A1C026108789A
:10093000704700B58FB0CDE901310021059105491F
:100940007944CDE9031011466846FFF703FE0FB066
:1009500000BD0000E5FFFFFFD1E900239A4202D26B
:10096000531C0B601070704710B5436913B1AFF39F
:10097000008001E0FFF75DFD012010BD127800F15D
:1009800024010A7000224A700122EDE711684FF03D
:10099000FF32E9E700487047100000200048704728
:1009A000100000207546FFF7F9FFAE4605006946C6
:1009B000534620F00700854618B020B5FFF768FCC5
:1009C000BDE820404FF000064FF000074FF0000850
:1009D0004FF0000BAC46ACE8C009ACE8C009ACE88D
:1009E000C009ACE8C00921F007018D46704710B579
:1009F0000446AFF300802046BDE81040FFF734BC4A
:100A000001491820ABBEFEE7260002007047000037
:100A1000FEE700007047000072B600BFFEE700006E
:100A20002DE9F04186B0002643F630000496CDE96A
:100A30000266CDE900660596C4F202000168002452
:100A400041F0010101600068C4F2020400F00100FD
:100A50000590059841F20405204610210122CEF2AE
:100A600000054FF01008012708F086F803200390D6
:100A700069462046CDE90087029607F0ADFF4EF6A5
:100A8000FC50CEF20000016841F0807101602E60E0
:100A900055F8040C42F20C2140F0010045F8040C1A
:100AA00055F8040CC2F2000110F00100087017D1D3
:100AB000402005900598411E0591C8B300BF0598D8
:100AC000411E0591A0B300BF0598411E059178B362
:100AD00000BF0598411E059150B300BFEAE700BF73
:100AE00040F20800C2F2000000684DF68361C4F2D3
:100AF0001B31A0FB010128682B686FF0010202EA9C
:100B000051411A1A8A4213D200BF2A68121A8A4225
:100B10000ED200BF2A68121A8A4209D200BF2A6880
:100B2000121A8A4204D200BF2A68121A8A42EBD3F0
:100B300006B0BDE8F08100002DE9F04184B000204E
:100B400041F20405C4F2020010210122CEF2000598
:100B500008F012F842F20C26C2F20006307840F299
:100B600008084DF683670028C2F20008C4F21B375C
:100B700060D0D8F80000A0FB070128682A68890C1B
:100B800001EB8101121AB2EB410F15D2490000BFEF
:100B900000BF2A68121A8A420ED200BF2A68121AAF
:100BA0008A4209D200BF2A68121A8A4204D200BFC0
:100BB0002A68121A8A42EBD340F26C14C2F2000483
:100BC000204608F085FB2068016821F040010160A3
:100BD00000210191C1680191816801910199016829
:100BE00041F0400101603078002841D0D8F8000081
:100BF0006FF00102A0FB070128682B6802EA51414F
:100C00001A1A8A4213D200BF2A68121A8A420ED2D6
:100C100000BF2A68121A8A4209D200BF2A68121A33
:100C20008A4204D200BF2A68121A8A42EBD304B067
:100C3000BDE8F0814FF4A070029000BF0298411E01
:100C400000280291B8D000BF0298411E00280291EE
:100C5000B2D000BF0298411E00280291ACD000BF64
:100C60000298411E00280291A6D000BFE6E700BF0F
:100C7000402003900398411E00280391D7D000BF65
:100C80000398411E00280391D1D000BF0398411E54
:100C900000280391CBD000BF0398411E0028039188
:100CA000C5D000BFE6E700002DE9F04784B00C4650
:100CB00040F200080021C4F202080191010C16461E
:100CC00041F20407ADF80810ADF80A0040461021C3
:100CD0000122CEF2000707F04FFF42F20C25C2F2CC
:100CE0000005287840F2080A4DF683690028C2F210
:100CF000000AC4F21B3900F08980DAF800006FF0B6
:100D00000102A0FB090138683B6802EA51411A1A46
:100D10008A4213D200BF3A68121A8A420ED200BF2A
:100D20003A68121A8A4209D200BF3A68121A8A42F5
:100D300004D200BF3A68121A8A42EBD3404610210F
:100D4000002207F019FF287800287DD0DAF800008B
:100D5000A0FB090138683A68121AB2EB914F15D21C
:100D6000890C00BF00BF3A68121A8A420ED200BF37
:100D70003A68121A8A4209D200BF3A68121A8A42A5
:100D800004D200BF3A68121A8A42EBD340F26C10C8
:100D9000C2F2000002A901AA0223009608F01AFC80
:100DA0002978064600296BD0DAF80000A0FB09017B
:100DB00038683A68121AB2EB914F15D2890C00BF0D
:100DC00000BF3A68121A8A420ED200BF3A68121A5D
:100DD0008A4209D200BF3A68121A8A4204D200BF7E
:100DE0003A68121A8A42EBD340461021012207F0DA
:100DF000C3FE002E60D0FFF79FFE0020002C4FF0B6
:100E0000000161D104B0BDE8F08700BF402003902D
:100E10000398411E0028039190D000BF0398411E03
:100E2000002803913FF48AAF00BF0398411E0028B9
:100E300003913FF483AF00BF0398411E0028039144
:100E40003FF47CAF00BFE3E7202003900398411EEE
:100E5000002803919AD000BF0398411E00280391F7
:100E600094D000BF0398411E002803918ED000BF8C
:100E70000398411E002803913FF488AF00BFE5E7C7
:100E8000202003900398411E00280391ACD000BF9E
:100E90000398411E00280391A6D000BF0398411E6D
:100EA00000280391A0D000BF0398411E00280391A1
:100EB0009AD000BFE6E700BF64B1BDF80400BDF8FA
:100EC000061041EA004001212060084604B0BDE858
:100ED000F08700BF012004B0BDE8F0872DE9F04F96
:100EE00083B0824600284FF0000000F0658141F297
:100EF00001028A1A12F5805FC0F05E81CDE9001010
:100F00004FF0085000210A22FFF7CEFE90B3009860
:100F100002281ED3009801264442C2F2002601AFE7
:100F20004FF6FF7B554600BF304639460A22FFF791
:100F3000BBFEF8B10198002220EA0B01C5F2413254
:100F4000914217D10136A119B1F1085F25F8020BC2
:100F5000EAD101A900200A22FFF7A6FE50B10198AC
:100F60004FF6FF71002220EA0101C5F241329142A1
:100F700000F0E48041F20407CEF20007FFF7DCFD49
:100F800042F20C20C2F2000000784DF68361002886
:100F900040F20800C2F20000C4F21B3100F01081E0
:100FA0000068A0FB010138683A68890C01EB8101F7
:100FB000121AB2EB410F15D2490000BF00BF3A68C8
:100FC000121A8A420ED200BF3A68121A8A4209D215
:100FD00000BF3A68121A8A4204D200BF3A68121A55
:100FE0008A42EBD3002001904FF0085000210A22E2
:100FF000FFF75AFE98B30098022820D300984FF0CC
:101000000009441E4FF4083501AE4FF6FF7800BFCB
:1010100009F1010B584665F31F3031460A22FFF7EC
:1010200043FEE0B10198002220EA0801C5F24132F6
:10103000914214D12AF819005C45D946E8D101A99A
:1010400000200A22FFF730FE48B101984FF6FF71E9
:10105000002220EA0101C5F2413291426ED0FFF731
:101060006BFD42F20C20C2F200000078002800F074
:10107000C98040F20800C2F2000000684DF68361AA
:10108000C4F21B31A0FB010138683A68890C01EBFE
:101090008101121AB2EB410F14D2490000BF3A6825
:1010A000121A8A420ED200BF3A68121A8A4209D234
:1010B00000BF3A68121A8A4204D200BF3A68121A74
:1010C0008A42EBD3002001904FF0085000210A2201
:1010D000FFF7EAFDE0B3009802281FD3009800262E
:1010E000441E4FF4083B0DF104094FF6FF7800BF92
:1010F000751C28466BF31F3049460A22FFF7D4FDC2
:1011000030B30198002220EA0801C5F24132914231
:101110001ED12AF81600AC422E46E9D101A90020C2
:101120000A22FFF7C1FD98B101984FF6FF71002226
:1011300020EA0101C5F24132914209D100990AEB3E
:10114000410121F8020C012003B0BDE8F08F00BF7F
:10115000FFF7F2FC42F20C20C2F2000000780028F7
:1011600072D040F20800C2F2000000684DF68361C0
:10117000C4F21B31A0FB0101880C39683A6800EB0E
:101180008000521AB2EB400F78D2420000BF38689C
:10119000401A904272D200BF3868401A90426DD215
:1011A00000BF3868401A904268D200BF3868401AC1
:1011B00090424FF00000E9D303B0BDE8F08F00BFCC
:1011C0004FF4A070029000BF0298411E00280291C7
:1011D0003FF408AF00BF0298411E002802913FF47F
:1011E00001AF00BF0298411E002802913FF4FAAE01
:1011F00000BF0298411E002802913FF4F3AE00BFE9
:10120000E2E700BF4FF4A070029000BF0298411EB9
:10121000002802913FF456AF00BF0298411E0028FB
:1012200002913FF44FAF00BF0298411E0028029187
:101230003FF448AF00BF0298411E002802913FF4DE
:1012400041AF00BFE2E700BF4FF4A070029000BFC3
:101250000298411E029188B100BF0298411E02917E
:1012600060B100BF0298411E029138B100BF0298E0
:10127000411E029110B100BFEAE700BF002003B099
:10128000BDE8F08F2DE9F04182B004460020002C2B
:10129000009000F0C58020604FF0045000210A2229
:1012A000FFF702FD60B1694600200A22FFF7FCFC4F
:1012B00030B1009820F00701B1F1805F00F0838029
:1012C00042F20C26C2F20006307841F2040540F2E8
:1012D00008084DF68367CEF200050028C2F2000828
:1012E000C4F21B3700F0A080D8F80000A0FB070173
:1012F00028682A68890C01EB8101121AB2EB410FB0
:1013000014D2490000BF2A68121A8A420ED200BFC6
:101310002A68121A8A4209D200BF2A68121A8A421F
:1013200004D200BF2A68121A8A42EBD34FF004504D
:1013300000210A22FFF7B8FC58B1694600200A22B2
:10134000FFF7B2FC28B1009820F00701B1F1805FEF
:1013500039D03078002800F08980D8F80000A0FB50
:10136000070128682A68890C01EB8101121AB2EB87
:10137000410F15D2490000BF00BF2A68121A8A42E5
:101380000ED200BF2A68121A8A4209D200BF2A6808
:10139000121A8A4204D200BF2A68121A8A42EBD378
:1013A0004FF0045000210A22FFF77EFC80B169460D
:1013B00000200A22FFF778FC50B1009820F00701C6
:1013C000B1F1805F04D12060012002B0BDE8F0815E
:1013D000307800286AD0D8F80000A0FB0701880CFC
:1013E00029682A6800EB8000521AB2EB400F77D2CE
:1013F000420000BF00BF2868401A904270D200BF70
:101400002868401A90426BD200BF2868401A904268
:1014100066D200BF2868401A90424FF00000E9D31E
:1014200002B0BDE8F08100BF4FF4A070019000BF92
:101430000198411E002801913FF478AF00BF019848
:10144000411E002801913FF471AF00BF0198411E79
:10145000002801913FF46AAF00BF0198411E0028A7
:1014600001913FF463AF00BFE2E700BF4FF4A0700B
:10147000019000BF0198411E0028019190D000BF4B
:101480000198411E002801913FF48AAF00BF0198E6
:10149000411E002801913FF483AF00BF0198411E17
:1014A000002801913FF47CAF00BFE3E74FF4A07048
:1014B000019000BF0198411E019188B100BF0198C1
:1014C000411E019160B100BF0198411E019138B1E8
:1014D00000BF0198411E019110B100BFEAE700BFB3
:1014E000002002B0BDE8F0812DE9F04182B0044651
:1014F0000020002C009018BF20604FF00050002109
:101500000A22FFF7D1FB58B1694600200A22FFF7F3
:10151000CBFB28B1009840F2D241884200F0808095
:1015200042F20C26C2F20006307841F2040540F285
:1015300008084DF68367CEF200050028C2F20008C5
:10154000C4F21B3700F0A280D8F80000A0FB07010E
:1015500028682A68890C01EB8101121AB2EB410F4D
:1015600014D2490000BF2A68121A8A420ED200BF64
:101570002A68121A8A4209D200BF2A68121A8A42BD
:1015800004D200BF2A68121A8A42EBD34FF00050EF
:1015900000210A22FFF788FB50B1694600200A2289
:1015A000FFF782FB20B1009840F2D241884237D049
:1015B0003078002800F08C80D8F80000A0FB0701EC
:1015C00028682A68890C01EB8101121AB2EB410FDD
:1015D00014D2490000BF2A68121A8A420ED200BFF4
:1015E0002A68121A8A4209D200BF2A68121A8A424D
:1015F00004D200BF2A68121A8A42EBD34FF000507F
:1016000000210A22FFF750FB90B1694600200A2210
:10161000FFF74AFB60B1009840F2D241884207D1FF
:10162000002C4FF0010018BF216002B0BDE8F0812E
:10163000307800286ED0D8F80000A0FB0701286899
:101640002A68890C01EB8101121AB2EB410F15D205
:10165000490000BF00BF2A68121A8A420ED200BF9A
:101660002A68121A8A4209D200BF2A68121A8A42CC
:1016700004D200BF2A68121A8A42EBD3002C67D02A
:1016800000990020216002B0BDE8F0814FF4A07005
:10169000019000BF0198411E002801913FF476AFF0
:1016A00000BF0198411E002801913FF46FAF00BFB9
:1016B0000198411E002801913FF468AF00BF0198D6
:1016C000411E002801913FF461AF00BFE2E700BF77
:1016D0004FF4A070019000BF0198411E00280191B5
:1016E0003FF48CAF00BF0198411E002801913FF4E8
:1016F00085AF00BF0198411E002801913FF47EAFE5
:1017000000BF0198411E002801913FF477AF00BF50
:10171000E2E700BF4FF4A070019000BF0198411EA6
:1017200000280191AAD000BF0198411E0028019114
:10173000A4D000BF0198411E002801919ED000BF97
:101740000198411E0028019198D000BFE6E700BF34
:10175000002002B0BDE8F0812DE9F04383B045F2EE
:1017600045664FF044540028C5F241764FF0000022
:1017700008BF4FF0405404BF44F65946C4F24E1619
:101780000190204600210A22FFF78EFA40B101A9FC
:1017900000200A22FFF788FA10B10198B0427AD0EF
:1017A00042F20C27C2F20007387841F2040540F2F9
:1017B00008094DF68368CEF200050028C2F2000940
:1017C000C4F21B3800F09880D9F80000A0FB080193
:1017D00028682A68890C01EB8101121AB2EB410FCB
:1017E00014D2490000BF2A68121A8A420ED200BFE2
:1017F0002A68121A8A4209D200BF2A68121A8A423B
:1018000004D200BF2A68121A8A42EBD32046002174
:101810000A22FFF749FA40B101A900200A22FFF786
:1018200043FA10B10198B04235D03878002800F062
:101830008580D9F80000A0FB080128682A68890C77
:1018400001EB8101121AB2EB410F15D2490000BF22
:1018500000BF2A68121A8A420ED200BF2A68121AE2
:101860008A4209D200BF2A68121A8A4204D200BFF3
:101870002A68121A8A42EBD3204600210A22FFF777
:1018800013FA68B101A900200A22FFF70DFA38B156
:101890000198B04204D1012003B0BDE8F08300BF3D
:1018A000387800286AD0D9F80000A0FB0801880C1D
:1018B00029682A6800EB8000521AB2EB400F77D2F9
:1018C000420000BF00BF2868401A904270D200BF9B
:1018D0002868401A90426BD200BF2868401A904294
:1018E00066D200BF2868401A90424FF00000E9D34A
:1018F00003B0BDE8F08300BF4FF4A070029000BFBA
:101900000298411E002802913FF480AF00BF029868
:10191000411E002802913FF479AF00BF0298411E9A
:10192000002802913FF472AF00BF0298411E0028C8
:1019300002913FF46BAF00BFE2E700BF4FF4A0702D
:10194000029000BF0298411E0028029194D000BF6F
:101950000298411E002802918ED000BF0298411EBD
:10196000002802913FF488AF00BF0298411E002872
:1019700002913FF481AF00BFE4E700BF4FF4A070D5
:10198000029000BF0298411E029188B100BF0298E8
:10199000411E029160B100BF0298411E029138B110
:1019A00000BF0298411E029110B100BFEAE700BFDC
:1019B000002003B0BDE8F08343F63400C4F2020017
:1019C000016841F040010160006840F60000C5F286
:1019D0000600016841F0040101604CF21020C2F2DF
:1019E00000000121017070474FF0000178B34CF204
:1019F0001022C2F2000212784AB3B5EE400AF1EEAC
:101A000010FA24DD48F2A06140F60402C0F20101A0
:101A1000C5F20602136813F0060F1CBF00207047C2
:101A2000DB0705D1013904BF00207047F2E700BF92
:101A300051689FED082A090A01EE101AB8EE411A02
:101A400021EE021A20EE010A012180ED000A08466B
:101A5000704700BF0000803347F6E050C0F6010039
:101A60007047000047F63040C0F6010070470000A4
:101A70002DE9F0472DED108B0E4602F0FD010129F6
:101A80003ED10546E0B3042E3AD3CBB3B5EE400ABF
:101A9000B0EE408AF1EE10FA32DDF5EE400AB0EE1B
:101AA000609AF1EE10FA2BDDB6EE00AA28EE0A0AD3
:101AB000B4EE409AF1EE10FA22DA18464FF40471AF
:101AC00091469846FEF7A1FE88EE09DA00EE109ADC
:101AD000B8EE400AB01E2DEE00BA00EE100AB8EEC5
:101AE000400AB4EE40BAF1EE10FA00F3AD81042ED4
:101AF00006F0030A0ED29FEDDF0A002035E000BF9A
:101B0000002B00F0A18118464FF40471FEF77DFE12
:101B10009AE100BF9FEDD70A26F00301A5F1080264
:101B2000002000BF32F9083F043001EE103AB2F94C
:101B30000230B8EEC11A30EE010AB2F9044001EEEB
:101B4000103AB8EEC11AB2F9067030EE010A01EE91
:101B5000104AB8EEC11A30EE010A01EE107AB8EE62
:101B6000C11A814230EE010ADCD1BAF1000F1FD058
:101B700035F91010BAF1010F01EE101AB8EEC11AC2
:101B800030EE010A14D005EB4000B0F90210BAF1B2
:101B9000020F01EE101AB8EEC11A30EE010A07D09A
:101BA000B0F9040001EE100AB8EEC11A30EE010AD5
:101BB00001EE106A9FEDB02AB8EE411A80EE01CA1C
:101BC00029EE020A80EE088AB0EE480A0EF0ECF820
:101BD000B0EE409AB0EE480A0EF0CAFA042EB1EE0A
:101BE000402A80F03781DFEDA30AB7EE003A0020EB
:101BF000B0EE601AB0EE605ABAF1000F00F08180CA
:101C000035F9101025EE024A23EE096A36EE044A31
:101C100006EE101AB8EEC66A36EE4C6A26EE037A65
:101C200026EE056A20EE033A25EE095AC1B2FF29D5
:101C300035EE033A14D123EE035A64EE041A31EE62
:101C4000855AF7EE002AB5EE405AF1EEC51AF1EECC
:101C500010FAC8BFF0EE612A83EE223A84EE224ADF
:101C600077EE200ABAF1010F36EE011A49D0411C75
:101C700035F9112023EE022A05EE102AB8EEC55AD6
:101C800035EE4C5A25EE046A25EE035A24EE097A05
:101C900020EE040A23EE093AC9B237EE022AFF29E0
:101CA00033EE000A14D120EE003A22EE024A34EE5E
:101CB000033AB7EE007AB5EE403AB1EEC34AF1EE20
:101CC00010FAC8BFB0EE447A80EE070A82EE072A07
:101CD00076EE200ABAF1020F35EE011A11D005EBAB
:101CE0004000B0F9040003EE100AB8EEC33A33EE38
:101CF0004C3A23EE022A23EE000A72EE200A30EE5E
:101D0000011AB0EEE00AB0EEC12A9FEDC43A32EEFD
:101D1000000AB4EE430AF1EE10FAC0F29580B1EE7B
:101D2000410A0DF0EBFEB1EE400A80EE088A414612
:101D3000B5EE408AF1EE10FA33DA3DEE088AB5EEE0
:101D4000408AF1EE10FA2CDA3DEE088AB5EE408AB0
:101D5000F1EE10FA25DA3DEE088AB5EE408AF1EE92
:101D600010FA1EDA3DEE088AB5EE408AF1EE10FA5E
:101D7000E3DB16E038EE4D8AB4EE4D8AF1EE10FA50
:101D800014DB38EE4D8AB4EE4D8AF1EE10FA0DDB1D
:101D900038EE4D8AB4EE4D8AF1EE10FA06DB38EEDD
:101DA0004D8AB4EE4D8AF1EE10FAE3DAF01E00EE41
:101DB000100AB7EE00EAB8EE409AB4EE4E8AF1EEA1
:101DC00010FA39EE4BFA1BDA3DEE088AB4EE4E8A71
:101DD000F1EE10FA14DA3DEE088AB4EE4E8AF1EE16
:101DE00010FA0DDA3DEE088AB4EE4E8AF1EE10FAE2
:101DF00006DA3DEE088AB4EE4E8AF1EE10FAE3DB25
:101E0000B4EE4F8AF1EE10FA1EDC3FEE0E0A60EEE1
:101E10000A8AF4EE488AF1EE10FA40F3D18038EEE7
:101E2000C80A80EE0D0A0EF067F820EE0D0A30EEBB
:101E3000088A3DEE080AB4EE4F0AF1EE10FA40F3BC
:101E4000AF804146BCE000BF0020BDEC108BBDE878
:101E5000F08700BFDFED070AB7EE004A26F0030166
:101E60002A1D0020B0EE601AB0EE446AB0EE607A2F
:101E70004CE000BF00000000DB0FC94032F9043C19
:101E800032F9027C07EE903AF8EEE77A77EECC7AF8
:101E900027EE877A37EE011A07EE107AB8EEC77A86
:101EA00027EE866A37EE4C7A32F9083B36EE206A26
:101EB00067EE250A27EE267A37EE011A07EE103A6A
:101EC000B8EEC77A37EE4C7A32F9063C30EE866AC5
:101ED00067EE230A27EE247A37EE011A07EE103A4E
:101EE000B8EEC77A37EE4C7A30EE866A67EE210A92
:101EF00070EE860A27EE226A043036EE011A81421D
:101F0000B0EE436AB0EE457A3FF476AE27EE023A81
:101F100026EE095A75EE035A20EE063A27EE095AC4
:101F200075EE036A26EE823A25EE895A75EE033A7B
:101F300020EE253A26EE895A75EE034A24EE823ABF
:101F400023EE895A75EE031A20EE233A24EE895ABD
:101F500075EE032A22EE823A21EE895AC31C35EE31
:101F6000033ADBB220EE215A62EE897AFF2B37EE7C
:101F7000855A83D165EE057A23EE03EA7EEE277A51
:101F8000B1EEE7EAF5EE407AF0EE447AF1EE10FABF
:101F9000C8BFF0EE4E7A85EE275A83EE273A6DE7FA
:101FA00030EE681A38EE682AB0EEC11AB0EEC22AD6
:101FB000B4EE421A4146F1EE10FAB8BFB0EE408AD4
:101FC000B4EE4E8AF1EE10FA4FF00000C0F24F81ED
:101FD0003BEE080AB4EE490AF1EE10FA00F347812D
:101FE00047F6FF70C8F200009FEDA30A9FEDA35AC9
:101FF0009FEDA36A48F2000CC8604FF40046002031
:1020000047F6FF73B1EE041AB9EE002AB0EE083AB3
:10201000BEEE004ACFF6FF7C2BE000BFBD37863511
:10202000B5EE407AF0EE440AF1EE10FAA8BFF0EEF9
:102030004A0A77EE200AFDEEE00AB4EE467A10EE88
:10204000902AF1EE10FA1FB2D8BF6246BA4201EBF5
:1020500040077A82BCBF8A81134637B214B2BC42B1
:1020600000F10200C4BFCA811646B0F5807F00F0BF
:10207000F38082B207EE102AB8EE477A2BEE077A89
:1020800087EE007A38EE077AFDEEC70A10EE902A46
:1020900005EB420434F9027CF8EE600A37EE607A10
:1020A00000EE907AB4F9027035F9122002EE907ABF
:1020B000F8EEE00A01EE902AF8EEE22AF8EEE11AD4
:1020C00070EEE23A67EE233A71EEA14A73EEE43A1B
:1020D00061EE814A70EEA05AB4F9042074EEE54A2C
:1020E00062EE825A75EEA44A05EE902A61EE831ADA
:1020F000F8EEE55A70EEE10A62EE831A67EE076ABF
:1021000075EEA44A70EEA10A27EE267A64EEA64A7E
:1021100070EEE50A74EEA33A20EE877A37EE237A62
:1021200027EE047A37EE4C7AB4EE457AF1EE10FAE7
:102130001EDAB5EE407AF0EE440AF1EE10FAA8BFCE
:10214000F0EE4A0A77EE200AFDEEE00AB4EE467A97
:1021500010EE902AF1EE10FA1FB2D8BF6246BA42D2
:1021600001EB40073A82BCBF8A81134605E000BFFD
:1021700001EB400747F6FF723A8237B214B2BC4215
:10218000C4BFCA811646421C92B207EE102AB8EEAE
:10219000477A2BEE077A87EE007A38EE077AFDEE63
:1021A000C70A10EE902A05EB420737F9024CF8EE09
:1021B000600A37EE607A00EE904AB7F9024035F9CE
:1021C000122002EE904AF8EEE00A01EE902AF8EEB4
:1021D000E22AF8EEE11A70EEE23A67EE233A71EE87
:1021E000A14A73EEE43A61EE814A70EEA05AB7F963
:1021F000042074EEE54A62EE825A75EEA44A05EEBA
:10220000902A61EE831AF8EEE55A70EEE10A62EE6A
:10221000831A67EE076A75EEA44A70EEA10A27EEEC
:10222000267A64EEA64A70EEE50A74EEA33A20EE32
:10223000877A37EE237A27EE047A37EE4C7AB4EEBB
:10224000457AF1EE10FAFFF6EBAE01EB400747F6E8
:10225000FF727A8201E700BF4FF48070488001204E
:1022600081F8019081ED018A81ED02BA0870BDEC20
:10227000108BBDE8F08700BF00007F4300FEFF46E3
:10228000000000C72DE9F04F81B02DED108B88B014
:10229000002818BF002A01D12AB908E00378002BD2
:1022A00018BF00290AD110464821FEF7AEFA0020D7
:1022B00008B0BDEC108B01B0BDE8F08F8378043B13
:1022C00013F1030FEFD30F68002FECD00B79002B25
:1022D000E9D097ED000AB5EE400AF1EE10FAE2DD22
:1022E00097ED010AB5EE400AF1EE10FADBDD012BA5
:1022F00040F0FA800B7BFBB18F68002FCCD097EDBC
:10230000000AB5EE400AF1EE10FAC5DD012B13D03C
:10231000013B083797ED000AB5EE400AF1EE10FADE
:10232000BADD17ED021AB4EE410AF1EE10FAB3DD90
:10233000013B07F10807EDD10B7D002B5FD00F6942
:10234000002FA9D007F10C0C4FF0000E0EEB8E06FB
:1023500007EB061696ED000AB5EE400AF1EE10FA0C
:102360009ADD3479A4F10A0515F1080FFFF494AF52
:10237000BEF1000F07D016ED141AB4EE410AF1EECB
:1023800010FA7FF789AF96ED020AB5EE400AF1EE3A
:1023900010FA7FF781AF96ED030AB5EE400AF1EE31
:1023A00010FA7FF779AF013C664696ED010AB5EE6B
:1023B000400AF1EE10FA7FF76FAF96ED021AB5EE14
:1023C000401AF1EE10FA7FF767AF16ED012AB4EE6E
:1023D000420AF1EE10FA7FF75FAF96ED000AB4EE15
:1023E000401AF1EE10FA7FF757AF013C06F10806EC
:1023F000DBD10EF1010E9E450CF1500CA6D10B7FE6
:10240000B3B18F69002F3FF447AF97ED000AB5EEE7
:10241000400AF1EE10FA7FF73FAF97ED010AB5EEF3
:10242000400AF1EE10FA7FF737AF012B40F08080C1
:1024300001901046049148210792FEF7E6F9DDF875
:1024400010C0019BDCF808109FEDD20A079893EDAD
:10245000011A9D780029B0EE40AA80ED011A45705E
:102460000691039500F09F809CF80C20B0EE40AAE6
:10247000002A00F09880012A56D0069991ED002A92
:10248000B4EE421AF1EE10FA4EDD0698911E20309D
:1024900010ED062AB4EE421AF1EE10FA68DDE9B149
:1024A00010ED042AB4EE421AF1EE10FA62DD0129B1
:1024B00014D010ED022AB4EE421AF1EE10FA5BDDF0
:1024C00002290BD090ED002AB4EE421AF1EE10FA78
:1024D00053DD04394B1C00F12000D9D1069800EBE4
:1024E000C20010ED01AA5AE0013B083797ED000A3F
:1024F000B5EE400AF1EE10FA7FF7CEAE97ED011A75
:10250000B5EE401AF1EE10FA7FF7C6AE17ED021ADB
:10251000B4EE410AF1EE10FA7FF7BEAE013B07F1CF
:102520000807E3D1E6E600BF069991ED01AA3AE07B
:10253000013B083797ED000AB5EE400AF1EE10FABC
:102540007FF7AAAE97ED011AB5EE401AF1EE10FA38
:102550007FF7A2AE17ED021AB4EE410AF1EE10FABF
:102560007FF79AAE013B07F10807E3D160E700BFB0
:10257000183802E0103800E0083810ED023A31EE69
:10258000434A32EE432A84EE022A90ED013A10EDDE
:10259000014A33EE443A22EE032A32EE04AA0798A7
:1025A000019BDDE9035C002DB0EE408A00F014834E
:1025B0009FEDC90A9FEDC92A069930EE413ADFED39
:1025C00075AA9FEDC7DA83EE02BA0A1F1830B4EE7F
:1025D000401ADFEDC4EADFEDC4CADFEDC4DADFED97
:1025E000C4BA9FEDC49A009203F1180B0590F1EE66
:1025F00010FAA8BFB0EE6ABAB7EE00EAB4EE4D1A10
:1026000001F120004FF00008BFEE00FAF3EE098A56
:10261000F3EE049AF1EE04FAB0EE6ACAF1EE10FAA3
:10262000D8BFB0EE4EBA02900BE000BF20EE000A19
:1026300008F10108A84530EE0CCA8AED031A00F033
:10264000AD810BEB08164FEA08101BF800900599B6
:1026500096ED018AD6ED020A01EB081A01F8009006
:102660006046B0EE480A8AED018A00F0E5FA012DD5
:102670008AED020A4CD0B9F1020F49D3DDF810C03F
:102680000798DCF81830002B00F0B0809CF81C7024
:10269000002F00F0AB80012F3ED093ED001AB4EE76
:1026A000418AF1EE10FA37DDBD1E03F1200212ED72
:1026B000061AB4EE418AF1EE10FA40F3558105B3E3
:1026C00012ED041AB4EE418AF1EE10FA40F34E8195
:1026D000012D16D012ED021AB4EE418AF1EE10FA75
:1026E00040F34681022D0CD092ED001AB4EE418ADF
:1026F000F1EE10FA40F33D81043D691C02F1200225
:10270000D5D103EBC70111ED011A039D06E000BF0F
:102710000798DDF810C069E093ED011A31EE0F1A49
:102720002BEE011A31EE0E1A80EE010AB0EE4E1AAF
:10273000B4EE680AF1EE10FA3ADAB4EE690AF1EE94
:1027400010FA1DDAB2EE0E1AB4EE410AF1EE10FAEA
:1027500022DAB2EE041AB4EE410A9FEDB51AF1EE98
:1027600010FA25DBBAEE041A9FEDB22A30EE011AF8
:1027700021EE021A81EE2F1A9FEDAD2A16E000BF5E
:102780009FEDAD2A39EEC01A21EE021A9FEDAB2A59
:102790000AE000BF000000009FEDA92A31EE401AB8
:1027A00021EE021A9FEDA72A81EE2F1A31EE021AAE
:1027B000B4EE4D8AF1EE10FAB0EE6A2A0CDDB4EEFA
:1027C0006E8AF1EE10FAB0EE4E2A05DA9FED9E2ADF
:1027D00038EE022A82EE0D2A31EE0F1A22EE011A8D
:1027E00031EE0E1A80EE010A8AED020A069996ED84
:1027F000031A0029B0EE6A2A41D09CF80C30B0EEE2
:102800006A2AE3B3012B37D0069991ED002AB4EE82
:10281000428AF1EE10FA2FDD029A9F1E12ED062A6F
:10282000B4EE428AF1EE10FA40F38680F7B112ED71
:10283000042AB4EE428AF1EE10FA40F37F80012FB1
:1028400014D012ED022AB4EE428AF1EE10FA77DDCE
:10285000022F0BD092ED002AB4EE428AF1EE10FA6C
:102860006FDD043F791C02F12002D7D1009901EB02
:10287000C30191ED002A02E0069991ED012A03EED1
:10288000109AB8EE433A23EE0A3A33EE422A31EE7A
:10289000021AB4EE6C1AF1EE10FA2FDC31EE091ABE
:1028A000B4EE6C1AF1EE10FA28DC31EE091AB4EE2F
:1028B0006C1AF1EE10FA21DC31EE091AB4EE6C1A42
:1028C000F1EE10FA1ADC31EE091AB4EE6C1AF1EEE0
:1028D00010FAE3DD12E000BF00D8D64700401C46E6
:1028E0000050C34700504348DB0F49C0DB0F49404D
:1028F000DB0FC9C0DB0FC94031EE2B1AB4EE6D1AE5
:10290000F1EE10FA7FF792AE31EE2B1AB4EE6D1A9B
:10291000F1EE10FA7FF78AAE31EE2B1AB4EE6D1A93
:10292000F1EE10FA7FF782AE31EE2B1AB4EE6D1A8B
:10293000F1EE10FAE0DC79E6183A02E0103A00E035
:10294000083A12ED023A38EE434A32EE432A84EE58
:10295000022A92ED013A12ED014A33EE443A22EE98
:10296000032A32EE042A8AE7183A02E0103A00E01D
:10297000083A12ED022A039D38EE423A31EE421A2D
:1029800083EE011A92ED012A12ED013A32EE432A4A
:1029900021EE021A31EE031AC0E600BFB6EE000ABD
:1029A0002CEE000AB1EEC00A002D80ED030A00F003
:1029B0000F819FED9E8A6FF030019FED9DAA05F07B
:1029C000030401EA05160022B0EE48BAB0EE48CA88
:1029D00000270021029118E0B4EE4BDAF1EE10FA74
:1029E000069AB4EE4CDABCBF3A46B0EE4DBAF1EE00
:1029F00010FACCBF0297B0EE4CDA40F2FF7101370B
:102A00008845B0EE4DCA80F0D1801FFA87F800EEFD
:102A1000108AB8EE400A20EE090A042D20EE0AEAD8
:102A2000069213D24FF0000AB0EE48DA6DE000BF14
:102A3000DCD7813F00509D390080373C006F813FDB
:102A40000062653BB1E1813F0050C3C74FF0000B0E
:102A50004FF0000AB0EE48DA00EB0B0999F81800C5
:102A600099ED091A00EE100AB8EE400A20EE0E0A9F
:102A700099ED08FA30EE010A0DF096F999F8280060
:102A80002FEE000A30EE0DDA00EE100AB8EE400A22
:102A900099ED0D1A20EE0E0A99ED0CFA30EE010AAE
:102AA0000DF082F999F838002FEE000A30EE0DDAB9
:102AB00000EE100AB8EE400A99ED111A20EE0E0A47
:102AC00099ED10FA30EE010A0DF06EF999F8480010
:102AD0002FEE000A30EE0DDA00EE100AB8EE400AD2
:102AE00099ED151A20EE0E0A99ED14FA30EE010A4E
:102AF0000DF05AF907982FEE000A0BF1400B30EE5B
:102B00000DDA5E450AF1040AA6D1002C44D00599DD
:102B10004FEA0A10085C01EB0A1500EE100AB8EE45
:102B2000400A95ED031A20EE0E0A95ED02FA30EEFA
:102B3000010A0DF039F92FEE000A012C30EE0DDA02
:102B400028D0287C95ED071A00EE100AB8EE400A4E
:102B500020EE0E0A95ED06FA30EE010A0DF024F98A
:102B60002FEE000A022C30EE0DDA13D095F820007B
:102B700095ED0B1A00EE100AB8EE400A20EE0E0A90
:102B800095ED0AFA30EE010A0DF00EF92FEE000A6B
:102B900030EE0DDA0798039D39047FF41DAF002154
:102BA00002910022B0EE4DBA27E700BF02999FEDD7
:102BB000211A89B200EE101A91B202EE101AB8EE84
:102BC000400AB8EE422A20EE010A22EE018A03E012
:102BD0009FED160AB0EE408A0121012500F088FE23
:102BE0000798B0EE409AB0EE480A002100F080FE4F
:102BF00001980799C27839EE400A81ED020A62B164
:102C000090ED040AD0ED050A04988D7081ED040A58
:102C100000F012F8079981ED050A0120087008B04C
:102C2000BDEC108B01B0BDE8F08F00BF00000000CC
:102C30000000003ADB0F493BB0B50269002A00F002
:102C40008180017D00297DD0012900F0C58092EDB1
:102C5000001AB4EE410AF1EE10FA40F3BD808B1E6B
:102C600002F5A07010ED3C1AB4EE410AF1EE10FA34
:102C700040F3268103B310ED281AB4EE410AF1EEB9
:102C800010FA40F31F81012B16D010ED141AB4EE88
:102C9000410AF1EE10FA40F31781022B0CD090EDAF
:102CA000001AB4EE410AF1EE10FA40F30E81043B33
:102CB0005D1C00F5A070D5D101EB810002EB001086
:102CC00010ED120AF4EE400AF1EE10FA40F3F08033
:102CD00010F84C3CA0F1480C022B30D35C42403839
:102CE0000121042290ED000AF4EE400AF1EE10FA00
:102CF00040F39481A518022D21D090ED020AF4EE44
:102D0000400AF1EE10FA40F39181012D17D090EDB9
:102D1000040AF4EE400AF1EE10FA40F3918175B125
:102D200090ED060AF4EE400AF1EE10FA40F320822C
:102D30000432A5180431032D00F12000D2D10CEB90
:102D4000C3008CE00179006801293BD090ED001AA6
:102D5000B4EE410AF1EE10FA34DD002900F09C8057
:102D60008B1E00F1200212ED061AB4EE410AF1EEBC
:102D700010FA40F31381002B00F08F8012ED041A3B
:102D8000B4EE410AF1EE10FA40F30A81012B00F093
:102D9000848012ED021AB4EE410AF1EE10FA40F30B
:102DA0000181022B79D092ED001AB4EE410AF1EEC6
:102DB00010FA40F3F880043B5D1C02F12002D2D1EE
:102DC0006BE000BF90ED010A20EE800AB6EE001A1B
:102DD00020EE010AB0BD00BF92ED020AF4EE400AF7
:102DE000F1EE10FA50DD92F804E002F1080CBEF1A9
:102DF000020F32D3CEF1000102F128000124042297
:102E000010ED060AF4EE400AF1EE10FA40F3E48009
:102E10008B18022B21D010ED040AF4EE400AF1EEDB
:102E200010FA40F3DB80012B17D010ED020AF4EE0C
:102E3000400AF1EE10FA40F3D58073B190ED000A2C
:102E4000F4EE400AF1EE10FA40F3D08004328B1811
:102E50000434032B00F12000D2D10CEBCE0010ED96
:102E6000040A10ED021A30EEC02A31EE400A82EE5A
:102E7000000A10ED031A10ED012A32EE412A20EE6D
:102E8000020A30EE010AB0BD92ED031A20EE811A5B
:102E900081EE000AB0BD00BF002100EBC10010EDC3
:102EA000010A20EE800AB6EE001A20EE010AB0BD3B
:102EB00010ED111A20EE811A81EE000AB0BD00BF9C
:102EC000F03802E0A03800E0503810ED122AF4EE9D
:102ED000420AF1EE10FA4BDD10F84CECA0F1480C70
:102EE000BEF1020F32D3CEF10004A0F14001012265
:102EF000042391ED002AF4EE420AF1EE10FA40F3B9
:102F00008B80E518022D21D091ED022AF4EE420AC1
:102F1000F1EE10FA40F38680012D17D091ED042ACE
:102F2000F4EE420AF1EE10FA40F3868075B191EDAD
:102F3000062AF4EE420AF1EE10FA40F387800433D9
:102F4000E5180432032D01F12001D2D10CEBCE01A2
:102F500011ED042A11ED023A30EEC24A33EE422A54
:102F600084EE022A11ED033A11ED014A7DE000BF23
:102F700010ED113A20EE833A83EE022A90ED023AE8
:102F8000F4EE430AF1EE10FA00F37D8090ED034A6F
:102F900020EE844A84EE033ADBE000BF183A02E0F8
:102FA000103A00E0083A12ED022A30EE420A31EE01
:102FB000421A80EE010A92ED011A12ED012A31EE59
:102FC000421A20EE010A30EE020A20EE800AB6EE26
:102FD000001A20EE010AB0BD183808E0013410389C
:102FE00005E000BF0234083801E000BF14460CEBD6
:102FF000C40111ED021A30EEC12A30EE410A82EE10
:10300000000A11ED011A90ED012A32EE412A20EE5C
:10301000020A30EE010AB0BD134618E00CEBC10104
:10302000E7E700BF531C083111E000BF4A1C08301D
:103030000CEBC201DDE700BF931C103107E000BFBD
:103040008A1C10300CEBC201D3E700BF18310CEB27
:10305000C30212ED023A30EEC34A32EE432A84EE46
:10306000022A12ED013A91ED014A34EE434A22EE72
:10307000042A32EE032A90ED023AF4EE430AF1EE0E
:1030800010FA7FF783AF90F804E000F1080CBEF16E
:10309000020F2ED3CEF1000400F1280101220423F7
:1030A00011ED063AF4EE430AF1EE10FA32DDE518BE
:1030B000022D1ED011ED043AF4EE430AF1EE10FA9F
:1030C0002ADD012D15D011ED023AF4EE430AF1EE9E
:1030D00010FA25DD6DB191ED003AF4EE430AF1EE00
:1030E00010FA21DD0433E5180432032D01F120012B
:1030F000D6D10CEBCE0111ED043A11ED024A30EEBF
:10310000C35A34EE433A85EE033A11ED034A11ED0A
:10311000015A18E0183908E00132103905E000BF03
:103120000232083901E000BF1A460CEBC20212ED70
:10313000024A30EEC45A33EE443A85EE033A12EDB9
:10314000014A91ED015A35EE445A23EE053A33EE29
:10315000043A10ED144A30EE440A31EE441A80EE7F
:10316000010A33EE421A20EE010A30EE020AB0BD27
:1031700018300CEBC2013CE7002808BF70472DE96E
:10318000F04F81B02DED108B98B08146007800286B
:1031900000F0D98199F80100043810F1030FC0F054
:1031A000D28106AD284649464822FDF7F4FA9DF83B
:1031B00019A0BAF1000F09D0BAF1040F0AF0030008
:1031C00005900DD29FEDE38A002451E09FEDE1AA26
:1031D00000200990B0EE4A0AB0EE4A8AA0E100BF92
:1031E0009FEDDC8A0AF0FC0805F110070024B6EE1A
:1031F000009A00BF97ED040A97ED08AA97ED0CBA64
:1032000097ED10CA30EE000A0CF064FF20EE090AB8
:1032100087ED040A20EE000A30EE088A3AEE0A0A28
:103220000CF058FF20EE090A87ED080A20EE000A8C
:1032300030EE088A3BEE0B0A0CF04CFF20EE090A38
:1032400087ED0C0A20EE000A30EE088A3CEE0C0AEC
:1032500007F140060CF03EFF20EE090A87ED100A48
:1032600020EE000A043430EE088AA0453746C1D16A
:103270000598002805F11800029033D0029800EB61
:10328000041494ED020A30EE000A0CF023FFB6EEAF
:10329000009A20EE090A059E84ED020A20EE000A3B
:1032A000012E30EE088A1DD094ED060A30EE000A99
:1032B0000CF010FF20EE090A84ED060A20EE000A49
:1032C000022E30EE088A0DD094ED0A0A30EE000A84
:1032D0000CF000FF20EE090A84ED0A0A20EE000A35
:1032E00030EE088AB6EE000A28EE000AB1EEC0AA57
:1032F000BAF1000F8DED09AA00F00E819FED958ABD
:103300006FF030009FED949A9FED94BA00EA0A1492
:103310000021B0EE48CAB0EE48DA4FF0000B0020B2
:10332000CDF8049003901EE05FEA0B4000F0DA80D5
:10333000B4EE4CEAF1EE10FA0499B4EE4DEABCBFDB
:103340005946B0EE4ECAF1EE10FACCBFCDF80CB033
:10335000B0EE4DEA40F2FF700BF1010B8045B0EE8C
:103360004EDA80F0C5801FFA8BF800EE108AB8EEB6
:10337000400A20EE090A5646BAF1040F20EE0BFA75
:10338000049105D24FF00009B0EE48EA5DE000BFBD
:103390004FF0000A4FF00009B0EE48EA05EB0A07CB
:1033A000387E97ED091A00EE100AB8EE400A20EEBA
:1033B0000F0AD7ED088A30EE010A0CF0F5FC97F8F9
:1033C000280028EE800A30EE0EEA00EE100AB8EE71
:1033D000400A97ED0D1A20EE0F0AD7ED0C8A30EE59
:1033E000010A0CF0E1FC97F8380028EE800A30EE74
:1033F0000EEA00EE100AB8EE400A97ED111A20EE20
:103400000F0AD7ED108A30EE010A0CF0CDFC97F8C8
:10341000480028EE800A30EE0EEA00EE100AB8EE00
:10342000400A97ED151A20EE0F0AD7ED148A30EEF8
:10343000010A0CF0B9FC28EE800A0AF1400A30EECD
:103440000EEA544509F10409A8D10598B2460028AE
:103450003FF46AAF02994FEA0910085C01EB0917C3
:1034600000EE100AB8EE400A97ED031A20EE0F0A9C
:10347000D7ED028A30EE010A0CF096FC059E28EE8C
:10348000800A012E30EE0EEA3FF44EAF387C97ED05
:10349000071A00EE100AB8EE400A20EE0F0AD7ED28
:1034A000068A30EE010A0CF07FFC28EE800A022E1C
:1034B00030EE0EEA3FF438AF97F8200097ED0B1A84
:1034C00000EE100AB8EE400A20EE0F0AD7ED0A8A85
:1034D00030EE010A0CF068FC28EE800A30EE0EEAAD
:1034E00022E700BF002003900021B0EE4ECA31E772
:1034F00003989FED1B1A80B200EE100A88B202EE0C
:10350000100AB8EE400AB8EE422ADDF8049020EE28
:10351000010A22EE018A03E09FED0E0AB0EE408A16
:1035200006AD2846012100F0E3F9B0EE409A2846A6
:10353000B0EE480A002100F0DBF939EE400A89EDCF
:10354000020A89ED03AA18B0BDEC108B01B0BDE8EA
:10355000F04F704700000000DB0FC9400000003A48
:10356000DB0F493B002808BF70472DE9F04F81B0C1
:103570002DED108B98B081460078002800F0A881CE
:1035800099F80100043810F1030FC0F0A18106ADD5
:10359000284649464822FDF7FEF89DF819A09FED00
:1035A000D08ABAF1000F07D0BAF1040F0AF0030075
:1035B000059005D2002439E0B0EE489A75E100BFCD
:1035C0000AF0FC0805F110070024B6EE009A00BFCF
:1035D00097ED040A97ED08AA97ED0CBA97ED10CA7B
:1035E00030EE000A0CF076FD20EE090A87ED040AA1
:1035F0003AEE0A0A0CF06EFD20EE090A87ED080A81
:103600003BEE0B0A0CF066FD20EE090A87ED0C0A72
:103610003CEE0C0A07F140060CF05CFD20EE090AB6
:10362000043487ED100AA0453746D1D1059E05F137
:103630001800029036B3029800EB041494ED020ACD
:1036400030EE000A0CF046FDB6EE009A20EE090AB4
:10365000012E84ED020A15D094ED060A30EE000A20
:103660000CF038FD20EE090A022E84ED060A09D07E
:1036700094ED0A0A30EE000A0CF02CFD20EE090A47
:1036800084ED0A0ABAF1000FB0EE489A00F00D81FD
:103690009FED938A6FF030009FED929A9FED92AA72
:1036A00000EA0A140021B0EE48BAB0EE48CA4FF062
:1036B000000B0020CDF8049003901EE05FEA0B4061
:1036C00000F0DA80B4EE4BDAF1EE10FA0499B4EEC1
:1036D0004CDABCBF5946B0EE4DBAF1EE10FACCBF91
:1036E000CDF80CB0B0EE4CDA40F2FF700BF1010BEC
:1036F0008045B0EE4DCA80F0C5801FFA8BF800EE11
:10370000108AB8EE400A20EE090A5646BAF1040FB4
:1037100020EE0AEA049105D24FF00009B0EE48DA33
:103720005DE000BF4FF0000A4FF00009B0EE48DA4C
:1037300005EB0A07387E97ED091A00EE100AB8EE7D
:10374000400A20EE0E0A97ED08FA30EE010A0CF05E
:103750002BFB97F828002FEE000A30EE0DDA00EE72
:10376000100AB8EE400A97ED0D1A20EE0E0A97EDFA
:103770000CFA30EE010A0CF017FB97F838002FEE28
:10378000000A30EE0DDA00EE100AB8EE400A97EDAE
:10379000111A20EE0E0A97ED10FA30EE010A0CF025
:1037A00003FB97F848002FEE000A30EE0DDA00EE2A
:1037B000100AB8EE400A97ED151A20EE0E0A97EDA2
:1037C00014FA30EE010A0CF0EFFA2FEE000A0AF1BB
:1037D000400A30EE0DDA544509F10409A8D10598E4
:1037E000B24600283FF46AAF02994FEA0910085C1C
:1037F00001EB091700EE100AB8EE400A97ED031A24
:1038000020EE0E0A97ED02FA30EE010A0CF0CCFA27
:10381000059E2FEE000A012E30EE0DDA3FF44EAF7A
:10382000387C97ED071A00EE100AB8EE400A20EE39
:103830000E0A97ED06FA30EE010A0CF0B5FA2FEEFB
:10384000000A022E30EE0DDA3FF438AF97F8200070
:1038500097ED0B1A00EE100AB8EE400A20EE0E0AA1
:1038600097ED0AFA30EE010A0CF09EFA2FEE000AEC
:1038700030EE0DDA22E700BF002003900021B0EE09
:103880004DBA31E703989FED191A80B200EE100A85
:10389000B8EE400A88B220EE018A00EE100AB8EEB7
:1038A000400ADDF8049020EE019A06AD2846B0EEFD
:1038B000480A012100F01CF8B0EE408A2846B0EE1C
:1038C000490A002100F014F838EE400A89ED020A96
:1038D00018B0BDEC108B01B0BDE8F04F704700BFD1
:1038E00000000000DB0FC9400000003ADB0F493B3D
:1038F0002DE9F04F81B02DED108B84B04278FAB1F4
:103900009FEDEB1A9FEDEB2A30EE01FA30EE02DA72
:103910009FEDE99A3DEE4F8A28EE090A9FEDE7AA4E
:10392000834630EE0DBA1830042A02F003080191E4
:10393000039002920CD29FEDE2CA002666E000BF1F
:103940009FEDDF8AB1FA81F04309B0EE48CA11E376
:103950006FF030009FEDDACA00EA02190027002656
:103960000BEB0705287E95ED091A00EE100AB8EE5C
:10397000400A20EE0B0A95ED08EA30EE010A0CF041
:1039800013FA95F828002EEE000A30EE0CCA00EE6D
:10399000100AB8EE400A95ED0D1A20EE0B0A95EDCF
:1039A0000CEA30EE010A0CF0FFF995F838002EEE23
:1039B000000A30EE0CCA00EE100AB8EE400A95ED8F
:1039C000111A20EE0B0A95ED10EA30EE010A0CF008
:1039D000EBF995F848002EEE000A30EE0CCA00EE26
:1039E000100AB8EE400A95ED151A20EE0B0A95ED77
:1039F00014EA30EE010A0CF0D7F92EEE000A403737
:103A000030EE0CCAB94506F10406A9D1029DB8F101
:103A1000000F28EE0A8A43D003993001085C01EBBD
:103A2000061400EE100AB8EE400A94ED031A20EED8
:103A30000B0A94ED02EA30EE010A0CF0B5F92EEE15
:103A4000000AB8F1010F30EE0CCA29D0207C94EDA9
:103A5000071A00EE100AB8EE400A20EE0B0A94EDA9
:103A600006EA30EE010A0CF09FF92EEE000AB8F1DA
:103A7000020F30EE0CCA13D094F8200094ED0B1A0C
:103A800000EE100AB8EE400A20EE0B0A94ED0AEAA6
:103A900030EE010A0CF088F92EEE000A30EE0CCA66
:103AA000042D38EE0FEA03D29FED858A00265DE0F3
:103AB0006FF030009FED828A00EA0519002700268A
:103AC0000BEB0705287E95ED091A00EE100AB8EEFB
:103AD000400A20EE0E0AD5ED088A30EE010A0CF0FD
:103AE00063F995F8280028EE800A30EE088A00EE87
:103AF000100AB8EE400A95ED0D1A20EE0E0AD5ED2B
:103B00000C8A30EE010A0CF04FF995F8380028EED7
:103B1000800A30EE088A00EE100AB8EE400A95EDF1
:103B2000111A20EE0E0AD5ED108A30EE010A0CF0C3
:103B30003BF995F8480028EE800A30EE088A00EE3E
:103B4000100AB8EE400A95ED151A20EE0E0AD5EDD2
:103B5000148A30EE010A0CF027F928EE800A40376B
:103B600030EE088AB94506F10406A9D1DDE90179EC
:103B7000B8F1000F43D003993001085C01EB061443
:103B800000EE100AB8EE400A94ED031A20EE0E0A79
:103B9000D4ED028A30EE010A0CF006F928EE800A14
:103BA000B8F1010F30EE088A29D0207C94ED071A75
:103BB00000EE100AB8EE400A20EE0E0AD4ED068A96
:103BC00030EE010A0CF0F0F828EE800AB8F1020F8E
:103BD00030EE088A13D094F8200094ED0B1A00EE12
:103BE000100AB8EE400A20EE0E0AD4ED0A8A30EE32
:103BF000010A0CF0D9F828EE800A30EE088AB7FAEC
:103C000087F0B9F1000F4FEA501300F0B3816FF065
:103C10003000DFED2B8A00EA09164FF0000A00930E
:103C200017E000BF019FB0EE4EDAB0EE48EAF0EECA
:103C30004B9AB0EE6A8AB0EE4FBAB0EE4BFABAF1D8
:103C4000110F0AF1010AB0EE4EBAB0EE69EA80F047
:103C50003783B4EE4C8AF1EE10FA4FF000004FF0CB
:103C60000001C8BF0120B8BF0121002F18BF0146C5
:103C700001290DD13DEE4B0A20EE0A0AB9F1040FDD
:103C800070EE0B9A1ED24FF00009B0EE68FA75E0A4
:103C90003EEE4F0A20EE090AF0EE4CAAB9F1040FED
:103CA00030EE0E8A80F090800025B0EE68CAE5E024
:103CB000DB0F49BBDB0F493B7A371EBF7A371E3F0C
:103CC0000000000000254FF00009B0EE68FA00BFC8
:103CD0000BEB0504207E94ED091A00EE100AB8EEF5
:103CE000400A20EE290A94ED08CA30EE010A0CF0D1
:103CF0005BF894F828002CEE000A30EE0FCA00EEB4
:103D0000100AB8EE400A94ED0D1A20EE290A94ED3F
:103D10000CFA30EE010A0CF047F894F838002FEE58
:103D2000000A30EE0CCA00EE100AB8EE400A94ED1C
:103D3000111A20EE290A94ED10FA30EE010A0CF067
:103D400033F894F848002FEE000A30EE0CCA00EE6B
:103D5000100AB8EE400A94ED151A20EE290A94EDE7
:103D600014FA30EE010A0CF01FF82FEE000A40356D
:103D700030EE0CFAAE4209F10409A9D1B8F1000FF6
:103D80001BD003994FEA0910085C01EB091400EEFF
:103D9000100AB8EE400A94ED031A20EE290A94EDB9
:103DA00002CA30EE010A0BF0FFFF2CEE000AB8F158
:103DB000010F30EE0FFA40F0AD80DDF80890B0EE64
:103DC00048CAB0EE4F8A38E700270025B0EE68CA2F
:103DD0000BEB0704207E94ED091A00EE100AB8EEF2
:103DE000400A20EE080A94ED08DA30EE010A0BF0E2
:103DF000DBFF94F828002DEE000A30EE0CCA00EE2E
:103E0000100AB8EE400A94ED0D1A20EE080A94ED5F
:103E10000CDA30EE010A0BF0C7FF94F838002DEEF3
:103E2000000A30EE0CCA00EE100AB8EE400A94ED1B
:103E3000111A20EE080A94ED10DA30EE010A0BF0A8
:103E4000B3FF94F848002DEE000A30EE0CCA00EEE5
:103E5000100AB8EE400A94ED151A20EE080A94ED07
:103E600014DA30EE010A0BF09FFF2DEE000A403706
:103E700030EE0CCABE4205F10405A9D1B8F1000F1D
:103E80003FF4D0AE03992801085C01EB051400EE65
:103E9000100AB8EE400A94ED031A20EE080A94EDD9
:103EA00002DA30EE010A0BF07FFF2DEE000A019FCF
:103EB000B8F1010F30EE0CCA3FF4B5AE207C94EDA2
:103EC000071A00EE100AB8EE400A20EE080A94ED38
:103ED00006DA30EE010A0BF067FF2DEE000AB8F1AA
:103EE000020F30EE0CCA3FF49EAE94F8200094ED21
:103EF0000B1A00EE100AB8EE400A20EE080A94ED04
:103F00000ADA30EE010A0BF04FFF2DEE000A30EE18
:103F10000CCA88E6207C94ED071A00EE100AB8EE71
:103F2000400A20EE290A94ED06CA30EE010A0BF091
:103F30003BFF2CEE000ADDF80890B8F1020F30EEDE
:103F40000FFA3FF43CAF94F8200094ED0B1A00EE0A
:103F5000100AB8EE400A20EE290A94ED0ACA30EEA3
:103F6000010A0BF021FF2CEE000AB0EE48CA30EE39
:103F70000F8A62E6B0EE4C0AB4EE4C8A9FEDDACAC4
:103F8000F1EE10FA4FF000014FF00002C8BF01211E
:103F9000B8BF0122002BB0EE4C1A08BF0A46002A17
:103FA0001CBFB0EE481AB0EE4C0AB4EE410AF1EE76
:103FB00010FA4FF000014FF00002C8BF0121B8BF56
:103FC0000122002BB0EE4C2A08BF0A46002A1CBF73
:103FD000B0EE402AB0EE4C1AB4EE421AF1EE10FAEE
:103FE0004FF000014FF00002C8BF0121B8BF01220D
:103FF000002BB0EE4C0A08BF0A46002A1CBFB0EEE8
:10400000410AB0EE4C2AB4EE402AF1EE10FA4FF01D
:1040100000014FF00002C8BF0121B8BF0122002BF0
:10402000B0EE4C1A08BF0A46002A1CBFB0EE421A76
:10403000B0EE4C0AB4EE410AF1EE10FA4FF0000176
:104040004FF00002C8BF0121B8BF0122002BB0EE23
:104050004C2A08BF0A46002A1CBFB0EE402AB0EE28
:104060004C1AB4EE421AF1EE10FA4FF000014FF084
:104070000002C8BF0121B8BF0122002BB0EE4C0ADC
:1040800008BF0A46002A1CBFB0EE410AB0EE4C2A17
:10409000B4EE402AF1EE10FA4FF000014FF00002AA
:1040A000C8BF0121B8BF0122002BB0EE4C1A08BFD7
:1040B0000A46002A1CBFB0EE421AB0EE4C0AB4EE1B
:1040C000410AF1EE10FA4FF000014FF00002C8BFB4
:1040D0000121B8BF0122002BB0EE4C2A08BF0A46CE
:1040E000002A1CBFB0EE402AB0EE4C1AB4EE421AC1
:1040F000F1EE10FA4FF000014FF00002C8BF0121AD
:10410000B8BF0122002BB0EE4C0A08BF0A46002AB5
:104110001CBFB0EE410AB0EE4C2AB4EE402AF1EEDC
:1041200010FA4FF000014FF00002C8BF0121B8BFE4
:104130000122002BB0EE4C1A08BF0A46002A1CBF11
:10414000B0EE421AB0EE4C0AB4EE410AF1EE10FAAB
:104150004FF000014FF00002C8BF0121B8BF01229B
:10416000002BB0EE4C2A08BF0A46002A1CBFB0EE56
:10417000402AB0EE4C1AB4EE421AF1EE10FA4FF0AB
:1041800000014FF00002C8BF0121B8BF0122002B7F
:10419000B0EE4C0A08BF0A46002A1CBFB0EE410A26
:1041A000B0EE4C2AB4EE402AF1EE10FA4FF00001C6
:1041B0004FF00002C8BF0121B8BF0122002BB0EEB2
:1041C0004C1A08BF0A46002A1CBFB0EE421AB0EED5
:1041D0004C0AB4EE410AF1EE10FA4FF000014FF034
:1041E0000002C8BF0121B8BF0122002BB0EE4C2A4B
:1041F00008BF0A46002A1CBFB0EE402AB0EE4C1A97
:10420000B4EE421AF1EE10FA4FF000014FF0000246
:10421000C8BF0121B8BF0122002BB0EE4C3A08BF45
:104220000A46002A1CBFB0EE413AB0EE4C2AB4EE6A
:10423000432AF1EE10FA4FF000014FF00002C8BF20
:104240000121B8BF0122002BB0EE4C0A08BF0A467C
:10425000002A1CBFB0EE420AB0EE4C3AB4EE403A2F
:10426000F1EE10FA4FF000014FF00002C8BF01213B
:10427000B8BF0122002BB0EE4C8A08BF0A46002AC4
:104280001CBFB0EE438AB0EE4C0AB4EE480A0020E0
:10429000F1EE10FA4FF00001C8BF0121B8BF0120B4
:1042A000002B08BF084601280BD19FED0F8A63B988
:1042B000B4EE480AF1EE10FAC8BFB0EE408A0BE047
:1042C000009B002BB0EE4C0AF2D0B4EE480AF1EE9F
:1042D00010FAB8BFB0EE408AB0EE480A04B0BDECA8
:1042E000108B01B0BDE8F08F0000000010B540F267
:1042F0007004C2F2000400206060A0602070607052
:1043000040F2C410A11CC2F20000012205F076FEAA
:10431000002808BF10BDA0680130A06010BD0000DB
:10432000002804BF0020704740F27002EFF3108CA9
:1043300072B6C2F20002537811788B4204D18CF32A
:1043400010880020704700BF51781144097B01702C
:104350005078013000F0070050708CF31088012075
:104360007047000013460A46014600284FF000003F
:1043700018BF002A00D1704780B540F2C410C2F2C5
:10438000000005F093FEB0FA80F04009BDE88040DF
:1043900070470000F0B599B040F28406C2F2000602
:1043A000B46901AD0F4603461EA228466021009461
:1043B000FBF7F8FF2846FCF7CFF94FF6FF7188426C
:1043C00038BF014628463222FFF7CCFF7178707A59
:1043D000032907D130B10120A6F80700042030706E
:1043E00013E000BF0022F2710422327047B101399C
:1043F000012905D800203072384609F035FB707A63
:1044000068B1032070700120F07104F0BBFB00F56F
:10441000FA7070610AA026213222FFF7A3FF19B0BB
:10442000F0BD00BF475F464C4F572C6572726F72EC
:104430003D25732C7365713D256C750D0A000000D8
:10444000475F53545245414D2C73746174653D72FE
:1044500065747279696E672C61667465725F6D73DD
:104460003D3530300D0A00002DE9F04F89B040F2A3
:104470008405C2F200054FF2A837D5ED0C0A0246BA
:104480004CF6A870C2F200079FED2F0AC2F200009E
:104490004FF480513B46FDF7EBFA08B338782C8A8D
:1044A00000284FF00000ADF8224000F07F827988AC
:1044B000B1F5807F40F07A82B7F90CB0B7F90E0001
:1044C000BBF1000F48BFCBF1000B5845C8BF834676
:1044D00054B1B4F5806F16D94FF48064DEE100BFAB
:1044E000002009B0BDE8F08F0FF2C8400DF12201A5
:1044F00008F0ACFE002800F0CF81BDF822402C82ED
:10450000B4F5806FE8D8002C00F03E824EF6A87A11
:10451000BBF1000FC2F2000A00F0CA81B7F80290A6
:1045200045F25652601EA9F1010104F00308042C63
:10453000C5F25552CDE9061B08D24FF0000CB8F178
:10454000000F40F0FF80BBE18096984A09EB4901DB
:1045500003396FF00303059103EB8901049124F003
:104560000301494203916FF00101CDF8048001EB92
:1045700049014FF0000C07F110080094029100BFB0
:10458000BCFBF0F14FF0010A8FB21AFA81F601FB81
:1045900010C538F917704E4538BF314689B2441BF3
:1045A00038F911107C4305FB01414FF0EA0E91FBF5
:1045B000F0F1C1EBC11191FBFBF17F3151FB02F135
:1045C00001EBD17B6FF013011BF1140FD8BF8B46A9
:1045D0000699BBF1EA0F6144B1FBF0F44FF0EA0237
:1045E000A6B21AFA84F704FB1011A8BF934638F953
:1045F00016604F4538BF3C46A4B2451A38F91440FE
:10460000754301FB0451079A91FBF0F1C1EBC11115
:1046100091FBF2F145F256527F31C5F2555251FBF2
:1046200002F101EBD1756FF0130115F1140FD8BF32
:104630000D460299EA2D6144B1FBF0F4A8BF75461E
:10464000A7B21AFA84FE04FB101138F91770CE4590
:1046500038BF7446A4B2461A38F91440774301FBB8
:104660000471079A91FBF0F14FF0EA0EC1EBC11112
:1046700091FBF2F145F256527F31C5F2555251FB92
:1046800002F101EBD1716FF0130211F1140FD8BFD9
:104690001146059AEA2902EB0C07B7FBF0F6A8BF12
:1046A00071461AFA86F206FB1077B4B24A4538BF53
:1046B000164638F91440B6B2C21B38F91660624388
:1046C00007FB06220BF1140792FBF0F2DDF81CB099
:1046D0004EF6A87AC2EBC212C2F2000A92FBFBF2BB
:1046E0000AEB03061431B17102F17F0145F2565213
:1046F000C5F2555251FB02F1377105F1140701EB78
:10470000D171777111F1140F6FF01304D8BF2146E6
:10471000EA29A8BF71461431F17103990433194491
:10472000043104998C447FF42BAF009C4FF2A837DE
:10473000DDF8048003F1040CC2F20007B8F1000FA9
:1047400000F0BE80069901250CFB01F1B1FBF0F3EE
:1047500007F1100E15FA83F503FB10119AB24D45BF
:1047600038BF2B463EF912509BB2461A3EF9133021
:10477000754301FB035145F2565291FBF0F1C5F22E
:104780005552C1EBC11191FBFBF16FF013037F3167
:1047900051FB02F101EBD17111F1140FD8BF194691
:1047A000EA26EA29A8BF31461431B8F1010F0AF808
:1047B0000C1000F0858006990CF101025143B1FB09
:1047C000F0F5059222460124CDF8048014FA85F80C
:1047D00005FB10111FFA85FBC84538BF45463EF959
:1047E0001BB0ADB2441A3EF9158004FB0BF501FB7A
:1047F0000851079F91FBF0F11446C1EBC11191FBE9
:10480000F7F145F25652C5F255527F3151FB02F194
:1048100001EBD17111F1140FC8BF0B46EA2BB8BFE1
:104820001E460199059B022906F114010AF803109E
:10483000069945D00CF1020808FB01F3B3FBF0F533
:10484000012105FB103311FA85F11646AAB249453C
:104850003EF9122038BF0D46A9B2A0EB030C3EF979
:1048600011100CFB02F203FB012191FBF0F0C0EBF5
:10487000C01090FBF7F07F3050FB06F000EBD070DB
:1048800010F1140FD8BF6FF01300EA28A8BFEA2078
:1048900014300AF8080013E04FF40074ADF8224019
:1048A0004EF6A87ABBF1000FC2F2000A7FF436AED2
:1048B0004EF6A870C2F2000021463E22FBF79DFF93
:1048C000610861D0481E032801F0030002D20021D4
:1048D00032E000BF21F00302002100BFCB43E71804
:1048E000BFB21AF807601AF801500AF801600AF816
:1048F00007504F1CFF4327440AEB0103BFB21AF8CD
:1049000007605D785E700AF807508F1CFF432744EC
:10491000BFB21AF807609D789E700AF80750CF1C46
:10492000FF432744BFB21AF80760DD7804318A429A
:10493000DE700AF80750D1D130B3CA43224492B294
:104940001AF802301AF8017001280AF801300AF842
:10495000027019D04A1CD34323449BB21AF8037047
:104960001AF8026002280AF802700AF803600BD0F5
:10497000881CC143214489B21AF801201AF800307A
:104980000AF800200AF8013048F2A824C0F6010411
:10499000204600210AF08EFFBDF822304EF6A872A4
:1049A000C2F20002204600210BF02CF809B0BDE84D
:1049B000F08F00BF7330000040F28400C2F20000AC
:1049C000807B192818BF70472DE9F04F9BB04CF23F
:1049D000142AC2F2000A4CF61C100AF5D861C2F281
:1049E00000004822FBF7D7FEDAF80460DAF84C50F2
:1049F000DAF89470DAF8DC30DAF82421DAF8B40165
:104A00000296DAF8FC610395DAF844520497DAF872
:104A10008C720593DAF8D432DAF86C110692DAF86F
:104A20001C230890DAF8AC030996DAF8F4630A95C7
:104A3000DAF83C540B97DAF884740C93DAF8CC3437
:104A40000791DAF864130D92DAF814250F90109696
:104A5000DAF8EC651195DAF834561297DAF87C76C4
:104A60001393DAF8C43602A80E91DAF85C15DAF876
:104A7000A44500F1080E1492021DCDE91765CDE999
:104A800019730123002776461591169401920CE0C4
:104A90000024033300EB840103370C32192B06F199
:104AA0000C0681ED000A00F0C18000EB830191ED5E
:104AB000000A15463C4615ED011AB4EE401AF1EE17
:104AC00010FA29DD85ED001A1CB315ED021AB4EEBB
:104AD000401AF1EE10FA25DD012C05ED011A18D06F
:104AE00015ED031AB4EE401AF1EE10FA16DD022CA1
:104AF00005ED021A0DD015ED041AB4EE401AF1EED0
:104B000010FA0DDD043C05ED031A611CA5F110053A
:104B1000D1D1002406E000BF013403E0013C01E0F4
:104B2000023C00BF00EB84015C1C81ED000A00EB3D
:104B3000840191ED000A314611ED011AB4EE401ADC
:104B4000F1EE10FA2EDD012C81ED001A22D011EDCC
:104B5000021AB4EE401AF1EE10FA1DDD022C01ED3E
:104B6000011A17D011ED031AB4EE401AF1EE10FA43
:104B700014DD032C01ED021A0CD011ED041AB4EE71
:104B8000401AF1EE10FA0BDD043C01ED031AA1F11D
:104B90001001D1D1002405E0013C03E0023C01E01A
:104BA000033C00BF00EB84019C1C81ED000A00EB7C
:104BB000840191ED000A114691ED011AB4EE401AFC
:104BC000F1EE10FA7FF765AF012C81ED021A3FF488
:104BD0005FAF91ED001AB4EE401AF1EE10FA1FDD4E
:104BE000022C81ED011A3FF453AF11ED011AB4EE1E
:104BF000401AF1EE10FA15DD032C81ED001A3FF496
:104C000047AF11ED021AB4EE401AF1EE10FA0BDDC7
:104C1000043C01ED011AA1F11001CDD138E700BF2C
:104C2000013C36E7023C34E7033C32E70E994CF690
:104C30001C12C2F200025160DAF80810DAF85020B3
:104C4000DAF89830DAF8E0700291DAF82811039275
:104C5000DAF870210493DAF8B8310597DAF80072BF
:104C60000691DAF848120792DAF890220893DAF8F7
:104C7000D8320997DAF820730A91DAF868130B92A0
:104C8000DAF8B0230C93DAF8F8330D97DAF84074B9
:104C90000E91DAF888140F92DAF8D0241093DAF82B
:104CA00018351197DAF860751291DAF8A815139291
:104CB000DAF8F0250DF15C0C1493DAF83836159714
:104CC000DAF880761691DAF8C8168CE88C00019A2A
:104CD0000123002776461A910DE000BF002403331C
:104CE00000EB840103370C32192B06F10C0681ED21
:104CF000000A00F0C18000EB830191ED000A154627
:104D00003C4615ED011AB4EE401AF1EE10FA29DD19
:104D100085ED001A1CB315ED021AB4EE401AF1EE3F
:104D200010FA25DD012C05ED011A18D015ED031A36
:104D3000B4EE401AF1EE10FA16DD022C05ED021A5F
:104D40000DD015ED041AB4EE401AF1EE10FA0DDD97
:104D5000043C05ED031A611CA5F11005D1D1002416
:104D600006E000BF013403E0013C01E0023C00BF6B
:104D700000EB84015C1C81ED000A00EB840191EDE5
:104D8000000A314611ED011AB4EE401AF1EE10FAA4
:104D90002EDD012C81ED001A22D011ED021AB4EEA5
:104DA000401AF1EE10FA1DDD022C01ED011A17D0A8
:104DB00011ED031AB4EE401AF1EE10FA14DD032CD3
:104DC00001ED021A0CD011ED041AB4EE401AF1EE06
:104DD00010FA0BDD043C01ED031AA1F11001D1D151
:104DE000002405E0013C03E0023C01E0033C00BF7D
:104DF00000EB84019C1C81ED000A00EB840191ED25
:104E0000000A114691ED011AB4EE401AF1EE10FAC3
:104E10007FF765AF012C81ED021A3FF45FAF91ED92
:104E2000001AB4EE401AF1EE10FA1FDD022C81EDEB
:104E3000011A3FF453AF11ED011AB4EE401AF1EE2E
:104E400010FA15DD032C81ED001A3FF447AF11ED88
:104E5000021AB4EE401AF1EE10FA0BDD043C01ED3B
:104E6000011AA1F11001CDD138E700BF013C36E7AE
:104E7000023C34E7033C32E70E994CF61C12C2F2B6
:104E800000029160DAF80C10DAF85420DAF89C305D
:104E9000DAF8E4700291DAF82C110392DAF874214E
:104EA0000493DAF8BC310597DAF804720691DAF85F
:104EB0004C120792DAF894220893DAF8DC32099758
:104EC000DAF824730A91DAF86C130B92DAF8B42347
:104ED0000C93DAF8FC330D97DAF844740E91DAF893
:104EE0008C140F92DAF8D4241093DAF81C35119749
:104EF000DAF864751291DAF8AC151392DAF8F42541
:104F00000DF15C0C1493DAF83C361597DAF88476D8
:104F10001691DAF8CC168CE88C00019A0123002750
:104F200076461A910DE000BF0024033300EB8401A4
:104F300003370C32192B06F10C0681ED000A00F044
:104F4000C18000EB830191ED000A15463C4615ED4A
:104F5000011AB4EE401AF1EE10FA29DD85ED001ABF
:104F60001CB315ED021AB4EE401AF1EE10FA25DD6D
:104F7000012C05ED011A18D015ED031AB4EE401AF4
:104F8000F1EE10FA16DD022C05ED021A0DD015ED2A
:104F9000041AB4EE401AF1EE10FA0DDD043C05EDF2
:104FA000031A611CA5F11005D1D1002406E000BF51
:104FB000013403E0013C01E0023C00BF00EB84014E
:104FC0005C1C81ED000A00EB840191ED000A314682
:104FD00011ED011AB4EE401AF1EE10FA2EDD012C9B
:104FE00081ED001A22D011ED021AB4EE401AF1EE52
:104FF00010FA1DDD022C01ED011A17D011ED031A74
:10500000B4EE401AF1EE10FA14DD032C01ED021A91
:105010000CD011ED041AB4EE401AF1EE10FA0BDDCB
:10502000043C01ED031AA1F11001D1D1002405E0E7
:10503000013C03E0023C01E0033C00BF00EB8401C3
:105040009C1C81ED000A00EB840191ED000A1146E1
:1050500091ED011AB4EE401AF1EE10FA7FF765AF48
:10506000012C81ED021A3FF45FAF91ED001AB4EE0E
:10507000401AF1EE10FA1FDD022C81ED011A3FF407
:1050800053AF11ED011AB4EE401AF1EE10FA15DD2E
:10509000032C81ED001A3FF447AF11ED021AB4EE74
:1050A000401AF1EE10FA0BDD043C01ED011AA1F1FA
:1050B0001001CDD138E700BF013C36E7023C34E7B0
:1050C000033C32E74CF61C12C2F2000292F801B027
:1050D0000E99BBF1000FD16000F052824FF0000832
:1050E00008E000BF0E9908F10108D845CCF8081077
:1050F00000F046820AEB0817F9697A6E0291D7F838
:105100003C11D7F8AC30D7F8F4600392D7F884217B
:105110000691D7F85C120493D7F8CC310596D7F8EE
:1051200014620792D7F8A4220A91D7F87C13089347
:10513000D7F8EC320996D7F834630B92D7F8C4232A
:105140000E91D7F89C140C93D7F80C340D96D7F821
:1051500054640F92D7F8E4241291D7F8BC15109339
:10516000D7F82C351196D7F874651392D7F8042622
:105170001691D7F8DC160DF15C0C1493D7F84C3669
:105180001596D7F894668CE84C00DDF804C01A91A7
:105190000124002172460DE00023033400EB830359
:1051A00003310CF10C0C192C02F10C0283ED000AF6
:1051B00000F0C28000EB840393ED000A66460B46C4
:1051C00016ED011AB4EE401AF1EE10FA2ADD86ED62
:1051D000001A23B316ED021AB4EE401AF1EE10FADB
:1051E00026DD012B06ED011A19D016ED031AB4EED7
:1051F000401AF1EE10FA17DD022B06ED021A0ED05E
:1052000016ED041AB4EE401AF1EE10FA0EDD043B6E
:1052100006ED031A13F10109A6F11006D0D10023FF
:1052200006E000BF013303E0013B01E0023B00BFA9
:1052300000EB830383ED000A631C00EB830696ED0D
:10524000000A164616ED011AB4EE401AF1EE10FAF5
:105250002EDD012B86ED001A22D016ED021AB4EED7
:10526000401AF1EE10FA1DDD022B06ED011A17D0DF
:1052700016ED031AB4EE401AF1EE10FA14DD032B0A
:1052800006ED021A0CD016ED041AB4EE401AF1EE37
:1052900010FA0BDD043B06ED031AA6F11006D1D17E
:1052A000002305E0013B03E0023B01E0033B00BFBC
:1052B00000EB830383ED000AA31C00EB830696ED4D
:1052C000000A664696ED011AB4EE401AF1EE10FAA5
:1052D0007FF763AF012B86ED021A3FF45DAF96EDC9
:1052E000001AB4EE401AF1EE10FA1FDD022B86ED23
:1052F000011A3FF451AF16ED011AB4EE401AF1EE67
:1053000010FA15DD032B86ED001A3FF445AF16EDBC
:10531000021AB4EE401AF1EE10FA0BDD043B06ED72
:10532000011AA6F11006CDD136E700BF013B34E7E4
:10533000023B32E7033B30E74CF61C120E99C2F2F7
:10534000000202EB0812D161396A02F1180CBA6E40
:10535000D7F8B0300291D7F8F8100392D7F840216F
:105360000493D7F888310591D7F8D0110692D7F871
:1053700018220793D7F860320891D7F8A81209923B
:10538000D7F8F0220A93D7F838330B91D7F8801367
:105390000C92D7F8C8230D93D7F810340E91D7F894
:1053A00058140F92D7F8A0241093D7F8E83411912D
:1053B000D7F830151292D7F878251393D7F8C0355F
:1053C0001491D7F80816D7F8E04617AD1592D7F81C
:1053D00050261693D7F898361EC5019C0127002148
:1053E00072460CE00023033700EB830303310C34D7
:1053F000192F02F10C0283ED000A3FF473AE00EBAB
:10540000870393ED000A26460B4616ED011AB4EE0B
:10541000401AF1EE10FA29DD86ED001A1BB316EDE5
:10542000021AB4EE401AF1EE10FA25DD012B06ED5A
:10543000011A18D016ED031AB4EE401AF1EE10FA64
:1054400016DD022B06ED021A0DD016ED041AB4EE8D
:10545000401AF1EE10FA0DDD043B06ED031A5D1C57
:10546000A6F11006D1D1002306E000BF013303E00E
:10547000013B01E0023B00BF00EB830383ED000A28
:105480007B1C00EB830595ED000A164616ED011A0C
:10549000B4EE401AF1EE10FA2EDD012B86ED001A63
:1054A00022D016ED021AB4EE401AF1EE10FA1DDD0C
:1054B000022B06ED011A17D016ED031AB4EE401AAE
:1054C000F1EE10FA14DD032B06ED021A0CD016EDE6
:1054D000041AB4EE401AF1EE10FA0BDD043B06EDAF
:1054E000031AA6F11006D1D1002305E0013B03E029
:1054F000023B01E0033B00BF00EB830383ED000AA6
:10550000BB1C00EB830595ED000A264696ED011ABB
:10551000B4EE401AF1EE10FA7FF765AF012B86ED7D
:10552000021A3FF45FAF96ED001AB4EE401AF1EEA6
:1055300010FA1FDD022B86ED011A3FF453AF16ED72
:10554000011AB4EE401AF1EE10FA15DD032B86EDC8
:10555000001A3FF447AF16ED021AB4EE401AF1EE0E
:1055600010FA0BDD043B06ED011AA6F11006CDD1B1
:1055700038E700BF013B36E7023B34E7033B32E745
:1055800040F284010020C2F20001A1F80D001BB01E
:10559000BDE8F04F7047000040F28401C2F2000104
:1055A0004B7891F809C0032B08D1BCF1000F05D04E
:1055B0000122CA7104220A7010E000BF0022013BE0
:1055C000CA710422012B0A700DD80123BCF1000F0F
:1055D0000B7208BF704703224A70CB71CA7A012A46
:1055E00018BF14304861704740F28400C2F20000D6
:1055F000C07A012818BFFCF735BAFCF72DBA0000B5
:1056000040F28400C2F20000807B002804BF012029
:105610007047B0B54CF61C1C4CF2142EC2F2000CB4
:10562000C2F2000E9CF801109EF80100814240D1A8
:105630009CED010A9EED011A9FED202A30EE413AC1
:10564000B4EE423AF1EE10FA4FF0000032DC31EEE7
:10565000400AB4EE420AF1EE10FA2BDC61B34B1EA5
:1056600000211EE043B390F8284092F82850AC4245
:105670001FD1012B20D090F8384092F83850AC421E
:1056800017D1022B18D090F8480092F84820904289
:105690000FD1043B581C4FF0010001F1400108BF3D
:1056A000B0BD0CEB01000EEB0102047E157EAC4296
:1056B000D8D00020B0BD00BF0120B0BD00007A44AA
:1056C000F0B599B040F20C20C2F200004FF4005146
:1056D000FBF79BF84CF6A870C2F200004FF40051A3
:1056E000FBF793F84CF66410C2F200004821FBF778
:1056F0008CF84CF61C10C2F200004821FBF785F82C
:1057000040F284064FF2A830C2F200060024C2F232
:1057100000004FF40471C6E91444B465FBF775F852
:105720004EF6A870C2F200004FF48061FBF76DF8EE
:105730004CF6A830C2F200004FF48061FBF765F828
:105740004CF21420C2F200004FF4E161FBF75DF867
:105750003480B47003F016FAC6E90504F46103F06E
:1057600011FA3546C6E9080445F8284F03F00AFA4D
:1057700040F20111A6F80310C6F805407472718159
:10578000C6E90B04746303F0FDF97838B06303F0E5
:10579000F9F97838F06303F0F5F97838306403F0FC
:1057A000F1F97838B4813461B473C6E91104F46452
:1057B000FCF702F90120012707F0DEFC07F0DCFE10
:1057C000B07A08F043F9012008F024F9FBF728F932
:1057D0002846FBF789FE2B6847F6D07201AD0446D8
:1057E000F073C0F60102284660210094FAF7DAFD52
:1057F0002846FAF7B1FF4FF6FF71884238BF0146DD
:1058000028463222FEF7AEFD09A036213222FEF7ED
:10581000A9FD40F203307772F771308003F0B2F9DE
:10582000706111A030213222FEF79CFD19B0F0BD4D
:10583000475F53545245414D2C72656164793D3147
:105840002C6175746F3D312C636D643D433A726514
:1058500073746172742C533A73746F702C71756524
:1058600072793D3F0D0A0000475F53545245414D48
:105870002C73746174653D72756E6E696E672C6D04
:105880006F64653D63616C6962726174696F6E2CEF
:105890006175746F3D310D0A000000002DE9F04F75
:1058A0009DB003F06FF9029003A8FEF739FD40F2B6
:1058B00084070028C2F2000762D048F2261A47F691
:1058C000907B002503AE4FF0010840F20339C0F68B
:1058D000010A0FF63C34C0F6010B11E0BD7087F8E9
:1058E0000980A7F80780A7F8009078615046292121
:1058F0003222FEF737FD3046FEF712FD00283FD07A
:1059000003F040F99DF80C1001F0DF02532A09D092
:10591000432A15D1397811F0FB0FDFD020461B2127
:10592000E6E700BF3A787978787A12F0FB0F7D725B
:105930000CD00329DFD10FF674202D21D8E700BF4A
:105940003F29D8D158463F21D2E700BF0329A1F112
:105950000301B1FA81F14FEA511140EA0100FD71F2
:1059600008BF7D7010F001000FF68C200FF66C213F
:1059700018BF08464FF0150118BF1821B8E700BF3F
:10598000387BDDF8088001285DD1B86CA8EB0000F9
:10599000B0F5C87F57D9F87A002401383C7318BF96
:1059A0000120F87207F0E8FBF87A0138B0FA80F0CD
:1059B000400908F02FF84CF21420C2F200004FF416
:1059C000E161A7F80D40FAF720FF4CF66410C2F22F
:1059D00000004821FAF719FF4CF61C10C2F2000033
:1059E0004821FAF712FF0320F97A38700120F87184
:1059F000B87A0FF638220FF63C23012948F2BF216E
:105A000048F2DC26C7F8148008BF1346C0F601012F
:105A1000C0F6010648F2501203AC002808BF0E463B
:105A2000C0F60102204660210096FAF7BBFC204632
:105A3000FAF792FE4FF6FF71884238BF01462046C2
:105A40003222FEF78FFC00208DF86F001CA80DF1AC
:105A50006F0107F027FE002800F0788103F092F82C
:105A60009DF870104A1E042A50D8DFE802F0033374
:105A70004F1B3B00B96B411A7829C0F06781397818
:105A8000B86311F0FB0F00F0EB807878032840F04A
:105A90003D810120B87048F25F00C0F6010001F0BE
:105AA000F1FE53E1396C411A7829C0F04F81397801
:105AB000386411F0FB0F65D07878032840F01E8120
:105AC0000220B87048F28C00C0F6010001F0DAFE46
:105AD0003CE100BFF9780122012908BF03228DF8BB
