:020000040800F2
:10000000E8E00020710200086D6F0008856E0008AE
:10001000696F00082D09000865A7000800000000AE
:10002000000000000000000000000000497100080E
:100030003109000800000000716F0008E599000810
:100040008B0200088B0200088B0200088B0200085C
:100050008B0200088B0200088B0200088B0200084C
:100060008B0200088B0200088B0200088B0200083C
:100070008B0200088B0200088B0200088B0200082C
:100080008B0200088B0200088B0200088B0200081C
:100090008B0200088B0200088B0200088B0200080C
:1000A0008B0200088B0200088B0200088B020008FC
:1000B0008B0200088B0200088B0200088B020008EC
:1000C0008B0200088B0200088B0200088B020008DC
:1000D0008B02000859A700088B0200088B02000859
:1000E0008B0200088B0200088B0200088B020008BC
:1000F0008B0200088B0200088B0200088B020008AC
:100100008B0200088B0200088B0200088B0200089B
:1001100001A500088B0200088B0200088B02000872
:100120008B0200088B0200088B0200088B0200087B
:100130008B0200088B0200088B0200088B0200086B
:100140008B0200088B0200088B0200088B0200085B
:100150008B0200088B0200088B0200088B0200084B
:100160008B0200088B0200088B0200088B0200083B
:100170008B0200088B0200088B02000800000000C0
:100180008B0200088B02000800F002F800F060F813
:1001900014A696E8000CB244B344DA4501D100F04D
:1001A00057F8BAE80F000FA696E83000A5EB040553
:1001B00004EB0607AAEB0704A7F101074FEA1515A0
:1001C0004FEA3414A4F10104AC4201D300F040F82A
:1001D00013F0010F18BFFB1A43F0010300F001F800
:1001E000DBE71847BCA10200DCA10200103A24BFE3
:1001F00078C878C1FAD8520724BF30C830C144BF8C
:1002000004680C6070470000704700000023002461
:1002100000250026103A28BF78C1FBD8520728BF16
:1002200030C148BF0B607047642900F029817529EF
:1002300000F02681782900F05F81732900F0348373
:10024000002070471FB50CF00CFD1FBD10B510BD90
:1002500000F036FB1146FFF7F5FF0BF0FBFE00F058
:1002600054FB03B4FFF7F2FF03BC00F057FB0000A0
:100270000948804709480047FEE7FEE7FEE7FEE73A
:10028000FEE7FEE7FEE7FEE7FEE7FEE70448054976
:10029000054A064B70470000919A00088901000842
:1002A000E8CE0020E8E00020E8D00020E8D00020E0
:1002B00053EA020C00F069802DE9F04B4FF0000684
:1002C000002B1FBFB3FA83F503FA05F424FA05F6F1
:1002D0005E4012BF1643B2FA82F502FA05F4C5F188
:1002E00020051EBF22FA05FC44EA0C04203556EA1C
:1002F000044C4FEA144418BF641C4FF000084FF040
:100300000009904271EB030C39D3002919BFB1FAEF
:1003100081F701FA07F6B0FA80F700FA07F6C7F19D
:1003200020071EBF20FA07FC46EA0C062037B6FB62
:10033000F4FCA7EB0507103F07F01F0BCBF12006DD
:100340002CFA06F60CFA0BFB44BFB3460026202F0E
:10035000A4BF5E464FF0000B5BEA060C08BF4FF0EF
:10036000010B19EB0B0948EB0608ABFB027C06FB03
:1003700002CC0BFB03CCC01B71EB0C01C1E70B469D
:10038000024641464846BDE8F08B13B5084318BF06
:100390004FF0FF300146AFF30080BDE81C407047CE
:1003A0000FB41CB50C0007AA009007D04142A1422F
:1003B00002D32044401E01E04FF0FF30074B7B4446
:1003C00069460190069800F042FA0021002C01D005
:1003D000009A11701CBC5DF814FB0000B30400000F
:1003E00070B5044685690068C10601D5302600E075
:1003F0002026C00707D070BDD4E9012130469047C0
:10040000206A401C20626D1EF6D570BD70B5044692
:1004100085690078C00707D170BDD4E9012120208B
:100420009047206A401C20626D1EF6D570BD70B5E5
:100430000C460546012A05D02878800600D5EA69D1
:10044000002302E0012305E05B1C934202D2E05C42
:100450000028F9D1A869E618C01AA861286A1844CA
:1004600028622846FFF7BCFF04E0D5E9012114F813
:10047000010B9047B442F8D32846FFF7C7FF70BD81
:100480002DE9F0410646002410687529314616A56D
:1004900010D0AFF30080002802DA404213A507E035
:1004A00031688A0701D512A502E0490704D511A5D4
:1004B000012401E0AFF3008000210A2206F12407A5
:1004C00009E0B0FBF2FCB0FBF2F302FB1C003030A1
:1004D00078541846491C0028F3D123462A46304652
:1004E000BDE8F04100F054B9000000002D0000000C
:1004F0002B0000002000000070B504460D46214688
:100500001068AFF300802188090502D50F4A7A44AC
:1005100002E00E4A7A440E32002104F1240305E081
:1005200000F00F060009965D5E54491C0028F7D1C3
:1005300020780023000704D5702D02D009B10223D2
:1005400011322046BDE8704000F022B9CAC7000051
:100550002DE9F05F894604464FF0000ADFF874B1D8
:10056000FB44C0F820A02046E1688847002874D0EA
:10057000252806D0D4E901219047206A401C20623A
:10058000F1E700265F462046E168884720280546B7
:1005900007DB312D05D2781910F8200C08B106437D
:1005A000F1E7B00701D526F00406C4F81CA0002727
:1005B000C4F818A02A2D09D028460CF005FB38B342
:1005C00004EB8708303DC8F8185019E059F8041BAF
:1005D000204604EB87029161E1688847012F0546B8
:1005E00018D1E069002820DA26F020061DE0D8F8AE
:1005F000180000EB800005EB40003038C8F8180008
:100600002046E168884705460CF0DEFA0028EED166
:10061000012F0AD02E2D08D12046E16888477F1C83
:100620000546022F46F02006C4DBA069002803DA45
:10063000404246F00106A061F00701D026F0100606
:100640006C2D0BD0682D09D04C2D39D06A2D35D0AA
:10065000742D35D07A2D33D016E038E0E1682F467E
:1006600020468847B842054609D16C2F26D04FF462
:100670008060E168064320468847054604E06C2F09
:100680001AD04FF4807006430DB3A5F1410019282C
:1006900002D8203546F400664A46294620462660A0
:1006A0004E46FFF7C1FD80B101280BD0F61D26F0A4
:1006B000070000F1080956E74020E4E78020D8E76A
:1006C0000020D6E706F104094DE7284652E7206AE4
:1006D000BDE8F09FA0C7000010B5431C02E010F871
:1006E000011B71B18107FAD14FF0013202C88C1A97
:1006F0008C4314EAC211F9D0C01A0A0603D0C01EF6
:1007000010BDC01A10BD0A0401D0801E10BD090220
:10071000FCD0401E10BD02F0FF0343EA032242EA70
:10072000024200F002B84FF0000200B513469446B2
:100730009646203922BFA0E80C50A0E80C50B1F139
:100740002001BFF4F7AF090728BFA0E80C5048BF4D
:100750000CC05DF804EB890028BF40F8042B08BFEB
:10076000704748BF20F8022B11F0804F18BF00F8E7
:10077000012B704770477047704710B500F098F82C
:10078000006810BD10B5044600F092F8046010BD7A
:100790002DE9F0470D4699469246044600F124089B
:1007A0000168880604D5E06921F01001216000E0AD
:1007B0000120A84201DD471B00E00027A1697A194A
:1007C00002EB0900081AA0612078C00602D4204676
:1007D000FFF706FE002608E0D4E901211AF806001A
:1007E0009047206A401C761C20624E45F4DB20783E
:1007F000C0060AD52046FFF7F3FD06E0D4E9012143
:1008000030209047206A401C2062381EA7F1010763
:10081000F4DC07E0D4E9012118F805009047206ACC
:10082000401C2062281EA5F10105F3DC2046FFF7DD
:10083000EDFD2078000602D50220BDE8F0870120FA
:10084000FBE7000001694A1C02610878704700B5A7
:100850008FB0CDE901310021059105497944CDE9F9
:10086000031011466846FFF773FE0FB000BD00008D
:10087000E5FFFFFFD1E900239A4202D2531C0B602F
:100880001070704710B5436913B1AFF3008001E0F9
:10089000FFF7CDFD012010BD127800F124010A7090
:1008A00000224A700122EDE711684FF0FF32E9E7BC
:1008B00000487047100000200048704710000020DA
:1008C0007546FFF7F9FFAE4605006946534620F02E
:1008D0000700854618B020B5FFF7D8FCBDE82040DA
:1008E0004FF000064FF000074FF000084FF0000BEC
:1008F000AC46ACE8C009ACE8C009ACE8C009ACE85B
:10090000C00921F007018D46704710B50446AFF3CA
:1009100000802046BDE81040FFF7A3BC0149182025
:10092000ABBEFEE72600020070470000FEE70000B5
:100930007047000072B600BFFEE700002DE9F041ED
:1009400086B0002643F630000496CDE90266CDE974
:1009500000660596C4F202000168002441F001011E
:1009600001600068C4F2020400F0010005900598DF
:1009700041F20405204610210122CEF200054FF07D
:100980001008012704F018FF032003906946204651
:10099000CDE90087029604F03FFE4EF6FC50CEF201
:1009A0000000016841F0807101602E6055F8040C70
:1009B00042F2E01140F0010045F8040C55F8040C37
:1009C000C2F2000110F00100087017D1402005901C
:1009D0000598411E0591C8B300BF0598411E0591B9
:1009E000A0B300BF0598411E059178B300BF0598DC
:1009F000411E059150B300BFEAE700BF40F2080076
:100A0000C2F2000000684DF68361C4F21B31A0FB06
:100A1000010128682B686FF0010202EA51411A1A9D
:100A20008A4213D200BF2A68121A8A420ED200BF2D
:100A30002A68121A8A4209D200BF2A68121A8A4208
:100A400004D200BF2A68121A8A42EBD306B0BDE86E
:100A5000F08100002DE9F04184B0002041F204054E
:100A6000C4F2020010210122CEF2000504F0A4FE1F
:100A700042F2E016C2F20006307840F208084DF665
:100A800083670028C2F20008C4F21B3760D0D8F890
:100A90000000A0FB070128682A68890C01EB81018E
:100AA000121AB2EB410F15D2490000BF00BF2A68ED
:100AB000121A8A420ED200BF2A68121A8A4209D23A
:100AC00000BF2A68121A8A4204D200BF2A68121A8A
:100AD0008A42EBD340F24014C2F20004204605F0F3
:100AE00017FA2068016821F040010160002101919E
:100AF000C1680191816801910199016841F040014B
:100B000001603078002841D0D8F800006FF0010271
:100B1000A0FB070128682B6802EA51411A1A8A4291
:100B200013D200BF2A68121A8A420ED200BF2A6866
:100B3000121A8A4209D200BF2A68121A8A4204D2C3
:100B400000BF2A68121A8A42EBD304B0BDE8F081D4
:100B50004FF4A070029000BF0298411E002802913D
:100B6000B8D000BF0298411E00280291B2D000BF49
:100B70000298411E00280291ACD000BF0298411E8D
:100B800000280291A6D000BFE6E700BF40200390F6
:100B90000398411E00280391D7D000BF0398411E3F
:100BA00000280391D1D000BF0398411E0028039173
:100BB000CBD000BF0398411E00280391C5D000BFD1
:100BC000E6E700002DE9F04784B00C4640F200084B
:100BD0000021C4F202080191010C164641F20407FB
:100BE000ADF80810ADF80A00404610210122CEF2FF
:100BF000000704F0E1FD42F2E015C2F2000528789A
:100C000040F2080A4DF683690028C2F2000AC4F2D5
:100C10001B3900F08980DAF800006FF00102A0FBB8
:100C2000090138683B6802EA51411A1A8A4213D214
:100C300000BF3A68121A8A420ED200BF3A68121AEE
:100C40008A4209D200BF3A68121A8A4204D200BF0F
:100C50003A68121A8A42EBD340461021002204F06F
:100C6000ABFD287800287DD0DAF80000A0FB090150
:100C700038683A68121AB2EB914F15D2890C00BF4E
:100C800000BF3A68121A8A420ED200BF3A68121A9E
:100C90008A4209D200BF3A68121A8A4204D200BFBF
:100CA0003A68121A8A42EBD340F24010C2F20000B6
:100CB00002A901AA0223009605F0ACFA297806469B
:100CC00000296BD0DAF80000A0FB090138683A6807
:100CD000121AB2EB914F15D2890C00BF00BF3A68CF
:100CE000121A8A420ED200BF3A68121A8A4209D2F8
:100CF00000BF3A68121A8A4204D200BF3A68121A38
:100D00008A42EBD340461021012204F055FD002E0B
:100D100060D0FFF79FFE0020002C4FF0000161D152
:100D200004B0BDE8F08700BF402003900398411E47
:100D30000028039190D000BF0398411E0028039122
:100D40003FF48AAF00BF0398411E002803913FF48F
:100D500083AF00BF0398411E002803913FF47CAF8E
:100D600000BFE3E7202003900398411E0028039171
:100D70009AD000BF0398411E0028039194D000BF71
:100D80000398411E002803918ED000BF0398411E96
:100D9000002803913FF488AF00BFE5E720200390CF
:100DA0000398411E00280391ACD000BF0398411E58
:100DB00000280391A6D000BF0398411E002803918C
:100DC000A0D000BF0398411E002803919AD000BF15
:100DD000E6E700BF64B1BDF80400BDF8061041EAC3
:100DE000004001212060084604B0BDE8F08700BF44
:100DF000012004B0BDE8F0872DE9F04F83B08246B2
:100E000000284FF0000000F0658141F201028A1ACB
:100E100012F5805FC0F05E81CDE900104FF0085000
:100E200000210A22FFF7CEFE90B3009802281ED3BD
:100E3000009801264442C2F2002601AF4FF6FF7B24
:100E4000554600BF304639460A22FFF7BBFEF8B1CF
:100E50000198002220EA0B01C5F24132914217D1DC
:100E60000136A119B1F1085F25F8020BEAD101A9F9
:100E700000200A22FFF7A6FE50B101984FF6FF713D
:100E8000002220EA0101C5F24132914200F0E480E3
:100E900041F20407CEF20007FFF7DCFD42F2E0105A
:100EA000C2F2000000784DF68361002840F208008D
:100EB000C2F20000C4F21B3100F010810068A0FBF8
:100EC000010138683A68890C01EB8101121AB2EB12
:100ED000410F15D2490000BF00BF3A68121A8A427A
:100EE0000ED200BF3A68121A8A4209D200BF3A688D
:100EF000121A8A4204D200BF3A68121A8A42EBD30D
:100F0000002001904FF0085000210A22FFF75AFEFE
:100F100098B30098022820D300984FF00009441E8F
:100F20004FF4083501AE4FF6FF7800BF09F1010B11
:100F3000584665F31F3031460A22FFF743FEE0B101
:100F40000198002220EA0801C5F24132914214D1F1
:100F50002AF819005C45D946E8D101A900200A22E7
:100F6000FFF730FE48B101984FF6FF71002220EAEA
:100F70000101C5F2413291426ED0FFF76BFD42F2A2
:100F8000E010C2F200000078002800F0C98040F2B2
:100F90000800C2F2000000684DF68361C4F21B3104
:100FA000A0FB010138683A68890C01EB8101121A33
:100FB000B2EB410F14D2490000BF3A68121A8A42BC
:100FC0000ED200BF3A68121A8A4209D200BF3A68AC
:100FD000121A8A4204D200BF3A68121A8A42EBD32C
:100FE000002001904FF0085000210A22FFF7EAFD8F
:100FF000E0B3009802281FD300980026441E4FF447
:10100000083B0DF104094FF6FF7800BF751C284618
:101010006BF31F3049460A22FFF7D4FD30B3019825
:10102000002220EA0801C5F2413291421ED12AF87D
:101030001600AC422E46E9D101A900200A22FFF792
:10104000C1FD98B101984FF6FF71002220EA01011D
:10105000C5F24132914209D100990AEB410121F8D0
:10106000020C012003B0BDE8F08F00BFFFF7F2FCD7
:1010700042F2E010C2F200000078002872D040F284
:101080000800C2F2000000684DF68361C4F21B3113
:10109000A0FB0101880C39683A6800EB8000521A05
:1010A000B2EB400F78D2420000BF3868401A90423D
:1010B00072D200BF3868401A90426DD200BF3868C3
:1010C000401A904268D200BF3868401A90424FF0F0
:1010D0000000E9D303B0BDE8F08F00BF4FF4A0706B
:1010E000029000BF0298411E002802913FF408AF11
:1010F00000BF0298411E002802913FF401AF00BFDB
:101100000298411E002802913FF4FAAE00BF0298F7
:10111000411E002802913FF4F3AE00BFE2E700BF9A
:101120004FF4A070029000BF0298411E0028029167
:101130003FF456AF00BF0298411E002802913FF4D1
:101140004FAF00BF0298411E002802913FF448AF04
:1011500000BF0298411E002802913FF441AF00BF3A
:10116000E2E700BF4FF4A070029000BF0298411E5A
:10117000029188B100BF0298411E029160B100BF88
:101180000298411E029138B100BF0298411E02919F
:1011900010B100BFEAE700BF002003B0BDE8F08F48
:1011A0002DE9F04182B004460020002C009000F0B0
:1011B000C58020604FF0045000210A22FFF702FD95
:1011C00060B1694600200A22FFF7FCFC30B10098AC
:1011D00020F00701B1F1805F00F0838042F2E01659
:1011E000C2F20006307841F2040540F208084DF6DC
:1011F0008367CEF200050028C2F20008C4F21B3754
:1012000000F0A080D8F80000A0FB070128682A6839
:10121000890C01EB8101121AB2EB410F14D2490083
:1012200000BF2A68121A8A420ED200BF2A68121A18
:101230008A4209D200BF2A68121A8A4204D200BF29
:101240002A68121A8A42EBD34FF0045000210A2276
:10125000FFF7B8FC58B1694600200A22FFF7B2FC3C
:1012600028B1009820F00701B1F1805F39D03078C3
:10127000002800F08980D8F80000A0FB070128684A
:101280002A68890C01EB8101121AB2EB410F15D2C9
:10129000490000BF00BF2A68121A8A420ED200BF5E
:1012A0002A68121A8A4209D200BF2A68121A8A4290
:1012B00004D200BF2A68121A8A42EBD34FF00450BE
:1012C00000210A22FFF77EFC80B1694600200A2235
:1012D000FFF778FC50B1009820F00701B1F1805F72
:1012E00004D12060012002B0BDE8F08130780028F0
:1012F0006AD0D8F80000A0FB0701880C29682A688A
:1013000000EB8000521AB2EB400F77D2420000BFD0
:1013100000BF2868401A904270D200BF2868401A67
:1013200090426BD200BF2868401A904266D200BF3C
:101330002868401A90424FF00000E9D302B0BDE89F
:10134000F08100BF4FF4A070019000BF0198411ED2
:10135000002801913FF478AF00BF0198411E00289A
:1013600001913FF471AF00BF0198411E0028019127
:101370003FF46AAF00BF0198411E002801913FF47D
:1013800063AF00BFE2E700BF4FF4A070019000BF61
:101390000198411E0028019190D000BF0198411E84
:1013A000002801913FF48AAF00BF0198411E002838
:1013B00001913FF483AF00BF0198411E00280191C5
:1013C0003FF47CAF00BFE3E74FF4A070019000BF93
:1013D0000198411E019188B100BF0198411E019101
:1013E00060B100BF0198411E019138B100BF019862
:1013F000411E019110B100BFEAE700BF002002B01A
:10140000BDE8F0812DE9F04182B004460020002CB7
:10141000009018BF20604FF0005000210A22FFF713
:10142000D1FB58B1694600200A22FFF7CBFB28B157
:10143000009840F2D241884200F0808042F2E016EB
:10144000C2F20006307841F2040540F208084DF679
:101450008367CEF200050028C2F20008C4F21B37F1
:1014600000F0A280D8F80000A0FB070128682A68D5
:10147000890C01EB8101121AB2EB410F14D2490021
:1014800000BF2A68121A8A420ED200BF2A68121AB6
:101490008A4209D200BF2A68121A8A4204D200BFC7
:1014A0002A68121A8A42EBD34FF0005000210A2218
:1014B000FFF788FB50B1694600200A22FFF782FB44
:1014C00020B1009840F2D241884237D030780028CD
:1014D00000F08C80D8F80000A0FB070128682A687B
:1014E000890C01EB8101121AB2EB410F14D24900B1
:1014F00000BF2A68121A8A420ED200BF2A68121A46
:101500008A4209D200BF2A68121A8A4204D200BF56
:101510002A68121A8A42EBD34FF0005000210A22A7
:10152000FFF750FB90B1694600200A22FFF74AFB03
:1015300060B1009840F2D241884207D1002C4FF0B0
:10154000010018BF216002B0BDE8F08130780028AA
:101550006ED0D8F80000A0FB070128682A68890C23
:1015600001EB8101121AB2EB410F15D2490000BF05
:1015700000BF2A68121A8A420ED200BF2A68121AC5
:101580008A4209D200BF2A68121A8A4204D200BFD6
:101590002A68121A8A42EBD3002C67D000990020E7
:1015A000216002B0BDE8F0814FF4A070019000BF4F
:1015B0000198411E002801913FF476AF00BF0198C9
:1015C000411E002801913FF46FAF00BF0198411EFA
:1015D000002801913FF468AF00BF0198411E002828
:1015E00001913FF461AF00BFE2E700BF4FF4A0708C
:1015F000019000BF0198411E002801913FF48CAF7B
:1016000000BF0198411E002801913FF485AF00BF43
:101610000198411E002801913FF47EAF00BF019860
:10162000411E002801913FF477AF00BFE2E700BF01
:101630004FF4A070019000BF0198411E0028019155
:10164000AAD000BF0198411E00280191A4D000BF7C
:101650000198411E002801919ED000BF0198411EB3
:101660000028019198D000BFE6E700BF002002B03B
:10167000BDE8F0812DE9F04383B045F245664FF0B7
:1016800044540028C5F241764FF0000008BF4FF0E7
:10169000405404BF44F65946C4F24E160190204609
:1016A00000210A22FFF78EFA40B101A900200A2288
:1016B000FFF788FA10B10198B0427AD042F2E017F1
:1016C000C2F20007387841F2040540F208094DF6ED
:1016D0008368CEF200050028C2F20009C4F21B386C
:1016E00000F09880D9F80000A0FB080128682A685B
:1016F000890C01EB8101121AB2EB410F14D249009F
:1017000000BF2A68121A8A420ED200BF2A68121A33
:101710008A4209D200BF2A68121A8A4204D200BF44
:101720002A68121A8A42EBD3204600210A22FFF7C8
:1017300049FA40B101A900200A22FFF743FA10B18B
:101740000198B04235D03878002800F08580D9F86B
:101750000000A0FB080128682A68890C01EB8101C0
:10176000121AB2EB410F15D2490000BF00BF2A6820
:10177000121A8A420ED200BF2A68121A8A4209D26D
:1017800000BF2A68121A8A4204D200BF2A68121ABD
:101790008A42EBD3204600210A22FFF713FA68B1F0
:1017A00001A900200A22FFF70DFA38B10198B042D2
:1017B00004D1012003B0BDE8F08300BF38780028D1
:1017C0006AD0D9F80000A0FB0801880C29682A68B3
:1017D00000EB8000521AB2EB400F77D2420000BFFC
:1017E00000BF2868401A904270D200BF2868401A93
:1017F00090426BD200BF2868401A904266D200BF68
:101800002868401A90424FF00000E9D303B0BDE8C9
:10181000F08300BF4FF4A070029000BF0298411EF9
:10182000002802913FF480AF00BF0298411E0028BB
:1018300002913FF479AF00BF0298411E0028029147
:101840003FF472AF00BF0298411E002802913FF49E
:101850006BAF00BFE2E700BF4FF4A070029000BF83
:101860000298411E0028029194D000BF0298411EA8
:10187000002802918ED000BF0298411E00280291DC
:101880003FF488AF00BF0298411E002802913FF448
:1018900081AF00BFE4E700BF4FF4A070029000BF2B
:1018A0000298411E029188B100BF0298411E029128
:1018B00060B100BF0298411E029138B100BF02988A
:1018C000411E029110B100BFEAE700BF002003B043
:1018D000BDE8F08342F2FC20C0F601007047000032
:1018E0002DE9F0472DED0E8B0E4602F0FD0101298A
:1018F0003ED10546E0B3042E3AD3CBB3B5EE400A51
:10190000B0EE408AF1EE10FA32DDF5EE400AB0EEAC
:10191000609AF1EE10FA2BDDB6EE00AA28EE0A0A64
:10192000B4EE409AF1EE10FA22DA18464FF4047140
:1019300092469846FEF7F7FE88EE09DA00EE10AA06
:10194000B8EE400AB01E2DEE00BA00EE100AB8EE56
:10195000400AB4EE40BAF1EE10FA00F36E81042EA4
:1019600006F0030912D29FEDB70A002039E000BF4C
:10197000002B00F0628118464FF40471FEF7D3FE8D
:101980000020BDEC0E8BBDE8F08700BF9FEDAD0AD7
:1019900026F00301A5F10802002000BF32F9083F3C
:1019A000043001EE103AB2F90230B8EEC11A30EE4E
:1019B000010AB2F9047001EE103AB8EEC11AB2F998
:1019C000064030EE010A01EE107AB8EEC11A30EE90
:1019D000010A01EE104AB8EEC11A814230EE010A46
:1019E000DCD1B9F1000F1FD035F91010B9F1010F9A
:1019F00001EE101AB8EEC11A30EE010A14D005EB50
:101A00004000B0F90210B9F1020F01EE101AB8EE61
:101A1000C11A30EE010A07D0B0F9040001EE100A35
:101A2000B8EEC11A30EE010A01EE106A9FEDE42A09
:101A3000B8EE411A80EE01CA29EE020A80EE088A49
:101A4000B0EE480A0AF082FDB0EE409AB0EE480AC5
:101A50000AF028FF042EB1EE402A80F0F580DFED79
:101A6000790AB7EE003A0020B0EE601AB0EE605A84
:101A7000B9F1000F00F0818035F9101025EE024A0F
:101A800023EE096A36EE044A06EE101AB8EEC66A6C
:101A900036EE4C6A26EE037A26EE056A20EE033A0D
:101AA00025EE095AC1B2FF2935EE033A14D123EECF
:101AB000035A64EE041A31EE855AF7EE002AB5EEA9
:101AC000405AF1EEC51AF1EE10FAC8BFF0EE612AE5
:101AD00083EE223A84EE224A77EE200AB9F1010F12
:101AE00036EE011A49D0411C35F9112023EE022AA5
:101AF00005EE102AB8EEC55A35EE4C5A25EE046AAA
:101B000025EE035A24EE097A20EE040A23EE093A60
:101B1000C9B237EE022AFF2933EE000A14D120EEB3
:101B2000003A22EE024A34EE033AB7EE007AB5EEFE
:101B3000403AB1EEC34AF1EE10FAC8BFB0EE447AB3
:101B400080EE070A82EE072A76EE200AB9F1020F2C
:101B500035EE011A11D005EB4000B0F9040003EE98
:101B6000100AB8EEC33A33EE4C3A23EE022A23EEC3
:101B7000000A72EE200A30EE011AB0EEE00AB0EE72
:101B8000C12A9FED903A32EE000AB4EE430AF1EE1C
:101B900010FA52DBB1EE410A0AF082FBB1EE400AC4
:101BA00080EE080AB5EE400AF1EE10FA33DA3DEEA7
:101BB000000AB5EE400AF1EE10FA2CDA3DEE000A0A
:101BC000B5EE400AF1EE10FA25DA3DEE000AB5EE68
:101BD000400AF1EE10FA1EDA3DEE000AB5EE400AB8
:101BE000F1EE10FAE3DB16E030EE4D0AB4EE4D0AEA
:101BF000F1EE10FA14DB30EE4D0AB4EE4D0AF1EEC0
:101C000010FA0DDB30EE4D0AB4EE4D0AF1EE10FA8B
:101C100006DB30EE4D0AB4EE4D0AF1EE10FAE3DACF
:101C2000701E02EE100A3BEE001AB8EE422AB4EE25
:101C3000421AF1EE10FA40F3A9800020BDEC0E8BA1
:101C4000BDE8F08700000000DFEDC90AB7EE004AEA
:101C500026F003012A1D0020B0EE601AB0EE446A9F
:101C6000B0EE607A48E000BF32F9043C32F9027C01
:101C700007EE903AF8EEE77A77EECC7A27EE877A9D
:101C800037EE011A07EE107AB8EEC77A27EE866AA9
:101C900037EE4C7A32F9083B36EE206A67EE250AB9
:101CA00027EE267A37EE011A07EE103AB8EEC77A19
:101CB00037EE4C7A32F9063C30EE866A67EE230A3C
:101CC00027EE247A37EE011A07EE103AB8EEC77AFB
:101CD00037EE4C7A30EE866A67EE210A70EE860A9D
:101CE00027EE226A043036EE011A8142B0EE436AD2
:101CF000B0EE457A3FF4BCAE27EE023A26EE095A22
:101D000075EE035A20EE063A27EE095A75EE036A7D
:101D100026EE823A25EE895A75EE033A20EE253AF0
:101D200026EE895A75EE034A24EE823A23EE895A4A
:101D300075EE031A20EE233A24EE895A75EE032A33
:101D400022EE823A21EE895AC31C35EE033ADBB209
:101D500020EE215A62EE897AFF2B37EE855A83D125
:101D600065EE057A23EE03EA7EEE277AB1EEE7EA26
:101D7000F5EE407AF0EE447AF1EE10FAC8BFF0EEDC
:101D80004E7A85EE275A83EE273A6DE747F6FF70C5
:101D9000C8F200009FED771A9FED773A9FED775AD2
:101DA00048F20003C8F80C004FF40047002047F643
:101DB000FF72B7EE002ABEEE004ACFF6FF732EE0A8
:101DC000DB0FC940BD378635B5EE406AB0EE447AC8
:101DD000F1EE10FAA8BFB0EE4A7A36EE077ABDEE01
:101DE000C77AB4EE456A17EE101AF1EE10FA16B281
:101DF000D8BF1946B14208EB40067182BCBFA8F8B3
:101E00000C100A463EB20CB2B44200F10200C4BF4C
:101E1000A8F80E100F46B0F5807F00F0978081B2D1
:101E200006EE101AB8EE466A2BEE066A86EE016AD6
:101E300030EE066ABDEEC67A17EE101A35F911605B
:101E4000013189B235F91110B8EE477A00EE901AD7
:101E500036EE476A07EE106AF8EEE00AB8EEC77A87
:101E600070EECC0A37EE4C7A66EE200A32EE466A05
:101E700027EE066A36EE206AB4EE436AF1EE10FAF7
:101E80001EDAB5EE406AB0EE447AF1EE10FAA8BF61
:101E9000B0EE4A7A36EE077ABDEEC77AB4EE456AFE
:101EA00017EE101AF1EE10FA16B2D8BF1946B14269
:101EB00008EB40063182BCBFA8F80C100A4604E0CB
:101EC00008EB400647F6FF7131823EB20CB2B442D5
:101ED000C4BFA8F80E100F46411C89B206EE101AB6
:101EE000B8EE466A2BEE066A86EE016A30EE066AA6
:101EF000BDEEC67A17EE101A35F91160013189B2BC
:101F000035F91110B8EE477A00EE901A36EE476AAE
:101F100007EE106AF8EEE00AB8EEC77A70EECC0A67
:101F200037EE4C7A66EE200A32EE466A27EE066AF3
:101F300036EE206AB4EE436AF1EE10FAFFF644AFD3
:101F400008EB400647F6FF7171825BE74FF4807043
:101F5000A8F80200012088F801A088ED010A88EDA8
:101F600002BA88F80000BDEC0E8BBDE8F08700BF18
:101F70000000000000007F4300FEFF46000000C795
:101F80002DE9F04F81B02DED108B88B0144600285C
:101F900018BF002C02D134B909E000BF0278002A32
:101FA00018BF00290AD120464821FEF7BCFB0020BB
:101FB00008B0BDEC108B01B0BDE8F08F8278043A18
:101FC00012F1030FEFD30B68002BECD00A79002A33
:101FD000E9D093ED000AB5EE400AF1EE10FAE2DD29
:101FE00093ED010AB5EE400AF1EE10FADBDD012AAD
:101FF0002CD1CDE9040120464821FEF794FBDDF801
:1020000010E09FEDA00A9EF80250DEF80410616017
:102010006570CDB3DDF814A00EF118009AF8041025
:10202000DAF80060CBB204F11807012B06F1040BBB
:102030000290039506972BD19BED002A042D05F005
:10204000030C7BD29FED8F1A0023CDE0013A0833B9
:1020500093ED000AB5EE400AF1EE10FA9BDD93ED28
:10206000011AB5EE401AF1EE10FA94DD13ED021AE2
:10207000B4EE410AF1EE10FA7FF78DAF013A03F1A9
:102080000803E5D1B5E700BFDDF814A0E6E300BF23
:1020900096ED002A0806A6F1040200F0E980012D61
:1020A00002EBC3000790CDE9003640F0ED809FEDD4
:1020B000751A00220398C00700F0D382029800EB43
:1020C000021696ED013A07EB0212B4EE423AF1EE37
:1020D00010FA40F39B820098811E019800F12003C2
:1020E00013ED062AB4EE423AF1EE10FA40F3928272
:1020F00001B313ED042AB4EE423AF1EE10FA40F3C4
:102100008B82012916D013ED022AB4EE423AF1EE89
:1021100010FA40F3838202290CD093ED002AB4EE2A
:10212000423AF1EE10FA40F37A820439481C03F186
:102130002003D5D1079890ED002A82E26FF030019C
:102140009FED501A01EA0517002600230EEB060545
:1021500095ED083AE869A1192A7E22EE033AC86192
:10216000686A81ED083A23EE033A0A7633EE011AE3
:1021700095ED0C3A486295F8280022EE033A81F872
:102180002800686B81ED0C3A23EE033A33EE011A16
:1021900095ED103AEA6A486395F8380022EE033A62
:1021A000CA6281F83800686C81ED103A23EE033A78
:1021B000EA6B33EE011A95ED143A486495F848003D
:1021C000CA6322EE033AEA6C81F84800686D81ED3B
:1021D000143A23EE033A403633EE011AB74203F1C4
:1021E0000403CA644865B1D1069FBCF1000F00F03A
:1021F0003882DDF80880190108EB031090ED023AEF
:1022000007EB031222EE033A18F801504668C06843
:1022100082ED023A23EE033ABCF1010F33EE011ACC
:102220007D545660D06000F01C82581C08EB0011F1
:1022300091ED023A020107EB001022EE033A18F882
:1022400002504E68C96880ED023A23EE033ABCF1B1
:10225000020F33EE011ABD544660C16000F00182E6
:10226000981C08EB001696ED013A07EB0012E8E126
:10227000042D05F0030C80F0E1809FED021A00258B
:102280005EE100BF00000000A3F1020C1FED031A85
:10229000029B05F0FE0006F1200900221DE000BFB0
:1022A0009BED005A24EE044A069F34EE011A95ED88
:1022B000024A297807EB061686ED013A25EE043A24
:1022C0003170E96886ED023A23EE033A0232824227
:1022D00033EE011AF1603FF4EDAE03EB021595ED1C
:1022E000013A4E46B4EE423AF1EE10FA614629DD6B
:1022F00016ED064AB4EE443AF1EE10FA26DDE9B1E5
:1023000016ED044AB4EE443AF1EE10FA20DD01294C
:1023100014D016ED024AB4EE443AF1EE10FA19DD8B
:1023200002290BD096ED004AB4EE443AF1EE10FAD1
:1023300011DD04394F1C06F12006D9D1079991ED22
:10234000004A01E09BED004A069917E0183E02E0C2
:10235000103E00E0083E16ED025A069933EE456A3B
:1023600034EE454A86EE044A96ED015A16ED016AAE
:1023700035EE465A24EE054A34EE064A2E7801EB35
:10238000021181ED013A95ED023A0E7042F001061C
:10239000EF6803EB061524EE034A95ED013A81ED53
:1023A000024AB4EE423ACF60F1EE10FA4F4661466F
:1023B0007FF776AF17ED065AB4EE453AF1EE10FA14
:1023C00024DDF1B117ED045AB4EE453AF1EE10FAFE
:1023D0001EDD012915D017ED025AB4EE453AF1EE93
:1023E00010FA17DD02290CD097ED005AB4EE453AE9
:1023F000F1EE10FA0FDD043911F1010807F12007A1
:10240000D8D1079991ED005A4CE700BF183F02E080
:10241000103F00E0083F17ED026A33EE467A35EED2
:10242000465A87EE055A97ED016A17ED017A36EEA6
:10243000476A25EE065A35EE075A33E76FF030004B
:102440001FED701A00EA0518002700250EEB07069D
:1024500096ED073A5846B4EE423AF1EE10FAC8BF8C
:102460001046E11990ED004A307E81ED073A96ED75
:10247000085A0876706A96ED0B3A24EE054A4862CF
:10248000B4EE423A584681ED084A24EE044AF1EE91
:1024900010FAC8BF104690ED005A96F8280034EEA6
:1024A000011A96ED0C4A81ED0B3A81F8280025EED1
:1024B000043A706B96ED0F4A4863B4EE424A5846B0
:1024C00081ED0C3AF1EE10FAC8BF104623EE033A44
:1024D00090ED005A96F8380033EE011A96ED103A56
:1024E00081ED0F4A81F83800706C96ED134A25EEA5
:1024F000033A81ED103A486423EE033AB4EE424ABF
:102500005846F1EE10FAC8BF104690ED005A33EE6F
:10251000011A96ED143A96F8480025EE033A81F830
:102520004800706D81ED143A23EE033A403733EEE4
:10253000011AB84505F1040581ED134A486585D1B6
:10254000069EBCF1000F00F08C80029B5F4603EBFF
:10255000051090ED013A2901B4EE423AF1EE10FA7D
:10256000C8BF174697ED004A90ED025A13F8018054
:10257000069F06EB051624EE054A07F80180069F24
:1025800086ED013AC06824EE043ABCF1010F33EE47
:10259000011A86ED024AF06063D0681C03EB00115B
:1025A00091ED013A060107EB0010B4EE423A5F46A6
:1025B000F1EE10FAC8BF174697ED004A91ED025AA6
:1025C00013F80680069F24EE054A07F80680069F4A
:1025D00080ED013AC96824EE043ABCF1020F33EEF3
:1025E000011A80ED024AC1603BD0A81C03EB001623
:1025F00096ED013AB4EE423AF1EE10FAC8BF9346B6
:102600009BED002A07EB00121BE000BF9BED002AA8
:1026100017E000BF183B02E0103B00E0083B13ED61
:10262000024A33EE445A32EE442A85EE022A93EDF2
:10263000014A13ED015A34EE454A22EE042A32EEE5
:10264000052A82ED013A96ED023A307822EE032A0D
:102650001070F06882ED022A22EE022A32EE011A90
:10266000D060B6EE002A21EE021AB1EEC11A03992B
:10267000002984ED031A00F0F1809FEDB18A6FF01C
:1026800030009FEDB09A9FEDB0AA01F0030800EA78
:1026900001170025B0EE48BAB0EE48CA16E000BFF8
:1026A000B4EE4BEAF1EE10FAB4EE4CEAB8BFB0EE7D
:1026B0004EBAF1EE10FAC8BFB0EE4ECA079A40F219
:1026C000FF70824205F1010580F0C680A8B200EEDD
:1026D000100AB8EE400A20EE090A46468B46042945
:1026E00020EE0ADA079005D24FF0000AB0EE48EA71
:1026F0005EE000BF4FF000084FF0000AB0EE48EA7D
:1027000004EB080999F8180099ED091A00EE100A6F
:10271000B8EE400A20EE0D0A99ED08FA30EE010AF3
:1027200009F014FF99F828002FEE000A30EE0EEAA7
:1027300000EE100AB8EE400A99ED0D1A20EE0D0ACF
:1027400099ED0CFA30EE010A09F000FF99F8380013
:102750002FEE000A30EE0EEA00EE100AB8EE400A44
:1027600099ED111A20EE0D0A99ED10FA30EE010ADA
:1027700009F0ECFE99F848002FEE000A30EE0EEA60
:1027800000EE100AB8EE400A99ED151A20EE0D0A77
:1027900099ED14FA30EE010A09F0D8FE2FEE000A86
:1027A00008F1400830EE0EEA47450AF1040AA7D1C5
:1027B000B046002E594645D006994FEA0A10085CEB
:1027C00001EB0A1600EE100AB8EE400A96ED031A65
:1027D00020EE0D0A96ED02FA30EE010A09F0B6FE7F
:1027E0002FEE000AB8F1010F30EE0EEA29D0307C4E
:1027F00096ED071A00EE100AB8EE400A20EE0D0A18
:1028000096ED06FA30EE010A09F0A0FE2FEE000A5E
:10281000B8F1020F30EE0EEA13D096F8200096EDD4
:102820000B1A00EE100AB8EE400A20EE0D0A96EDE3
:102830000AFA30EE010A09F089FE2FEE000A30EEA6
:102840000EEA0399DDE904EA28047FF429AFB0EE2B
:102850004ECAB0EE4EBA31E73CEE4B0A9EF803008A
:1028600084ED020A002845D001209AF80420A070C7
:102870009EED041A9EED050ADAF80000012A84EDA7
:10288000041A31D090ED002AB4EE421AF1EE10FA9B
:102890002ADDBAB3931E00F1200111ED062AB4EE31
:1028A000421AF1EE10FA33DD6BB311ED042AB4EEE7
:1028B000421AF1EE10FA2DDD012B24D011ED022A7F
:1028C000B4EE421AF1EE10FA26DD022B1BD091ED88
:1028D000002AB4EE421AF1EE10FA1EDD043B5F1C32
:1028E00001F12001D9D10EE090ED011A20EE010A8C
:1028F00084ED050A0120207008B0BDEC108B01B0FA
:10290000BDE8F08F002200EBC20010ED011AEDE7E8
:10291000183902E0103900E0083911ED023A31EEC1
:10292000431A32EE432A81EE021A91ED012A11ED8B
:10293000013A32EE432A21EE021A31EE031AD5E7AC
:1029400000000000DB0FC9400000003A10B540F263
:102950007004C2F2000400206060A060207060700B
:1029600040F29810A11CC2F20000012204F066F9A6
:10297000002808BF10BDA0680130A06010BD000095
:1029800013460A46014600284FF0000018BF002AEF
:1029900000D1704780B540F29810C2F2000004F0F8
:1029A000A5F9B0FA80F04009BDE88040704700000A
:1029B000F0B599B040F28406C2F20006746942F2A2
:1029C000543201AD0F460346C0F60102284660218D
:1029D0000094FDF7E5FC2846FDF77EFE4FF6FF71FB
:1029E000884238BF014628463222FFF7C9FF00203F
:1029F0007071A6F8070004203070384607F038FDE3
:102A000019B0F0BD80B54CF22C21C2F20001D1ED1D
:102A1000010A024640F2E0104CF670439FED080AAE
:102A2000C2F20000C2F200034FF48051FEF758FFDB
:102A300020B102F067FB012080BD00BF002080BDF7
:102A40008096984AB0B59AB040F2E010C2F2000009
:102A50004FF40051FDF767FE4CF22C20C2F200004B
:102A60004821FDF760FE4CF2E410C2F2000048215C
:102A7000FDF759FE4CF67040C2F200004FF40471AD
:102A8000FDF751FE4CF67000C2F200004FF4806179
:102A9000FDF749FE4CF27040C2F200004FF4806135
:102AA000FDF741FE40F28404C2F2000400252570C7
:102AB00002F088FEC4E90405A56102F083FE44F833
:102AC000245F44E9020502F07DFE40F2011124F882
:102AD000231C44F8215C24F81D5CC4E9010502F0C4
:102AE00071FE7838E06002F06DFE7838206144F8BD
:102AF000185C04F81B5C07F0AFFAFDF71FFF2046D7
:102B0000FEF780FC236804F81A0C02AC84460AA283
:102B100020466021CDF800C0FDF742FC2046FDF7BD
:102B2000DBFD4FF6FF71884238BF01462046322256
:102B3000FFF726FF1AB0B0BD475F464C4F572C62D7
:102B40006F6F742C69643D30782530386C582C6F69
:102B50006E6C696E653D25752C66733D313235307E
:102B60003030302C6E3D343039360D0A0000000014
:102B70002DE9F047A2B002F025FE824600208DF834
:102B80000F001CA80DF10F0107F0F4FA40F28407C2
:102B90000028C2F2000753D002F014FE9DF8701016
:102BA00002290FD0012915D1396B411A782947D351
:102BB0003978386311F0FB0F26D00FF2F470202122
:102BC00088E100BF79780122012908BF03228DF82E
:102BD0000F2003E001F0FE01022931D1796B411A87
:102BE00078292DD39DF80F10786301F0FD02012A9A
:102BF00026D138787970421E022A00F2D380012053
:102C0000F8700FF2FC7653E10FF2C87104460846E3
:102C100013213222FFF7B4FE0120012507F0D6FB75
:102C200004F59670F8624FF480707978A7F8070081
:102C30000020A7F8030003207D71B97038703C6153
:102C4000F879012840F04D81B879022840D0012858
:102C50001ED000285CD14CF2E410C2F2000090EDCE
:102C6000010AB5EE400AF1EE10FA40F399809FEDAB
:102C7000DE1AB4EE410AF1EE10FA80F2F380B6EEFD
:102C8000001A30EE010ABCEEC00A10EE103AEBE07A
:102C90004CF2E410C2F2000090ED020A9FEDD31A4C
:102CA00020EE010AB5EE400AF1EE10FA74DD9FED58
:102CB000CE1AB4EE410AF1EE10FA80F28B80B6EE35
:102CC000001A30EE010ABCEEC00A10EE100A83E0D2
:102CD0004CF2E410C2F2000090ED030A9FEDC31A1B
:102CE00020EE010AB5EE400AF1EE10FA56DD9FED36
:102CF000BE1AB4EE410AF1EE10FA80F28F80B6EE01
:102D0000001A30EE010ABCEEC00A10EE100A87E08D
:102D1000052800F2BD804CF2E4120FF22076C2F2D8
:102D200000020FF21471042808BF0E4653780FF208
:102D30001071032818BF3146A0F1020003B302F15D
:102D400048065A1EC5B216F8303CAB4200F07882F5
:102D5000B2B116F8203CAB4200F07482012A0FD0C9
:102D600016F8103CAB4200F06F82022A08D033788C
:102D7000AB4200F06A82043A531C06F14006E2D1ED
:102D800042F2CD32C3B2C0F6010204A80C46402183
:102D9000FDF706FB204673E000201DE000203FE029
:102DA000002361E03A7904280FF23C66B97040F0E4
:102DB0007F80002A7CD0012007F008FBB878FFF75D
:102DC00021FE00286CD0002007F000FB0FF22066E7
:102DD0006EE000BF4FF0FF3048F21F51C5F2EB111B
:102DE000A0FB01125309642103FB110642F27E424B
:102DF0001CADC0F60102284618210096FDF7D0FA56
:102E000042F2B832C0F6010204A840212B46FDF779
:102E1000C7FA42F27430C0F6010031E04FF0FF30E3
:102E200048F21F51C5F2EB11A0FB011253096421B6
:102E300003FB110642F27E421CADC0F60102284699
:102E400018210096FDF7ACFA42F2C232C0F6010238
:102E500004A840212B46FDF7A3FA42F27730C0F6D2
:102E600001000DE04FF0FF3342F2E032C0F6010204
:102E700004A84021FDF794FA42F26E30C0F601003A
:102E800042F23941C0F6010104AA09F059F9B879B2
:102E90000130C1B20529B8713AD9F81D36E000BF3A
:102EA00042F29430C0F6010007F0E2FA0FF2485601
:102EB0007B7804AD0FF25052284640210096FDF772
:102EC0006FFA2846FDF708FC4FF6FF71884238BFBD
:102ED000014628463222FFF753FDF87901283FF4D6
:102EE000B3AE397A3878012908BF042804D0042801
:102EF00011D122B0BDE8F08702F064FCF96A401AF3
:102F000006D4002007F062FA07F1080000210170E2
:102F100038780428EDD058BBB86ABAEB0000E8D482
:102F20000FF2305009F0E8F800F0F6FE002007F04C
:102F30004DFA787A002840F04681F989ADF81010F2
:102F400061B942F27130C0F6010004A906F0E0FE5A
:102F5000002800F01B81BDF81010F981B1F5806FD9
:102F60004FF0010440F217814FF4806111E100BF7E
:102F70003969BAEB0101BCD4032839D1787900282A
:102F800052D0B87A38B907F12400FEF73BFA00288E
:102F9000B87200F01F8100200025FEF76BFB0028AF
:102FA00000F0C0804CF22C20C2F200004821FDF756
:102FB000BAFB4CF2E410C2F200004821FDF7B3FB6B
:102FC0004CF67040C2F200004FF40471FDF7ABFB09
:102FD00001203D71C7F81CA038700AF10200386169
:102FE00022B0BDE8F08700BFFFFF7F4F0000C8425E
:102FF00000251CA81C95FEF7D3F808B31C98C10740
:1030000048D1F869AAEB0000B0F5FA6F12D342F28A
:10301000314042F2B031C0F60100C0F60101FFF7C5
:10302000C7FC22B0BDE8F0870020387022B0BDE8B0
:10303000F08700BF0AF10200386122B0BDE8F087D6
:103040007E6942F2543242F2134304ACC0F60102EC
:10305000C0F60103204660210096FDF7A1F9204645
:10306000FDF73AFB4FF6FF71884238BF0146204614
:103070003222FFF785FC0420387042F29D307D71CA
:10308000A7F80750C0F6010007F0F2F922B0BDE83A
:10309000F08700BF4FF6FF718843B0F1805F6BD1BE
:1030A00040F2E010C2F200004FF48051FDF7A4FEA0
:1030B000002800F0B7803878022800F0238101282A
:1030C0007FF417AF4CF22C2440F2E010C2F200045F
:1030D000C2F20000214604F039F8002800F02481F3
:1030E0007869411CC7E9051002F06CFBF969401AC8
:1030F0003862012000F07EFE00F040FC00F0B6F9DE
:10310000002800F033810120FEF7B4FA002800F017
:1031100041810220387002F055FB0230386122B044
:10312000BDE8F0877E6942F2543242F22B4304AC90
:10313000C0F60102C0F60103204660210096FDF7AB
:103140002FF92046FDF7C8FA4FF6FF71884238BFC5
:10315000014620463222FFF713FC0420387042F269
:10316000A6307D71A7F80750C0F6010007F080F97E
:1031700022B0BDE8F08700BF42F2FA30C0F601008D
:10318000B7A1FFF715FC22B0BDE8F08700244FF48B
:103190000071ADF810104CF27045C2F200052846DF
:1031A0002A22FDF7B8FA42F2EE36C0F601063046A2
:1031B000002108F061FFBDF81030304600212A469A
:1031C00009F002F87C720AF5FA60B86222B0BDE834
:1031D000F08700BF7E6942F2543204ACC0F60102AF
:1031E000A1A3204660210096FDF7DAF82046FDF7FE
:1031F00073FA4FF6FF71884238BF014620463222EB
:10320000FFF7BEFB00207871A7F807000420387094
:1032100042F28330C0F6010007F02AF922B0BDE87F
:10322000F08700BF42F2F43042F28A31C0F601006A
:10323000C0F60101FFF7BCFB22B0BDE8F08700BF7C
:10324000303E02E0203E00E0103E96ED020A9FED87
:10325000781A20EE010AB5EE400AF1EE10FA11DDFF
:103260009FED741A8946B4EE410AF1EE10FA0DDAB8
:10327000B6EE001A30EE010ABCEEC00A10EE100ADB
:1032800006E000BF8946002002E000BF4FF0FF309B
:1032900048F21F51C5F2EB11A0FB01125309642142
:1032A00003FB110442F27E420DF17008C0F60102E8
:1032B000404618210094FDF773F896ED010AB5EE2B
:1032C000400AF1EE10FA0FDD9FED5A1AB4EE410AF2
:1032D000F1EE10FA0ADAB6EE001A30EE010ABCEE90
:1032E000C00A10EE106A03E0002601E04FF0FF363E
:1032F00054A204A840212B46CDE90068FDF750F800
:103300004846BDE5F8780121397128B17878002167
:10331000B870F97001E000BFB878FFF773FBF8B13F
:1033200001F0F0FE10E000BF6078022824D1786937
:10333000411CC7E9051002F045FAF969401A3862E4
:1033400000F0D6FA00F0A0FC02F03CFA0020787100
:10335000042038700120387222B0BDE8F08700BF29
:1033600042F20140C0F6010018E000BF42F21A40EC
:10337000C0F6010004E000BF42F20A40C0F60100BE
:1033800042F27A31C0F60101FFF712FB22B0BDE82C
:10339000F08700BF42F22640C0F6010042F29431AD
:1033A000C0F60101FFF704FB22B0BDE8F08700BFC3
:1033B000475F484D492C6576656E743D7374617244
:1033C000742C69676E6F7265643D627573790D0A5E
:1033D00000000000475F484D492C6576656E743DDE
:1033E00073746172740D0A006E65787400000000D9
:1033F00072656472617700006572726F720000001E
:103400007175657565640000475F484D492C6576A8
:10341000656E743D6379636C65732C76616C75655C
:103420003D25752C6170706C793D25730D0A000087
:103430000000C842FFFF7F4F743400007435000065
:10344000743300004825753D256C75485A2C25734A
:103450006D5600007265665F737461720000000053
:103460004C454E2045525200696400002DE9F0475A
:103470002DED048BCAB0FEF72DFA4CF2E41801468C
:103480004CF22C20C2F20008C2F200004246FEF7C5
:1034900077FDB8B198ED010AB5EE400AF1EE10FAE9
:1034A00028DD9FEDC01AB4EE410AF1EE10FA23DADE
:1034B000B6EE001A30EE010ABCEEC00A10EE103A69
:1034C0001CE000BF40F28400C2F20000836904AC3B
:1034D0000FF2F03220464FF48071FCF761FF204676
:1034E000FDF7FAF84FF6FF71884238BF0146002415
:1034F000B3E100BF002301E04FF0FF3342F2E032BE
:1035000004ACC0F6010220464021FCF749FF42F21C
:103510006E3042F23941C0F60100C0F60101224688
:1035200008F00EFE98ED020A9FEDD28A20EE080AFE
:10353000B5EE400AF1EE10FA10DD9FEDCD1AB4EEB3
:10354000410AF1EE10FA0BDAB6EE001A30EE010A7B
:10355000BCEEC00A10EE100A04E000BF002001E03B
:103560004FF0FF3048F21F56C5F2EB16A0FB0612D3
:103570005309642703FB170542F27E4244ACC0F6B0
:103580000102204618210095FCF70AFF42F2B832EA
:1035900004ADC0F60102284640212346FCF700FF97
:1035A00042F2743042F23941C0F60100C0F6010126
:1035B0002A4608F0C5FD98ED030A20EE080AB5EE8C
:1035C000400AF1EE10FA0FDD9FEDA91AB4EE410AA0
:1035D000F1EE10FA0ADAB6EE001A30EE010ABCEE8D
:1035E000C00A10EE100A03E0002001E04FF0FF30A7
:1035F000A0FB0612530903FB170742F27E4244ACBC
:10360000C0F60102204618210097FCF7C9FE42F2DD
:10361000C23204ADC0F60102284640212346FCF721
:10362000BFFE42F2773042F23941C0F60100C0F6E7
:1036300001012A4608F084FD40F2840098ED010A59
:10364000C2F200008369B5EE400A40F20311F1EEC8
:1036500010FAC18016DD9FED861AB4EE410AF1EE34
:1036600010FA2FDAB6EE001A30EE010ABCEEC00AEC
:1036700010EE100A98ED020AB5EE400AF1EE10FACB
:1036800008DC28E0002098ED020AB5EE400AF1EED1
:1036900010FA20DD9FED761AB4EE410AF1EE10FA31
:1036A00032DAB6EE001A30EE010ABCEEC00A10EEB5
:1036B000101A98ED030AB5EE400AF1EE10FA12DC8A
:1036C0002BE000BF4FF0FF3098ED020AB5EE400A44
:1036D000F1EE10FADEDC002198ED030AB5EE400AA7
:1036E000F1EE10FA19DD9FED621AB4EE410AF1EE27
:1036F00010FA15DAB6EE001A30EE010ABCEEC00A76
:1037000010EE102A0EE000BF4FF0FF3198ED030AD3
:10371000B5EE400AF1EE10FAE5DC002202E000BF4F
:103720004FF0FF3298F801700DF1100A8DE8070094
:1037300051A250464FF480710397FCF731FE0028E8
:1037400072D4064698F80100002863D0FF2E61D895
:103750009FED478A08F120070125B6EE009A0FF287
:10376000501900BF17ED010A17F8083CB5EE400AE2
:10377000F1EE10FA18DDB4EE480AF1EE10FAAFBF20
:103780004FF0FF3C30EE090ABCEEC00A10EE10CA42
:1037900097ED000AB5EE400AF1EE10FA0DDC4FF09D
:1037A000000E17E0FFFF7F4F4FF0000C97ED000A6F
:1037B000B5EE400AF1EE10FAF1DDB4EE480AF1EE92
:1037C00010FAAFBF4FF0FF3E30EE090ABCEEC00A60
:1037D00010EE10EAC6F580740AEB060021464A4650
:1037E000CDE900CEFCF7DCFDA0424FF0FF0138BF71
:1037F0008119B0F1FF3FC8BF0E4600280AD4A0428D
:1038000008D298F80100854204D21037FF2905F14B
:103810000105A7D9FD2E0FD80AEB060040F60D21B1
:1038200020F8021B0EE000BF002420464AB0BDEC89
:10383000048BBDE8F08700BF40F60D20ADF80D0108
:103840000AF1FF000021017004A8FCF745FF4FF6C4
:10385000FF710124884238BF014689B204A8322290
:10386000FFF78EF820464AB0BDEC048BBDE8F08728
:10387000FFFF7F4F0000C842475F4D4541532C7307
:1038800065713D256C752C63616C3D312C66303D56
:10389000256C75487A2C7570703D256C756D562CAD
:1038A00075726D733D256C756D562C6E3D257500DA
:1038B0002C6825753D256C75487A3A256C756D56D2
:1038C00000000000475F4D4541532C7365713D2555
:1038D0006C752C63616C3D302C726561736F6E3D4D
:1038E0006E6F5F6D765F7461626C650D0A0000003B
:1038F00010B5A4B040F28400C2F200008369006AEF
:103900000021B0F5FA6F98BF012104AC4FF0100C04
:10391000CDE900010AA220468021CDF808C0FCF7BD
:103920003FFD2046FCF7D8FE4FF6FF71884238BFB6
:10393000014620463222FFF723F824B010BD00BF15
:10394000475F464C4F572C6E6F5F7369676E616CB3
:103950002C7365713D256C752C745F6D733D256C02
:10396000752C756E64657232733D25752C746872A2
:103970006573686F6C643D25750D0A002DE9F04F85
:1039800081B02DED048BC6B04CF22C29C2F2000997
:1039900040F2840099ED010AC2F200008369B5EE9D
:1039A000400AF1EE10FA0FDD9FEDAB1AB4EE410ABA
:1039B000F1EE10FA0ADAB6EE001A30EE010ABCEEA9
:1039C000C00A10EE101A03E0002101E04FF0FF31B1
:1039D00099ED020A99F80220B5EE400AF1EE10FACC
:1039E00010DD9FED9D1AB4EE410AF1EE10FA0BDAEC
:1039F000B6EE001A30EE010ABCEEC00A10EE107AE4
:103A000004E000BF002701E04FF0FF3799ED030A03
:103A10000026B5EE400AF1EE10FA4FF0000511DD78
:103A20009FED8D1AB4EE410AF1EE10FA08DAB6EE07
:103A3000001A30EE010ABCEEC00A10EE105A01E086
:103A40004FF0FF35006A0DF11808B0F5FA6F98BF16
:103A500001268DE8860042F23D42CDE90350C0F6D2
:103A6000010240464FF480710596FCF799FC00284E
:103A700000F1EB80834699F80200002863D0BBF187
:103A8000FF0F60D89FED748A09F120040126B6EE7D
:103A9000009A0FF2C81A00BF14ED010A14F8083C8E
:103AA000B5EE400AF1EE10FA16DDB4EE480AF1EE7A
:103AB00010FAAFBF4FF0FF3C30EE090ABCEEC00A6F
:103AC00010EE10CA94ED000AB5EE400AF1EE10FABD
:103AD0000BDC002516E000BF4FF0000C94ED000A4F
:103AE000B5EE400AF1EE10FAF3DDB4EE480AF1EE5D
:103AF00010FAAFBF4FF0FF3530EE090ABCEEC00A36
:103B000010EE105ACBF5807708EB0B003946524681
:103B1000CDE900C5FCF744FCB8424FF0FF0138BFC7
:103B200000EB0B01B0F1FF3FC8BF8B4600280AD461
:103B3000B84208D299F80200864204D21034FF2914
:103B400006F10106A8D9BBF1FF0F69D899F8031057
:103B500008EB0B00CBF58076F1B199ED040AB5EED8
:103B6000400AF1EE10FA21DD9FED3B1AB4EE410A56
:103B7000F1EE10FA32DAB6EE001A30EE010ABCEEBF
:103B8000C00A10EE103A99ED050AB5EE400AF1EEC2
:103B900010FA13DC2BE000BF38A23146FCF700FC22
:103BA000002830D5BBF1FD0F33D939E0002399ED62
:103BB000050AB5EE400AF1EE10FA18DD9FED261A5F
:103BC000B4EE410AF1EE10FA14DAB6EE001A30EE55
:103BD000010ABCEEC00A10EE107A0DE04FF0FF3380
:103BE00099ED050AB5EE400AF1EE10FAE6DC002781
:103BF00002E000BF4FF0FF371CA231460097FCF7F0
:103C0000CFFB0028CED4B0420AD28344BBF1FD0FD3
:103C100006D808EB0B0040F60D2120F8021B05E04A
:103C200040F60D20ADF8150108F1FF00002106ACAB
:103C300001702046FCF750FD4FF6FF71884238BFF7
:103C4000014620463222FEF79BFE46B0BDEC048BB7
:103C500001B0BDE8F08F00BFFFFF7F4F2C682575D6
:103C60003D256C75487A3A256C7500002C7370758B
:103C7000723D256C75487A3A256C75002C73707509
:103C8000723D6E6F6E650000F0B581B040F2840643
:103C9000C2F200060020F07100F03EF8F189ADF8A4
:103CA000021029B1B1F5806F4FF0010711D818E06B
:103CB00042F27130C0F601000DF1020106F028F861
:103CC00050B1BDF80210F181B1F5806F4FF00107DE
:103CD00007D94FF4806102E000274FF40071ADF87E
:103CE00002104CF27044C2F2000420462A22FCF773
:103CF00012FD42F2EE35C0F601052846002108F01B
:103D0000BBF9BDF8023028460021224608F05CFAD3
:103D1000777201B0F0BD00002DE9F04188B042F2A9
:103D2000394442F26E30C0F60104C0F6010029A207
:103D3000214608F005FA42F27430C0F6010027A2CD
:103D4000214608F0FDF942F27730C0F6010026A2C4
:103D5000214608F0F5F942F2CD3843F27430C0F64E
:103D600001080DF10105ADF81D00002628461C21B3
:103D7000424601238DF81F60FCF712FB0DF11D0771
:103D8000384621462A4608F0DBF943F27440ADF884
:103D90001D0028461C21424602238DF81F60FCF7B7
:103DA000FFFA384621462A4608F0CAF943F2745011
:103DB000ADF81D0028461C21424603238DF81F60E4
:103DC000FCF7EEFA384621462A4608F0B9F908B061
:103DD000BDE8F081463D585858485A005670703D2D
:103DE000585858206D56000056726D733D585858FB
:103DF000206D56002DE9F04F85B040F28408C2F2E4
:103E00000008B8F80E100446ADF8121051B1B1F523
:103E1000806F4FF0010917D84CF22C2AC2F2000A29
:103E20001CBB29E142F27130C0F601000DF1120114
:103E300005F06EFF60B1BDF81210A8F80E10B1F5D4
:103E4000806F4FF00109E7D94FF4806104E000BFB3
:103E50004FF000094FF40071ADF812104CF22C2A0B
:103E6000002CC2F2000A00F007810229C0F0048190
:103E70009AF80000002800F0FF804CF27040C2F277
:103E800000002A220E46FCF746FC9AF80200314652
:103E9000002800F0F1800AF14806431E9FEDCB0A8E
:103EA00030461A4610F8305C012D15D092B310F848
:103EB000205C012D12D0012A2CD010F8105C012DAD
:103EC0000ED0022A26D00578012D0AD0043A551CBE
:103ED00000F14000E6D11DE0303802E0203800E07B
:103EE000103890ED011A9FEDC62AB4EE421AF1EE99
:103EF00010FA0FDB9FEDC32AB4EE421AF1EE10FA6E
:103F000008DC90ED021AB5EE401AF1EE10FAC8BFC7
:103F1000B0EE410A30461A4610F8305C022D15D03A
:103F200092B310F8205C022D12D0012A2CD010F888
:103F3000105C022D0ED0022A26D00578022D0AD060
:103F4000043A551C00F14000E6D11DE0303802E093
:103F5000203800E0103890ED011A9FEDA92AB4EE48
:103F6000421AF1EE10FA0FDB9FEDA62AB4EE421AC8
:103F7000F1EE10FA08DC90ED021AB4EE401AF1EE00
:103F800010FAC8BFB0EE410A30461A4610F8305C4D
:103F9000032D15D092B310F8205C032D12D0012A06
:103FA0002CD010F8105C032D0ED0022A26D00578F4
:103FB000032D0AD0043A551C00F14000E6D11DE063
:103FC000303802E0203800E0103890ED011A9FED03
:103FD0008C2AB4EE421AF1EE10FA0FDB9FED892A1B
:103FE000B4EE421AF1EE10FA08DC90ED021AB4EECB
:103FF000401AF1EE10FAC8BFB0EE410AB5EE400A21
:10400000F1EE10FA38DD080A4FF0040B042838BF2F
:104010004FEA112BB1F5007F38BF4FF0020B0BF1C7
:10402000010003904FEA5B00A1F1010C02903046C1
:104030001D4610F8302C012A00F01C81002D00F0E4
:10404000D28310F8202C012A00F01681012D00F0F7
:10405000CA8310F8102C012A00F01081022D00F004
:10406000C2830278012A00F00A81043D6A1C00F133
:104070004000DED1B7E300BF4CF27040C2F2000056
:104080002A22FCF748FB42F2EE35C0F6010528462D
:10409000002107F0F1FFBDF812304CF27042C2F27D
:1040A00000022846002108F08FF8002C00F034812F
:1040B0009AF80000002800F02F819AF802000028EA
:1040C00000F02A810AF14804411E204610F8302CE5
:1040D000012A17D000294DD010F8202C012A1BD01E
:1040E000012947D010F8102C012A31D0022941D0E3
:1040F0000278012A11D004394A1C00F14000E5D1B0
:1041000038E000BF303890ED010AB5EE400AF1EE1C
:1041100010FA09DC24E000BF203890ED010AB5EE6A
:10412000400AF1EE10FA1BDD9FEDB51AB4EE410A1C
:10413000F1EE10FA08DAB6EE001A30EE010ABCEE23
:10414000C00A10EE100A0CE04FF0FF3009E000BF8B
:10415000103890ED010AB5EE400AF1EE10FAE3DCFA
:1041600000200121002205F09DFC9AF800000028A3
:1041700000F0D2809AF80200002800F0CD80411EA5
:10418000204610F8302C022A16D0002951D010F801
:10419000202C022A1CD001294BD010F8102C022A06
:1041A00036D0022945D00278022A12D004394A1C9E
:1041B00000F14000E5D13CE0303890ED010AB5EE69
:1041C000400AF1EE10FA0BDC2AE000BF000000000C
:1041D000203890ED010AB5EE400AF1EE10FA1FDD2D
:1041E0009FED871AB4EE410AF1EE10FA0CDAB6EE42
:1041F000001A30EE010ABCEEC00A10EE100A10E000
:1042000000401C460024F4484FF0FF3009E000BF96
:10421000103890ED010AB5EE400AF1EE10FADFDC3D
:1042200000200221012205F03DFC9AF80000002840
:1042300072D09AF8020000286ED0013814F8301CB1
:10424000032945D0002867D014F8201C032941D049
:10425000012861D014F8101C03293DD002285BD03E
:104260002178032939D00438411C04F14004E5D1F8
:1042700052E000BF303802E0203800E0103890ED06
:10428000011A1FED212AB4EE421AF1EE10FAC0F223
:10429000AA821FED242AB4EE421AF1EE10FA00F3BE
:1042A000A282B5EE401AF1EE10FA0FDD9FED542A0E
:1042B000B4EE421AF1EE10FA34DAB6EE002A31EE1C
:1042C000021ABCEEC11A11EE105A2DE000252BE0A7
:1042D000303C02E0203C00E0103C94ED010AB5EED9
:1042E000400AF1EE10FA0FDD9FED451AB4EE410AD7
:1042F000F1EE10FA0ADAB6EE001A30EE010ABCEE60
:10430000C00A10EE100A03E0002001E04FF0FF3079
:104310000321022205F0C6FB88F8099005B0BDE82C
:10432000F08F00BF4FF0FF3590ED021A42F210708F
:1043300081EE001A4BF60852281AC0F203029FEDD4
:10434000CC2A00FB0C204AF2A972C0F24742A0FB23
:104350000202570B21EE021AB5EE401AF1EE10FAE6
:1043600010DD9FED272AB4EE421AF1EE10FA0DDAB5
:10437000B6EE002A31EE021ABCEEC11A11EE10EAB6
:1043800006E000BF4FF0000E02E000BF4FF0FF3E1E
:10439000BEF1030F98BF4FF0030EBEF1550FA7EB10
:1043A0000B0028BF4FF0550E884211D2029A039D90
:1043B0007244B2FBF5F54CF27042C2F20002125C9C
:1043C0002A35954282BF4CF27042C2F20002155467
:1043D000BBF1000F00F00782CBF10105E81988421C
:1043E000CDF800C001970DD3CBF1020C0CEB070008
:1043F000884226D3DC45DDF800C041D1F3E100BF9F
:10440000FFFF7F4F85EAE572C2EBE572039D029FD5
:104410002A4402FB0E72019FB2FBF5F54CF270428A
:10442000C2F20002125C2A35954282BF4CF2704201
:10443000C2F200021554CBF1020C0CEB07008842CB
:10444000D8D28CEAEC72039DC2EBEC72029F2A4434
:1044500002FB0E72B2FBF5F24CF27045C2F200059F
:104460002F5C02F12A05BD42019F82BF4CF27042CF
:10447000C2F200021554DC45DDF800C000F0B38143
:10448000CBF10305E81988420AD3CBF1040000EB15
:10449000070C8C4523D3DDF800C058453FD1A2E17D
:1044A00085EAE572039FC2EBE572029D3A4402FB86
:1044B0000E52B2FBF7F54CF27042C2F20002019FBD
:1044C000125C2A35954282BF4CF27042C2F2000261
:1044D0001554CBF1040000EB070C8C45DBD280EACD
:1044E000E072039FC2EBE072029D3A4402FB0E525F
:1044F000B2FBF7F54CF27042C2F20002019F12F8D3
:104500000C202A35954282BF4CF27042C2F2000262
:1045100002F80C50DDF800C0584500F06481CBF182
:104520000505E81988420BD3CBF1060000EB070C18
:104530008C4524D3DDF800C0584540D153E100BF7D
:1045400085EAE572039FC2EBE572029D3A4402FBE5
:104550000E52B2FBF7F54CF27042C2F20002019F1C
:10456000125C2A35954282BF4CF27042C2F20002C0
:104570001554CBF1060000EB070C8C45DAD280EA2B
:10458000E072039FC2EBE072029D3A4402FB0E52BE
:10459000B2FBF7F54CF27042C2F20002019F12F832
:1045A0000C202A35954282BF4CF27042C2F20002C2
:1045B00002F80C50DDF800C0584500F014818BF073
:1045C0000705E81988420BD3CBF1080000EB070C74
:1045D0008C4521D3DDF800C0584539D103E100BF37
:1045E000DDF80CC0ACEB0502029D02FB0E52B2FBE3
:1045F000FCF54CF27042C2F20002125C2A35954280
:1046000082BF4CF27042C2F200021554CBF1080096
:1046100000EB070C8C45DDD2039F029D3A1A02FB8A
:104620000E52B2FBF7F54CF27042C2F20002019F4B
:1046300012F80C202A35954282BF4CF27042C2F229
:10464000000202F80C50DDF800C0584500F0CB80A5
:10465000CBF10905E81988420CD3CBF10A0000EB35
:10466000070C8C4522D3DDF800C058453AD1BAE09A
:104670000000AA42DDF80CC0ACEB0502029D02FB73
:104680000E52B2FBFCF54CF27042C2F20002125C18
:104690002A35954282BF4CF27042C2F20002155494
:1046A000CBF10A0000EB070C8C45DCD2039F029D86
:1046B0003A1A02FB0E52B2FBF7F54CF27042C2F20C
:1046C0000002019F12F80C202A35954282BF4CF25D
:1046D0007042C2F2000202F80C50DDF800C05845EA
:1046E00000F08180CBF10B05E81988420AD3CBF1A9
:1046F0000C0000EB070C8C4520D3DDF800C05845BA
:1047000037D170E0DDF80CC0ACEB0502029D02FB76
:104710000E52B2FBFCF54CF27042C2F20002125C87
:104720002A35954282BF4CF27042C2F20002155403
:10473000CBF10C0000EB070C8C45DED2039F029DF1
:104740003A1A02FB0E52B2FBF7F54CF27042C2F27B
:104750000002019F12F80C202A35954282BF4CF2CC
:104760007042C2F2000202F80C50DDF800C0584559
:1047700039D0CBF10D05E819884217D2DDF80CC00D
:10478000ACEB0502029D02FB0E52B2FBFCF54CF2B3
:104790007042C2F20002DDF800C0125C2A35954278
:1047A00082BF4CF27042C2F200021554CBF10E05EA
:1047B000E819884217D2DDF80CC0ACEB0502029D67
:1047C00002FB0E52B2FBFCF54CF27042C2F2000248
:1047D000DDF800C0125C2A35954282BF4CF270426F
:1047E000C2F2000215544CF2704730461D46C2F228
:1047F000000710F8302C022A1AD0002D00F0608239
:1048000010F8202C022A15D0012D00F0598210F842
:10481000102C022A10D0022D00F052820278022AB7
:104820000BD0043D6A1C00F14000E2D148E200BF19
:10483000303802E0203800E0103890ED011A9FED8A
:104840002C2AB4EE421AF1EE10FAC0F239829FED32
:10485000292AB4EE421AF1EE10FA00F33182B5EED5
:10486000401A4DF6EF05F1EE10FACFF6FF7513DDA5
:104870009FED212AB4EE421AF1EE10FA0DDAB6EEEF
:10488000002A31EE021ABCEEC11A11EE102A42F2D1
:104890001075551B01E000BF013590ED021A4BF673
:1048A000085081EE001AC0F203001FED8F2A05FBAD
:1048B0000C004AF2A972C0F24742A0FB0202520B5E
:1048C00021EE021AB5EE401AF1EE10FA16DD9FED58
:1048D0000A2AB4EE421AF1EE10FA13DAB6EE002A02
:1048E00031EE021ABCEEC11A11EE10EA0CE000BF64
:1048F00000401C460024F448FFFF7F4F4FF0000E9D
:1049000002E000BF4FF0FF3EBEF1030F98BF4FF033
:10491000030EBEF1550FA2EB0B0028BF4FF0550E52
:10492000884201920AD2029A039D7244B2FBF5F5C5
:104930003A5C2A359542019A88BF3D54BBF1000F7D
:1049400000F0BE81CBF10105A818884214D285EA97
:10495000E572C2EBE572039D029F2A4402FB0E72D0
:104960004CF27047C2F20007B2FBF5F53A5C2A350B
:104970009542019A88BF3D54CBF1020085188D42C3
:10498000CDF800C017D280EAE072DDF80CC0C2EBAF
:10499000E072029F624402FB0E724CF27047B2FB5F
:1049A000FCF2C2F2000717F805C02A326245DDF8B2
:1049B00000C088BF7A554CF27047019A5845C2F240
:1049C000000700F07D81CBF10305A818884214D2BE
:1049D00085EAE572C2EBE572039D029F2A4402FB61
:1049E0000E724CF27047C2F20007B2FBF5F53A5C6A
:1049F0002A359542019A88BF3D54CBF104008518B1
:104A00008D421DD280EAE072DDF80CC0C2EBE0728C
:104A1000029F624402FB0E72B2FBFCFC4CF270423D
:104A2000C2F20002525D0CF12A07DDF800C0974285
:104A3000019A05D94CF27042C2F200025755019A10
:104A40004CF270475845C2F2000700F03981CBF1B3
:104A50000505A818884214D285EAE572C2EBE57212
:104A6000039D029F2A4402FB0E724CF27047C2F271
:104A70000007B2FBF5F53A5C2A359542019A88BFEA
:104A80003D54CBF1060085188D421DD280EAE072BC
:104A9000DDF80CC0C2EBE072029F624402FB0E72B2
:104AA000B2FBFCFC4CF27042C2F20002525D0CF10F
:104AB0002A07DDF800C09742019A05D94CF27042EE
:104AC000C2F200025755019A4CF270475845C2F2A3
:104AD000000700F0F5808BF00705A818884214D273
:104AE0006746DDF80CC0ACEB0502029D02FB0E52DE
:104AF000B2FBFCF5BC464CF27047C2F200073A5CD0
:104B00002A359542019A88BF3D54CBF1080085189B
:104B10008D421AD2DDF80CC0029FACEB000202FB02
:104B20000E72B2FBFCFC4CF27042C2F20002525D0B
:104B30000CF12A07DDF800C09742019A05D94CF222
:104B40007042C2F200025755019A4CF27047584524
:104B5000C2F2000700F0B480CBF10905A818884222
:104B600014D26746DDF80CC0ACEB0502029D02FBD7
:104B70000E52B2FBFCF5BC464CF27047C2F2000785
:104B80003A5C2A359542019A88BF3D54CBF10A0020
:104B900085188D421AD2DDF80CC0029FACEB0002E2
:104BA00002FB0E72B2FBFCFC4CF27042C2F200023D
:104BB000525D0CF12A07DDF800C09742019A05D931
:104BC0004CF27042C2F200025755019A4CF2704703
:104BD0005845C2F2000773D0CBF10B05A8188842E4
:104BE00014D26746DDF80CC0ACEB0502029D02FB57
:104BF0000E52B2FBFCF5BC464CF27047C2F2000705
:104C00003A5C2A359542019A88BF3D54CBF10C009D
:104C100085188D421AD2DDF80CC0029FACEB000261
:104C200002FB0E72B2FBFCFC4CF27042C2F20002BC
:104C3000525D0CF12A07DDF800C09742019A05D9B0
:104C40004CF27042C2F200025755019A4CF2704782
:104C50005845C2F2000733D0CBF10D05A8188842A1
:104C600014D26746DDF80CC0ACEB0502029D02FBD6
:104C70000E52B2FBFCF5BC464CF27047C2F2000784
:104C80003A5C2A359542019A88BF3D54CBF10E0516
:104C9000A818884214D26746DDF80CC0ACEB0502B8
:104CA000029D02FB0E52B2FBFCF5BC464CF2704773
:104CB000C2F200073A5C2A35954288BF3D5400BFD6
:104CC00016F8300C03281BD0002B3FF4DCA916F893
:104CD000200C032816D0012B3FF4D5A916F8100C90
:104CE000032811D0022B3FF4CEA9307803280CD032
:104CF000043B581C06F14006E2D1FFF7C4B900BFDF
:104D0000303E02E0203E00E0103E96ED011A9FED9D
:104D1000432AB4EE421AF1EE10FAFFF6B4A99FED61
:104D2000402AB4EE421AF1EE10FA3FF7ACA9B5EE04
:104D3000401A4DF6EF00F1EE10FACFF6FF7013DDDA
:104D40009FED382AB4EE421AF1EE10FA0DDAB6EE03
:104D5000002A31EE021ABCEEC11A11EE100A42F21C
:104D60001072801A01E000BF013096ED021A4BF676
:104D7000085281EE000AC0F203029FEDE11A00FB27
:104D80000C204AF2A972C0F24742A0FB02024FEA8D
:104D9000523C20EE010AB5EE400AF1EE10FA0FDDAA
:104DA0009FEDD61AB4EE410AF1EE10FA0ADAB6EE29
:104DB000001A30EE010ABCEEC00A10EE103A03E011
:104DC000002301E04FF0FF33032B98BF0323552B43
:104DD000ACEB0B0628BF55238E420AD20298039AE9
:104DE0001844B0FBF2F0BA5D00F12A05954288BF85
:104DF000BD55BBF1000F3FF446A9CBF1010505EB12
:104E00000C068E42BE460FD3CBF1020606EB0C0514
:104E10008D4222D35E453FF436A933E000401C4664
:104E20000024F448FFFF7F4F85EAE570039AC0EB4A
:104E3000E570029F104400FB03707746B0FBF2F070
:104E40001EF8062000F12A05954288BFBD55CBF11A
:104E5000020606EB0C058D42DCD286EAE670039A68
:104E6000C0EBE670029F104400FB03707746B0FB76
:104E7000F2F01EF805202A30904288BF78555E4532
:104E80003FF401A9CBF1030505EB0C068E4209D3D3
:104E9000CBF1040606EB0C058D421BD35E453FF4B7
:104EA000F2A82CE085EAE570039AC0EBE570029F5A
:104EB000104400FB03707746B0FBF2F01EF80620AA
:104EC0002A30904288BFB855CBF1040606EB0C059A
:104ED0008D42E3D286EAE670039AC0EBE670029F49
:104EE000104400FB03707746B0FBF2F01EF805207B
:104EF0002A30904288BF78555E453FF4C4A8CBF174
:104F0000050505EB0C068E420AD3CBF1060606EB2F
:104F10000C058D421AD35E453FF4B5A82BE000BFC7
:104F200085EAE570039AC0EBE570029D104400FB32
:104F30000350B0FBF2F0BA5D2A30904288BFB855FA
:104F4000CBF1060606EB0C058D42E4D286EAE6704C
:104F5000039FC0EBE670029A384400FB03201EF862
:104F60000520B0FBF7F077462A30904288BF78558D
:104F70005E453FF488A88BF0070505EB0C068E42D2
:104F80000AD3CBF1080606EB0C058D4216D35E451D
:104F90003FF479A823E000BF039A501B029D00FB59
:104FA0000350B0FBF2F0BA5D2A30904288BFB8558A
:104FB000CBF1080606EB0C058D42E8D2039F029A5E
:104FC000B81B00FB03201EF80520B0FBF7F0774666
:104FD0002A30904288BF78555E453FF454A8CBF103
:104FE000090505EB0C068E420AD3CBF10A0606EB47
:104FF0000C058D4216D35E453FF445A823E000BF63
:10500000039A501B029D00FB0350B0FBF2F0BA5D07
:105010002A30904288BFB855CBF10A0606EB0C0542
:105020008D42E8D2039F029AB81B00FB03201EF8B2
:105030000520B0FBF7F077462A30904288BF7855BC
:105040005E453FF420A8CBF10B0505EB0C068E4224
:105050000AD3CBF10C0606EB0C058D4216D35E4548
:105060003FF411A823E000BF039A501B029D00FBF0
:105070000350B0FBF2F0BA5D2A30904288BFB855B9
:10508000CBF10C0606EB0C058D42E8D2039F029A89
:10509000B81B00FB03201EF80520B0FBF7F0774695
:1050A0002A30904288BF78555E453EF4ECAFCBF194
:1050B0000D0505EB0C068E420BD2039A501B029D88
:1050C00000FB0350B0FBF2F0BA5D2A30904288BF7B
:1050D000B855CBF10E0202EB0C008842BEF4D3AF00
:1050E000039EB11A029A01FB03213A5CB1FBF6F16F
:1050F0002A31914288BF3954FEF7C5BFFFFF7F4F69
:105100000000AA422DE9F04F89B04CF6704440F2FD
:105110008406C2F20004C2F200062078B189002899
:10512000ADF8221000F004826088B0F5807F40F076
:10513000FF81B4F90C00B4F90E50079031B1B1F50C
:10514000806F11D94FF48061D0E100BFFAA00DF15A
:10515000220104F0DDFD002800F0C681BDF8221018
:10516000B181B1F5806FEDD8002900F0CF810798AB
:10517000A5EB000BBBF1010FC0F2C181B4F80290A6
:1051800045F256564B1EA9F1010E01F003058F089A
:105190004FF0000AC5F2555600F0FA80009509EB71
:1051A0004905E81E049048466FF0030909EB8001A9
:1051B00005900391AAEB87016FF00107DDF814C099
:1051C00007EB400004F1100802910190CDF818B0EF
:1051D000BAFBF3F7012007FB13A1BAB210FA87F06C
:1051E00038F91220604538BF0746B8B25C1A38F962
:1051F0001000624301FB0020079990FBF3F00124AB
:10520000401AC0EBC010400090FBFBF0EA2250FBBC
:1052100006F000EBD07B6FF013001BF1140FD8BF2A
:1052200083460EEB0A00B0FBF3F1BBF1EA0F8FB23D
:1052300014FA81F401FB1300A8BF934638F91770E4
:10524000644538BF214689B21A1A38F911107A43D9
:1052500000FB0120079990FBF3F0EA25401AC0EB10
:10526000C0100699400090FBF1F050FB06F000EBF7
:10527000D0776FF0130017F1140FD8BF07460198CD
:10528000EA2F5044B0FBF3F1A8BF2F463546012664
:105290008CB216FA81F601FB130038F9144066450A
:1052A00038BF314689B21A1A38F91110624300FB2F
:1052B0000120079990FBF3F02E46401AC0EBC01076
:1052C0000699400090FBF1F0012450FB05F0754673
:1052D00000EBD07E6FF013001EF1140FD8BF86468E
:1052E0000498BEF1EA0F5044B0FBF3F14FF0EA022C
:1052F00014FA81F4A8BF964601FB13008AB26445F4
:1053000038BF214638F9122089B21C1A38F9111019
:10531000624300FB01204CF67002C2F200020BF166
:1053200014014A44117107F1140190FBF3F0079F37
:10533000DDF818B0C01BC0EBC010400090FBFBF0C4
:10534000517150FB06F00EF1140100EBD070917119
:1053500010F1140F6FF01301D8BF0846EA284FF080
:10536000EA01A8BF08461430D071029809F1040977
:10537000484404300398AE4682447FF429AF09F1D3
:10538000040ADDF814904CF67044009DC2F200044B
:10539000002D00F0BB800EFB0AF0B0FBF3F2012100
:1053A00011FA82F102FB130097B2494538BF0A4651
:1053B00004F1100C3CF9174092B2191A3CF9122072
:1053C0004C4300FB0240079990FBF3F06FF0130889
:1053D000401AC0EBC010400090FBFBF0EA2750FBE6
:1053E00006F000EBD07010F1140FD8BF4046EA2849
:1053F000A8BF38464CF670021430012DC2F20002EC
:1054000002F80A0000F082800AF1010005900EFB0C
:1054100000F0B0FBF3F229467546B646012616FAAF
:1054200082F602FB130094B24E4538BF32463CF977
:10543000144092B21E1A3CF91220664300FB02602F
:10544000079A90FBF3F0801AC0EBC010400090FB6D
:10545000FBF04CF6700250FB0EF000EBD07010F138
:10546000140FC8BF8046B8F1EA0FB8BF47460229FB
:10547000059907F11400C2F20002505446D00AF117
:10548000020705FB07F0B0FBF3F2012515FA82F5E0
:1054900094B202FB13004D453CF9144038BF2A4634
:1054A00092B21E1A3CF9121006FB04F200FB012016
:1054B000079990FBF3F0401AC0EBC010400090FB3E
:1054C000FBF04CF6700150FB0EF000EBD07010F1C9
:1054D000140FD8BF6FF01300EA28A8BFEA201430D9
:1054E000C2F20001C85511E04FF40071ADF822106E
:1054F0000798A5EB000BBBF1010FBFF63FAE4CF6D2
:105500007000C2F200001422FBF705F942F2E83401
:10551000C0F601042046002106F0AEFDBDF82230A1
:105520004CF67002C2F200022046002106F04CFE4A
:1055300009B0BDE8F08F00BF7330000070B5866D14
:10554000044600F03FF994F83510022928D10546A9
:105550002068216C026822F016020260426922F083
:105560008002426109B9A16C19B1016821F00801FA
:105570000160016821F00101016000BF206800683E
:10558000C00715D000F01EF9401B0628F6D32020D6
:105590006065032084F83500002184F8341070BD64
:1055A000802060650120002184F8341070BD00BFA8
:1055B000E06D3F2101FA00F0B060012084F8350071
:1055C0000020002184F8341070BD000090F83510E0
:1055D000022909D1052180F835100068016821F001
:1055E0000101016000207047802141650120704762
:1055F000B0B5044600F0E6F8054640F20000C2F2FD
:1056000000000078611C18BF044400BF00F0DAF805
:10561000401BA042FAD3B0BD2DE9F04F83B000F19A
:10562000200200F13E4741F60045009207F1FF7766
:10563000C4F2020508224FEAB726A84208BF072293
:1056400000254FF000084FF00009072E38BF4FEA41
:10565000B72201920AE000BF09F1010908F102082E
:10566000B9F1100F05F1040500F0A2800F680122C6
:1056700002FA09FE17EA0E0AEED0D1F804C003229E
:105680000CF003077E1E02FA08F4012E6FEA040BE9
:1056900012D88468CE6804EA0B0406FA08F634438C
:1056A0008460446824EA0E06CCF3001404FA09F47A
:1056B0002643466004E000BF032F01D103271EE00C
:1056C000C6688C6806EA0B0604FA08F42643022F23
:1056D000C66014D16FF00302009E02EA590756F823
:1056E00007C005F01C040F220B69A2402CEA02023D
:1056F000A3401A43F251D1F804C00CF0030702682A
:1057000007FA08F302EA0B021A431CF4403F026056
:10571000A2D0002243F644030292C4F202031A68A4
:1057200043F6004442F480421A601A68C4F201044D
:1057300002F480420292029A29F003024FF6084CCA
:105740002244CFF6FF7C52F80C3005F00C070F26F0
:10575000BE40B343019E06FA07F73B4342F80C30C4
:10576000A2684B6842EA0A0743F60C4CDE0258BFB7
:1057700022EA0A07A760C4F2010CDCF800209E02AE
:1057800042EA0A0758BF22EA0A07CCF800706268AA
:105790009E0342EA0A0758BF22EA0A0767602268A6
:1057A000DB0342EA0A0758BF22EA0A07276053E7E9
:1057B00003B0BDE8F08F0000002A08BF0904816132
:1057C000704700004CF6E060C2F2000000687047CD
:1057D00040F200004CF6E061C2F20000C2F20001AB
:1057E00000780A68104408607047000080B543F6EE
:1057F0000040C4F20200016841F4007101600168D8
:1058000041F480610160016841F48071016003200E
:1058100000F086F80F2000F005F800F027F80020CF
:1058200080BD000070B540F20006C2F2000640F2F2
:1058300008013278C2F200014FF47A730968B3FBB1
:10584000F2F20446B1FBF2F1084600F083FE0F2CA1
:105850004FF0010508D838B94FF0FF30214600223B
:10586000002500F031F87460284670BD82B0002039
:1058700043F640010190C4F202014A6842F48042BA
:105880004A604A6802F480420192019A00900868D6
:1058900040F080500860086800F080500090009848
:1058A00002B07047002848BF704700F01F01012276
:1058B00002FA01F11C2202EAD0004EF20012CEF2EE
:1058C000000281507047000010B54EF60C5CCEF21D
:1058D000000CDCF80030C3F3022E8EF00704042C19
:1058E00028BF0424BEF103034FF0FF3E0EFA04F478
:1058F00038BF0023A14399400EFA03F39A431143A2
:1059000000F00F0200F160430901043A03F564431B
:105910006244002848BF02F10C03197010BD00005A
:105920004EF60C51CEF200010A684FF6FF031A4002
:1059300060F30A2242F0806040F0FD70086070471A
:10594000002804BF012070472DE9F04143F6080804
:10595000C4F202080446D8F8F8030D4600F0070028
:10596000814207D988F8F853D8F8F80300F0070007
:10597000A84277D12068810717D5410705D5D8F807
:10598000001041F4E051C8F80010010705D5D8F81F
:10599000001041F46041C8F80010D8F80010A26867
:1059A00021F0F0011143C8F80010C00740D1D8F829
:1059B000F80300F00700854207D288F8F853D8F8BA
:1059C000F80300F00700A8424CD12068410707D532
:1059D000D8F80010E26821F4E0511143C8F8001033
:1059E000000708D5D8F80000216920F4604040EA9B
:1059F000C100C8F8000000F07DF8D8F800104CF69F
:105A00007852C1F30311C0F60002515C40F2080263
:105A100020FA01F140F20400C2F200000068C2F274
:105A200000021160FFF7FEFE0020BDE8F08100BF1C
:105A30006068811E022907D258F8081C89015CBFE2
:105A40000120BDE8F08111E0012807D158F8081CB9
:105A500089035CBF0120BDE8F08107E058F8081C0D
:105A6000890703D40120BDE8F08100BFD8F80010F9
:105A700021F003010843C8F80000FFF7A3FE064623
:105A800041F28837D8F80000616800F00C00B0EBF4
:105A9000810F8CD0FFF796FE801BB842F2D903200D
:105AA000BDE8F08140F2080043F60801C2F20000B0
:105AB000C4F20201006809684CF68852C1F38221E1
:105AC000C0F60002515CC8407047000040F2080078
:105AD00043F60801C2F20000C4F20201006809683E
