:020000040800F2
:10000000D8E0002071020008B9640008D16300083C
:10001000B56400082D090008099A000800000000D6
:1000200000000000000000000000000095660008CD
:100030003109000800000000BD640008318F00088D
:100040008B0200088B0200088B0200088B0200085C
:100050008B0200088B0200088B0200088B0200084C
:100060008B0200088B0200088B0200088B0200083C
:100070008B0200088B0200088B0200088B0200082C
:100080008B0200088B0200088B0200088B0200081C
:100090008B0200088B0200088B0200088B0200080C
:1000A0008B0200088B0200088B0200088B020008FC
:1000B0008B0200088B0200088B0200088B020008EC
:1000C0008B0200088B0200088B0200088B020008DC
:1000D0008B020008FD9900088B0200088B020008C3
:1000E0008B0200088B0200088B0200088B020008BC
:1000F0008B0200088B0200088B0200088B020008AC
:100100008B0200088B0200088B0200088B0200089B
:10011000A59700088B0200088B0200088B020008DC
:100120008B0200088B0200088B0200088B0200087B
:100130008B0200088B0200088B0200088B0200086B
:100140008B0200088B0200088B0200088B0200085B
:100150008B0200088B0200088B0200088B0200084B
:100160008B0200088B0200088B0200088B0200083B
:100170008B0200088B0200088B02000800000000C0
:100180008B0200088B02000800F002F800F060F813
:1001900014A696E8000CB244B344DA4501D100F04D
:1001A00057F8BAE80F000FA696E83000A5EB040553
:1001B00004EB0607AAEB0704A7F101074FEA1515A0
:1001C0004FEA3414A4F10104AC4201D300F040F82A
:1001D00013F0010F18BFFB1A43F0010300F001F800
:1001E000DBE7184784940200A4940200103A24BF6D
:1001F00078C878C1FAD8520724BF30C830C144BF8C
:1002000004680C6070470000704700000023002461
:1002100000250026103A28BF78C1FBD8520728BF16
:1002200030C148BF0B607047642900F029817529EF
:1002300000F02681782900F05F81732900F0348373
:10024000002070471FB50BF05EFE1FBD10B510BD3E
:1002500000F036FB1146FFF7F5FF0BF04DF800F00C
:1002600054FB03B4FFF7F2FF03BC00F057FB0000A0
:100270000948804709480047FEE7FEE7FEE7FEE73A
:10028000FEE7FEE7FEE7FEE7FEE7FEE70448054976
:10029000054A064B70470000DD8F00088901000801
:1002A000D8CE0020D8E00020D8D00020D8D0002020
:1002B00053EA020C00F069802DE9F04B4FF0000684
:1002C000002B1FBFB3FA83F503FA05F424FA05F6F1
:1002D0005E4012BF1643B2FA82F502FA05F4C5F188
:1002E00020051EBF22FA05FC44EA0C04203556EA1C
:1002F000044C4FEA144418BF641C4FF000084FF040
:100300000009904271EB030C39D3002919BFB1FAEF
:1003100081F701FA07F6B0FA80F700FA07F6C7F19D
:1003200020071EBF20FA07FC46EA0C062037B6FB62
:10033000F4FCA7EB0507103F07F01F0BCBF12006DD
:100340002CFA06F60CFA0BFB44BFB3460026202F0E
:10035000A4BF5E464FF0000B5BEA060C08BF4FF0EF
:10036000010B19EB0B0948EB0608ABFB027C06FB03
:1003700002CC0BFB03CCC01B71EB0C01C1E70B469D
:10038000024641464846BDE8F08B13B5084318BF06
:100390004FF0FF300146AFF30080BDE81C407047CE
:1003A0000FB41CB50C0007AA009007D04142A1422F
:1003B00002D32044401E01E04FF0FF30074B7B4446
:1003C00069460190069800F042FA0021002C01D005
:1003D000009A11701CBC5DF814FB0000B30400000F
:1003E00070B5044685690068C10601D5302600E075
:1003F0002026C00707D070BDD4E9012130469047C0
:10040000206A401C20626D1EF6D570BD70B5044692
:1004100085690078C00707D170BDD4E9012120208B
:100420009047206A401C20626D1EF6D570BD70B5E5
:100430000C460546012A05D02878800600D5EA69D1
:10044000002302E0012305E05B1C934202D2E05C42
:100450000028F9D1A869E618C01AA861286A1844CA
:1004600028622846FFF7BCFF04E0D5E9012114F813
:10047000010B9047B442F8D32846FFF7C7FF70BD81
:100480002DE9F0410646002410687529314616A56D
:1004900010D0AFF30080002802DA404213A507E035
:1004A00031688A0701D512A502E0490704D511A5D4
:1004B000012401E0AFF3008000210A2206F12407A5
:1004C00009E0B0FBF2FCB0FBF2F302FB1C003030A1
:1004D00078541846491C0028F3D123462A46304652
:1004E000BDE8F04100F054B9000000002D0000000C
:1004F0002B0000002000000070B504460D46214688
:100500001068AFF300802188090502D50F4A7A44AC
:1005100002E00E4A7A440E32002104F1240305E081
:1005200000F00F060009965D5E54491C0028F7D1C3
:1005300020780023000704D5702D02D009B10223D2
:1005400011322046BDE8704000F022B96EBA0000BA
:100550002DE9F05F894604464FF0000ADFF874B1D8
:10056000FB44C0F820A02046E1688847002874D0EA
:10057000252806D0D4E901219047206A401C20623A
:10058000F1E700265F462046E168884720280546B7
:1005900007DB312D05D2781910F8200C08B106437D
:1005A000F1E7B00701D526F00406C4F81CA0002727
:1005B000C4F818A02A2D09D028460BF057FC38B3F0
:1005C00004EB8708303DC8F8185019E059F8041BAF
:1005D000204604EB87029161E1688847012F0546B8
:1005E00018D1E069002820DA26F020061DE0D8F8AE
:1005F000180000EB800005EB40003038C8F8180008
:100600002046E168884705460BF030FC0028EED113
:10061000012F0AD02E2D08D12046E16888477F1C83
:100620000546022F46F02006C4DBA069002803DA45
:10063000404246F00106A061F00701D026F0100606
:100640006C2D0BD0682D09D04C2D39D06A2D35D0AA
:10065000742D35D07A2D33D016E038E0E1682F467E
:1006600020468847B842054609D16C2F26D04FF462
:100670008060E168064320468847054604E06C2F09
:100680001AD04FF4807006430DB3A5F1410019282C
:1006900002D8203546F400664A46294620462660A0
:1006A0004E46FFF7C1FD80B101280BD0F61D26F0A4
:1006B000070000F1080956E74020E4E78020D8E76A
:1006C0000020D6E706F104094DE7284652E7206AE4
:1006D000BDE8F09F44BA000010B5431C02E010F8DA
:1006E000011B71B18107FAD14FF0013202C88C1A97
:1006F0008C4314EAC211F9D0C01A0A0603D0C01EF6
:1007000010BDC01A10BD0A0401D0801E10BD090220
:10071000FCD0401E10BD02F0FF0343EA032242EA70
:10072000024200F002B84FF0000200B513469446B2
:100730009646203922BFA0E80C50A0E80C50B1F139
:100740002001BFF4F7AF090728BFA0E80C5048BF4D
:100750000CC05DF804EB890028BF40F8042B08BFEB
:10076000704748BF20F8022B11F0804F18BF00F8E7
:10077000012B704770477047704710B500F098F82C
:10078000006810BD10B5044600F092F8046010BD7A
:100790002DE9F0470D4699469246044600F124089B
:1007A0000168880604D5E06921F01001216000E0AD
:1007B0000120A84201DD471B00E00027A1697A194A
:1007C00002EB0900081AA0612078C00602D4204676
:1007D000FFF706FE002608E0D4E901211AF806001A
:1007E0009047206A401C761C20624E45F4DB20783E
:1007F000C0060AD52046FFF7F3FD06E0D4E9012143
:1008000030209047206A401C2062381EA7F1010763
:10081000F4DC07E0D4E9012118F805009047206ACC
:10082000401C2062281EA5F10105F3DC2046FFF7DD
:10083000EDFD2078000602D50220BDE8F0870120FA
:10084000FBE7000001694A1C02610878704700B5A7
:100850008FB0CDE901310021059105497944CDE9F9
:10086000031011466846FFF773FE0FB000BD00008D
:10087000E5FFFFFFD1E900239A4202D2531C0B602F
:100880001070704710B5436913B1AFF3008001E0F9
:10089000FFF7CDFD012010BD127800F124010A7090
:1008A00000224A700122EDE711684FF0FF32E9E7BC
:1008B00000487047100000200048704710000020DA
:1008C0007546FFF7F9FFAE4605006946534620F02E
:1008D0000700854618B020B5FFF7D8FCBDE82040DA
:1008E0004FF000064FF000074FF000084FF0000BEC
:1008F000AC46ACE8C009ACE8C009ACE8C009ACE85B
:10090000C00921F007018D46704710B50446AFF3CA
:1009100000802046BDE81040FFF7A3BC0149182025
:10092000ABBEFEE72600020070470000FEE70000B5
:100930007047000072B600BFFEE700002DE9F041ED
:1009400086B0002643F630000496CDE90266CDE974
:1009500000660596C4F202000168002441F001011E
:1009600001600068C4F2020400F0010005900598DF
:1009700041F20405204610210122CEF200054FF07D
:100980001008012704F0BEF90320039069462046B1
:10099000CDE90087029604F0E5F84EF6FC50CEF261
:1009A0000000016841F0807101602E6055F8040C70
:1009B00042F2D41140F0010045F8040C55F8040C43
:1009C000C2F2000110F00100087017D1402005901C
:1009D0000598411E0591C8B300BF0598411E0591B9
:1009E000A0B300BF0598411E059178B300BF0598DC
:1009F000411E059150B300BFEAE700BF40F2080076
:100A0000C2F2000000684DF68361C4F21B31A0FB06
:100A1000010128682B686FF0010202EA51411A1A9D
:100A20008A4213D200BF2A68121A8A420ED200BF2D
:100A30002A68121A8A4209D200BF2A68121A8A4208
:100A400004D200BF2A68121A8A42EBD306B0BDE86E
:100A5000F08100002DE9F04184B0002041F204054E
:100A6000C4F2020010210122CEF2000504F04AF97E
:100A700042F2D416C2F20006307840F208084DF671
:100A800083670028C2F20008C4F21B3760D0D8F890
:100A90000000A0FB070128682A68890C01EB81018E
:100AA000121AB2EB410F15D2490000BF00BF2A68ED
:100AB000121A8A420ED200BF2A68121A8A4209D23A
:100AC00000BF2A68121A8A4204D200BF2A68121A8A
:100AD0008A42EBD340F23414C2F20004204604F000
:100AE000BDFC2068016821F04001016000210191F6
:100AF000C1680191816801910199016841F040014B
:100B000001603078002841D0D8F800006FF0010271
:100B1000A0FB070128682B6802EA51411A1A8A4291
:100B200013D200BF2A68121A8A420ED200BF2A6866
:100B3000121A8A4209D200BF2A68121A8A4204D2C3
:100B400000BF2A68121A8A42EBD304B0BDE8F081D4
:100B50004FF4A070029000BF0298411E002802913D
:100B6000B8D000BF0298411E00280291B2D000BF49
:100B70000298411E00280291ACD000BF0298411E8D
:100B800000280291A6D000BFE6E700BF40200390F6
:100B90000398411E00280391D7D000BF0398411E3F
:100BA00000280391D1D000BF0398411E0028039173
:100BB000CBD000BF0398411E00280391C5D000BFD1
:100BC000E6E700002DE9F04784B00C4640F200084B
:100BD0000021C4F202080191010C164641F20407FB
:100BE000ADF80810ADF80A00404610210122CEF2FF
:100BF000000704F087F842F2D415C2F20005287805
:100C000040F2080A4DF683690028C2F2000AC4F2D5
:100C10001B3900F08980DAF800006FF00102A0FBB8
:100C2000090138683B6802EA51411A1A8A4213D214
:100C300000BF3A68121A8A420ED200BF3A68121AEE
:100C40008A4209D200BF3A68121A8A4204D200BF0F
:100C50003A68121A8A42EBD340461021002204F06F
:100C600051F8287800287DD0DAF80000A0FB0901AF
:100C700038683A68121AB2EB914F15D2890C00BF4E
:100C800000BF3A68121A8A420ED200BF3A68121A9E
:100C90008A4209D200BF3A68121A8A4204D200BFBF
:100CA0003A68121A8A42EBD340F23410C2F20000C2
:100CB00002A901AA0223009604F052FD29780646F3
:100CC00000296BD0DAF80000A0FB090138683A6807
:100CD000121AB2EB914F15D2890C00BF00BF3A68CF
:100CE000121A8A420ED200BF3A68121A8A4209D2F8
:100CF00000BF3A68121A8A4204D200BF3A68121A38
:100D00008A42EBD340461021012203F0FBFF002E64
:100D100060D0FFF79FFE0020002C4FF0000161D152
:100D200004B0BDE8F08700BF402003900398411E47
:100D30000028039190D000BF0398411E0028039122
:100D40003FF48AAF00BF0398411E002803913FF48F
:100D500083AF00BF0398411E002803913FF47CAF8E
:100D600000BFE3E7202003900398411E0028039171
:100D70009AD000BF0398411E0028039194D000BF71
:100D80000398411E002803918ED000BF0398411E96
:100D9000002803913FF488AF00BFE5E720200390CF
:100DA0000398411E00280391ACD000BF0398411E58
:100DB00000280391A6D000BF0398411E002803918C
:100DC000A0D000BF0398411E002803919AD000BF15
:100DD000E6E700BF64B1BDF80400BDF8061041EAC3
:100DE000004001212060084604B0BDE8F08700BF44
:100DF000012004B0BDE8F0872DE9F04F83B08246B2
:100E000000284FF0000000F0658141F201028A1ACB
:100E100012F5805FC0F05E81CDE900104FF0085000
:100E200000210A22FFF7CEFE90B3009802281ED3BD
:100E3000009801264442C2F2002601AF4FF6FF7B24
:100E4000554600BF304639460A22FFF7BBFEF8B1CF
:100E50000198002220EA0B01C5F24132914217D1DC
:100E60000136A119B1F1085F25F8020BEAD101A9F9
:100E700000200A22FFF7A6FE50B101984FF6FF713D
:100E8000002220EA0101C5F24132914200F0E480E3
:100E900041F20407CEF20007FFF7DCFD42F2D41066
:100EA000C2F2000000784DF68361002840F208008D
:100EB000C2F20000C4F21B3100F010810068A0FBF8
:100EC000010138683A68890C01EB8101121AB2EB12
:100ED000410F15D2490000BF00BF3A68121A8A427A
:100EE0000ED200BF3A68121A8A4209D200BF3A688D
:100EF000121A8A4204D200BF3A68121A8A42EBD30D
:100F0000002001904FF0085000210A22FFF75AFEFE
:100F100098B30098022820D300984FF00009441E8F
:100F20004FF4083501AE4FF6FF7800BF09F1010B11
:100F3000584665F31F3031460A22FFF743FEE0B101
:100F40000198002220EA0801C5F24132914214D1F1
:100F50002AF819005C45D946E8D101A900200A22E7
:100F6000FFF730FE48B101984FF6FF71002220EAEA
:100F70000101C5F2413291426ED0FFF76BFD42F2A2
:100F8000D410C2F200000078002800F0C98040F2BE
:100F90000800C2F2000000684DF68361C4F21B3104
:100FA000A0FB010138683A68890C01EB8101121A33
:100FB000B2EB410F14D2490000BF3A68121A8A42BC
:100FC0000ED200BF3A68121A8A4209D200BF3A68AC
:100FD000121A8A4204D200BF3A68121A8A42EBD32C
:100FE000002001904FF0085000210A22FFF7EAFD8F
:100FF000E0B3009802281FD300980026441E4FF447
:10100000083B0DF104094FF6FF7800BF751C284618
:101010006BF31F3049460A22FFF7D4FD30B3019825
:10102000002220EA0801C5F2413291421ED12AF87D
:101030001600AC422E46E9D101A900200A22FFF792
:10104000C1FD98B101984FF6FF71002220EA01011D
:10105000C5F24132914209D100990AEB410121F8D0
:10106000020C012003B0BDE8F08F00BFFFF7F2FCD7
:1010700042F2D410C2F200000078002872D040F290
:101080000800C2F2000000684DF68361C4F21B3113
:10109000A0FB0101880C39683A6800EB8000521A05
:1010A000B2EB400F78D2420000BF3868401A90423D
:1010B00072D200BF3868401A90426DD200BF3868C3
:1010C000401A904268D200BF3868401A90424FF0F0
:1010D0000000E9D303B0BDE8F08F00BF4FF4A0706B
:1010E000029000BF0298411E002802913FF408AF11
:1010F00000BF0298411E002802913FF401AF00BFDB
:101100000298411E002802913FF4FAAE00BF0298F7
:10111000411E002802913FF4F3AE00BFE2E700BF9A
:101120004FF4A070029000BF0298411E0028029167
:101130003FF456AF00BF0298411E002802913FF4D1
:101140004FAF00BF0298411E002802913FF448AF04
:1011500000BF0298411E002802913FF441AF00BF3A
:10116000E2E700BF4FF4A070029000BF0298411E5A
:10117000029188B100BF0298411E029160B100BF88
:101180000298411E029138B100BF0298411E02919F
:1011900010B100BFEAE700BF002003B0BDE8F08F48
:1011A0002DE9F04182B004460020002C009000F0B0
:1011B000C58020604FF0045000210A22FFF702FD95
:1011C00060B1694600200A22FFF7FCFC30B10098AC
:1011D00020F00701B1F1805F00F0838042F2D41665
:1011E000C2F20006307841F2040540F208084DF6DC
:1011F0008367CEF200050028C2F20008C4F21B3754
:1012000000F0A080D8F80000A0FB070128682A6839
:10121000890C01EB8101121AB2EB410F14D2490083
:1012200000BF2A68121A8A420ED200BF2A68121A18
:101230008A4209D200BF2A68121A8A4204D200BF29
:101240002A68121A8A42EBD34FF0045000210A2276
:10125000FFF7B8FC58B1694600200A22FFF7B2FC3C
:1012600028B1009820F00701B1F1805F39D03078C3
:10127000002800F08980D8F80000A0FB070128684A
:101280002A68890C01EB8101121AB2EB410F15D2C9
:10129000490000BF00BF2A68121A8A420ED200BF5E
:1012A0002A68121A8A4209D200BF2A68121A8A4290
:1012B00004D200BF2A68121A8A42EBD34FF00450BE
:1012C00000210A22FFF77EFC80B1694600200A2235
:1012D000FFF778FC50B1009820F00701B1F1805F72
:1012E00004D12060012002B0BDE8F08130780028F0
:1012F0006AD0D8F80000A0FB0701880C29682A688A
:1013000000EB8000521AB2EB400F77D2420000BFD0
:1013100000BF2868401A904270D200BF2868401A67
:1013200090426BD200BF2868401A904266D200BF3C
:101330002868401A90424FF00000E9D302B0BDE89F
:10134000F08100BF4FF4A070019000BF0198411ED2
:10135000002801913FF478AF00BF0198411E00289A
:1013600001913FF471AF00BF0198411E0028019127
:101370003FF46AAF00BF0198411E002801913FF47D
:1013800063AF00BFE2E700BF4FF4A070019000BF61
:101390000198411E0028019190D000BF0198411E84
:1013A000002801913FF48AAF00BF0198411E002838
:1013B00001913FF483AF00BF0198411E00280191C5
:1013C0003FF47CAF00BFE3E74FF4A070019000BF93
:1013D0000198411E019188B100BF0198411E019101
:1013E00060B100BF0198411E019138B100BF019862
:1013F000411E019110B100BFEAE700BF002002B01A
:10140000BDE8F0812DE9F04182B004460020002CB7
:10141000009018BF20604FF0005000210A22FFF713
:10142000D1FB58B1694600200A22FFF7CBFB28B157
:10143000009840F2D241884200F0808042F2D416F7
:10144000C2F20006307841F2040540F208084DF679
:101450008367CEF200050028C2F20008C4F21B37F1
:1014600000F0A280D8F80000A0FB070128682A68D5
:10147000890C01EB8101121AB2EB410F14D2490021
:1014800000BF2A68121A8A420ED200BF2A68121AB6
:101490008A4209D200BF2A68121A8A4204D200BFC7
:1014A0002A68121A8A42EBD34FF0005000210A2218
:1014B000FFF788FB50B1694600200A22FFF782FB44
:1014C00020B1009840F2D241884237D030780028CD
:1014D00000F08C80D8F80000A0FB070128682A687B
:1014E000890C01EB8101121AB2EB410F14D24900B1
:1014F00000BF2A68121A8A420ED200BF2A68121A46
:101500008A4209D200BF2A68121A8A4204D200BF56
:101510002A68121A8A42EBD34FF0005000210A22A7
:10152000FFF750FB90B1694600200A22FFF74AFB03
:1015300060B1009840F2D241884207D1002C4FF0B0
:10154000010018BF216002B0BDE8F08130780028AA
:101550006ED0D8F80000A0FB070128682A68890C23
:1015600001EB8101121AB2EB410F15D2490000BF05
:1015700000BF2A68121A8A420ED200BF2A68121AC5
:101580008A4209D200BF2A68121A8A4204D200BFD6
:101590002A68121A8A42EBD3002C67D000990020E7
:1015A000216002B0BDE8F0814FF4A070019000BF4F
:1015B0000198411E002801913FF476AF00BF0198C9
:1015C000411E002801913FF46FAF00BF0198411EFA
:1015D000002801913FF468AF00BF0198411E002828
:1015E00001913FF461AF00BFE2E700BF4FF4A0708C
:1015F000019000BF0198411E002801913FF48CAF7B
:1016000000BF0198411E002801913FF485AF00BF43
:101610000198411E002801913FF47EAF00BF019860
:10162000411E002801913FF477AF00BFE2E700BF01
:101630004FF4A070019000BF0198411E0028019155
:10164000AAD000BF0198411E00280191A4D000BF7C
:101650000198411E002801919ED000BF0198411EB3
:101660000028019198D000BFE6E700BF002002B03B
:10167000BDE8F0812DE9F04383B045F245664FF0B7
:1016800044540028C5F241764FF0000008BF4FF0E7
:10169000405404BF44F65946C4F24E160190204609
:1016A00000210A22FFF78EFA40B101A900200A2288
:1016B000FFF788FA10B10198B0427AD042F2D417FD
:1016C000C2F20007387841F2040540F208094DF6ED
:1016D0008368CEF200050028C2F20009C4F21B386C
:1016E00000F09880D9F80000A0FB080128682A685B
:1016F000890C01EB8101121AB2EB410F14D249009F
:1017000000BF2A68121A8A420ED200BF2A68121A33
:101710008A4209D200BF2A68121A8A4204D200BF44
:101720002A68121A8A42EBD3204600210A22FFF7C8
:1017300049FA40B101A900200A22FFF743FA10B18B
:101740000198B04235D03878002800F08580D9F86B
:101750000000A0FB080128682A68890C01EB8101C0
:10176000121AB2EB410F15D2490000BF00BF2A6820
:10177000121A8A420ED200BF2A68121A8A4209D26D
:1017800000BF2A68121A8A4204D200BF2A68121ABD
:101790008A42EBD3204600210A22FFF713FA68B1F0
:1017A00001A900200A22FFF70DFA38B10198B042D2
:1017B00004D1012003B0BDE8F08300BF38780028D1
:1017C0006AD0D9F80000A0FB0801880C29682A68B3
:1017D00000EB8000521AB2EB400F77D2420000BFFC
:1017E00000BF2868401A904270D200BF2868401A93
:1017F00090426BD200BF2868401A904266D200BF68
:101800002868401A90424FF00000E9D303B0BDE8C9
:10181000F08300BF4FF4A070029000BF0298411EF9
:10182000002802913FF480AF00BF0298411E0028BB
:1018300002913FF479AF00BF0298411E0028029147
:101840003FF472AF00BF0298411E002802913FF49E
:101850006BAF00BFE2E700BF4FF4A070029000BF83
:101860000298411E0028029194D000BF0298411EA8
:10187000002802918ED000BF0298411E00280291DC
:101880003FF488AF00BF0298411E002802913FF448
:1018900081AF00BFE4E700BF4FF4A070029000BF2B
:1018A0000298411E029188B100BF0298411E029128
:1018B00060B100BF0298411E029138B100BF02988A
:1018C000411E029110B100BFEAE700BF002003B043
:1018D000BDE8F08341F2A050C0F60100704700005F
:1018E0002DE9F0472DED0E8B0E4602F0FD0101298A
:1018F0003ED10546E0B3042E3AD3CBB3B5EE400A51
:10190000B0EE408AF1EE10FA32DDF5EE400AB0EEAC
:10191000609AF1EE10FA2BDDB6EE00AA28EE0A0A64
:10192000B4EE409AF1EE10FA22DA18464FF4047140
:1019300092469846FEF7F7FE88EE09DA00EE10AA06
:10194000B8EE400AB01E2DEE00BA00EE100AB8EE56
:10195000400AB4EE40BAF1EE10FA00F36E81042EA4
:1019600006F0030912D29FEDB70A002039E000BF4C
:10197000002B00F0628118464FF40471FEF7D3FE8D
:101980000020BDEC0E8BBDE8F08700BF9FEDAD0AD7
:1019900026F00301A5F10802002000BF32F9083F3C
:1019A000043001EE103AB2F90230B8EEC11A30EE4E
:1019B000010AB2F9047001EE103AB8EEC11AB2F998
:1019C000064030EE010A01EE107AB8EEC11A30EE90
:1019D000010A01EE104AB8EEC11A814230EE010A46
:1019E000DCD1B9F1000F1FD035F91010B9F1010F9A
:1019F00001EE101AB8EEC11A30EE010A14D005EB50
:101A00004000B0F90210B9F1020F01EE101AB8EE61
:101A1000C11A30EE010A07D0B0F9040001EE100A35
:101A2000B8EEC11A30EE010A01EE106A9FEDE42A09
:101A3000B8EE411A80EE01CA29EE020A80EE088A49
:101A4000B0EE480A09F0D4FEB0EE409AB0EE480A73
:101A50000AF07AF8042EB1EE402A80F0F580DFED2E
:101A6000790AB7EE003A0020B0EE601AB0EE605A84
:101A7000B9F1000F00F0818035F9101025EE024A0F
:101A800023EE096A36EE044A06EE101AB8EEC66A6C
:101A900036EE4C6A26EE037A26EE056A20EE033A0D
:101AA00025EE095AC1B2FF2935EE033A14D123EECF
:101AB000035A64EE041A31EE855AF7EE002AB5EEA9
:101AC000405AF1EEC51AF1EE10FAC8BFF0EE612AE5
:101AD00083EE223A84EE224A77EE200AB9F1010F12
:101AE00036EE011A49D0411C35F9112023EE022AA5
:101AF00005EE102AB8EEC55A35EE4C5A25EE046AAA
:101B000025EE035A24EE097A20EE040A23EE093A60
:101B1000C9B237EE022AFF2933EE000A14D120EEB3
:101B2000003A22EE024A34EE033AB7EE007AB5EEFE
:101B3000403AB1EEC34AF1EE10FAC8BFB0EE447AB3
:101B400080EE070A82EE072A76EE200AB9F1020F2C
:101B500035EE011A11D005EB4000B0F9040003EE98
:101B6000100AB8EEC33A33EE4C3A23EE022A23EEC3
:101B7000000A72EE200A30EE011AB0EEE00AB0EE72
:101B8000C12A9FED903A32EE000AB4EE430AF1EE1C
:101B900010FA52DBB1EE410A09F0D4FCB1EE400A72
:101BA00080EE080AB5EE400AF1EE10FA33DA3DEEA7
:101BB000000AB5EE400AF1EE10FA2CDA3DEE000A0A
:101BC000B5EE400AF1EE10FA25DA3DEE000AB5EE68
:101BD000400AF1EE10FA1EDA3DEE000AB5EE400AB8
:101BE000F1EE10FAE3DB16E030EE4D0AB4EE4D0AEA
:101BF000F1EE10FA14DB30EE4D0AB4EE4D0AF1EEC0
:101C000010FA0DDB30EE4D0AB4EE4D0AF1EE10FA8B
:101C100006DB30EE4D0AB4EE4D0AF1EE10FAE3DACF
:101C2000701E02EE100A3BEE001AB8EE422AB4EE25
:101C3000421AF1EE10FA40F3A9800020BDEC0E8BA1
:101C4000BDE8F08700000000DFEDC90AB7EE004AEA
:101C500026F003012A1D0020B0EE601AB0EE446A9F
:101C6000B0EE607A48E000BF32F9043C32F9027C01
:101C700007EE903AF8EEE77A77EECC7A27EE877A9D
:101C800037EE011A07EE107AB8EEC77A27EE866AA9
:101C900037EE4C7A32F9083B36EE206A67EE250AB9
:101CA00027EE267A37EE011A07EE103AB8EEC77A19
:101CB00037EE4C7A32F9063C30EE866A67EE230A3C
:101CC00027EE247A37EE011A07EE103AB8EEC77AFB
:101CD00037EE4C7A30EE866A67EE210A70EE860A9D
:101CE00027EE226A043036EE011A8142B0EE436AD2
:101CF000B0EE457A3FF4BCAE27EE023A26EE095A22
:101D000075EE035A20EE063A27EE095A75EE036A7D
:101D100026EE823A25EE895A75EE033A20EE253AF0
:101D200026EE895A75EE034A24EE823A23EE895A4A
:101D300075EE031A20EE233A24EE895A75EE032A33
:101D400022EE823A21EE895AC31C35EE033ADBB209
:101D500020EE215A62EE897AFF2B37EE855A83D125
:101D600065EE057A23EE03EA7EEE277AB1EEE7EA26
:101D7000F5EE407AF0EE447AF1EE10FAC8BFF0EEDC
:101D80004E7A85EE275A83EE273A6DE747F6FF70C5
:101D9000C8F200009FED771A9FED773A9FED775AD2
:101DA00048F20003C8F80C004FF40047002047F643
:101DB000FF72B7EE002ABEEE004ACFF6FF732EE0A8
:101DC000DB0FC940BD378635B5EE406AB0EE447AC8
:101DD000F1EE10FAA8BFB0EE4A7A36EE077ABDEE01
:101DE000C77AB4EE456A17EE101AF1EE10FA16B281
:101DF000D8BF1946B14208EB40067182BCBFA8F8B3
:101E00000C100A463EB20CB2B44200F10200C4BF4C
:101E1000A8F80E100F46B0F5807F00F0978081B2D1
:101E200006EE101AB8EE466A2BEE066A86EE016AD6
:101E300030EE066ABDEEC67A17EE101A35F911605B
:101E4000013189B235F91110B8EE477A00EE901AD7
:101E500036EE476A07EE106AF8EEE00AB8EEC77A87
:101E600070EECC0A37EE4C7A66EE200A32EE466A05
:101E700027EE066A36EE206AB4EE436AF1EE10FAF7
:101E80001EDAB5EE406AB0EE447AF1EE10FAA8BF61
:101E9000B0EE4A7A36EE077ABDEEC77AB4EE456AFE
:101EA00017EE101AF1EE10FA16B2D8BF1946B14269
:101EB00008EB40063182BCBFA8F80C100A4604E0CB
:101EC00008EB400647F6FF7131823EB20CB2B442D5
:101ED000C4BFA8F80E100F46411C89B206EE101AB6
:101EE000B8EE466A2BEE066A86EE016A30EE066AA6
:101EF000BDEEC67A17EE101A35F91160013189B2BC
:101F000035F91110B8EE477A00EE901A36EE476AAE
:101F100007EE106AF8EEE00AB8EEC77A70EECC0A67
:101F200037EE4C7A66EE200A32EE466A27EE066AF3
:101F300036EE206AB4EE436AF1EE10FAFFF644AFD3
:101F400008EB400647F6FF7171825BE74FF4807043
:101F5000A8F80200012088F801A088ED010A88EDA8
:101F600002BA88F80000BDEC0E8BBDE8F08700BF18
:101F70000000000000007F4300FEFF46000000C795
:101F80002DE9F04F81B02DED108B88B0144600285C
:101F900018BF002C02D134B909E000BF0278002A32
:101FA00018BF00290AD120464821FEF7BCFB0020BB
:101FB00008B0BDEC108B01B0BDE8F08F8278043A18
:101FC00012F1030FEFD30B68002BECD00A79002A33
:101FD000E9D093ED000AB5EE400AF1EE10FAE2DD29
:101FE00093ED010AB5EE400AF1EE10FADBDD012AAD
:101FF0002CD1CDE9040120464821FEF794FBDDF801
:1020000010E09FEDA00A9EF80250DEF80410616017
:102010006570CDB3DDF814A00EF118009AF8041025
:10202000DAF80060CBB204F11807012B06F1040BBB
:102030000290039506972BD19BED002A042D05F005
:10204000030C7BD29FED8F1A0023CDE0013A0833B9
:1020500093ED000AB5EE400AF1EE10FA9BDD93ED28
:10206000011AB5EE401AF1EE10FA94DD13ED021AE2
:10207000B4EE410AF1EE10FA7FF78DAF013A03F1A9
:102080000803E5D1B5E700BFDDF814A0E6E300BF23
:1020900096ED002A0806A6F1040200F0E980012D61
:1020A00002EBC3000790CDE9003640F0ED809FEDD4
:1020B000751A00220398C00700F0D382029800EB43
:1020C000021696ED013A07EB0212B4EE423AF1EE37
:1020D00010FA40F39B820098811E019800F12003C2
:1020E00013ED062AB4EE423AF1EE10FA40F3928272
:1020F00001B313ED042AB4EE423AF1EE10FA40F3C4
:102100008B82012916D013ED022AB4EE423AF1EE89
:1021100010FA40F3838202290CD093ED002AB4EE2A
:10212000423AF1EE10FA40F37A820439481C03F186
:102130002003D5D1079890ED002A82E26FF030019C
:102140009FED501A01EA0517002600230EEB060545
:1021500095ED083AE869A1192A7E22EE033AC86192
:10216000686A81ED083A23EE033A0A7633EE011AE3
:1021700095ED0C3A486295F8280022EE033A81F872
:102180002800686B81ED0C3A23EE033A33EE011A16
:1021900095ED103AEA6A486395F8380022EE033A62
:1021A000CA6281F83800686C81ED103A23EE033A78
:1021B000EA6B33EE011A95ED143A486495F848003D
:1021C000CA6322EE033AEA6C81F84800686D81ED3B
:1021D000143A23EE033A403633EE011AB74203F1C4
:1021E0000403CA644865B1D1069FBCF1000F00F03A
:1021F0003882DDF80880190108EB031090ED023AEF
:1022000007EB031222EE033A18F801504668C06843
:1022100082ED023A23EE033ABCF1010F33EE011ACC
:102220007D545660D06000F01C82581C08EB0011F1
:1022300091ED023A020107EB001022EE033A18F882
:1022400002504E68C96880ED023A23EE033ABCF1B1
:10225000020F33EE011ABD544660C16000F00182E6
:10226000981C08EB001696ED013A07EB0012E8E126
:10227000042D05F0030C80F0E1809FED021A00258B
:102280005EE100BF00000000A3F1020C1FED031A85
:10229000029B05F0FE0006F1200900221DE000BFB0
:1022A0009BED005A24EE044A069F34EE011A95ED88
:1022B000024A297807EB061686ED013A25EE043A24
:1022C0003170E96886ED023A23EE033A0232824227
:1022D00033EE011AF1603FF4EDAE03EB021595ED1C
:1022E000013A4E46B4EE423AF1EE10FA614629DD6B
:1022F00016ED064AB4EE443AF1EE10FA26DDE9B1E5
:1023000016ED044AB4EE443AF1EE10FA20DD01294C
:1023100014D016ED024AB4EE443AF1EE10FA19DD8B
:1023200002290BD096ED004AB4EE443AF1EE10FAD1
:1023300011DD04394F1C06F12006D9D1079991ED22
:10234000004A01E09BED004A069917E0183E02E0C2
:10235000103E00E0083E16ED025A069933EE456A3B
:1023600034EE454A86EE044A96ED015A16ED016AAE
:1023700035EE465A24EE054A34EE064A2E7801EB35
:10238000021181ED013A95ED023A0E7042F001061C
:10239000EF6803EB061524EE034A95ED013A81ED53
:1023A000024AB4EE423ACF60F1EE10FA4F4661466F
:1023B0007FF776AF17ED065AB4EE453AF1EE10FA14
:1023C00024DDF1B117ED045AB4EE453AF1EE10FAFE
:1023D0001EDD012915D017ED025AB4EE453AF1EE93
:1023E00010FA17DD02290CD097ED005AB4EE453AE9
:1023F000F1EE10FA0FDD043911F1010807F12007A1
:10240000D8D1079991ED005A4CE700BF183F02E080
:10241000103F00E0083F17ED026A33EE467A35EED2
:10242000465A87EE055A97ED016A17ED017A36EEA6
:10243000476A25EE065A35EE075A33E76FF030004B
:102440001FED701A00EA0518002700250EEB07069D
:1024500096ED073A5846B4EE423AF1EE10FAC8BF8C
:102460001046E11990ED004A307E81ED073A96ED75
:10247000085A0876706A96ED0B3A24EE054A4862CF
:10248000B4EE423A584681ED084A24EE044AF1EE91
:1024900010FAC8BF104690ED005A96F8280034EEA6
:1024A000011A96ED0C4A81ED0B3A81F8280025EED1
:1024B000043A706B96ED0F4A4863B4EE424A5846B0
:1024C00081ED0C3AF1EE10FAC8BF104623EE033A44
:1024D00090ED005A96F8380033EE011A96ED103A56
:1024E00081ED0F4A81F83800706C96ED134A25EEA5
:1024F000033A81ED103A486423EE033AB4EE424ABF
:102500005846F1EE10FAC8BF104690ED005A33EE6F
:10251000011A96ED143A96F8480025EE033A81F830
:102520004800706D81ED143A23EE033A403733EEE4
:10253000011AB84505F1040581ED134A486585D1B6
:10254000069EBCF1000F00F08C80029B5F4603EBFF
:10255000051090ED013A2901B4EE423AF1EE10FA7D
:10256000C8BF174697ED004A90ED025A13F8018054
:10257000069F06EB051624EE054A07F80180069F24
:1025800086ED013AC06824EE043ABCF1010F33EE47
:10259000011A86ED024AF06063D0681C03EB00115B
:1025A00091ED013A060107EB0010B4EE423A5F46A6
:1025B000F1EE10FAC8BF174697ED004A91ED025AA6
:1025C00013F80680069F24EE054A07F80680069F4A
:1025D00080ED013AC96824EE043ABCF1020F33EEF3
:1025E000011A80ED024AC1603BD0A81C03EB001623
:1025F00096ED013AB4EE423AF1EE10FAC8BF9346B6
:102600009BED002A07EB00121BE000BF9BED002AA8
:1026100017E000BF183B02E0103B00E0083B13ED61
:10262000024A33EE445A32EE442A85EE022A93EDF2
:10263000014A13ED015A34EE454A22EE042A32EEE5
:10264000052A82ED013A96ED023A307822EE032A0D
:102650001070F06882ED022A22EE022A32EE011A90
:10266000D060B6EE002A21EE021AB1EEC11A03992B
:10267000002984ED031A00F0F1809FEDB18A6FF01C
:1026800030009FEDB09A9FEDB0AA01F0030800EA78
:1026900001170025B0EE48BAB0EE48CA16E000BFF8
:1026A000B4EE4BEAF1EE10FAB4EE4CEAB8BFB0EE7D
:1026B0004EBAF1EE10FAC8BFB0EE4ECA079A40F219
:1026C000FF70824205F1010580F0C680A8B200EEDD
:1026D000100AB8EE400A20EE090A46468B46042945
:1026E00020EE0ADA079005D24FF0000AB0EE48EA71
:1026F0005EE000BF4FF000084FF0000AB0EE48EA7D
:1027000004EB080999F8180099ED091A00EE100A6F
:10271000B8EE400A20EE0D0A99ED08FA30EE010AF3
:1027200009F066F899F828002FEE000A30EE0EEA5C
:1027300000EE100AB8EE400A99ED0D1A20EE0D0ACF
:1027400099ED0CFA30EE010A09F052F899F83800C8
:102750002FEE000A30EE0EEA00EE100AB8EE400A44
:1027600099ED111A20EE0D0A99ED10FA30EE010ADA
:1027700009F03EF899F848002FEE000A30EE0EEA14
:1027800000EE100AB8EE400A99ED151A20EE0D0A77
:1027900099ED14FA30EE010A09F02AF82FEE000A3A
:1027A00008F1400830EE0EEA47450AF1040AA7D1C5
:1027B000B046002E594645D006994FEA0A10085CEB
:1027C00001EB0A1600EE100AB8EE400A96ED031A65
:1027D00020EE0D0A96ED02FA30EE010A09F008F833
:1027E0002FEE000AB8F1010F30EE0EEA29D0307C4E
:1027F00096ED071A00EE100AB8EE400A20EE0D0A18
:1028000096ED06FA30EE010A08F0F2FF2FEE000A0C
:10281000B8F1020F30EE0EEA13D096F8200096EDD4
:102820000B1A00EE100AB8EE400A20EE0D0A96EDE3
:102830000AFA30EE010A08F0DBFF2FEE000A30EE54
:102840000EEA0399DDE904EA28047FF429AFB0EE2B
:102850004ECAB0EE4EBA31E73CEE4B0A9EF803008A
:1028600084ED020A002845D001209AF80420A070C7
:102870009EED041A9EED050ADAF80000012A84EDA7
:10288000041A31D090ED002AB4EE421AF1EE10FA9B
:102890002ADDBAB3931E00F1200111ED062AB4EE31
:1028A000421AF1EE10FA33DD6BB311ED042AB4EEE7
:1028B000421AF1EE10FA2DDD012B24D011ED022A7F
:1028C000B4EE421AF1EE10FA26DD022B1BD091ED88
:1028D000002AB4EE421AF1EE10FA1EDD043B5F1C32
:1028E00001F12001D9D10EE090ED011A20EE010A8C
:1028F00084ED050A0120207008B0BDEC108B01B0FA
:10290000BDE8F08F002200EBC20010ED011AEDE7E8
:10291000183902E0103900E0083911ED023A31EEC1
:10292000431A32EE432A81EE021A91ED012A11ED8B
:10293000013A32EE432A21EE021A31EE031AD5E7AC
:1029400000000000DB0FC9400000003A10B540F263
:102950007004C2F2000400206060A060207060700B
:1029600040F28C10A11CC2F20000012203F00CFC0A
:10297000002808BF10BDA0680130A06010BD000095
:1029800013460A46014600284FF0000018BF002AEF
:1029900000D1704780B540F28C10C2F2000003F005
:1029A0004BFCB0FA80F04009BDE880407047000061
:1029B000F0B599B040F28406C2F20006746941F2A3
:1029C000F85201AD0F460346C0F6010228466021C9
:1029D0000094FDF7E5FC2846FDF77EFE4FF6FF71FB
:1029E000884238BF014628463222FFF7C9FF00203F
:1029F0007071A6F8070004203070384606F08AFE91
:102A000019B0F0BD80B54CF22021C2F20001D1ED29
:102A1000010A024640F2D4104CF664439FED080AC6
:102A2000C2F20000C2F200034FF48051FEF758FFDB
:102A300020B101F00DFE012080BD00BF002080BD4F
:102A40008096984AB0B59AB040F2D410C2F2000015
:102A50004FF40051FDF767FE4CF22020C2F2000057
:102A60004821FDF760FE4CF2D810C2F20000482168
:102A7000FDF759FE4CF66440C2F200004FF40471B9
:102A8000FDF751FE4CF66400C2F200004FF4806185
:102A9000FDF749FE4CF26440C2F200004FF4806141
:102AA000FDF741FE40F28404C2F2000400252570C7
:102AB00002F02EF9C4E90405A56102F029F944F8F1
:102AC000245F44E9020502F023F940F2011124F8E1
:102AD000231C44F8215C24F81D5CC4E9010502F0C4
:102AE00017F97838E06002F013F97838206144F87B
:102AF000185C04F81B5C06F005FCFDF71FFF204680
:102B0000FEF780FC236804F81A0C02AC84460AA283
:102B100020466021CDF800C0FDF742FC2046FDF7BD
:102B2000DBFD4FF6FF71884238BF01462046322256
:102B3000FFF726FF1AB0B0BD475F464C4F572C62D7
:102B40006F6F742C69643D30782530386C582C6F69
:102B50006E6C696E653D25752C66733D313235307E
:102B60003030302C6E3D343039360D0A0000000014
:102B70002DE9F04FA3B002F0CBF8814600208DF88C
:102B800013001DA80DF1130106F046FC40F2840667
:102B90000028C2F2000653D002F0BAF89DF8741073
:102BA00002290FD0012915D1316B411A782947D359
:102BB0003178306311F0FB0F26D00FF6B0002021E2
:102BC000D6E100BF71780122012908BF03228DF8E8
:102BD000132003E001F0FE01022931D1716B411A8B
:102BE00078292DD39DF81310706301F0FD02012A9E
:102BF00026D130787170421E022A00F2CB8001206B
:102C0000F0700FF6B807A1E10FF6840104460846FC
:102C100013213222FFF7B4FE0120012506F028FD22
:102C200004F59670F0624FF480707178A6F8070092
:102C30000020A6F8030003207571B1703070346174
:102C4000F079012840F09B81B179022940D0012917
:102C50001ED000295CD14CF2D810C2F2000090EDD9
:102C6000010AB5EE400AF1EE10FA40F391809FEDB3
:102C7000B11AB4EE410AF1EE10FA80F2ED80B6EE30
:102C8000001A30EE010ABCEEC00A10EE103AE5E080
:102C90004CF2D810C2F2000090ED020A9FEDA61A85
:102CA00020EE010AB5EE400AF1EE10FA6CDD9FED60
:102CB000A11AB4EE410AF1EE10FA80F28580B6EE68
:102CC000001A30EE010ABCEEC00A10EE100A7DE0D8
:102CD0004CF2D810C2F2000090ED030A9FED961A54
:102CE00020EE010AB5EE400AF1EE10FA4EDD9FED3E
:102CF000911AB4EE410AF1EE10FA80F28980B6EE34
:102D0000001A30EE010ABCEEC00A10EE100A81E093
:102D1000052900F2B7800FF2D8730429A1F103024C
:102D20000FF2C87008BF034603294CF2D8110FF206
:102D3000C470C2F2000118BF18464B78D2B29A4252
:102D400080F0A88001EB021101F1180797ED020A4B
:102D50009FED791A20EE010AB5EE400AF1EE10FA65
:102D600040F3A8809FED731A8046B4EE410AF1EE5D
:102D700010FA80F2A380B6EE001A30EE010ABCEE23
:102D8000C00A10EE100A9BE000201FE0002041E086
:102D9000002363E0327904280FF20877B17040F025
:102DA000D580002A00F0D280012006F061FCB078C6
:102DB000FFF728FE002800F0C180002006F058FC34
:102DC0000FF2E867C2E000BF4FF0FF3048F21F513A
:102DD000C5F2EB11A0FB01125309642103FB11079B
:102DE00041F232721DADC0F601022846182100974B
:102DF000FDF7D6FA41F27762C0F6010205A840213C
:102E00002B46FDF7CDFA41F21C60C0F6010031E01F
:102E10004FF0FF3048F21F51C5F2EB11A0FB011239
:102E20005309642103FB110741F232721DADC0F654
:102E30000102284618210097FDF7B2FA41F281629B
:102E4000C0F6010205A840212B46FDF7A9FA41F280
:102E50001F60C0F601000DE04FF0FF3341F29462B5
:102E6000C0F6010205A84021FDF79AFA41F212606E
:102E7000C0F6010041F2ED61C0F6010105AA08F0BB
:102E8000B1FAB179481CC1B20529B07140F28E8007
:102E9000F01D89E041F25471C0F6010191E88C0007
:102EA000CD68097C0DF1140C8CE88C0008958DF828
:102EB0002410DFE78046002002E000BF4FF0FF3023
:102EC00048F21F51C5F2EB11A0FB01125309642116
:102ED00003FB110441F232721DADC0F60102284617
:102EE00018210094FDF75CFA97ED010A3B78B5EEE6
:102EF000400AF1EE10FA0FDD9FED0E1AB4EE410A12
:102F0000F1EE10FA0ADAB6EE001A30EE010ABCEE63
:102F1000C00A10EE107A03E0002701E04FF0FF37FF
:102F20000FF2D45205A84021CDE90075FDF738FA1B
:102F300040469FE7FFFF7F4F0000C84241F23C60E0
:102F4000C0F6010006F0E6FB0FF26857737805AD96
:102F50000FF27052284640210097FDF721FA2846CB
:102F6000FDF7BAFB4FF6FF71884238BF014628468D
:102F70003222FFF705FDF07901283FF465AE317A82
:102F80003078012908BF042804D0042811D123B0C7
:102F9000BDE8F08F01F0BCFEF16A401A06D40020B3
:102FA00006F066FB06F10800002101703078042865
:102FB000EDD0002840F09A80B06AB9EB0000E6D46A
:102FC0000FF2445008F0EAF941F2ED6541F2126067
:102FD000C0F6010541F28C62C0F60100C0F60102A4
:102FE000294608F0FFF941F21C6041F26062C0F628
:102FF0000100C0F60102294608F0F4F941F21F6011
:1030000041F26B62C0F60100C0F60102294608F0E9
:10301000E9F943F27430ADF8740000208DF87600C1
:1030200041F25470C0F6010090E85001CDF80C90C8
:10303000D0F80C9005A990F810A01DAF0DF1140B5D
:1030400081E85001384629465A46CDF820908DF83F
:1030500024A008F0C7F943F27440ADF874000020D2
:103060008DF8760005A880E85003384629465A4670
:103070008DF824A008F0B6F943F27450ADF874004E
:1030800000208DF8760005A880E8500140F2840405
:10309000DDF80C80384629465A46C2F20004CDF8C5
:1030A00020908DF824A008F09DF9002006F0E0FAA9
:1030B000607A002840F04781E189ADF8141061B9C9
:1030C00041F21960C0F6010005A905F091FF002842
:1030D00000F01681BDF81410E181B1F5806F4FF05A
:1030E000010740F212814FF480610CE13169B9EBC4
:1030F00001013FF54CAF032834D1707900284DD041
:10310000B07A38B906F12400FEF77CF90028B072D5
:1031100000F0208100200024FEF7ACFA002800F027
:10312000BB804CF22020C2F200004821FDF7FBFAE0
:103130004CF2D810C2F200004821FDF7F4FA4CF628
:103140006440C2F200004FF40471FDF7ECFA012074
:103150003471C6F81C90307009F10200306123B060
:10316000BDE8F08F00241DA81D94FEF719F808B3E0
:103170001D98C10748D1F069A9EB0000B0F5FA6FBE
:1031800012D341F2E56041F25861C0F60100C0F689
:103190000101FFF70DFC23B0BDE8F08F0020307077
:1031A00023B0BDE8F08F00BF09F10200306123B009
:1031B000BDE8F08F776941F2F85241F2C76305AD7F
:1031C000C0F60102C0F60103284660210097FDF712
:1031D000E7F82846FDF780FA4FF6FF71884238BFBE
:1031E000014628463222FFF7CBFB0420307041F223
:1031F00045607471A6F80740C0F6010006F08AFA2F
:1032000023B0BDE8F08F00BF4FF6FF718843B0F1E7
:10321000805F6BD140F2D410C2F200004FF48051B5
:10322000FDF7EAFD002800F0BD803078022800F0AC
:10323000C78001287FF4ABAE4CF2202540F2D410B9
:10324000C2F20005C2F20000294603F025FA002868
:1032500000F0C8807069411CC6E9051001F058FDF6
:10326000F169401A3062012000F024FE00F0E0FB1A
:1032700000F056F9002800F0D7800120FEF7FAF997
:10328000002800F0E5800220307001F041FD02309E
:10329000306123B0BDE8F08F776941F2F85241F216
:1032A000DF6305ADC0F60102C0F6010328466021C8
:1032B0000097FDF775F82846FDF70EFA4FF6FF71F7
:1032C000884238BF014628463222FFF759FB0420C6
:1032D000307041F24E607471A6F80740C0F60100EC
:1032E00006F018FA23B0BDE8F08F00BF41F2AE60DF
:1032F000C0F6010087A1FFF75BFB23B0BDE8F08FAC
:1033000000274FF40071ADF814104CF26445C2F27E
:10331000000528462A22FDF7FEF941F21560C0F6A5
:10332000010008F03BF841F2A266C0F60106304603
:10333000002107F0F3FFBDF81430304600212A4683
:1033400008F094F8677208F5FA60A06223B0BDE84F
:10335000F08F00BF776941F2F85205ADC0F6010267
:103360006EA3284660210097FDF71AF82846FDF75E
:10337000B3F94FF6FF71884238BF01462846322222
:10338000FFF7FEFA00207071A6F8070004203070E5
:1033900041F22B60C0F6010006F0BCF923B0BDE895
:1033A000F08F00BF41F2A86041F23261C0F6010027
:1033B000C0F60101FFF7FCFA23B0BDE8F08F00BFB3
:1033C000F0780121317128B170780021B070F1706E
:1033D00001E000BFB078FFF715FBF8B101F038F954
:1033E00010E000BF6878022824D17069411CC6E94A
:1033F000051001F08DFCF169401A306200F0D2FA3C
:1034000000F09CFC01F084FC0020707104203070FE
:103410000120307223B0BDE8F08F00BF41F2B560EB
:10342000C0F6010018E000BF41F2CE60C0F6010016
:1034300004E000BF41F2BE60C0F6010041F222612B
:10344000C0F60101FFF7B4FA23B0BDE8F08F00BF6A
:1034500041F2DA60C0F6010041F23C61C0F60101C0
:10346000FFF7A6FA23B0BDE8F08F00BF475F484DD5
:10347000492C6576656E743D73746172742C69674E
:103480006E6F7265643D627573790D0A000000000D
:10349000475F484D492C6576656E743D7374617263
:1034A000740D0A006E657874000000007265647225
:1034B000617700006572726F72000000717565754A
:1034C00065640000475F484D492C6576656E743D24
:1034D0006379636C65732C76616C75653D25752C1D
:1034E0006170706C793D25730D0A00007434000022
:1034F00074350000743300004825753D256C75480F
:103500005A2C25736D5600007265665F7374617284
:10351000000000004C454E204552520069640000F6
:103520002DE9F0472DED048BCAB0FEF7D3F94CF22C
:10353000D81801464CF22020C2F20008C2F2000066
:103540004246FEF71DFDB8B198ED010AB5EE400AFE
:10355000F1EE10FA28DD9FEDC01AB4EE410AF1EE4B
:1035600010FA23DAB6EE001A30EE010ABCEEC00AF9
:1035700010EE103A1CE000BF40F28400C2F20000DE
:10358000836904AC0FF2F03220464FF48071FCF7EF
:1035900007FF2046FDF7A0F84FF6FF71884238BFBD
:1035A00001460024B3E100BF002301E04FF0FF33E8
:1035B00041F2946204ACC0F6010220464021FCF7BF
:1035C000EFFE41F2126041F2ED61C0F60100C0F67B
:1035D0000101224607F006FF98ED020A9FEDD28A0C
:1035E00020EE080AB5EE400AF1EE10FA10DD9FED6C
:1035F000CD1AB4EE410AF1EE10FA0BDAB6EE001A6B
:1036000030EE010ABCEEC00A10EE100A04E000BF62
:10361000002001E04FF0FF3048F21F56C5F2EB16D4
:10362000A0FB06125309642703FB170541F232720F
:1036300044ACC0F60102204618210095FCF7B0FE0C
:1036400041F2776204ADC0F60102284640212346CC
:10365000FCF7A6FE41F21C6041F2ED61C0F60100EC
:10366000C0F601012A4607F0BDFE98ED030A20EEE0
:10367000080AB5EE400AF1EE10FA0FDD9FEDA91A27
:10368000B4EE410AF1EE10FA0ADAB6EE001A30EEA4
:10369000010ABCEEC00A10EE100A03E0002001E0AF
:1036A0004FF0FF30A0FB0612530903FB170741F24E
:1036B000327244ACC0F60102204618210097FCF794
:1036C0006FFE41F2816204ADC0F60102284640213E
:1036D0002346FCF765FE41F21F6041F2ED61C0F642
:1036E0000100C0F601012A4607F07CFE40F284008A
:1036F00098ED010AC2F200008369B5EE400A40F27B
:103700000311F1EE10FAC18016DD9FED861AB4EEBA
:10371000410AF1EE10FA2FDAB6EE001A30EE010A85
:10372000BCEEC00A10EE100A98ED020AB5EE400A8F
:10373000F1EE10FA08DC28E0002098ED020AB5EE60
:10374000400AF1EE10FA20DD9FED761AB4EE410A40
:10375000F1EE10FA32DAB6EE001A30EE010ABCEEE3
:10376000C00A10EE101A98ED030AB5EE400AF1EE09
:1037700010FA12DC2BE000BF4FF0FF3098ED020A88
:10378000B5EE400AF1EE10FADEDC002198ED030AF6
:10379000B5EE400AF1EE10FA19DD9FED621AB4EEB3
:1037A000410AF1EE10FA15DAB6EE001A30EE010A0F
:1037B000BCEEC00A10EE102A0EE000BF4FF0FF3141
:1037C00098ED030AB5EE400AF1EE10FAE5DC0022AE
:1037D00002E000BF4FF0FF3298F801700DF1100ABF
:1037E0008DE8070051A250464FF480710397FCF713
:1037F000D7FD002872D4064698F80100002863D04F
:10380000FF2E61D89FED478A08F120070125B6EE0B
:10381000009A0FF2501900BF17ED010A17F8083C83
:10382000B5EE400AF1EE10FA18DDB4EE480AF1EEFA
:1038300010FAAFBF4FF0FF3C30EE090ABCEEC00AF1
:1038400010EE10CA97ED000AB5EE400AF1EE10FA3C
:103850000DDC4FF0000E17E0FFFF7F4F4FF0000C24
:1038600097ED000AB5EE400AF1EE10FAF1DDB4EE84
:10387000480AF1EE10FAAFBF4FF0FF3E30EE090AF2
:10388000BCEEC00A10EE10EAC6F580740AEB060022
:1038900021464A46CDE900CEFCF782FDA0424FF01A
:1038A000FF0138BF8119B0F1FF3FC8BF0E460028A5
:1038B0000AD4A04208D298F80100854204D21037F9
:1038C000FF2905F10105A7D9FD2E0FD80AEB060047
:1038D00040F60D2120F8021B0EE000BF0024204618
:1038E0004AB0BDEC048BBDE8F08700BF40F60D2068
:1038F000ADF80D010AF1FF000021017004A8FCF7EA
:10390000EBFE4FF6FF710124884238BF014689B2B1
:1039100004A83222FFF734F820464AB0BDEC048BED
:10392000BDE8F087FFFF7F4F0000C842475F4D456D
:1039300041532C7365713D256C752C63616C3D3171
:103940002C66303D256C75487A2C7570703D256C61
:10395000756D562C75726D733D256C756D562C6E9C
:103960003D2575002C6825753D256C75487A3A25EE
:103970006C756D5600000000475F4D4541532C7338
:1039800065713D256C752C63616C3D302C726561F1
:10399000736F6E3D6E6F5F6D765F7461626C650D07
:1039A0000A00000010B5A4B040F28400C2F200008A
:1039B0008369006A0021B0F5FA6F98BF012104AC59
:1039C0004FF0100CCDE900010AA220468021CDF86D
:1039D00008C0FCF7E5FC2046FCF77EFE4FF6FF71C1
:1039E000884238BF014620463222FEF7C9FF24B084
:1039F00010BD00BF475F464C4F572C6E6F5F736919
:103A0000676E616C2C7365713D256C752C745F6DF0
:103A1000733D256C752C756E64657232733D25752A
:103A20002C7468726573686F6C643D25750D0A00AF
:103A30002DE9F04F81B02DED048BC6B04CF220295A
:103A4000C2F2000940F2840099ED010AC2F20000BE
:103A50008369B5EE400AF1EE10FA0FDD9FEDAB1A67
:103A6000B4EE410AF1EE10FA0ADAB6EE001A30EEC0
:103A7000010ABCEEC00A10EE101A03E0002101E0BA
:103A80004FF0FF3199ED020A99F80220B5EE400A95
:103A9000F1EE10FA10DD9FED9D1AB4EE410AF1EE41
:103AA00010FA0BDAB6EE001A30EE010ABCEEC00ACC
:103AB00010EE107A04E000BF002701E04FF0FF375E
:103AC00099ED030A0026B5EE400AF1EE10FA4FF028
:103AD000000511DD9FED8D1AB4EE410AF1EE10FAEA
:103AE00008DAB6EE001A30EE010ABCEEC00A10EE9B
:103AF000105A01E04FF0FF35006A0DF11808B0F5DB
:103B0000FA6F98BF01268DE8860041F2F162CDE997
:103B10000350C0F6010240464FF480710596FCF751
:103B20003FFC002800F1EB80834699F80200002852
:103B300063D0BBF1FF0F60D89FED748A09F12004B8
:103B40000126B6EE009A0FF2C81A00BF14ED010A62
:103B500014F8083CB5EE400AF1EE10FA16DDB4EEAA
:103B6000480AF1EE10FAAFBF4FF0FF3C30EE090A01
:103B7000BCEEC00A10EE10CA94ED000AB5EE400A81
:103B8000F1EE10FA0BDC002516E000BF4FF0000C40
:103B900094ED000AB5EE400AF1EE10FAF3DDB4EE52
:103BA000480AF1EE10FAAFBF4FF0FF3530EE090AC8
:103BB000BCEEC00A10EE105ACBF5807708EB0B0074
:103BC00039465246CDE900C5FCF7EAFBB8424FF052
:103BD000FF0138BF00EB0B01B0F1FF3FC8BF8B46C0
:103BE00000280AD4B84208D299F80200864204D2CA
:103BF0001034FF2906F10106A8D9BBF1FF0F69D8DF
:103C000099F8031008EB0B00CBF58076F1B199ED34
:103C1000040AB5EE400AF1EE10FA21DD9FED3B1AE1
:103C2000B4EE410AF1EE10FA32DAB6EE001A30EED6
:103C3000010ABCEEC00A10EE103A99ED050AB5EE85
:103C4000400AF1EE10FA13DC2BE000BF38A2314637
:103C5000FCF7A6FB002830D5BBF1FD0F33D939E0C6
:103C6000002399ED050AB5EE400AF1EE10FA18DDD1
:103C70009FED261AB4EE410AF1EE10FA14DAB6EE10
:103C8000001A30EE010ABCEEC00A10EE107A0DE008
:103C90004FF0FF3399ED050AB5EE400AF1EE10FA48
:103CA000E6DC002702E000BF4FF0FF371CA23146E0
:103CB0000097FCF775FB0028CED4B0420AD28344AB
:103CC000BBF1FD0F06D808EB0B0040F60D2120F8E4
:103CD000021B05E040F60D20ADF8150108F1FF00CC
:103CE000002106AC01702046FCF7F6FC4FF6FF7190
:103CF000884238BF014620463222FEF741FE46B0D8
:103D0000BDEC048B01B0BDE8F08F00BFFFFF7F4F1B
:103D10002C6825753D256C75487A3A256C75000030
:103D20002C737075723D256C75487A3A256C750058
:103D30002C737075723D6E6F6E6500002DE9F04F4B
:103D400089B040F28400C2F20000002141F2ED642B
:103D5000C17141F21260C0F6010441F28C62C0F6FA
:103D60000100C0F601022146002507F03BFB41F2AD
:103D70001C6041F26062C0F60100C0F601022146FB
:103D800007F030FB41F21F6041F26B62C0F60100A8
:103D9000C0F60102214607F025FB43F27430ADF86E
:103DA000210041F25470C0F601008DF82350D0E993
:103DB0000075D0E9026890F810900DF1210B0DF11B
:103DC000040A584621465246CDE901750396CDF8BE
:103DD00010808DF8149007F005FB43F27440ADF8A5
:103DE000210000208DF82300584621465246CDE997
:103DF0000175CDE903688DF8149007F0F3FA43F2EA
:103E00007450ADF8210000208DF8230002A801971E
:103E100040F2840780E86001584621465246C2F2CB
:103E200000078DF8149007F0DDFAF989ADF8041059
:103E300031B1B1F5806F4FF0010611D819E000BF24
:103E400041F21960C0F6010001A905F0D1F858B19E
:103E5000BDF80410F981B1F5806F4FF0010608D963
:103E60004FF4806103E000BF00264FF40071ADF80D
:103E700004104CF26444C2F2000420462A22FCF7EB
:103E80004AFC41F21560C0F6010007F087FA41F2E2
:103E9000A265C0F601052846002107F03FFABDF8EB
:103EA000043028460021224607F0E0FA7E7209B06D
:103EB000BDE8F08F2DE9F04F9FB040F28408C2F2C8
:103EC0000008B8F80E10ADF87A1039B1B1F5806F6E
:103ED0004FF001021C9216D830BB21E3044641F298
:103EE0001960C0F601000DF17A0105F081F888B182
:103EF000BDF87A102046A8F80E10B1F5806F4FF08B
:103F000001021C92E8D94FF48061ADF87A1058B9DB
:103F100006E300BF00201C904FF400712046ADF86E
:103F20007A10002800F0FC820229C0F0F9824CF2DD
:103F30002029C2F2000999F80000002800F0F08260
:103F40004CF26440C2F200002A220D46FCF7E3FB6B
:103F500099F802E02946BEF1000F00F0E182BEF1BF
:103F6000040F0EF0030280F001839FED8D0A002301
:103F7000002A52D009EB031393ED072A9FED891A0B
:103F8000B4EE412AF1EE10FA11DB9FED873AB4EE60
:103F9000432AF1EE10FA0ADC03F1180797ED022A22
:103FA000B4EE402AF1EE10FAC8BFB0EE420A012A80
:103FB00033D093ED0B2AB4EE412AF1EE10FA11DB67
:103FC0009FED793AB4EE432AF1EE10FA0ADC03F1E0
:103FD000280797ED022AB4EE402AF1EE10FAC8BF86
:103FE000B0EE420A022A18D093ED0F2AB4EE412A0D
:103FF000F1EE10FA11DB9FED6C1AB4EE412AF1EEEE
:1040000010FA0ADC03F1380292ED021AB4EE401AFB
:10401000F1EE10FAC8BFB0EE410AB5EE400AF1EE7B
:1040200010FA40F37D820B0A0424042B38BF0C0ADB
:10403000B1F5007F38BF0224C4F1010787EAE773B6
:10404000601CC3EBE7731B970344C4F10207199389
:1040500087EAE773C3EBE7731D970344C4F10307D3
:10406000189387EAE773C3EBE77303441593C4F12E
:1040700004031A93C31A1493C4F105031393C31AC8
:104080001193C4F106031693C31A109384F0070327
:104090000F93C31A0E93C4F108031293C31A0D931E
:1040A000C4F109030C93C31A0693C4F10A030B93DA
:1040B000C31A0593C4F10B030A93C31A0493C4F102
:1040C0000C030993C31A0393C4F10D030893C31A95
:1040D0009FED341A9FED342A9FED343A9FED345A08
:1040E0000293C4F10E034D1E620809F1200AB6EED8
:1040F000004A0793C31A1797019305E0BEF1010E1A
:104100000AF1100A00F013821AED016AB4EE416A56
:10411000F1EE10FAF2DBB4EE426AF1EE10FAEDDCE9
:10412000B5EE406AF1EE10FA0EDDB4EE436AF1EE40
:1041300010FAAFBF4FF0FF3336EE046ABCEEC66A2A
:1041400016EE103A01E000BF00239AED006A4AF231
:10415000201786EE006AC0F20707FB1A4BF60857D5
:10416000C0F2030703FB05734AF2A977C0F2474781
:10417000A3FB077326EE056AB5EE406AF1EE10FA6E
:1041800018DDB4EE436AF1EE10FAAFBF4FF0FF391D
:1041900036EE046ABCEEC66A16EE109A0CE000BF5A
:1041A0000000000000401C460024F448FFFF7F4F41
:1041B0000000AA424FF000094FEA533BB9F1030F48
:1041C00098BF4FF00309B9F1550FABEB040328BFBB
:1041D0004FF055098B421DD209EB0207B7FBF0F7F0
:1041E000A446044610462A464CF26445C2F2000535
:1041F000464615F80380154602462046644607F1F8
:104200002A0CC445B04682BF4CF26446C2F2000696
:1042100006F803C0002C3FF471AF1B9B5B448B423C
:1042200008D31D9B5B448B421AD31D9BA3423FF4D2
:1042300065AF2BE0199F4CF2644607FB0927C2F2D9
:104240000006B7FBF0F7F65C2A37B74282BF4CF2A4
:104250006446C2F20006F7541D9B5B448B42E4D2D5
:10426000189F4CF2644607FB0927C2F20006B7FB11
:10427000F0F7F65C2A37B74282BF4CF26446C2F2CE
:104280000006F7541D9BA3423FF438AF179B5B44D5
:104290008B4209D31A9B5B448B421BD31A9BA342CC
:1042A0003FF42CAF2CE000BF159F4CF2644607FB97
:1042B0000927C2F20006B7FBF0F7F65C2A37B742CF
:1042C00082BF4CF26446C2F20006F7541A9B5B446C
:1042D0008B42E3D2149F4CF2644607FB0927C2F2DB
:1042E0000006B7FBF0F7F65C2A37B74282BF4CF204
:1042F0006446C2F20006F7541A9BA3423FF4FEAE96
:10430000139B5B448B4209D3169B5B448B421BD3AC
:10431000169BA3423FF4F2AE2CE000BF119F4CF27B
:10432000644607FB0927C2F20006B7FBF0F7F65C0C
:104330002A37B74282BF4CF26446C2F20006F754F5
:10434000169B5B448B42E3D2109F4CF2644607FB02
:104350000927C2F20006B7FBF0F7F65C2A37B7422E
:1043600082BF4CF26446C2F20006F754169BA34289
:104370003FF4C4AE0F9B5B448B4209D3129B5B445A
:104380008B421BD3129BA3423FF4B8AE2CE000BF7C
:104390000E9F4CF2644607FB0927C2F20006B7FBEA
:1043A000F0F7F65C2A37B74282BF4CF26446C2F29D
:1043B0000006F754129B5B448B42E3D20D9F4CF2F4
:1043C000644607FB0927C2F20006B7FBF0F7F65C6C
:1043D0002A37B74282BF4CF26446C2F20006F75455
:1043E000129BA3423FF48AAE0C9B5B448B4215D3D5
:1043F0000B9B5B448B4227D30A9B5B448B4239D394
:10440000099B5B448B424BD3089B5B448B425DD33F
:10441000079B5B448B42BFF471AE6EE0069F4CF28B
:10442000644607FB0927C2F20006B7FBF0F7F65C0B
:104430002A37B74282BF4CF26446C2F20006F754F4
:104440000B9B5B448B42D7D2059F4CF2644607FB23
:104450000927C2F20006B7FBF0F7F65C2A37B7422D
:1044600082BF4CF26446C2F20006F7540A9B5B44DA
:104470008B42C5D2049F4CF2644607FB0927C2F267
:104480000006B7FBF0F7F65C2A37B74282BF4CF262
:104490006446C2F20006F754099B5B448B42B3D2D8
:1044A000039F4CF2644607FB0927C2F20006B7FBE4
:1044B000F0F7F65C2A37B74282BF4CF26446C2F28C
:1044C0000006F754089B5B448B42A1D2029F4CF23A
:1044D000644607FB0927C2F20006B7FBF0F7F65C5B
:1044E0002A37B74282BF4CF26446C2F20006F75444
:1044F000079B5B448B42BFF401AE019F4CF26446C4
:1045000007FB0927C2F20006B7FBF0F7F65C2A3773
:10451000B74282BF4CF26446C2F20006F754EDE5A2
:104520004CF26440C2F200002A22FCF7F4F841F297
:104530001560C0F6010006F031FF41F2A264C0F63A
:1045400001042046002106F0E9FEBDF87A304CF265
:104550006442C2F200022046002106F087FF1C9848
:1045600088F809001FB0BDE8F08F00BF6FF030037E
:104570009FED340A9FED341A9FED342A03EA0E179B
:104580000026002306E000BF4036B74203F10403D3
:104590003FF4EEAC09EB060595ED073AB4EE413A6F
:1045A000F1EE10FA0DDBB4EE423AF1EE10FA08DC4F
:1045B00095ED083AB4EE403AF1EE10FAC8BFB0EE0D
:1045C000430A95ED0B3AB4EE413AF1EE10FA0DDBE9
:1045D000B4EE423AF1EE10FA08DC95ED0C3AB4EE86
:1045E000403AF1EE10FAC8BFB0EE430A95ED0F3A2B
:1045F000B4EE413AF1EE10FA0DDBB4EE423AF1EED0
:1046000010FA08DC95ED103AB4EE403AF1EE10FAEB
:10461000C8BFB0EE430A95ED133AB4EE413AF1EE5D
:1046200010FAB1DBB4EE423AF1EE10FAACDC95EDE3
:10463000143AB4EE403AF1EE10FAC8BFB0EE430AB5
:10464000A2E700BF0000000000401C460024F44820
:104650002DE9F04F89B04CF6644440F28406C2F272
:104660000004C2F200062078B1890028ADF82210BB
:1046700000F004826088B0F5807F40F0FF81B4F9DB
:104680000C00B4F90E50079031B1B1F5806F11D91B
:104690004FF48061D0E100BFFAA00DF1220104F0D7
:1046A000A7FC002800F0C681BDF82210B181B1F549
:1046B000806FEDD8002900F0CF810798A5EB000BA3
:1046C000BBF1010FC0F2C181B4F8029045F2565619
:1046D0004B1EA9F1010E01F003058F084FF0000AEF
:1046E000C5F2555600F0FA80009509EB4905E81E21
:1046F000049048466FF0030909EB8001059003918F
:10470000AAEB87016FF00107DDF814C007EB40004A
:1047100004F1100802910190CDF818B0BAFBF3F73C
:10472000012007FB13A1BAB210FA87F038F9122062
:10473000604538BF0746B8B25C1A38F910006243CA
:1047400001FB0020079990FBF3F00124401AC0EB15
:10475000C010400090FBFBF0EA2250FB06F000EB9B
:10476000D07B6FF013001BF1140FD8BF83460EEB04
:104770000A00B0FBF3F1BBF1EA0F8FB214FA81F437
:1047800001FB1300A8BF934638F91770644538BF82
:10479000214689B21A1A38F911107A4300FB012018
:1047A000079990FBF3F0EA25401AC0EBC010069978
:1047B000400090FBF1F050FB06F000EBD0776FF07B
:1047C000130017F1140FD8BF07460198EA2F504481
:1047D000B0FBF3F1A8BF2F46354601268CB216FA7E
:1047E00081F601FB130038F91440664538BF3146A5
:1047F00089B21A1A38F91110624300FB0120079997
:1048000090FBF3F02E46401AC0EBC0100699400012
:1048100090FBF1F0012450FB05F0754600EBD07ED3
:104820006FF013001EF1140FD8BF86460498BEF136
:10483000EA0F5044B0FBF3F14FF0EA0214FA81F4AE
:10484000A8BF964601FB13008AB2644538BF2146D3
:1048500038F9122089B21C1A38F91110624300FB92
:1048600001204CF66402C2F200020BF114014A442A
:10487000117107F1140190FBF3F0079FDDF818B0F8
:10488000C01BC0EBC010400090FBFBF0517150FB0F
:1048900006F00EF1140100EBD070917110F1140FBD
:1048A0006FF01301D8BF0846EA284FF0EA01A8BF0D
:1048B00008461430D071029809F1040948440430C4
:1048C0000398AE4682447FF429AF09F1040ADDF86B
:1048D00014904CF66444009DC2F20004002D00F0D8
:1048E000BB800EFB0AF0B0FBF3F2012111FA82F15A
:1048F00002FB130097B2494538BF0A4604F1100C79
:104900003CF9174092B2191A3CF912204C4300FBB3
:104910000240079990FBF3F06FF01308401AC0EBC8
:10492000C010400090FBFBF0EA2750FB06F000EBC4
:10493000D07010F1140FD8BF4046EA28A8BF3846FF
:104940004CF664021430012DC2F2000202F80A0093
:1049500000F082800AF1010005900EFB00F0B0FB30
:10496000F3F229467546B646012616FA82F602FB90
:10497000130094B24E4538BF32463CF9144092B20F
:104980001E1A3CF91220664300FB0260079A90FB56
:10499000F3F0801AC0EBC010400090FBFBF04CF627
:1049A000640250FB0EF000EBD07010F1140FC8BF82
:1049B0008046B8F1EA0FB8BF47460229059907F1CA
:1049C0001400C2F20002505446D00AF1020705FB5F
:1049D00007F0B0FBF3F2012515FA82F594B202FB61
:1049E00013004D453CF9144038BF2A4692B21E1AB6
:1049F0003CF9121006FB04F200FB0120079990FB22
:104A0000F3F0401AC0EBC010400090FBFBF04CF6F6
:104A1000640150FB0EF000EBD07010F1140FD8BF02
:104A20006FF01300EA28A8BFEA201430C2F2000198
:104A3000C85511E04FF40071ADF822100798A5EBAE
:104A4000000BBBF1010FBFF63FAE4CF66400C2F2A3
:104A500000001422FBF75FFE41F29C64C0F60104E3
:104A60002046002106F05AFCBDF822304CF66402C4
:104A7000C2F200022046002106F0F8FC09B0BDE8B1
:104A8000F08F00BF7330000070B5866D044600F0F3
:104A90003FF994F83510022928D105462068216C89
:104AA000026822F016020260426922F0800242612E
:104AB00009B9A16C19B1016821F008010160016810
:104AC00021F00101016000BF20680068C00715D017
:104AD00000F01EF9401B0628F6D320206065032055
:104AE00084F83500002184F8341070BD80206065A2
:104AF0000120002184F8341070BD00BFE06D3F211B
:104B000001FA00F0B060012084F835000020002197
:104B100084F8341070BD000090F83510022909D1D6
:104B2000052180F835100068016821F0010101605D
:104B3000002070478021416501207047B0B50446D0
:104B400000F0E6F8054640F20000C2F200000078EE
:104B5000611C18BF044400BF00F0DAF8401BA042FB
:104B6000FAD3B0BD2DE9F04F83B000F1200200F17F
:104B70003E4741F60045009207F1FF77C4F2020577
:104B800008224FEAB726A84208BF072200254FF0A7
:104B900000084FF00009072E38BF4FEAB7220192F4
:104BA0000AE000BF09F1010908F10208B9F1100F8C
:104BB00005F1040500F0A2800F68012202FA09FE47
:104BC00017EA0E0AEED0D1F804C003220CF0030756
:104BD0007E1E02FA08F4012E6FEA040B12D88468D4
:104BE000CE6804EA0B0406FA08F63443846044688D
:104BF00024EA0E06CCF3001404FA09F426434660B6
:104C000004E000BF032F01D103271EE0C6688C68B3
:104C100006EA0B0604FA08F42643022FC66014D1F4
:104C20006FF00302009E02EA590756F807C005F02C
:104C30001C040F220B69A2402CEA0202A3401A4373
:104C4000F251D1F804C00CF00307026807FA08F328
:104C500002EA0B021A431CF4403F0260A2D0002279
:104C600043F644030292C4F202031A6843F6004476
:104C700042F480421A601A68C4F2010402F48042CD
:104C80000292029A29F003024FF6084C2244CFF612
:104C9000FF7C52F80C3005F00C070F26BE40B343E2
:104CA000019E06FA07F73B4342F80C30A2684B68B6
:104CB00042EA0A0743F60C4CDE0258BF22EA0A0712
:104CC000A760C4F2010CDCF800209E0242EA0A0749
:104CD00058BF22EA0A07CCF8007062689E0342EAD5
:104CE0000A0758BF22EA0A0767602268DB0342EA24
:104CF0000A0758BF22EA0A07276053E703B0BDE856
:104D0000F08F0000002A08BF09048161704700008D
:104D10004CF6D460C2F200000068704740F2000018
:104D20004CF6D461C2F20000C2F2000100780A68B9
:104D3000104408607047000080B543F60040C4F29C
:104D40000200016841F400710160016841F4806172
:104D50000160016841F480710160032000F086F871
:104D60000F2000F005F800F027F8002080BD0000BB
:104D700070B540F20006C2F2000640F20801327837
:104D8000C2F200014FF47A730968B3FBF2F20446F1
:104D9000B1FBF2F1084600F083FE0F2C4FF0010545
:104DA00008D838B94FF0FF3021460022002500F026
:104DB00031F87460284670BD82B0002043F640018F
:104DC0000190C4F202014A6842F480424A604A6893
:104DD00002F480420192019A0090086840F08050ED
:104DE0000860086800F080500090009802B070479A
:104DF000002848BF704700F01F01012202FA01F1AC
:104E00001C2202EAD0004EF20012CEF200028150C3
:104E10007047000010B54EF60C5CCEF2000CDCF8CA
:104E20000030C3F3022E8EF00704042C28BF0424A4
:104E3000BEF103034FF0FF3E0EFA04F438BF002327
:104E4000A14399400EFA03F39A43114300F00F0275
:104E500000F160430901043A03F564436244002809
:104E600048BF02F10C03197010BD00004EF60C5142
:104E7000CEF200010A684FF6FF031A4060F30A22DF
:104E800042F0806040F0FD7008607047002804BF69
:104E9000012070472DE9F04143F60808C4F20208EA
:104EA0000446D8F8F8030D4600F00700814207D900
:104EB00088F8F853D8F8F80300F00700A84277D133
:104EC0002068810717D5410705D5D8F8001041F4AF
:104ED000E051C8F80010010705D5D8F8001041F4DA
:104EE0006041C8F80010D8F80010A26821F0F00165
:104EF0001143C8F80010C00740D1D8F8F80300F0FB
:104F00000700854207D288F8F853D8F8F80300F074
:104F10000700A8424CD12068410707D5D8F80010F7
:104F2000E26821F4E0511143C8F80010000708D5E9
:104F3000D8F80000216920F4604040EAC100C8F8B8
:104F4000000000F07DF8D8F800104CF21C02C1F30C
:104F50000311C0F60002515C40F2080220FA01F190
:104F600040F20400C2F200000068C2F200021160C8
:104F7000FFF7FEFE0020BDE8F08100BF6068811EE3
:104F8000022907D258F8081C89015CBF0120BDE83E
:104F9000F08111E0012807D158F8081C89035CBF93
:104FA0000120BDE8F08107E058F8081C890703D408
:104FB0000120BDE8F08100BFD8F8001021F0030106
:104FC0000843C8F80000FFF7A3FE064641F2883701
:104FD000D8F80000616800F00C00B0EB810F8CD0B5
:104FE000FFF796FE801BB842F2D90320BDE8F0819E
:104FF00040F2080043F60801C2F20000C4F20201C8
:10500000006809684CF22C02C1F38221C0F600024C
:10501000515CC8407047000040F2080043F60801A8
:10502000C2F20000C4F20201006809684CF22C02CE
:10503000C1F34231C0F60002515CC8407047000025
:1050400010B543F60404C4F202046168C1F381019F
:1050500042F20040C0F2F400DFE801F002040A026C
:1050600010BD00BF47F64000C0F27D1010BD00BF6C
:10507000206821682368490247F64001C0F27D118B
:1050800000F03F02C3F388105CBF42F20041C0F25F
:10509000F401A1FB00010023FBF70AF921680222B9
:1050A000C1F3014102EB4101B0FBF1F010BD000082
:1050B000002804BF012070472DE9F04182B004466A
:1050C000007843F60006C007C4F202060CD0B068B0
:1050D00000F00C00042840F081803068800303D584
:1050E0006068002800F06881207880071BD5B068D0
:1050F00010F00C0F09D0B06800F00C00082840F048
:1051000087807068400200F183803068800703D593
:10511000E068012840F050813068216920F0F800F3
:1051200040EAC10030602078000713D4207840079F
:105130002AD4A569002D00F03A81B06800F00C0077
:10514000082840F0A580012D40F00E81012002B01A
:10515000BDE8F0816069002800F082800020C4F280
:1051600047200121C0F8801EFFF7D2FD054600BF91
:10517000706F8007DAD4FFF7CBFD401B0228F7D908
:10518000032002B0BDE8F081306C5FEAC0080AD4A9
:1051900000200190306C40F080503064306C00F0A2
:1051A00080500190019847F20007C4F20007386868
:1051B000C00547D4386840F480703860FFF7A8FD18
:1051C000054600BF3868C0053CD4FFF7A1FD401B71
:1051D0000228F7D9032002B0BDE8F081B06800F0E2
:1051E0000C00082803D1706840023FF576AF616873
:1051F0003068B1F5803F07D0B1F5A02F40F09A801C
:1052000040F480203060306840F4803030609AE0B4
:10521000E068002840F20000C4F247205CD0012181
:105220000160FFF775FD0546306880073FF574AFF4
:10523000FFF76EFD401B0228F6D9032002B0BDE83F
:10524000F08100BFA168306F012905D0052955D133
:1052500040F004003067306F40F00100306756E0E6
:105260000020C4F247200021C0F8801EFFF750FD47
:10527000054600BF706F80077FF558AFFFF748FD08
:10528000401B0228F6D9032002B0BDE8F08100BF20
:105290000027C4F2472700203866FFF739FD022DAA
:1052A00005460DD13068800140F18A80FFF730FD5E
:1052B000401B02284FF00300F4D902B0BDE8F08192
:1052C0003068800173D5FFF723FD401B02284FF0A3
:1052D0000300F5D9F1E700BF00210160FFF718FDD9
:1052E000054600BF306880077FF51DAFFFF710FD52
:1052F000401B02284FF00300F4D9DEE720F0010044
:105300003067306F002920F0040030677AD0FFF753
:10531000FFFC054641F28837306F800700F184803A
:10532000FFF7F6FC401BB842F6D9032002B0BDE8F7
:10533000F08100BF20F4803030603068002920F414
:10534000802030607AD0FFF7E3FC054630688003A8
:105350003FF5CAAEFFF7DCFC401B6428F6D90320FA
:1053600002B0BDE8F08100BF7068E16900F480021E
:105370008A4221D1216A00F03F028A421CD147F6BD
:10538000C071626A0140B1EB821F15D1A16A4FF66C
:10539000FF73C903994300F44032A1F580318A427A
:1053A0000AD1E16A00F07060B0EB016F04D1002017
:1053B00002B0BDE8F08100BF012002B0BDE8F0817D
:1053C00004F11C052FCD084340EA8210D9034FF6A3
:1053D000FF729143A1F5803140EA05600843706097
:1053E00001203866FFF794FC044600BF3068800156
:1053F000DDD4FFF78DFC001B02284FF00300F5D928
:105400005BE700BFFFF784FC054641F2883700BF29
:10541000306F800708D5FFF77BFC401BB8424FF088
:105420000300F5D949E700BFB8F1000F3FF581AEA1
:10543000306C20F0805030647BE600BFFFF768FCE2
:10544000054600BF306880037FF54EAEFFF760FC75
:10545000401B64284FF00300F4D92EE710B584B048
:1054600040F20801C2F20001096841F6F112C0F2EF
:105470007652A1FB0212510A642251430291029911
:10548000044603910168486820F02000486048689D
:10549000000607D44868400637D44868800768D4B7
:1054A0009CE000BF46F25550C0F6000060640398CF
:1054B00010B303980138039094F8510007281FD0C7
:1054C0000398C8B103980138039094F85100072855
:1054D00016D0039880B103980138039094F85100D6
:1054E00007280DD0039838B103980138039094F839
:1054F00051000728DBD103E0606D40F0400060659B
:105500000298039048684006C7D546F2C140C0F6ED
:1055100000002064039818B303980138039094F8AE
:105520005100072820D00398D0B103980138039088
:1055300094F85100072817D0039888B103980138D0
:10554000039094F8510007280ED0039840B10398B7
:105550000138039094F851000728DBD104E000BF24
:10556000606D40F0400060650298039048688007D5
:1055700034D5A06C90B300210165FFF785FA0028AF
:105580001CBF402060652168486820F00200486028
:105590000398F8B1039801380390886880071DD4F8
:1055A0000398B8B10398013803908868800715D430
:1055B000039878B1039801380390886880070DD468
:1055C000039838B103980138039088688007DFD5C5
:1055D00004E000BF606D40F0400060654868C007AF
:1055E00012D0E06C80B100210165FFF74DFA002870
:1055F0001CBF402060652168086820F040000860FA
:10560000486820F0010048600023E387E386606D6E
:105610004FF0010C40284FF001001CBF63650020D3
:105620000193CA6801928A680192019A019389687C
:105630000191019984F851C004B010BD70B528B132
:10564000416A29B100210161142106E0012070BDE9
:105650004168B1F5827F02D01C2100224250002611
:10566000866290F8511029B980F85060054600F024
:105670003DF82846022180F8511090E82E0002F4EF
:1056800082720C6803F4044324F040040C601A4452
:1056900005F4006305691A4405F0020345691A44DC
:1056A00005F001038569C4691A4405F400731A44BE
:1056B00004F03803046A1A4404F08003846A1A432D
:1056C00004F400531A430A60436A042202EA1542B2
:1056D00003F010031A444A60CA6922F40062CA61E6
:1056E0000121466580F85110304670BD80B586B006
:1056F00043F200010068C4F20101002288420592D1
:10570000CDE903220292019202D006B080BD00BF13
:1057100043F630000092C4F20200436943F4805320
:105720004361436903F480530093009B0092036834
:1057300043F001030360006800F00100009000984E
:10574000E02001900220CDE9020203200490052010
:10575000059001F5504001A9FFF704FA06B080BD9D
:105760002DE9F04383B01E4615460F460446FFF769
:10577000CFFA94F851108146012909D1002F4FF03A
:10578000010018BF002D0FD103B0BDE8F08300BFAA
:105790006068B0F5827F0DD104294FF00200F3D18B
:1057A000A1680029EAD0EFE7002EEDD094F8500070
:1057B000012803D1022003B0BDE8F083012084F862
:1057C000500094F85100002104281CBF052084F8E3
:1057D00051006165A563E687A6872763E686206892
:1057E000A686216461640168490603D4016841F01A
:1057F000400101606168731EE268B1FA81F1B3FA99
:1058000083F3DDF8288049095B09B2F5006F41EAAE
:10581000030165D131B137F8021BC1602763E08E07
:105820000138E086012518F1010032D102E000BF05
:10583000FFF76EFAE08E18B9E08F002800F0B8800C
:105840002068816889070CD5E18E51B1012D08D1FE
:10585000216B002531F8022BC2602163E18E0139F2
:10586000E1868168C907E3D0E18F0029E0D0C068F4
:10587000A16B012521F8020BA163E08F0138E087BD
:10588000D6E700BFFFF744FAA0EB0900404580F0DF
:10589000A580E08E18B9E08F002800F0898020688C
:1058A000816889070CD5E18E51B1012D08D1216B9A
:1058B000002531F8022BC2602163E18E0139E186B7
:1058C0008168C907DED0E18F0029DBD0C068A16BF9
:1058D000012521F8020BA163E08F0138E087D1E7B1
:1058E00039B139780173206B01302063E08E0138C3
:1058F000E086012518F1010032D101E0FFF708FA36
:10590000E08E10B9E08F002852D0206881688907A6
:105910000ED5E18E61B1012D0AD1216B00250978E8
:105920000173216B206801312163E18E0139E18629
:105930008168C907E2D0E18F0029DFD0C068A16B80
:1059400001250870A06B0130A063E08F0138E0876B
:10595000D4E700BFFFF7DCF9A0EB090040453DD2DA
:10596000E08E08B9E08F18B32068816889070ED5EA
:10597000E18E61B1012D0AD1216B002509780173F7
:10598000216B206801312163E18E0139E186816854
:10599000C907DFD0E18F0029DCD0C068A16B0125E9
:1059A0000870A06B0130A063E08F0138E087D1E779
:1059B0002046022101224346CDF8009000F0D8FD98
:1059C000B0B1606D40F0200060652020606500206F
:1059D00084F85000012003B0BDE8F083012084F872
:1059E0005100002084F85000032003B0BDE8F0838C
:1059F00040F20800C2F20000006849F68171C1F26D
:105A00005E61A0FB0101480D4FF47A71484302909A
:105A10006068B0F5827F0BD120468021002243468A
:105A2000CDF8009000F0A4FD0028CAD121E000BF0D
:105A30000298F0B102980138029020688168090646
:105A400017D50299A9B10299013902918168090615
:105A50000FD5029969B1029901390291816809064D
:105A600007D5029929B1029901390291806800068F
:105A7000DED4A06838B9002001902068C168019187
:105A8000806801900198012084F85100002084F87A
:105A90005000606D002818BF012003B0BDE8F083FE
:105AA000411E0020B0EB116F1CBF012070474EF269
:105AB0001002CEF2000251604EF62351CEF20001E8
:105AC000F0230B7007219060116070477047000051
:105AD00040F28C11C2F20001884218BF704710B525
