:020000040800F2
:10000000D00A012075020008C9A30008E1A2000877
:10001000C5A30008110A0008D1DF00080000000095
:10002000000000000000000000000000A5A500087E
:10003000150A000800000000CDA30008FDD100084B
:100040008F0200088F0200088F0200088F0200084C
:100050008F0200088F0200088F0200088F0200083C
:100060008F0200088F0200088F0200088F0200082C
:100070008F0200088F0200088F0200088F0200081C
:100080008F0200088F0200088F0200088F0200080C
:100090008F0200088F0200088F0200088F020008FC
:1000A0008F0200088F0200088F0200088F020008EC
:1000B0008F0200088F0200088F0200088F020008DC
:1000C0008F0200088F0200088F0200088F020008CC
:1000D0008F020008C5DF00088F0200088F020008A9
:1000E0008F0200088F0200088F0200088F020008AC
:1000F0008F0200088F0200088F0200088F0200089C
:100100008F0200088F0200088F0200088F0200088B
:100110006DDD00088F0200088F0200088F020008C2
:100120008F0200088F0200088F0200088F0200086B
:100130008F0200088F0200088F0200088F0200085B
:100140008F0200088F0200088F0200088F0200084B
:100150008F0200088F0200088F0200088F0200083B
:100160008F0200088F0200088F0200088F0200082B
:100170008F0200088F0200088F02000800000000B4
:100180008F0200088F02000800F002F800F063F808
:1001900014A696E8000CB244B344DA4501D100F04D
:1001A0005AF8BAE80F000FA696E83000A5EB040550
:1001B00004EB0607AAEB0704A7F101074FEA1515A0
:1001C0004FEA3414A4F10104AC4201D300F043F827
:1001D00013F0010F18BFFB1A43F0010300F001F800
:1001E000DBE718475CEF02007CEF0200103A24BF07
:1001F00078C878C1FAD8520724BF30C830C144BF8C
:1002000004680C6070470000704700000023002461
:1002100000250026103A28BF78C1FBD8520728BF16
:1002200030C148BF0B607047642900F02B817529ED
:1002300000F02881782900F06181632900F09E8315
:10024000732900F0A383002070471FB510F087F9D1
:100250001FBD10B510BD00F0A5FB1146FFF7F5FF5F
:100260000FF02EFB00F0C3FB03B4FFF7F2FF03BC5B
:1002700000F0C6FB0948804709480047FEE7FEE753
:10028000FEE7FEE7FEE7FEE7FEE7FEE7FEE7FEE746
:1002900004480549054A064B70470000A9D20008EA
:1002A00089010008D0F80020D00A0120D0FA0020EF
:1002B000D0FA002053EA020C00F069802DE9F04BDF
:1002C0004FF00006002B1FBFB3FA83F503FA05F4C5
:1002D00024FA05F65E4012BF1643B2FA82F502FA1E
:1002E00005F4C5F120051EBF22FA05FC44EA0C0402
:1002F000203556EA044C4FEA144418BF641C4FF0F2
:1003000000084FF00009904271EB030C39D300292B
:1003100019BFB1FA81F701FA07F6B0FA80F700FACF
:1003200007F6C7F120071EBF20FA07FC46EA0C06B5
:100330002037B6FBF4FCA7EB0507103F07F01F0BB7
:10034000CBF120062CFA06F60CFA0BFB44BFB346A1
:100350000026202FA4BF5E464FF0000B5BEA060C80
:1003600008BF4FF0010B19EB0B0948EB0608ABFB7C
:10037000027C06FB02CC0BFB03CCC01B71EB0C0117
:10038000C1E70B46024641464846BDE8F08B13B52F
:10039000084318BF4FF0FF300146AFF30080BDE8BF
:1003A0001C4070470FB41CB50C0007AA009007D082
:1003B0004142A14202D32044401E01E04FF0FF30F1
:1003C000074B7B4469460190069800F0B2FA002181
:1003D000002C01D0009A11701CBC5DF814FB0000C9
:1003E0009305000070B5044685690068C10601D513
:1003F000302600E02026C00707D070BDD4E90121D7
:1004000030469047206A401C20626D1EF6D570BDB4
:1004100070B5044685690078C00707D170BDD4E97E
:10042000012120209047206A401C20626D1EF6D5D5
:1004300070BD70B50C460546012A05D028788006A7
:1004400000D5EA69002302E0012305E05B1C93422A
:1004500002D2E05C0028F9D1A869E618C01AA861A8
:10046000286A184428622846FFF7BCFF04E0D5E953
:10047000012114F8010B9047B442F8D32846FFF746
:10048000C7FF70BD2DE9F0410646002410687529AC
:10049000314616A510D0AFF30080002802DA4042A2
:1004A00013A507E031688A0701D512A502E04907C4
:1004B00004D511A5012401E0AFF3008000210A2238
:1004C00006F1240709E0B0FBF2FCB0FBF2F302FBFB
:1004D0001C00303078541846491C0028F3D12346BC
:1004E0002A463046BDE8F04100F0C4B900000000E3
:1004F0002D0000002B0000002000000070B5044615
:100500000D4621461068AFF300802188090502D509
:100510000F4A7A4402E00E4A7A440E32002104F176
:10052000240305E000F00F060009965D5E54491CA7
:100530000028F7D120780023000704D5702D02D0C1
:1005400009B1022311322046BDE8704000F092B993
:10055000C20001002DE9F05F894604464FF0000A11
:10056000DFF874B1FB44C0F820A02046E16888475A
:10057000002874D0252806D0D4E901219047206AAC
:10058000401C2062F1E700265F462046E16888476C
:100590002028054607DB312D05D2781910F8200CEC
:1005A00008B10643F1E7B00701D526F00406C4F808
:1005B0001CA00027C4F818A02A2D09D028460FF047
:1005C00081FF38B304EB8708303DC8F8185019E0B4
:1005D00059F8041B204604EB87029161E1688847C3
:1005E000012F054618D1E069002820DA26F0200600
:1005F0001DE0D8F8180000EB800005EB4000303813
:10060000C8F818002046E168884705460FF05AFFF1
:100610000028EED1012F0AD02E2D08D12046E16806
:1006200088477F1C0546022F46F02006C4DBA069E0
:10063000002803DA404246F00106A061F00701D02D
:1006400026F010066C2D0BD0682D09D04C2D39D01A
:100650006A2D35D0742D35D07A2D33D016E038E0A0
:10066000E1682F4620468847B842054609D16C2FDD
:1006700026D04FF48060E16806432046884705464F
:1006800004E06C2F1AD04FF4807006430DB3A5F12F
:100690004100192802D8203546F400664A4629460A
:1006A000204626604E46FFF7BFFD80B101280BD0E3
:1006B000F61D26F0070000F1080956E74020E4E7A0
:1006C0008020D8E70020D6E706F104094DE7284648
:1006D00052E7206ABDE8F09F9800010030B505465A
:1006E0000B462A4613F8014B12F8010B08B1A04241
:1006F000F8D01CB1002802D06D1CF1E7284630BDAF
:1007000040EA010310B59B070FD1042A0DD310C88E
:1007100008C9121F9C42F8D020BA19BA884201D9E0
:10072000012010BD4FF0FF3010BD1AB1D30703D028
:10073000521C07E0002010BD10F8013B11F8014BDE
:100740001B1B07D110F8013B11F8014B1B1B01D1FA
:10075000921EF1D1184610BD10B5431C02E010F8EE
:10076000011B71B18107FAD14FF0013202C88C1A16
:100770008C4314EAC211F9D0C01A0A0603D0C01E75
:1007800010BDC01A10BD0A0401D0801E10BD0902A0
:10079000FCD0401E10BD10B5203AC0F00B80B1E86F
:1007A0001850A0E81850B1E81850A0E81850203AA6
:1007B000BFF4F5AF5FEA027C24BFB1E81850A0E8AF
:1007C000185044BF18C918C0BDE810405FEA827CC9
:1007D00024BF51F8043B40F8043B08BF7047D207E0
:1007E00028BF31F8023B48BF11F8012B28BF20F881
:1007F000023B48BF00F8012B704702F0FF0343EAB9
:10080000032242EA024200F002B84FF0000200B5B3
:10081000134694469646203922BFA0E80C50A0E823
:100820000C50B1F12001BFF4F7AF090728BFA0E8D1
:100830000C5048BF0CC05DF804EB890028BF40F89D
:10084000042B08BF704748BF20F8022B11F0804FDF
:1008500018BF00F8012B704770477047704710B5FC
:1008600000F098F8006810BD10B5044600F092F84A
:10087000046010BD2DE9F0470D46994692460446A6
:1008800000F124080168880604D5E06921F0100110
:10089000216000E00120A84201DD471B00E00027A5
:1008A000A1697A1902EB0900081AA0612078C00634
:1008B00002D42046FFF796FD002608E0D4E9012186
:1008C0001AF806009047206A401C761C20624E45AC
:1008D000F4DB2078C0060AD52046FFF783FD06E04A
:1008E000D4E9012130209047206A401C2062381E44
:1008F000A7F10107F4DC07E0D4E9012118F80500AD
:100900009047206A401C2062281EA5F10105F3DCF7
:100910002046FFF77DFD2078000602D50220BDE8C5
:10092000F0870120FBE7000001694A1C026108789A
:10093000704700B58FB0CDE901310021059105491F
:100940007944CDE9031011466846FFF703FE0FB066
:1009500000BD0000E5FFFFFFD1E900239A4202D26B
:10096000531C0B601070704710B5436913B1AFF39F
:10097000008001E0FFF75DFD012010BD127800F15D
:1009800024010A7000224A700122EDE711684FF03D
:10099000FF32E9E700487047100000200048704728
:1009A000100000207546FFF7F9FFAE4605006946C6
:1009B000534620F00700854618B020B5FFF768FCC5
:1009C000BDE820404FF000064FF000074FF0000850
:1009D0004FF0000BAC46ACE8C009ACE8C009ACE88D
:1009E000C009ACE8C00921F007018D46704710B579
:1009F0000446AFF300802046BDE81040FFF734BC4A
:100A000001491820ABBEFEE7260002007047000037
:100A1000FEE700007047000072B600BFFEE700006E
:100A20002DE9F04186B0002643F630000496CDE96A
:100A30000266CDE900660596C4F202000168002452
:100A400041F0010101600068C4F2020400F00100FD
:100A50000590059841F20405204610210122CEF2AE
:100A600000054FF01008012708F0D4F80320039088
:100A700069462046CDE90087029607F0FBFF4EF657
:100A8000FC50CEF20000016841F0807101602E60E0
:100A900055F8040C42F2F81140F0010045F8040C3E
:100AA00055F8040CC2F2000110F00100087017D1D3
:100AB000402005900598411E0591C8B300BF0598D8
:100AC000411E0591A0B300BF0598411E059178B362
:100AD00000BF0598411E059150B300BFEAE700BF73
:100AE00040F20800C2F2000000684DF68361C4F2D3
:100AF0001B31A0FB010128682B686FF0010202EA9C
:100B000051411A1A8A4213D200BF2A68121A8A4225
:100B10000ED200BF2A68121A8A4209D200BF2A6880
:100B2000121A8A4204D200BF2A68121A8A42EBD3F0
:100B300006B0BDE8F08100002DE9F04184B000204E
:100B400041F20405C4F2020010210122CEF2000598
:100B500008F060F842F2F816C2F20006307840F26F
:100B600008084DF683670028C2F20008C4F21B375C
:100B700060D0D8F80000A0FB070128682A68890C1B
:100B800001EB8101121AB2EB410F15D2490000BFEF
:100B900000BF2A68121A8A420ED200BF2A68121AAF
:100BA0008A4209D200BF2A68121A8A4204D200BFC0
:100BB0002A68121A8A42EBD340F25814C2F2000497
:100BC000204608F0D3FB2068016821F04001016055
:100BD00000210191C1680191816801910199016829
:100BE00041F0400101603078002841D0D8F8000081
:100BF0006FF00102A0FB070128682B6802EA51414F
:100C00001A1A8A4213D200BF2A68121A8A420ED2D6
:100C100000BF2A68121A8A4209D200BF2A68121A33
:100C20008A4204D200BF2A68121A8A42EBD304B067
:100C3000BDE8F0814FF4A070029000BF0298411E01
:100C400000280291B8D000BF0298411E00280291EE
:100C5000B2D000BF0298411E00280291ACD000BF64
:100C60000298411E00280291A6D000BFE6E700BF0F
:100C7000402003900398411E00280391D7D000BF65
:100C80000398411E00280391D1D000BF0398411E54
:100C900000280391CBD000BF0398411E0028039188
:100CA000C5D000BFE6E700002DE9F04784B00C4650
:100CB00040F200080021C4F202080191010C16461E
:100CC00041F20407ADF80810ADF80A0040461021C3
:100CD0000122CEF2000707F09DFF42F2F815C2F2A2
:100CE0000005287840F2080A4DF683690028C2F210
:100CF000000AC4F21B3900F08980DAF800006FF0B6
:100D00000102A0FB090138683B6802EA51411A1A46
:100D10008A4213D200BF3A68121A8A420ED200BF2A
:100D20003A68121A8A4209D200BF3A68121A8A42F5
:100D300004D200BF3A68121A8A42EBD3404610210F
:100D4000002207F067FF287800287DD0DAF800003D
:100D5000A0FB090138683A68121AB2EB914F15D21C
:100D6000890C00BF00BF3A68121A8A420ED200BF37
:100D70003A68121A8A4209D200BF3A68121A8A42A5
:100D800004D200BF3A68121A8A42EBD340F25810DC
:100D9000C2F2000002A901AA0223009608F068FC32
:100DA0002978064600296BD0DAF80000A0FB09017B
:100DB00038683A68121AB2EB914F15D2890C00BF0D
:100DC00000BF3A68121A8A420ED200BF3A68121A5D
:100DD0008A4209D200BF3A68121A8A4204D200BF7E
:100DE0003A68121A8A42EBD340461021012207F0DA
:100DF00011FF002E60D0FFF79FFE0020002C4FF067
:100E0000000161D104B0BDE8F08700BF402003902D
:100E10000398411E0028039190D000BF0398411E03
:100E2000002803913FF48AAF00BF0398411E0028B9
:100E300003913FF483AF00BF0398411E0028039144
:100E40003FF47CAF00BFE3E7202003900398411EEE
:100E5000002803919AD000BF0398411E00280391F7
:100E600094D000BF0398411E002803918ED000BF8C
:100E70000398411E002803913FF488AF00BFE5E7C7
:100E8000202003900398411E00280391ACD000BF9E
:100E90000398411E00280391A6D000BF0398411E6D
:100EA00000280391A0D000BF0398411E00280391A1
:100EB0009AD000BFE6E700BF64B1BDF80400BDF8FA
:100EC000061041EA004001212060084604B0BDE858
:100ED000F08700BF012004B0BDE8F0872DE9F04F96
:100EE00083B0824600284FF0000000F0658141F297
:100EF00001028A1A12F5805FC0F05E81CDE9001010
:100F00004FF0085000210A22FFF7CEFE90B3009860
:100F100002281ED3009801264442C2F2002601AFE7
:100F20004FF6FF7B554600BF304639460A22FFF791
:100F3000BBFEF8B10198002220EA0B01C5F2413254
:100F4000914217D10136A119B1F1085F25F8020BC2
:100F5000EAD101A900200A22FFF7A6FE50B10198AC
:100F60004FF6FF71002220EA0101C5F241329142A1
:100F700000F0E48041F20407CEF20007FFF7DCFD49
:100F800042F2F810C2F2000000784DF683610028AA
:100F900040F20800C2F20000C4F21B3100F01081E0
:100FA0000068A0FB010138683A68890C01EB8101F7
:100FB000121AB2EB410F15D2490000BF00BF3A68C8
:100FC000121A8A420ED200BF3A68121A8A4209D215
:100FD00000BF3A68121A8A4204D200BF3A68121A55
:100FE0008A42EBD3002001904FF0085000210A22E2
:100FF000FFF75AFE98B30098022820D300984FF0CC
:101000000009441E4FF4083501AE4FF6FF7800BFCB
:1010100009F1010B584665F31F3031460A22FFF7EC
:1010200043FEE0B10198002220EA0801C5F24132F6
:10103000914214D12AF819005C45D946E8D101A99A
:1010400000200A22FFF730FE48B101984FF6FF71E9
:10105000002220EA0101C5F2413291426ED0FFF731
:101060006BFD42F2F810C2F200000078002800F098
:10107000C98040F20800C2F2000000684DF68361AA
:10108000C4F21B31A0FB010138683A68890C01EBFE
:101090008101121AB2EB410F14D2490000BF3A6825
:1010A000121A8A420ED200BF3A68121A8A4209D234
:1010B00000BF3A68121A8A4204D200BF3A68121A74
:1010C0008A42EBD3002001904FF0085000210A2201
:1010D000FFF7EAFDE0B3009802281FD3009800262E
:1010E000441E4FF4083B0DF104094FF6FF7800BF92
:1010F000751C28466BF31F3049460A22FFF7D4FDC2
:1011000030B30198002220EA0801C5F24132914231
:101110001ED12AF81600AC422E46E9D101A90020C2
:101120000A22FFF7C1FD98B101984FF6FF71002226
:1011300020EA0101C5F24132914209D100990AEB3E
:10114000410121F8020C012003B0BDE8F08F00BF7F
:10115000FFF7F2FC42F2F810C2F20000007800281B
:1011600072D040F20800C2F2000000684DF68361C0
:10117000C4F21B31A0FB0101880C39683A6800EB0E
:101180008000521AB2EB400F78D2420000BF38689C
:10119000401A904272D200BF3868401A90426DD215
:1011A00000BF3868401A904268D200BF3868401AC1
:1011B00090424FF00000E9D303B0BDE8F08F00BFCC
:1011C0004FF4A070029000BF0298411E00280291C7
:1011D0003FF408AF00BF0298411E002802913FF47F
:1011E00001AF00BF0298411E002802913FF4FAAE01
:1011F00000BF0298411E002802913FF4F3AE00BFE9
:10120000E2E700BF4FF4A070029000BF0298411EB9
:10121000002802913FF456AF00BF0298411E0028FB
:1012200002913FF44FAF00BF0298411E0028029187
:101230003FF448AF00BF0298411E002802913FF4DE
:1012400041AF00BFE2E700BF4FF4A070029000BFC3
:101250000298411E029188B100BF0298411E02917E
:1012600060B100BF0298411E029138B100BF0298E0
:10127000411E029110B100BFEAE700BF002003B099
:10128000BDE8F08F2DE9F04182B004460020002C2B
:10129000009000F0C58020604FF0045000210A2229
:1012A000FFF702FD60B1694600200A22FFF7FCFC4F
:1012B00030B1009820F00701B1F1805F00F0838029
:1012C00042F2F816C2F20006307841F2040540F20C
:1012D00008084DF68367CEF200050028C2F2000828
:1012E000C4F21B3700F0A080D8F80000A0FB070173
:1012F00028682A68890C01EB8101121AB2EB410FB0
:1013000014D2490000BF2A68121A8A420ED200BFC6
:101310002A68121A8A4209D200BF2A68121A8A421F
:1013200004D200BF2A68121A8A42EBD34FF004504D
:1013300000210A22FFF7B8FC58B1694600200A22B2
:10134000FFF7B2FC28B1009820F00701B1F1805FEF
:1013500039D03078002800F08980D8F80000A0FB50
:10136000070128682A68890C01EB8101121AB2EB87
:10137000410F15D2490000BF00BF2A68121A8A42E5
:101380000ED200BF2A68121A8A4209D200BF2A6808
:10139000121A8A4204D200BF2A68121A8A42EBD378
:1013A0004FF0045000210A22FFF77EFC80B169460D
:1013B00000200A22FFF778FC50B1009820F00701C6
:1013C000B1F1805F04D12060012002B0BDE8F0815E
:1013D000307800286AD0D8F80000A0FB0701880CFC
:1013E00029682A6800EB8000521AB2EB400F77D2CE
:1013F000420000BF00BF2868401A904270D200BF70
:101400002868401A90426BD200BF2868401A904268
:1014100066D200BF2868401A90424FF00000E9D31E
:1014200002B0BDE8F08100BF4FF4A070019000BF92
:101430000198411E002801913FF478AF00BF019848
:10144000411E002801913FF471AF00BF0198411E79
:10145000002801913FF46AAF00BF0198411E0028A7
:1014600001913FF463AF00BFE2E700BF4FF4A0700B
:10147000019000BF0198411E0028019190D000BF4B
:101480000198411E002801913FF48AAF00BF0198E6
:10149000411E002801913FF483AF00BF0198411E17
:1014A000002801913FF47CAF00BFE3E74FF4A07048
:1014B000019000BF0198411E019188B100BF0198C1
:1014C000411E019160B100BF0198411E019138B1E8
:1014D00000BF0198411E019110B100BFEAE700BFB3
:1014E000002002B0BDE8F0812DE9F04182B0044651
:1014F0000020002C009018BF20604FF00050002109
:101500000A22FFF7D1FB58B1694600200A22FFF7F3
:10151000CBFB28B1009840F2D241884200F0808095
:1015200042F2F816C2F20006307841F2040540F2A9
:1015300008084DF68367CEF200050028C2F20008C5
:10154000C4F21B3700F0A280D8F80000A0FB07010E
:1015500028682A68890C01EB8101121AB2EB410F4D
:1015600014D2490000BF2A68121A8A420ED200BF64
:101570002A68121A8A4209D200BF2A68121A8A42BD
:1015800004D200BF2A68121A8A42EBD34FF00050EF
:1015900000210A22FFF788FB50B1694600200A2289
:1015A000FFF782FB20B1009840F2D241884237D049
:1015B0003078002800F08C80D8F80000A0FB0701EC
:1015C00028682A68890C01EB8101121AB2EB410FDD
:1015D00014D2490000BF2A68121A8A420ED200BFF4
:1015E0002A68121A8A4209D200BF2A68121A8A424D
:1015F00004D200BF2A68121A8A42EBD34FF000507F
:1016000000210A22FFF750FB90B1694600200A2210
:10161000FFF74AFB60B1009840F2D241884207D1FF
:10162000002C4FF0010018BF216002B0BDE8F0812E
:10163000307800286ED0D8F80000A0FB0701286899
:101640002A68890C01EB8101121AB2EB410F15D205
:10165000490000BF00BF2A68121A8A420ED200BF9A
:101660002A68121A8A4209D200BF2A68121A8A42CC
:1016700004D200BF2A68121A8A42EBD3002C67D02A
:1016800000990020216002B0BDE8F0814FF4A07005
:10169000019000BF0198411E002801913FF476AFF0
:1016A00000BF0198411E002801913FF46FAF00BFB9
:1016B0000198411E002801913FF468AF00BF0198D6
:1016C000411E002801913FF461AF00BFE2E700BF77
:1016D0004FF4A070019000BF0198411E00280191B5
:1016E0003FF48CAF00BF0198411E002801913FF4E8
:1016F00085AF00BF0198411E002801913FF47EAFE5
:1017000000BF0198411E002801913FF477AF00BF50
:10171000E2E700BF4FF4A070019000BF0198411EA6
:1017200000280191AAD000BF0198411E0028019114
:10173000A4D000BF0198411E002801919ED000BF97
:101740000198411E0028019198D000BFE6E700BF34
:10175000002002B0BDE8F0812DE9F04383B045F2EE
:1017600045664FF044540028C5F241764FF0000022
:1017700008BF4FF0405404BF44F65946C4F24E1619
:101780000190204600210A22FFF78EFA40B101A9FC
:1017900000200A22FFF788FA10B10198B0427AD0EF
:1017A00042F2F817C2F20007387841F2040540F21D
:1017B00008094DF68368CEF200050028C2F2000940
:1017C000C4F21B3800F09880D9F80000A0FB080193
:1017D00028682A68890C01EB8101121AB2EB410FCB
:1017E00014D2490000BF2A68121A8A420ED200BFE2
:1017F0002A68121A8A4209D200BF2A68121A8A423B
:1018000004D200BF2A68121A8A42EBD32046002174
:101810000A22FFF749FA40B101A900200A22FFF786
:1018200043FA10B10198B04235D03878002800F062
:101830008580D9F80000A0FB080128682A68890C77
:1018400001EB8101121AB2EB410F15D2490000BF22
:1018500000BF2A68121A8A420ED200BF2A68121AE2
:101860008A4209D200BF2A68121A8A4204D200BFF3
:101870002A68121A8A42EBD3204600210A22FFF777
:1018800013FA68B101A900200A22FFF70DFA38B156
:101890000198B04204D1012003B0BDE8F08300BF3D
:1018A000387800286AD0D9F80000A0FB0801880C1D
:1018B00029682A6800EB8000521AB2EB400F77D2F9
:1018C000420000BF00BF2868401A904270D200BF9B
:1018D0002868401A90426BD200BF2868401A904294
:1018E00066D200BF2868401A90424FF00000E9D34A
:1018F00003B0BDE8F08300BF4FF4A070029000BFBA
:101900000298411E002802913FF480AF00BF029868
:10191000411E002802913FF479AF00BF0298411E9A
:10192000002802913FF472AF00BF0298411E0028C8
:1019300002913FF46BAF00BFE2E700BF4FF4A0702D
:10194000029000BF0298411E0028029194D000BF6F
:101950000298411E002802918ED000BF0298411EBD
:10196000002802913FF488AF00BF0298411E002872
:1019700002913FF481AF00BFE4E700BF4FF4A070D5
:10198000029000BF0298411E029188B100BF0298E8
:10199000411E029160B100BF0298411E029138B110
:1019A00000BF0298411E029110B100BFEAE700BFDC
:1019B000002003B0BDE8F08340F60000C5F2060049
:1019C000016821F00401016043F63400C4F2020012
:1019D000016821F04001016000684CF2FC10C2F285
:1019E000000000210170704743F63400C4F2020089
:1019F000016841F040010160006840F60000C5F256
:101A00000600016841F0040101604CF2FC10C2F2D2
:101A100000000121017070474FF0000178B34CF2D3
:101A2000FC12C2F2000212784AB3B5EE400AF1EE9F
:101A300010FA24DD48F2A06140F60402C0F2010170
:101A4000C5F20602136813F0060F1CBF0020704792
:101A5000DB0705D1013904BF00207047F2E700BF62
:101A600051689FED082A090A01EE101AB8EE411AD2
:101A700021EE021A20EE010A012180ED000A08463B
:101A8000704700BF0000803346F63840C0F60100C2
:101A9000704700002DE9F0472DED108B0E4602F047
:101AA000FD0101293ED10546E0B3042E3AD3CBB364
:101AB000B5EE400AB0EE408AF1EE10FA32DDF5EEF6
:101AC000400AB0EE609AF1EE10FA2BDDB6EE00AAF5
:101AD00028EE0A0AB4EE409AF1EE10FA22DA18461D
:101AE0004FF4047191469846FEF78FFE88EE09DAAE
:101AF00000EE109AB8EE400AB01E2DEE00BA00EECD
:101B0000100AB8EE400AB4EE40BAF1EE10FA00F353
:101B1000AD81042E06F0030A0ED29FEDDF0A0020ED
:101B200035E000BF002B00F0A18118464FF404718E
:101B3000FEF76BFE9AE100BF9FEDD70A26F0030186
:101B4000A5F10802002000BF32F9083F043001EE81
:101B5000103AB2F90230B8EEC11A30EE010AB2F909
:101B6000044001EE103AB8EEC11AB2F9067030EE38
:101B7000010A01EE104AB8EEC11A30EE010A01EE78
:101B8000107AB8EEC11A814230EE010ADCD1BAF106
:101B9000000F1FD035F91010BAF1010F01EE101A25
:101BA000B8EEC11A30EE010A14D005EB4000B0F9CE
:101BB0000210BAF1020F01EE101AB8EEC11A30EE9F
:101BC000010A07D0B0F9040001EE100AB8EEC11AFC
:101BD00030EE010A01EE106A9FEDB02AB8EE411A0C
:101BE00080EE01CA29EE020A80EE088AB0EE480AA9
:101BF0000EF0F2F8B0EE409AB0EE480A0EF0D0FACD
:101C0000042EB1EE402A80F03781DFEDA30AB7EE53
:101C1000003A0020B0EE601AB0EE605ABAF1000F40
:101C200000F0818035F9101025EE024A23EE096A92
:101C300036EE044A06EE101AB8EEC66A36EE4C6A64
:101C400026EE037A26EE056A20EE033A25EE095ABF
:101C5000C1B2FF2935EE033A14D123EE035A64EEE4
:101C6000041A31EE855AF7EE002AB5EE405AF1EE2D
:101C7000C51AF1EE10FAC8BFF0EE612A83EE223ADF
:101C800084EE224A77EE200ABAF1010F36EE011AED
:101C900049D0411C35F9112023EE022A05EE102A05
:101CA000B8EEC55A35EE4C5A25EE046A25EE035AB5
:101CB00024EE097A20EE040A23EE093AC9B237EE7F
:101CC000022AFF2933EE000A14D120EE003A22EE58
:101CD000024A34EE033AB7EE007AB5EE403AB1EE7E
:101CE000C34AF1EE10FAC8BFB0EE447A80EE070A9C
:101CF00082EE072A76EE200ABAF1020F35EE011ABB
:101D000011D005EB4000B0F9040003EE100AB8EE64
:101D1000C33A33EE4C3A23EE022A23EE000A72EE67
:101D2000200A30EE011AB0EEE00AB0EEC12A9FEDB3
:101D3000C43A32EE000AB4EE430AF1EE10FAC0F2F1
:101D40009580B1EE410A0DF0F1FEB1EE400A80EE51
:101D5000088A4146B5EE408AF1EE10FA33DA3DEEDC
:101D6000088AB5EE408AF1EE10FA2CDA3DEE088AC8
:101D7000B5EE408AF1EE10FA25DA3DEE088AB5EEAE
:101D8000408AF1EE10FA1EDA3DEE088AB5EE408A7E
:101D9000F1EE10FAE3DB16E038EE4D8AB4EE4D8A30
:101DA000F1EE10FA14DB38EE4D8AB4EE4D8AF1EE06
:101DB00010FA0DDB38EE4D8AB4EE4D8AF1EE10FAD2
:101DC00006DB38EE4D8AB4EE4D8AF1EE10FAE3DA16
:101DD000F01E00EE100AB7EE00EAB8EE409AB4EE3C
:101DE0004E8AF1EE10FA39EE4BFA1BDA3DEE088A14
:101DF000B4EE4E8AF1EE10FA14DA3DEE088AB4EE33
:101E00004E8AF1EE10FA0DDA3DEE088AB4EE4E8AF3
:101E1000F1EE10FA06DA3DEE088AB4EE4E8AF1EEE3
:101E200010FAE3DBB4EE4F8AF1EE10FA1EDC3FEE5F
:101E30000E0A60EE0A8AF4EE488AF1EE10FA40F3D8
:101E4000D18038EEC80A80EE0D0A0EF06DF820EE53
:101E50000D0A30EE088A3DEE080AB4EE4F0AF1EEA4
:101E600010FA40F3AF804146BCE000BF0020BDEC5B
:101E7000108BBDE8F08700BFDFED070AB7EE004A20
:101E800026F003012A1D0020B0EE601AB0EE446A6D
:101E9000B0EE607A4CE000BF00000000DB0FC940EC
:101EA00032F9043C32F9027C07EE903AF8EEE77A18
:101EB00077EECC7A27EE877A37EE011A07EE107AA2
:101EC000B8EEC77A27EE866A37EE4C7A32F9083BCD
:101ED00036EE206A67EE250A27EE267A37EE011ADB
:101EE00007EE103AB8EEC77A37EE4C7A32F9063C74
:101EF00030EE866A67EE230A27EE247A37EE011A5F
:101F000007EE103AB8EEC77A37EE4C7A30EE866AB2
:101F100067EE210A70EE860A27EE226A043036EE5A
:101F2000011A8142B0EE436AB0EE457A3FF476AED4
:101F300027EE023A26EE095A75EE035A20EE063ACB
:101F400027EE095A75EE036A26EE823A25EE895A83
:101F500075EE033A20EE253A26EE895A75EE034ACD
:101F600024EE823A23EE895A75EE031A20EE233AC4
:101F700024EE895A75EE032A22EE823A21EE895A1E
:101F8000C31C35EE033ADBB220EE215A62EE897AA9
:101F9000FF2B37EE855A83D165EE057A23EE03EAEF
:101FA0007EEE277AB1EEE7EAF5EE407AF0EE447A7B
:101FB000F1EE10FAC8BFF0EE4E7A85EE275A83EEA6
:101FC000273A6DE730EE681A38EE682AB0EEC11A8B
:101FD000B0EEC22AB4EE421A4146F1EE10FAB8BF92
:101FE000B0EE408AB4EE4E8AF1EE10FA4FF00000E7
:101FF000C0F24F813BEE080AB4EE490AF1EE10FA46
:1020000000F3478147F6FF70C8F200009FEDA30A76
:102010009FEDA35A9FEDA36A48F2000CC8604FF4ED
:102020000046002047F6FF73B1EE041AB9EE002A0D
:10203000B0EE083ABEEE004ACFF6FF7C2BE000BFC0
:10204000BD378635B5EE407AF0EE440AF1EE10FA6F
:10205000A8BFF0EE4A0A77EE200AFDEEE00AB4EEE1
:10206000467A10EE902AF1EE10FA1FB2D8BF6246FF
:10207000BA4201EB40077A82BCBF8A81134637B26D
:1020800014B2BC4200F10200C4BFCA811646B0F5CA
:10209000807F00F0F38082B207EE102AB8EE477A14
:1020A0002BEE077A87EE007A38EE077AFDEEC70A44
:1020B00010EE902A05EB420434F9027CF8EE600A37
:1020C00037EE607A00EE907AB4F9027035F912209A
:1020D00002EE907AF8EEE00A01EE902AF8EEE22A9B
:1020E000F8EEE11A70EEE23A67EE233A71EEA14A99
:1020F00073EEE43A61EE814A70EEA05AB4F904201E
:1021000074EEE54A62EE825A75EEA44A05EE902A14
:1021100061EE831AF8EEE55A70EEE10A62EE831A78
:1021200067EE076A75EEA44A70EEA10A27EE267ADA
:1021300064EEA64A70EEE50A74EEA33A20EE877AC2
:1021400037EE237A27EE047A37EE4C7AB4EE457AEE
:10215000F1EE10FA1EDAB5EE407AF0EE440AF1EE36
:1021600010FAA8BFF0EE4A0A77EE200AFDEEE00A68
:10217000B4EE467A10EE902AF1EE10FA1FB2D8BFF4
:102180006246BA4201EB40073A82BCBF8A811346DD
:1021900005E000BF01EB400747F6FF723A8237B215
:1021A00014B2BC42C4BFCA811646421C92B207EEAA
:1021B000102AB8EE477A2BEE077A87EE007A38EECF
:1021C000077AFDEEC70A10EE902A05EB420737F9B1
:1021D000024CF8EE600A37EE607A00EE904AB7F9EA
:1021E000024035F9122002EE904AF8EEE00A01EEC4
:1021F000902AF8EEE22AF8EEE11A70EEE23A67EE83
:10220000233A71EEA14A73EEE43A61EE814A70EE30
:10221000A05AB7F9042074EEE54A62EE825A75EED0
:10222000A44A05EE902A61EE831AF8EEE55A70EEA4
:10223000E10A62EE831A67EE076A75EEA44A70EE51
:10224000A10A27EE267A64EEA64A70EEE50A74EE3D
:10225000A33A20EE877A37EE237A27EE047A37EE18
:102260004C7AB4EE457AF1EE10FAFFF6EBAE01EBE4
:10227000400747F6FF727A8201E700BF4FF4807093
:102280004880012081F8019081ED018A81ED02BA38
:102290000870BDEC108BBDE8F08700BF00007F43E5
:1022A00000FEFF46000000C72DE9F04F81B02DED84
:1022B000108B8AB01446002818BF002C02D134B904
:1022C00009E000BF0278002A18BF00290AD1204681
:1022D0005021FEF79AFA00200AB0BDEC108B01B035
:1022E000BDE8F08F8278043A12F1030FEFD30B6848
:1022F000002BECD00A79002AE9D093ED000AB5EE64
:10230000400AF1EE10FAE2DD93ED010AB5EE400A63
:10231000F1EE10FADBDD012A40F0DA800A7BFAB137
:102320008B68002BCBD093ED000AB5EE400AF1EE9E
:1023300010FAC4DD012A13D0013A083393ED000AE4
:10234000B5EE400AF1EE10FAB9DD13ED021AB4EE63
:10235000410AF1EE10FAB2DD013A03F10803EDD1C2
:102360000A7D002A5FD00B69002BA8D003F10C0C6A
:102370004FF0000E0EEB8E0703EB071797ED000AE8
:10238000B5EE400AF1EE10FA99DD3D79A5F10A06A5
:1023900016F1080FFFF493AFBEF1000F07D017ED51
:1023A000141AB4EE410AF1EE10FA7FF788AF97EDF8
:1023B000020AB5EE400AF1EE10FA7FF780AF97ED12
:1023C000030AB5EE400AF1EE10FA7FF778AF013D4F
:1023D000674697ED010AB5EE400AF1EE10FA7FF775
:1023E0006EAF97ED021AB5EE401AF1EE10FA7FF7D4
:1023F00066AF17ED012AB4EE420AF1EE10FA7FF74C
:102400005EAF97ED000AB4EE401AF1EE10FA7FF7D6
:1024100056AF013D07F10807DBD10EF1010E9645DD
:102420000CF1500CA6D10190204605915021FEF7E9
:10243000ECF905980199D0F808A091ED010A8D7882
:102440009FED8C9ABAF1000F84ED020A657061D09D
:10245000037B002B5ED0012B5AD09AED001AB4EE0C
:10246000410AF1EE10FA53DD9F1E0AF1200212ED2F
:10247000061AB4EE410AF1EE10FA40F3358107B3C3
:1024800012ED041AB4EE410AF1EE10FA40F32E8177
:10249000012F16D012ED021AB4EE410AF1EE10FA35
:1024A00040F32681022F0CD092ED001AB4EE410ABF
:1024B000F1EE10FA40F31D81043F7E1C02F1200270
:1024C000D5D10AEBC30212ED019A069535BB26E180
:1024D000013A083393ED000AB5EE400AF1EE10FA26
:1024E0007FF7EDAE93ED011AB5EE401AF1EE10FA5A
:1024F0007FF7E5AE13ED021AB4EE410AF1EE10FAE1
:102500007FF7DDAE013A03F10803E3D106E700BF30
:102510009AED019A002D069500F001819FED55AAD4
:102520009FEDB0BA9FEDB0CA9FEDB0DA9FEDB0EA73
:10253000AAF1040201F1180B04F120060AF12001AE
:102540004FF000080392049107E000BF08F1010872
:10255000A84589ED030A00F0C5800BEB08174FEA88
:10256000081197ED018A1BF80150D7ED020A06EB1E
:102570000819B0EE480A755489ED018A00F0F8FD9B
:10258000059889ED020A97ED030ABAF1000FB0EE43
:102590004A1A3DD0027BB0EE4A1ACAB3012A35D09E
:1025A0009AED001AB4EE418AF1EE10FA2EDD04998C
:1025B000931E11ED061AB4EE418AF1EE10FA79DDA0
:1025C000EBB111ED041AB4EE418AF1EE10FA73DDAD
:1025D000012B14D011ED021AB4EE418AF1EE10FA7B
:1025E0006CDD022B0BD091ED001AB4EE418AF1EEB6
:1025F00010FA64DD043B5F1C01F12001D9D103997D
:1026000001EBC20191ED001A02E000BF9AED011A40
:1026100002EE105AB8EE422A22EE092A32EE411A90
:1026200030EE010AB4EE4B0A069DF1EE10FA23DDFE
:10263000B4EE4C0AF1EE10FA7FF788AF30EE0D0AD7
:10264000B4EE4C0AF1EE10FA7FF780AF30EE0D0ACF
:10265000B4EE4C0AF1EE10FA7FF778AF30EE0D0AC7
:10266000B4EE4C0AF1EE10FA7FF770AF30EE0D0ABF
:10267000DEE700BF0000000030EE0E0AB4EE4B0AA9
:10268000F1EE10FAD4DC30EE0E0AB4EE4B0AF1EEA5
:1026900010FACDDC30EE0E0AB4EE4B0AF1EE10FA71
:1026A000C6DC30EE0E0AB4EE4B0AF1EE10FAE3DDB2
:1026B000BEE700BF183902E0103900E0083911ED1B
:1026C000022A38EE423A31EE421A83EE011A91EDB7
:1026D000012A11ED013A32EE432A21EE021A31EEBF
:1026E000031A95E72A461BE0183A02E0103A00E088
:1026F000083A12ED022A30EE420A31EE421A80EE1A
:10270000010A92ED011A12ED012A31EE421A20EE71
:10271000010A30EE029A002D06957FF4FFAE0022EA
:102720004CF20026C2F2000604F12001C2F10008BA
:1027300004F1300E4FF0000BB446CDE903120EE069
:102740000026F1B24CF20026A942C2F2000653D094
:102750000BF1010BBBF1150F0CF1180C4AD00BEB70
:102760004B0216F83230002BF2D006EBC20A9AF870
:1027700001209542ECD1002DE2D00326734613F8D8
:10278000102C1CF80650AA421ED108EB0605022D9B
:1027900022D00CEB06021F7892F801904F4515D11C
:1027A000012D19D01F7C91788F4211D1A5B193F8DA
:1027B0002010D27891420CD1043608EB060103298F
:1027C00003F14003DBD107E0033E02E0023E00E0FC
:1027D000013E069DB5E700BF069D4CF20026C2F201
:1027E000000609E0DB0F49C0DB0F4940DB0FC9C021
:1027F000DB0FC9404FF0000A5146BAF1000F18BF75
:102800000121407DE170002100284FF07E502171B0
:10281000606100F0B582022DC0F0B282049F04F125
:102820005000A7F10108414610F8302C012A19D0B8
:10283000002900F0A58210F8202C012A14D00129CB
:1028400000F09E8210F8102C012A0FD0022900F00F
:1028500097820278012A0AD004394A1C00F140000C
:10286000E2D18DE2303802E0203800E0103890EDFF
:10287000020AB5EE400AF1EE10FA40F3818290EDC3
:10288000030A9FEDDA2A1FED293A1FED294A1FEDB1
:10289000295A9FEDD76A1FED2A7A0020B7EE001A59
:1028A000002209E0F0EEE00AF4EE460AF1EE10FA3A
:1028B0005EDC0130B84261D0039B0101595C012903
:1028C000F7D0002954D0082952D8039B00EE901A63
:1028D00003EB0013F8EE600AD3ED031A60EE802AD2
:1028E00071EE600A71EEE21A60EE820A70EEA10AE1
:1028F000F4EE430AF1EE10FA1EDC70EE870AF4EEF5
:10290000430AF1EE10FA17DC70EE870AF4EE430A80
:10291000F1EE10FA10DC70EE870AF4EE430AF1EEE5
:1029200010FA09DC70EE870AF4EE430AF1EE10FAB1
:10293000E3DD01E070EE850AF4EE440AF1EE10FAF0
:10294000B0DD70EE850AF4EE440AF1EE10FAA9DD6E
:1029500070EE850AF4EE440AF1EE10FAA2DD70EE94
:10296000850AF4EE440AF1EE10FAE3DC9AE700BFC0
:102970000130B8424FF001029ED101E0D0074DD0A6
:10298000BAF1000F00F0FC810AF10C0904F12800F3
:10299000002107AA3B460AEB010797ED030AB5EEB3
:1029A000400AF1EE10FA40F3EA8190ED001AB5EE1C
:1029B000401AF1EE10FA40F3E28181EE000A571856
:1029C000013B01F1040100F1100087ED000AE2D1A2
:1029D0000DF11C0B0699584600F06AFEB6EE001A7F
:1029E000B4EE410AF1EE10FAC0F2C981B7EE081A4E
:1029F000B4EE410AF1EE10FA00F3C1819FEDE51A41
:102A0000049820EE011A00F0030CB8F1030F4FF008
:102A1000000280F0F58001213FE100BFBAF1000F14
:102A200048D00025CAE90055CAE90255CAE904554B
:102A30006178A2684FF0010C8AF800C08AF8011092
:102A4000CAF8082091B304F158010323002211F8B9
:102A5000387C0AF80370657851F8306C9F1EAF42DD
:102A60000AEB0207FE6021D211F8285C0AEB03068C
:102A70007570657851F820EC581EA842C7F810E030
:102A800014D211F8180CB070657851F8100CAB42E4
:102A900078610BD211F8080C1032F07051F8400B2D
:102AA0006578B861581C0433A842D0D384F803C0B9
:102AB00066E100BF3078002800F09C804CF20021D5
:102AC000C2F200018A461AF8180F0028A9D08A46D7
:102AD0001AF8300F0028A4D08A461AF8480F0028A8
:102AE0009FD08A461AF8600F00289AD08A461AF8B2
:102AF000780F002895D08A461AF8900F002890D0B9
:102B00008A461AF8A80F00283FF48BAF8A461AF8B5
:102B1000C00F00283FF485AF8A461AF8D80F002866
:102B20003FF47FAF8A461AF8F00F00283FF479AFE0
:102B300091F80801002800F0C9824CF20020C2F28E
:102B4000000090F82001002800F0C8824CF200201C
:102B5000C2F2000090F83801002800F0C7824CF261
:102B60000020C2F2000090F85001002800F0C68258
:102B70004CF20020C2F2000090F86801002800F03A
:102B8000C5824CF20020C2F2000090F880010028BB
:102B900000F0C4824CF20020C2F2000090F89801CC
:102BA000002800F0C3824CF20020C2F2000090F82E
:102BB000B001002800F0C2824CF20020C2F20000F6
:102BC00090F8C801002800F0C3824CF20020C2F245
:102BD000000090F8E001069D002840F0D1804CF202
:102BE0000020C2F2000000F5F07A1AE7DB0FC93FBF
:102BF00035FA0E3E4CF2002AC2F2000A11E700BF7D
:102C00000498ABF1100700F0FC014B42012197ED55
:102C1000042A97ED053A32EE402AB0EEC22A97ED2B
:102C2000064AB4EE412A33EE402AB0EEC22AF1EE53
:102C300010FAB4EE412A34EE402A4FF00006B0EE0E
:102C4000C22A97ED075AC8BF0126F1EE10FA4FF0DD
:102C50000005B4EE412AC8BF0125F1EE10FA4FF08D
:102C60000000C8BF012035EE402AF607B0EEC22AA8
:102C700018BF0021EE0718BF0021C007B4EE412A9B
:102C800018BF0021F1EE10FAA2F1040207F11007BB
:102C9000C8BF00219342BAD15242BCF1000F2BD0E1
:102CA0000BEB820292ED002A32EE402AB0EEC22AED
:102CB000B4EE412AF1EE10FAC8BF0021BCF1010FB9
:102CC0001AD092ED012A32EE402AB0EEC22AB4EEBA
:102CD000412AF1EE10FAC8BF0021BCF1020F0BD05F
:102CE00092ED022A32EE402AB0EEC22AB4EE412A18
:102CF000F1EE10FAC8BF0021080600F0D1810021D2
:102D0000B8F1030F8AF8021016D304980AF11803D9
:102D100000F0FC0204F1180753F80C0C0431386180
:102D200053F8080C8A42386253F8040C386353F89D
:102D3000100B47F8400FEFD1BCF1000F19D0039AE8
:102D400059F8210002EB0112BCF1010F906010D084
:102D5000481C039B59F8202003EB0010BCF1020F24
:102D6000826006D0881C039A59F8201002EB0010EC
:102D7000816040F20110A4F8030084ED050A069D6D
:102D800055B1042D05F003060CD29FEDF00A00208A
:102D90002BE000BF0AD7A33D9FEDEC0A0020206185
:102DA00054E100BF9FEDEE0A05F0FC0104F11802AA
:102DB000002092ED041A92ED082A92ED0C3A21EED1
:102DC000011A92ED104A31EE000A22EE021A31EE9B
:102DD000000A23EE031A31EE000A24EE041A04302E
:102DE0004032814231EE000AE3D1C6B10399012E8F
:102DF00001EB001090ED021A21EE011A31EE000AEB
:102E00000DD090ED061A022E21EE011A31EE000AC5
:102E100005D090ED0A1A21EE011A31EE000AB6EE45
:102E2000001A20EE010AB1EEC00A002D84ED040A5A
:102E300000F00A819FEDCA8A6FF030009FEDC99AB9
:102E40009FEDC9AA00EA05170021B0EE48BAB0EE1E
:102E500048CA4FF0000A00200290069520E000BF0B
:102E60005FEA0A4000F0D680B4EE4BDA0499F1EE46
:102E700010FABCBF5146B0EE4DBA069DB4EE4CDA26
:102E8000F1EE10FACCBFCDF808A0B0EE4CDA40F26B
:102E9000FF700AF1010A8045B0EE4DCA80F0C28091
:102EA0001FFA8AF800EE108AB8EE400A20EE090AEE
:102EB000042D20EE0AEA049104D24FF0000BB0EE8C
:102EC00048DA5DE04FF000094FF0000BB0EE48DA51
:102ED00004EB090595F8200095ED0B1A00EE100A99
:102EE000B8EE400A20EE0E0A95ED0AFA30EE010A1D
:102EF0000CF072FF95F830002FEE000A30EE0DDA7C
:102F000000EE100AB8EE400A95ED0F1A20EE0E0AF8
:102F100095ED0EFA30EE010A0CF05EFF95F84000D8
:102F20002FEE000A30EE0DDA00EE100AB8EE400A7D
:102F300095ED131A20EE0E0A95ED12FA30EE010A05
:102F40000CF04AFF95F850002FEE000A30EE0DDA33
:102F500000EE100AB8EE400A95ED171A20EE0E0AA0
:102F600095ED16FA30EE010A0CF036FF2FEE000A4E
:102F700009F1400930EE0DDA4F450BF1040BA7D1F2
:102F8000002E3FF46DAF03994FEA0B10085C01EB84
:102F90000B1500EE100AB8EE400A95ED031A20EE6C
:102FA0000E0A95ED02FA30EE010A0CF015FF2FEE35
:102FB000000A012E30EE0DDA3FF452AF287C95ED79
:102FC000071A00EE100AB8EE400A20EE0E0A95ED40
:102FD00006FA30EE010A0CF0FFFE2FEE000A022E78
:102FE00030EE0DDA3FF43CAF95F8200095ED0B1A6A
:102FF00000EE100AB8EE400A20EE0E0A95ED0AFA2D
:1030000030EE010A0CF0E8FE2FEE000A30EE0DDA89
:1030100026E700BF0020069D02900021B0EE4DBAC9
:1030200035E700BF02989FED511A80B200EE100AFA
:1030300088B202EE100AB8EE400AB8EE422A20EE3C
:10304000010A22EE018A03E09FED450AB0EE408AB4
:1030500020460121012500F0DBFDB0EE409A20461C
:10306000B0EE480A002100F0D3FD019839EE400A85
:10307000C17884ED030A59B190ED040AD0ED050A38
:103080000598A57084ED060A00F072F884ED070A31
:10309000012020700AB0BDEC108B01B0BDE8F08FAC
:1030A0009AF80200069DFF2805D0411C02288AF8E4
:1030B0000210FFF465AE0020CAE90000CAE9020070
:1030C000CAE904006578E0705AE600BF4CF20020BF
:1030D000C2F2000000F5847AA3E400BF4CF20020A5
:1030E000C2F2000000F5907A9BE400BF4CF2002091
:1030F000C2F2000000F59C7A93E400BF4CF200207D
:10310000C2F2000000F5A87A8BE400BF4CF2002068
:10311000C2F2000000F5B47A83E400BF4CF2002054
:10312000C2F2000000F5C07A7BE400BF4CF2002040
:10313000C2F2000000F5CC7A73E400BF4CF200202C
:10314000C2F2000000F5D87A6BE400BF0000000076
:103150004CF20020C2F2000000F5E47A61E400BF06
:1031600000000000DB0FC9400000003ADB0F493BC4
:10317000B0B50269002A00F08180017D00297DD070
:10318000012900F0C58092ED001AB4EE410AF1EE7B
:1031900010FA40F3BD808B1E02F5A07010ED3C1AB2
:1031A000B4EE410AF1EE10FA40F3268103B310EDBC
:1031B000281AB4EE410AF1EE10FA40F31F81012BF8
:1031C00016D010ED141AB4EE410AF1EE10FA40F3E5
:1031D0001781022B0CD090ED001AB4EE410AF1EEEB
:1031E00010FA40F30E81043B5D1C00F5A070D5D1B0
:1031F00001EB810002EB001010ED120AF4EE400A20
:10320000F1EE10FA40F3F08010F84C3CA0F1480CBD
:10321000022B30D35C4240380121042290ED000A99
:10322000F4EE400AF1EE10FA40F39481A518022D55
:1032300021D090ED020AF4EE400AF1EE10FA40F3CC
:103240009181012D17D090ED040AF4EE400AF1EEC1
:1032500010FA40F3918175B190ED060AF4EE400A40
:10326000F1EE10FA40F320820432A5180431032D48
:1032700000F12000D2D10CEBC3008CE00179006892
:1032800001293BD090ED001AB4EE410AF1EE10FA9C
:1032900034DD002900F09C808B1E00F1200212ED2D
:1032A000061AB4EE410AF1EE10FA40F31381002B36
:1032B00000F08F8012ED041AB4EE410AF1EE10FA1C
:1032C00040F30A81012B00F0848012ED021AB4EE63
:1032D000410AF1EE10FA40F30181022B79D092ED10
:1032E000001AB4EE410AF1EE10FA40F3F880043B04
:1032F0005D1C02F12002D2D16BE000BF90ED010A0B
:1033000020EE800AB6EE001A20EE010AB0BD00BF22
:1033100092ED020AF4EE400AF1EE10FA50DD92F856
:1033200004E002F1080CBEF1020F32D3CEF100012D
:1033300002F128000124042210ED060AF4EE400AEE
:10334000F1EE10FA40F3E4808B18022B21D010ED3F
:10335000040AF4EE400AF1EE10FA40F3DB80012B90
:1033600017D010ED020AF4EE400AF1EE10FA40F325
:10337000D58073B190ED000AF4EE400AF1EE10FA38
:1033800040F3D08004328B180434032B00F120006A
:10339000D2D10CEBCE0010ED040A10ED021A30EE83
:1033A000C02A31EE400A82EE000A10ED031A10ED39
:1033B000012A32EE412A20EE020A30EE010AB0BDA7
:1033C00092ED031A20EE811A81EE000AB0BD00BF13
:1033D000002100EBC10010ED010A20EE800AB6EEDC
:1033E000001A20EE010AB0BD10ED111A20EE811A6C
:1033F00081EE000AB0BD00BFF03802E0A03800E066
:10340000503810ED122AF4EE420AF1EE10FA4BDDBC
:1034100010F84CECA0F1480CBEF1020F32D3CEF103
:103420000004A0F140010122042391ED002AF4EEF2
:10343000420AF1EE10FA40F38B80E518022D21D0FC
:1034400091ED022AF4EE420AF1EE10FA40F3868082
:10345000012D17D091ED042AF4EE420AF1EE10FA94
:1034600040F3868075B191ED062AF4EE420AF1EE42
:1034700010FA40F387800433E5180432032D01F17C
:103480002001D2D10CEBCE0111ED042A11ED023A4C
:1034900030EEC24A33EE422A84EE022A11ED033A9C
:1034A00011ED014A7DE000BF10ED113A20EE833AA4
:1034B00083EE022A90ED023AF4EE430AF1EE10FA9E
:1034C00000F37D8090ED034A20EE844A84EE033AB7
:1034D000DBE000BF183A02E0103A00E0083A12EDD3
:1034E000022A30EE420A31EE421A80EE010A92EDD3
:1034F000011A12ED012A31EE421A20EE010A30EED5
:10350000020A20EE800AB6EE001A20EE010AB0BDD3
:10351000183808E00134103805E000BF02340838DC
:1035200001E000BF14460CEBC40111ED021A30EEAD
:10353000C12A30EE410A82EE000A11ED011A90ED27
:10354000012A32EE412A20EE020A30EE010AB0BD15
:10355000134618E00CEBC101E7E700BF531C08312C
:1035600011E000BF4A1C08300CEBC201DDE700BFD0
:10357000931C103107E000BF8A1C10300CEBC20115
:10358000D3E700BF18310CEBC30212ED023A30EE64
:10359000C34A32EE432A84EE022A12ED013A91ED3B
:1035A000014A34EE434A22EE042A32EE032A90ED19
:1035B000023AF4EE430AF1EE10FA7FF783AF90F887
:1035C00004E000F1080CBEF1020F2ED3CEF100048E
:1035D00000F128010122042311ED063AF4EE430A1A
:1035E000F1EE10FA32DDE518022D1ED011ED043A8D
:1035F000F4EE430AF1EE10FA2ADD012D15D011ED9B
:10360000023AF4EE430AF1EE10FA25DD6DB191EDC8
:10361000003AF4EE430AF1EE10FA21DD0433E51826
:103620000432032D01F12001D6D10CEBCE0111EDB6
:10363000043A11ED024A30EEC35A34EE433A85EEB5
:10364000033A11ED034A11ED015A18E0183908E068
:103650000132103905E000BF0232083901E000BF35
:103660001A460CEBC20212ED024A30EEC45A33EE97
:10367000443A85EE033A12ED014A91ED015A35EED6
:10368000445A23EE053A33EE043A10ED144A30EE74
:10369000440A31EE441A80EE010A33EE421A20EE5B
:1036A000010A30EE020AB0BD18300CEBC2013CE753
:1036B000F0B583B0002900F0A5800C466D460146A8
:1036C000A2002846FDF767F8A4F1020E05F1080CE8
:1036D0000122002305E000BF0132A042034600F0B2
:1036E0008580581CA042F7D2D943661805EB8301A8
:1036F00016F00306174635D005EB820797ED000A52
:1037000091ED001AB4EE410AF1EE10FABCBF81ED62
:10371000000A87ED001A012E02F1010722D005EB05
:10372000870797ED000A91ED001AB4EE410AF1EE19
:1037300010FABCBF81ED000A87ED001A022E02F1DB
:1037400002070FD005EB870696ED000A91ED001AEF
:10375000D71CB4EE410AF1EE10FABCBF81ED000AAD
:1037600086ED001AAEEB0303DBB2032BB4D33B1D93
:103770000CEB870616ED020A91ED001ADFB2B4EEEB
:10378000410AF1EE10FABCBF81ED000A06ED021A03
:1037900016ED010A91ED001A0433B4EE410AF1EE80
:1037A00010FABCBF81ED000A06ED011A96ED000A81
:1037B00091ED001AB4EE410AF1EE10FABCBF81EDB2
:1037C000000A86ED001A96ED010A91ED001AB4EE9A
:1037D000410AF1EE10FABCBF81ED000A86ED011A34
:1037E000BC4206F11006C5D176E700BFE0070AD05B
:1037F0006FF0020000EA4400284490ED000A03B094
:10380000F0BD00BF0024684600EB440010ED010A43
:1038100090ED001A30EE010AB6EE001A20EE010A11
:1038200003B0F0BD002808BF70472DE9F04F81B00C
:103830002DED108B9AB081460078002800F0D981D8
:1038400099F80100043810F1030FC0F0D28106ADE1
:10385000284649465022FCF79EFF9DF819A0BAF170
:10386000000F09D0BAF1040F0AF0030005900DD241
:103870009FEDE38A002451E09FEDE1AA00200A9029
:10388000B0EE4A0AB0EE4A8AA0E100BF9FEDDC8AA2
:103890000AF0FC0805F118070024B6EE009A00BFF4
:1038A00097ED040A97ED08AA97ED0CBA97ED10CAA8
:1038B00030EE000A0CF026FC20EE090A87ED040A1F
:1038C00020EE000A30EE088A3AEE0A0A0CF01AFCE2
:1038D00020EE090A87ED080A20EE000A30EE088A79
:1038E0003BEE0B0A0CF00EFC20EE090A87ED0C0AE9
:1038F00020EE000A30EE088A3CEE0C0A07F1400682
:103900000CF000FC20EE090A87ED100A20EE000AF8
:10391000043430EE088AA0453746C1D10598002806
:1039200005F12000029033D0029800EB041494EDCE
:10393000020A30EE000A0CF0E5FBB6EE009A20EE2B
:10394000090A059E84ED020A20EE000A012E30EEDF
:10395000088A1DD094ED060A30EE000A0CF0D2FB66
:1039600020EE090A84ED060A20EE000A022E30EE4F
:10397000088A0DD094ED0A0A30EE000A0CF0C2FB62
:1039800020EE090A84ED0A0A20EE000A30EE088AC9
:10399000B6EE000A28EE000AB1EEC0AABAF1000F96
:1039A0008DED0AAA00F00E819FED958A6FF0300030
:1039B0009FED949A9FED94BA00EA0A140021B0EEAC
:1039C00048CAB0EE48DA4FF0000B0020CDF8049062
:1039D00003901EE05FEA0B4000F0DA80B4EE4CEAA0
:1039E000F1EE10FA0499B4EE4DEABCBF5946B0EEC0
:1039F0004ECAF1EE10FACCBFCDF80CB0B0EE4DEAE5
:103A000040F2FF700BF1010B8045B0EE4EDA80F012
:103A1000C5801FFA8BF800EE108AB8EE400A20EE3F
:103A2000090A5646BAF1040F20EE0BFA049105D2AA
:103A30004FF00009B0EE48EA5EE000BF4FF0000A28
:103A40004FF00009B0EE48EA05EB0A0797F82000AE
:103A500097ED0B1A00EE100AB8EE400A20EE0F0A9E
:103A6000D7ED0A8A30EE010A0CF0B6F997F830006B
:103A700028EE800A30EE0EEA00EE100AB8EE400A98
:103A800097ED0F1A20EE0F0AD7ED0E8A30EE010ADD
:103A90000CF0A2F997F8400028EE800A30EE0EEA0A
:103AA00000EE100AB8EE400A97ED131A20EE0F0A46
:103AB000D7ED128A30EE010A0CF08EF997F850001B
:103AC00028EE800A30EE0EEA00EE100AB8EE400A48
:103AD00097ED171A20EE0F0AD7ED168A30EE010A7D
:103AE0000CF07AF928EE800A0AF1400A30EE0EEA6C
:103AF000544509F10409A7D10598B24600283FF4BE
:103B000069AF02994FEA0910085C01EB091700EE52
:103B1000100AB8EE400A97ED031A20EE0F0AD7ED0F
:103B2000028A30EE010A0CF057F9059E28EE800A51
:103B3000012E30EE0EEA3FF44DAF387C97ED071AB8
:103B400000EE100AB8EE400A20EE0F0AD7ED068A02
:103B500030EE010A0CF040F928EE800A022E30EE19
:103B60000EEA3FF437AF97F8200097ED0B1A00EEFE
:103B7000100AB8EE400A20EE0F0AD7ED0A8A30EE9E
:103B8000010A0CF029F928EE800A30EE0EEA21E74E
:103B9000002003900021B0EE4ECA31E703989FED5C
:103BA0001B1A80B200EE100A88B202EE100AB8EEBC
:103BB000400AB8EE422ADDF8049020EE010A22EE17
:103BC000018A03E09FED0E0AB0EE408A06AD28465A
:103BD000012100F01DF8B0EE409A2846B0EE480AE8
:103BE000002100F015F839EE400A89ED030A89ED4D
:103BF00004AA1AB0BDEC108B01B0BDE8F04F7047BD
:103C000000000000DB0FC9400000003ADB0F493B19
:103C10002DE9F04F81B02DED108B84B04278FAB1D0
:103C20009FEDEC1A9FEDEC2A30EE01FA30EE02DA4D
:103C30009FEDEA9A3DEE4F8A28EE090A9FEDE8AA29
:103C4000834630EE0DBA2030042A02F003080191B9
:103C5000039002920CD29FEDE3CA002667E000BFFA
:103C60009FEDE08AB1FA81F04309B0EE48CA17E34C
:103C70006FF030009FEDDBCA00EA02190027002632
:103C80000BEB070595F8200095ED0B1A00EE100AD6
:103C9000B8EE400A20EE0B0A95ED0AEA30EE010A72
:103CA0000CF09AF895F830002EEE000A30EE0CCAAF
:103CB00000EE100AB8EE400A95ED0F1A20EE0B0A3E
:103CC00095ED0EEA30EE010A0CF086F895F840000A
:103CD0002EEE000A30EE0CCA00EE100AB8EE400AD2
:103CE00095ED131A20EE0B0A95ED12EA30EE010A5B
:103CF0000CF072F895F850002EEE000A30EE0CCA67
:103D000000EE100AB8EE400A95ED171A20EE0B0AE5
:103D100095ED16EA30EE010A0CF05EF82EEE000A80
:103D2000403730EE0CCAB94506F10406A8D1029D11
:103D3000B8F1000F28EE0A8A43D003993001085CDD
:103D400001EB061400EE100AB8EE400A94ED031AD7
:103D500020EE0B0A94ED02EA30EE010A0CF03CF87A
:103D60002EEE000AB8F1010F30EE0CCA29D0207CEB
:103D700094ED071A00EE100AB8EE400A20EE0B0A86
:103D800094ED06EA30EE010A0CF026F82EEE000A59
:103D9000B8F1020F30EE0CCA13D094F8200094ED65
:103DA0000B1A00EE100AB8EE400A20EE0B0A94ED52
:103DB0000AEA30EE010A0CF00FF82EEE000A30EE9F
:103DC0000CCA042D38EE0FEA04D29FED868A002635
:103DD0005FE000BF6FF030009FED828A00EA0519B6
:103DE000002700260BEB070595F8200095ED0B1A30
:103DF00000EE100AB8EE400A20EE0E0AD5ED0A8A4F
:103E000030EE010A0BF0E8FF95F8300028EE800A4A
:103E100030EE088A00EE100AB8EE400A95ED0F1A4F
:103E200020EE0E0AD5ED0E8A30EE010A0BF0D4FF1B
:103E300095F8400028EE800A30EE088A00EE100A5D
:103E4000B8EE400A95ED131A20EE0E0AD5ED128A4F
:103E500030EE010A0BF0C0FF95F8500028EE800A02
:103E600030EE088A00EE100AB8EE400A95ED171AF7
:103E700020EE0E0AD5ED168A30EE010A0BF0ACFFEB
:103E800028EE800A403730EE088AB94506F104066C
:103E9000A8D1DDE90179B8F1000F43D003993001D1
:103EA000085C01EB061400EE100AB8EE400A94ED2F
:103EB000031A20EE0E0AD4ED028A30EE010A0BF04E
:103EC0008BFF28EE800AB8F1010F30EE088A29D066
:103ED000207C94ED071A00EE100AB8EE400A20EE9E
:103EE0000E0AD4ED068A30EE010A0BF075FF28EEBB
:103EF000800AB8F1020F30EE088A13D094F820003F
:103F000094ED0B1A00EE100AB8EE400A20EE0E0AED
:103F1000D4ED0A8A30EE010A0BF05EFF28EE800A2B
:103F200030EE088AB7FA87F0B9F1000F4FEA501364
:103F300000F0B6816FF03000DFED2A8A00EA091642
:103F40004FF0000A009316E0019FB0EE4EDAB0EE9B
:103F500048EAF0EE4B9AB0EE6A8AB0EE4FBAB0EE95
:103F60004BFABAF1110F0AF1010AB0EE4EBAB0EEF7
:103F700069EA80F03B83B4EE4C8AF1EE10FA4FF020
:103F800000004FF00001C8BF0120B8BF0121002F81
:103F900018BF014601290DD13DEE4B0A20EE0A0A59
:103FA000B9F1040F70EE0B9A1ED24FF00009B0EE7B
:103FB00068FA76E03EEE4F0A20EE090AF0EE4CAACF
:103FC000B9F1040F30EE0E8A80F092800025B0EE39
:103FD00068CAE8E0DB0F49BBDB0F493B7A371EBFFD
:103FE0007A371E3F0000000000254FF00009B0EEB8
:103FF00068FA00BF0BEB050494F8200094ED0B1A4F
:1040000000EE100AB8EE400A20EE290A94ED0ACA22
:1040100030EE010A0BF0E0FE94F830002CEE000ABE
:1040200030EE0FCA00EE100AB8EE400A94ED0F1AF7
:1040300020EE290A94ED0EFA30EE010A0BF0CCFEC8
:1040400094F840002FEE000A30EE0CCA00EE100A81
:10405000B8EE400A94ED131A20EE290A94ED12FAF4
:1040600030EE010A0BF0B8FE94F850002FEE000A73
:1040700030EE0CCA00EE100AB8EE400A94ED171AA2
:1040800020EE290A94ED16FA30EE010A0BF0A4FE98
:104090002FEE000A403530EE0CFAAE4209F1040969
:1040A000A8D1B8F1000F1BD003994FEA0910085CA2
:1040B00001EB091400EE100AB8EE400A94ED031A61
:1040C00020EE290A94ED02CA30EE010A0BF084FEBC
:1040D0002CEE000AB8F1010F30EE0FFA40F0B0807C
:1040E000DDF80890B0EE48CAB0EE4F8A37E700BF5F
:1040F00000270025B0EE68CA0BEB070494F82000F7
:1041000094ED0B1A00EE100AB8EE400A20EE080AF1
:1041100094ED0ADA30EE010A0BF05EFE94F83000FE
:104120002DEE000A30EE0CCA00EE100AB8EE400A7E
:1041300094ED0F1A20EE080A94ED0EDA30EE010A23
:104140000BF04AFE94F840002DEE000A30EE0CCA47
:1041500000EE100AB8EE400A94ED131A20EE080A99
:1041600094ED12DA30EE010A0BF036FE94F85000AE
:104170002DEE000A30EE0CCA00EE100AB8EE400A2E
:1041800094ED171A20EE080A94ED16DA30EE010AC3
:104190000BF022FE2DEE000A403730EE0CCABE4274
:1041A00005F10405A8D1B8F1000F3FF4CDAE039995
:1041B0002801085C01EB051400EE100AB8EE400A75
:1041C00094ED031A20EE080A94ED02DA30EE010AAB
:1041D0000BF002FE2DEE000A019FB8F1010F30EE48
:1041E0000CCA3FF4B2AE207C94ED071A00EE100A20
:1041F000B8EE400A20EE080A94ED06DA30EE010A25
:104200000BF0EAFD2DEE000AB8F1020F30EE0CCAF9
:104210003FF49BAE94F8200094ED0B1A00EE100AC8
:10422000B8EE400A20EE080A94ED0ADA30EE010AF0
:104230000BF0D2FD2DEE000A30EE0CCA85E600BF71
:10424000207C94ED071A00EE100AB8EE400A20EE2A
:10425000290A94ED06CA30EE010A0BF0BDFD2CEEE2
:10426000000ADDF80890B8F1020F30EE0FFA3FF4C3
:1042700039AF94F8200094ED0B1A00EE100AB8EE56
:10428000400A20EE290A94ED0ACA30EE010A0BF02A
:10429000A3FD2CEE000AB0EE48CA30EE0F8A5EE6AF
:1042A000B0EE4C0AB4EE4C8A9FEDDACAF1EE10FA89
:1042B0004FF000014FF00002C8BF0121B8BF01223A
:1042C000002BB0EE4C1A08BF0A46002A1CBFB0EE05
:1042D000481AB0EE4C0AB4EE410AF1EE10FA4FF073
:1042E00000014FF00002C8BF0121B8BF0122002B1E
:1042F000B0EE4C2A08BF0A46002A1CBFB0EE402A86
:10430000B0EE4C1AB4EE421AF1EE10FA4FF0000182
:104310004FF00002C8BF0121B8BF0122002BB0EE50
:104320004C0A08BF0A46002A1CBFB0EE410AB0EE94
:104330004C2AB4EE402AF1EE10FA4FF000014FF093
:104340000002C8BF0121B8BF0122002BB0EE4C1AF9
:1043500008BF0A46002A1CBFB0EE421AB0EE4C0A53
:10436000B4EE410AF1EE10FA4FF000014FF00002F6
:10437000C8BF0121B8BF0122002BB0EE4C2A08BFF4
:104380000A46002A1CBFB0EE402AB0EE4C1AB4EE2A
:10439000421AF1EE10FA4FF000014FF00002C8BFD0
:1043A0000121B8BF0122002BB0EE4C0A08BF0A461B
:1043B000002A1CBFB0EE410AB0EE4C2AB4EE402AEF
:1043C000F1EE10FA4FF000014FF00002C8BF0121DA
:1043D000B8BF0122002BB0EE4C1A08BF0A46002AD3
:1043E0001CBFB0EE421AB0EE4C0AB4EE410AF1EE38
:1043F00010FA4FF000014FF00002C8BF0121B8BF12
:104400000122002BB0EE4C2A08BF0A46002A1CBF2E
:10441000B0EE402AB0EE4C1AB4EE421AF1EE10FAA9
:104420004FF000014FF00002C8BF0121B8BF0122C8
:10443000002BB0EE4C0A08BF0A46002A1CBFB0EEA3
:10444000410AB0EE4C2AB4EE402AF1EE10FA4FF0D9
:1044500000014FF00002C8BF0121B8BF0122002BAC
:10446000B0EE4C1A08BF0A46002A1CBFB0EE421A32
:10447000B0EE4C0AB4EE410AF1EE10FA4FF0000132
:104480004FF00002C8BF0121B8BF0122002BB0EEDF
:104490004C2A08BF0A46002A1CBFB0EE402AB0EEE4
:1044A0004C1AB4EE421AF1EE10FA4FF000014FF040
:1044B0000002C8BF0121B8BF0122002BB0EE4C0A98
:1044C00008BF0A46002A1CBFB0EE410AB0EE4C2AD3
:1044D000B4EE402AF1EE10FA4FF000014FF0000266
:1044E000C8BF0121B8BF0122002BB0EE4C1A08BF93
:1044F0000A46002A1CBFB0EE421AB0EE4C0AB4EED7
:10450000410AF1EE10FA4FF000014FF00002C8BF6F
:104510000121B8BF0122002BB0EE4C2A08BF0A4689
:10452000002A1CBFB0EE402AB0EE4C1AB4EE421A7C
:10453000F1EE10FA4FF000014FF00002C8BF012168
:10454000B8BF0122002BB0EE4C3A08BF0A46002A41
:104550001CBFB0EE413AB0EE4C2AB4EE432AF1EE65
:1045600010FA4FF000014FF00002C8BF0121B8BFA0
:104570000122002BB0EE4C0A08BF0A46002A1CBFDD
:10458000B0EE420AB0EE4C3AB4EE403AF1EE10FA18
:104590004FF000014FF00002C8BF0121B8BF012257
:1045A000002BB0EE4C8A08BF0A46002A1CBFB0EEB2
:1045B000438AB0EE4C0AB4EE480A0020F1EE10FA3D
:1045C0004FF00001C8BF0121B8BF0120002B08BF78
:1045D000084601280BD19FED0F8A63B9B4EE480A53
:1045E000F1EE10FAC8BFB0EE408A0BE0009B002B42
:1045F000B0EE4C0AF2D0B4EE480AF1EE10FAB8BFB1
:10460000B0EE408AB0EE480A04B0BDEC108B01B0A9
:10461000BDE8F08F0000000010B540F27004C2F257
:10462000000400206060A0602070607040F2B01054
:10463000A11CC2F20000012205F02EFD002808BFD7
:1046400010BDA0680130A06010BD0000002804BFAC
:104650000020704740F27002EFF3108C72B6C2F285
:104660000002537811788B4204D18CF3108800201B
:10467000704700BF51781144097B017050780130B8
:1046800000F0070050708CF3108801207047000084
:1046900013460A46014600284FF0000018BF002AC2
:1046A00000D1704780B540F2B010C2F2000005F0B2
:1046B0004BFDB0FA80F04009BDE880407047000033
:1046C000F0B599B040F28406C2F20006B46901ADBB
:1046D0000F4603461EA2284660210094FBF762FEA7
:1046E0002846FCF739F84FF6FF71884238BF01467B
:1046F00028463222FFF7CCFF7178707A032907D160
:1047000030B10120A6F807000420307013E000BF8C
:104710000022F2710422327047B10139012905D813
:1047200000203072384609F0C5F9707A68B103206C
:1047300070700120F07104F073FA00F5FA70706186
:104740000AA026213222FFF7A3FF19B0F0BD00BF57
:10475000475F464C4F572C6572726F723D25732C24
:104760007365713D256C750D0A000000475F535459
:104770005245414D2C73746174653D726574727954
:10478000696E672C61667465725F6D733D3530309C
:104790000D0A00002DE9F04F89B040F28405C2F205
:1047A00000054FF25C67D5ED0C0A02464DF25C2025
:1047B000C2F200079FED2F0AC2F200004FF48051B1
:1047C0003B46FDF767F908B33878EC8900284FF0CD
:1047D0000000ADF8224000F07F827988B1F5807F3B
:1047E00040F07A82B7F90CB0B7F90E00BBF1000FB8
:1047F00048BFCBF1000B5845C8BF834654B1B4F550
:10480000806F16D94FF48064DEE100BF002009B04C
:10481000BDE8F08F0FF2C8400DF1220108F04EFD07
:10482000002800F0CF81BDF82240EC81B4F5806F04
:10483000E8D8002C00F03E824FF25C2ABBF1000F5A
:10484000C2F2000A00F0CA81B7F8029045F256524F
:10485000601EA9F1010104F00308042CC5F25552B1
:10486000CDE9061B08D24FF0000CB8F1000F40F064
:10487000FF80BBE18096984A09EB490103396FF04C
:104880000303059103EB8901049124F003014942DC
:1048900003916FF00101CDF8048001EB49014FF065
:1048A000000C07F110080094029100BFBCFBF0F16E
:1048B0004FF0010A8FB21AFA81F601FB10C538F9E0
:1048C00017704E4538BF314689B2441B38F9111074
:1048D0007C4305FB01414FF0EA0E91FBF0F1C1EB87
:1048E000C11191FBFBF17F3151FB02F101EBD17B57
:1048F0006FF013011BF1140FD8BF8B460699BBF163
:10490000EA0F6144B1FBF0F44FF0EA02A6B21AFAE2
:1049100084F704FB1011A8BF934638F916604F4581
:1049200038BF3C46A4B2451A38F91440754301FB20
:104930000451079A91FBF0F1C1EBC11191FBF2F127
:1049400045F256527F31C5F2555251FB02F101EB4F
:10495000D1756FF0130115F1140FD8BF0D460299F0
:10496000EA2D6144B1FBF0F4A8BF7546A7B21AFA6C
:1049700084FE04FB101138F91770CE4538BF744619
:10498000A4B2461A38F91440774301FB0471079A20
:1049900091FBF0F14FF0EA0EC1EBC11191FBF2F186
:1049A00045F256527F31C5F2555251FB02F101EBEF
:1049B000D1716FF0130211F1140FD8BF1146059A8F
:1049C000EA2902EB0C07B7FBF0F6A8BF71461AFA0A
:1049D00086F206FB1077B4B24A4538BF164638F95E
:1049E0001440B6B2C21B38F91660624307FB0622B8
:1049F0000BF1140792FBF0F2DDF81CB04FF25C2AC9
:104A0000C2EBC212C2F2000A92FBFBF20AEB0306EF
:104A10001431B17102F17F0145F25652C5F255527F
:104A200051FB02F1377105F1140701EBD171777178
:104A300011F1140F6FF01304D8BF2146EA29A8BF63
:104A400071461431F1710399043319440431049906
:104A50008C447FF42BAF009C4FF25C67DDF8048040
:104A600003F1040CC2F20007B8F1000F00F0BE80A1
:104A7000069901250CFB01F1B1FBF0F307F1100ED3
:104A800015FA83F503FB10119AB24D4538BF2B463A
:104A90003EF912509BB2461A3EF91330754301FBA2
:104AA000035145F2565291FBF0F1C5F25552C1EB5C
:104AB000C11191FBFBF16FF013037F3151FB02F148
:104AC00001EBD17111F1140FD8BF1946EA26EA297A
:104AD000A8BF31461431B8F1010F0AF80C1000F0EC
:104AE000858006990CF101025143B1FBF0F5059266
:104AF00022460124CDF8048014FA85F805FB101134
:104B00001FFA85FBC84538BF45463EF91BB0ADB21C
:104B1000441A3EF9158004FB0BF501FB0851079F71
:104B200091FBF0F11446C1EBC11191FBF7F145F295
:104B30005652C5F255527F3151FB02F101EBD17152
:104B400011F1140FC8BF0B46EA2BB8BF1E460199DE
:104B5000059B022906F114010AF80310069945D0B5
:104B60000CF1020808FB01F3B3FBF0F5012105FB92
:104B7000103311FA85F11646AAB249453EF91220C2
:104B800038BF0D46A9B2A0EB030C3EF911100CFB87
:104B900002F203FB012191FBF0F0C0EBC01090FB8F
:104BA000F7F07F3050FB06F000EBD07010F1140FDF
:104BB000D8BF6FF01300EA28A8BFEA2014300AF823
:104BC000080013E04FF40074ADF822404FF25C2A65
:104BD000BBF1000FC2F2000A7FF436AE4FF25C2048
:104BE000C2F2000021463E22FBF707FE610861D0B9
:104BF000481E032801F0030002D2002132E000BF6A
:104C000021F00302002100BFCB43E718BFB21AF81E
:104C100007601AF801500AF801600AF807504F1CA3
:104C2000FF4327440AEB0103BFB21AF807605D781F
:104C30005E700AF807508F1CFF432744BFB21AF872
:104C400007609D789E700AF80750CF1CFF432744E9
:104C5000BFB21AF80760DD7804318A42DE700AF8C4
:104C60000750D1D130B3CA43224492B21AF802306D
:104C70001AF8017001280AF801300AF8027019D0F8
:104C80004A1CD34323449BB21AF803701AF80260FB
:104C900002280AF802700AF803600BD0881CC1438E
:104CA000214489B21AF801201AF800300AF80020CD
:104CB0000AF8013047F25714C0F6010420460021DB
:104CC0000AF010FEBDF822304FF25C22C2F2000260
:104CD000204600210AF0AEFE09B0BDE8F08F00BF0B
:104CE0007330000040F28400C2F20000007B1928FB
:104CF00018BF70472DE9F04F9BB04CF2F83AC2F262
:104D0000000A4CF6C8300AF5F061C2F200005022E9
:104D1000FBF741FDDAF80860DAF85850DAF8A870C5
:104D2000DAF8F830DAF84821DAF8E8010296DAF829
:104D300038620395DAF888520497DAF8D872059346
:104D4000DAF82833DAF898110692DAF8782308901E
:104D5000DAF818040996DAF868640A95DAF8B854AB
:104D60000B97DAF808750C93DAF858350791DAF8EA
:104D7000C8130D92DAF8A8250F901096DAF8986605
:104D80001195DAF8E8561297DAF838771393DAF8CB
:104D9000883702A80E91DAF8F815DAF8484600F1DB
:104DA000080E1492021DCDE91765CDE91973012390
:104DB000002776461591169401920CE000240333E7
:104DC00000EB840103370C32192B06F10C0681ED40
:104DD000000A00F0C18000EB830191ED000A154646
:104DE0003C4615ED011AB4EE401AF1EE10FA29DD39
:104DF00085ED001A1CB315ED021AB4EE401AF1EE5F
:104E000010FA25DD012C05ED011A18D015ED031A55
:104E1000B4EE401AF1EE10FA16DD022C05ED021A7E
:104E20000DD015ED041AB4EE401AF1EE10FA0DDDB6
:104E3000043C05ED031A611CA5F11005D1D1002435
:104E400006E000BF013403E0013C01E0023C00BF8A
:104E500000EB84015C1C81ED000A00EB840191ED04
:104E6000000A314611ED011AB4EE401AF1EE10FAC3
:104E70002EDD012C81ED001A22D011ED021AB4EEC4
:104E8000401AF1EE10FA1DDD022C01ED011A17D0C7
:104E900011ED031AB4EE401AF1EE10FA14DD032CF2
:104EA00001ED021A0CD011ED041AB4EE401AF1EE25
:104EB00010FA0BDD043C01ED031AA1F11001D1D170
:104EC000002405E0013C03E0023C01E0033C00BF9C
:104ED00000EB84019C1C81ED000A00EB840191ED44
:104EE000000A114691ED011AB4EE401AF1EE10FAE3
:104EF0007FF765AF012C81ED021A3FF45FAF91EDB2
:104F0000001AB4EE401AF1EE10FA1FDD022C81ED0A
:104F1000011A3FF453AF11ED011AB4EE401AF1EE4D
:104F200010FA15DD032C81ED001A3FF447AF11EDA7
:104F3000021AB4EE401AF1EE10FA0BDD043C01ED5A
:104F4000011AA1F11001CDD138E700BF013C36E7CD
:104F5000023C34E7033C32E70E994CF6C832C2F209
:104F600000029160DAF80C10DAF85C20DAF8AC3064
:104F7000DAF8FC700291DAF84C110392DAF89C210D
:104F80000493DAF8EC310597DAF83C720691DAF816
:104F90008C120792DAF8DC220893DAF82C3309979E
:104FA000DAF87C730A91DAF8CC130B92DAF81C2445
:104FB0000C93DAF86C340D97DAF8BC740E91DAF8C9
:104FC0000C150F92DAF85C251093DAF8AC351197CE
:104FD000DAF8FC751291DAF84C161392DAF89C267E
:104FE0000DF15C0C1493DAF8EC361597DAF83C778F
:104FF0001691DAF88C178CE88C00019A01230027AF
:1050000076461A910DE000BF0024033300EB8401C3
:1050100003370C32192B06F10C0681ED000A00F063
:10502000C18000EB830191ED000A15463C4615ED69
:10503000011AB4EE401AF1EE10FA29DD85ED001ADE
:105040001CB315ED021AB4EE401AF1EE10FA25DD8C
:10505000012C05ED011A18D015ED031AB4EE401A13
:10506000F1EE10FA16DD022C05ED021A0DD015ED49
:10507000041AB4EE401AF1EE10FA0DDD043C05ED11
:10508000031A611CA5F11005D1D1002406E000BF70
:10509000013403E0013C01E0023C00BF00EB84016D
:1050A0005C1C81ED000A00EB840191ED000A3146A1
:1050B00011ED011AB4EE401AF1EE10FA2EDD012CBA
:1050C00081ED001A22D011ED021AB4EE401AF1EE71
:1050D00010FA1DDD022C01ED011A17D011ED031A93
:1050E000B4EE401AF1EE10FA14DD032C01ED021AB1
:1050F0000CD011ED041AB4EE401AF1EE10FA0BDDEB
:10510000043C01ED031AA1F11001D1D1002405E006
:10511000013C03E0023C01E0033C00BF00EB8401E2
:105120009C1C81ED000A00EB840191ED000A114600
:1051300091ED011AB4EE401AF1EE10FA7FF765AF67
:10514000012C81ED021A3FF45FAF91ED001AB4EE2D
:10515000401AF1EE10FA1FDD022C81ED011A3FF426
:1051600053AF11ED011AB4EE401AF1EE10FA15DD4D
:10517000032C81ED001A3FF447AF11ED021AB4EE93
:10518000401AF1EE10FA0BDD043C01ED011AA1F119
:105190001001CDD138E700BF013C36E7023C34E7CF
:1051A000033C32E70E994CF6C832C2F20002D160DD
:1051B000DAF81010DAF86020DAF8B030DAF80071B6
:1051C0000291DAF850110392DAF8A0210493DAF888
:1051D000F0310597DAF840720691DAF890120792EA
:1051E000DAF8E0220893DAF830330997DAF88073B6
:1051F0000A91DAF8D0130B92DAF820240C93DAF83B
:1052000070340D97DAF8C0740E91DAF810150F9219
:10521000DAF860251093DAF8B0351197DAF80076ED
:105220001291DAF850161392DAF8A0260DF15C0C00
:105230001493DAF8F0361597DAF840771691DAF821
:1052400090178CE88C00019A0123002776461A916A
:105250000DE000BF0024033300EB840103370C3260
:10526000192B06F10C0681ED000A00F0C18000EB5D
:10527000830191ED000A15463C4615ED011AB4EE86
:10528000401AF1EE10FA29DD85ED001A1CB315ED78
:10529000021AB4EE401AF1EE10FA25DD012C05EDEC
:1052A000011A18D015ED031AB4EE401AF1EE10FAF7
:1052B00016DD022C05ED021A0DD015ED041AB4EE20
:1052C000401AF1EE10FA0DDD043C05ED031A611CE5
:1052D000A5F11005D1D1002406E000BF013403E0A0
:1052E000013C01E0023C00BF00EB84015C1C81ED4D
:1052F000000A00EB840191ED000A314611ED011A1C
:10530000B4EE401AF1EE10FA2EDD012C81ED001AF8
:1053100022D011ED021AB4EE401AF1EE10FA1DDDA2
:10532000022C01ED011A17D011ED031AB4EE401A48
:10533000F1EE10FA14DD032C01ED021A0CD011ED80
:10534000041AB4EE401AF1EE10FA0BDD043C01ED44
:10535000031AA1F11001D1D1002405E0013C03E0C2
:10536000023C01E0033C00BF00EB84019C1C81ED8A
:10537000000A00EB840191ED000A114691ED011A3B
:10538000B4EE401AF1EE10FA7FF765AF012C81ED13
:10539000021A3FF45FAF91ED001AB4EE401AF1EE3D
:1053A00010FA1FDD022C81ED011A3FF453AF11ED0D
:1053B000011AB4EE401AF1EE10FA15DD032C81ED5E
:1053C000001A3FF447AF11ED021AB4EE401AF1EEA5
:1053D00010FA0BDD043C01ED011AA1F11001CDD151
:1053E00038E700BF013C36E7023C34E7033C32E7D4
:1053F0004CF6C832C2F2000292F801B00E99BBF12D
:10540000000F116100F052824FF0000808E000BF69
:105410000E9908F10108D845CCF8081000F0468232
:105420000AEB0817796A7A6F0291D7F86411D7F8F6
:10543000C430D7F814610392D7F8B4210691D7F895
:10544000A4120493D7F804320596D7F85462079251
:10545000D7F8F4220A91D7F8E4130893D7F8443325
:105460000996D7F894630B92D7F834240E91D7F8A5
:1054700024150C93D7F884340D96D7F8D4640F9282
:10548000D7F874251291D7F864161093D7F8C4355D
:105490001196D7F814661392D7F8B4261691D7F858
:1054A000A4170DF15C0C1493D7F804371596D7F8B0
:1054B00054678CE84C00DDF804C01A9101240021E7
:1054C00072460DE00023033400EB830303310CF13B
:1054D0000C0C192C02F10C0283ED000A00F0C280C2
:1054E00000EB840393ED000A66460B4616ED011AA5
:1054F000B4EE401AF1EE10FA2ADD86ED001A23B35D
:1055000016ED021AB4EE401AF1EE10FA26DD012B68
:1055100006ED011A19D016ED031AB4EE401AF1EE99
:1055200010FA17DD022B06ED021A0ED016ED041A42
:10553000B4EE401AF1EE10FA0EDD043B06ED031A4C
:1055400013F10109A6F11006D0D1002306E000BF37
:10555000013303E0013B01E0023B00BF00EB8303AA
:1055600083ED000A631C00EB830696ED000A1646E5
:1055700016ED011AB4EE401AF1EE10FA2EDD012BF1
:1055800086ED001A22D016ED021AB4EE401AF1EEA2
:1055900010FA1DDD022B06ED011A17D016ED031AC5
:1055A000B4EE401AF1EE10FA14DD032B06ED021AE8
:1055B0000CD016ED041AB4EE401AF1EE10FA0BDD21
:1055C000043B06ED031AA6F11006D1D1002305E035
:1055D000013B03E0023B01E0033B00BF00EB830320
:1055E00083ED000AA31C00EB830696ED000A6646D5
:1055F00096ED011AB4EE401AF1EE10FA7FF763AFA0
:10560000012B86ED021A3FF45DAF96ED001AB4EE61
:10561000401AF1EE10FA1FDD022B86ED011A3FF45D
:1056200051AF16ED011AB4EE401AF1EE10FA15DD85
:10563000032B86ED001A3FF445AF16ED021AB4EEC7
:10564000401AF1EE10FA0BDD043B06ED011AA6F14B
:105650001006CDD136E700BF013B34E7023B32E70D
:10566000033B30E74CF6C8320E99C2F2000202EB5F
:1056700008125162B96A02F1200CBA6FD7F8C8302B
:105680000291D7F818110392D7F868210493D7F83C
:10569000B8310591D7F808120692D7F85822079327
:1056A000D7F8A8320891D7F8F8120992D7F848230A
:1056B0000A93D7F898330B91D7F8E8130C92D7F8E0
:1056C00038240D93D7F888340E91D7F8D8140F9258
:1056D000D7F828251093D7F878351191D7F8C81541
:1056E0001292D7F818261393D7F868361491D7F882
:1056F000B816D7F8A84717AD1592D7F8082716930C
:10570000D7F858371EC5019C0127002172460CE0CE
:105710000023033700EB830303310C34192F02F10C
:105720000C0283ED000A3FF473AE00EB870393EDA8
:10573000000A26460B4616ED011AB4EE401AF1EEA9
:1057400010FA29DD86ED001A1BB316ED021AB4EE2D
:10575000401AF1EE10FA25DD012B06ED011A18D0E2
:1057600016ED031AB4EE401AF1EE10FA16DD022B14
:1057700006ED021A0DD016ED041AB4EE401AF1EE41
:1057800010FA0DDD043B06ED031A5D1CA6F11006B0
:10579000D1D1002306E000BF013303E0013B01E06B
:1057A000023B00BF00EB830383ED000A7B1C00EB90
:1057B000830595ED000A164616ED011AB4EE401A5F
:1057C000F1EE10FA2EDD012B86ED001A22D016ED37
:1057D000021AB4EE401AF1EE10FA1DDD022B06EDAE
:1057E000011A17D016ED031AB4EE401AF1EE10FAB2
:1057F00014DD032B06ED021A0CD016ED041AB4EEDC
:10580000401AF1EE10FA0BDD043B06ED031AA6F187
:105810001006D1D1002305E0013B03E0023B01E08B
:10582000033B00BF00EB830383ED000ABB1C00EBCE
:10583000830595ED000A264696ED011AB4EE401A4E
:10584000F1EE10FA7FF765AF012B86ED021A3FF4F7
:105850005FAF96ED001AB4EE401AF1EE10FA1FDDBC
:10586000022B86ED011A3FF453AF16ED011AB4EE88
:10587000401AF1EE10FA15DD032B86ED001A3FF405
:1058800047AF16ED021AB4EE401AF1EE10FA0BDD36
:10589000043B06ED011AA6F11006CDD138E700BF92
:1058A000013B36E7023B34E7033B32E740F2840139
:1058B0000020C2F20001A1F80B001BB0BDE8F04FC0
:1058C0007047000040F28401C2F200014B7891F869
:1058D00009C0032B08D1BCF1000F05D00122A1F8AB
:1058E000072004220A700FE00022013BCA71042243
:1058F000012B0A7009D80123BCF1000F0B7208BFFD
:10590000704703224A70CB714861704740F28400AF
:10591000C2F20000007B002804BF01207047B0B530
:105920004CF6C83C4CF2F83EC2F2000CC2F2000E3B
:105930009CF801109EF80100814242D19CED020AC0
:105940009EED021A9FED212A30EE413AB4EE423A22
:10595000F1EE10FA4FF0000034DC31EE400AB4EE04
:10596000420AF1EE10FA2DDC71B34B1E00211EE04D
:1059700053B390F8304092F83050AC4221D1012B13
:1059800022D090F8404092F84050AC4219D1022BFE
:105990001AD090F8500092F85020904211D1043B58
:1059A000581C4FF0010001F1400108BFB0BD0CEBE5
:1059B00001000EEB010290F8204092F82050AC421A
:1059C000D6D00020B0BD00BF0120B0BD00007A4499
:1059D00070B59AB040F2F810C2F200004FF40051D6
:1059E000FAF713FF4DF25C20C2F200004FF40051B1
:1059F000FAF70BFF4CF61840C2F200004821FAF704
:105A000004FF4CF6C830C2F200005021FAF7FDFE48
:105A10004FF25C60C2F200004FF40471FAF7F5FE39
:105A20004FF25C20C2F200004FF48061FAF7EDFE05
:105A30004CF65C60C2F200004FF48061FAF7E5FEBC
:105A40004CF2F830C2F200004FF4FA61FAF7DDFED2
:105A500040F28406C2F2000600243480B47003F0E1
:105A6000DFF8C6E90504F46103F0DAF83546C6E963
:105A7000080445F8284F03F0D3F840F20111A6F8C6
:105A800003104FF48071C6F80540A6F80910C6E966
:105A90000B04746303F0C4F87838B06303F0C0F803
:105AA0007838F06303F0BCF87838306403F0B8F865
:105AB0007838C6F80E40A6F80B40C6E91104FBF78B
:105AC00093FF07F08FFDB07A07F0E6FFFAF7A8FF23
:105AD0002846FBF709FD2B6846F6706202AD0446C6
