:020000040800F2
:10000000E00001207102000811680008296700085B
:100010000D6800082D090008899F000800000000F5
:10002000000000000000000000000000ED69000872
:1000300031090008000000001568000889920008D6
:100040008B0200088B0200088B0200088B0200085C
:100050008B0200088B0200088B0200088B0200084C
:100060008B0200088B0200088B0200088B0200083C
:100070008B0200088B0200088B0200088B0200082C
:100080008B0200088B0200088B0200088B0200081C
:100090008B0200088B0200088B0200088B0200080C
:1000A0008B0200088B0200088B0200088B020008FC
:1000B0008B0200088B0200088B0200088B020008EC
:1000C0008B0200088B0200088B0200088B020008DC
:1000D0008B0200087D9F00088B0200088B0200083D
:1000E0008B0200088B0200088B0200088B020008BC
:1000F0008B0200088B0200088B0200088B020008AC
:100100008B0200088B0200088B0200088B0200089B
:10011000259D00088B0200088B0200088B02000856
:100120008B0200088B0200088B0200088B0200087B
:100130008B0200088B0200088B0200088B0200086B
:100140008B0200088B0200088B0200088B0200085B
:100150008B0200088B0200088B0200088B0200084B
:100160008B0200088B0200088B0200088B0200083B
:100170008B0200088B0200088B02000800000000C0
:100180008B0200088B02000800F002F800F060F813
:1001900014A696E8000CB244B344DA4501D100F04D
:1001A00057F8BAE80F000FA696E83000A5EB040553
:1001B00004EB0607AAEB0704A7F101074FEA1515A0
:1001C0004FEA3414A4F10104AC4201D300F040F82A
:1001D00013F0010F18BFFB1A43F0010300F001F800
:1001E000DBE71847BC9A0200DC9A0200103A24BFF1
:1001F00078C878C1FAD8520724BF30C830C144BF8C
:1002000004680C6070470000704700000023002461
:1002100000250026103A28BF78C1FBD8520728BF16
:1002200030C148BF0B607047642900F029817529EF
:1002300000F02681782900F05F81732900F0348373
:10024000002070471FB50CF066F91FBD10B510BD3A
:1002500000F036FB1146FFF7F5FF0BF00DFB00F049
:1002600054FB03B4FFF7F2FF03BC00F057FB0000A0
:100270000948804709480047FEE7FEE7FEE7FEE73A
:10028000FEE7FEE7FEE7FEE7FEE7FEE70448054976
:10029000054A064B704700003593000889010008A5
:1002A000E0EE0020E0000120E0F00020E0F000207F
:1002B00053EA020C00F069802DE9F04B4FF0000684
:1002C000002B1FBFB3FA83F503FA05F424FA05F6F1
:1002D0005E4012BF1643B2FA82F502FA05F4C5F188
:1002E00020051EBF22FA05FC44EA0C04203556EA1C
:1002F000044C4FEA144418BF641C4FF000084FF040
:100300000009904271EB030C39D3002919BFB1FAEF
:1003100081F701FA07F6B0FA80F700FA07F6C7F19D
:1003200020071EBF20FA07FC46EA0C062037B6FB62
:10033000F4FCA7EB0507103F07F01F0BCBF12006DD
:100340002CFA06F60CFA0BFB44BFB3460026202F0E
:10035000A4BF5E464FF0000B5BEA060C08BF4FF0EF
:10036000010B19EB0B0948EB0608ABFB027C06FB03
:1003700002CC0BFB03CCC01B71EB0C01C1E70B469D
:10038000024641464846BDE8F08B13B5084318BF06
:100390004FF0FF300146AFF30080BDE81C407047CE
:1003A0000FB41CB50C0007AA009007D04142A1422F
:1003B00002D32044401E01E04FF0FF30074B7B4446
:1003C00069460190069800F042FA0021002C01D005
:1003D000009A11701CBC5DF814FB0000B30400000F
:1003E00070B5044685690068C10601D5302600E075
:1003F0002026C00707D070BDD4E9012130469047C0
:10040000206A401C20626D1EF6D570BD70B5044692
:1004100085690078C00707D170BDD4E9012120208B
:100420009047206A401C20626D1EF6D570BD70B5E5
:100430000C460546012A05D02878800600D5EA69D1
:10044000002302E0012305E05B1C934202D2E05C42
:100450000028F9D1A869E618C01AA861286A1844CA
:1004600028622846FFF7BCFF04E0D5E9012114F813
:10047000010B9047B442F8D32846FFF7C7FF70BD81
:100480002DE9F0410646002410687529314616A56D
:1004900010D0AFF30080002802DA404213A507E035
:1004A00031688A0701D512A502E0490704D511A5D4
:1004B000012401E0AFF3008000210A2206F12407A5
:1004C00009E0B0FBF2FCB0FBF2F302FB1C003030A1
:1004D00078541846491C0028F3D123462A46304652
:1004E000BDE8F04100F054B9000000002D0000000C
:1004F0002B0000002000000070B504460D46214688
:100500001068AFF300802188090502D50F4A7A44AC
:1005100002E00E4A7A440E32002104F1240305E081
:1005200000F00F060009965D5E54491C0028F7D1C3
:1005300020780023000704D5702D02D009B10223D2
:1005400011322046BDE8704000F022B97EC00000A4
:100550002DE9F05F894604464FF0000ADFF874B1D8
:10056000FB44C0F820A02046E1688847002874D0EA
:10057000252806D0D4E901219047206A401C20623A
:10058000F1E700265F462046E168884720280546B7
:1005900007DB312D05D2781910F8200C08B106437D
:1005A000F1E7B00701D526F00406C4F81CA0002727
:1005B000C4F818A02A2D09D028460BF05FFF38B3E5
:1005C00004EB8708303DC8F8185019E059F8041BAF
:1005D000204604EB87029161E1688847012F0546B8
:1005E00018D1E069002820DA26F020061DE0D8F8AE
:1005F000180000EB800005EB40003038C8F8180008
:100600002046E168884705460BF038FF0028EED108
:10061000012F0AD02E2D08D12046E16888477F1C83
:100620000546022F46F02006C4DBA069002803DA45
:10063000404246F00106A061F00701D026F0100606
:100640006C2D0BD0682D09D04C2D39D06A2D35D0AA
:10065000742D35D07A2D33D016E038E0E1682F467E
:1006600020468847B842054609D16C2F26D04FF462
:100670008060E168064320468847054604E06C2F09
:100680001AD04FF4807006430DB3A5F1410019282C
:1006900002D8203546F400664A46294620462660A0
:1006A0004E46FFF7C1FD80B101280BD0F61D26F0A4
:1006B000070000F1080956E74020E4E78020D8E76A
:1006C0000020D6E706F104094DE7284652E7206AE4
:1006D000BDE8F09F54C0000010B5431C02E010F8C4
:1006E000011B71B18107FAD14FF0013202C88C1A97
:1006F0008C4314EAC211F9D0C01A0A0603D0C01EF6
:1007000010BDC01A10BD0A0401D0801E10BD090220
:10071000FCD0401E10BD02F0FF0343EA032242EA70
:10072000024200F002B84FF0000200B513469446B2
:100730009646203922BFA0E80C50A0E80C50B1F139
:100740002001BFF4F7AF090728BFA0E80C5048BF4D
:100750000CC05DF804EB890028BF40F8042B08BFEB
:10076000704748BF20F8022B11F0804F18BF00F8E7
:10077000012B704770477047704710B500F098F82C
:10078000006810BD10B5044600F092F8046010BD7A
:100790002DE9F0470D4699469246044600F124089B
:1007A0000168880604D5E06921F01001216000E0AD
:1007B0000120A84201DD471B00E00027A1697A194A
:1007C00002EB0900081AA0612078C00602D4204676
:1007D000FFF706FE002608E0D4E901211AF806001A
:1007E0009047206A401C761C20624E45F4DB20783E
:1007F000C0060AD52046FFF7F3FD06E0D4E9012143
:1008000030209047206A401C2062381EA7F1010763
:10081000F4DC07E0D4E9012118F805009047206ACC
:10082000401C2062281EA5F10105F3DC2046FFF7DD
:10083000EDFD2078000602D50220BDE8F0870120FA
:10084000FBE7000001694A1C02610878704700B5A7
:100850008FB0CDE901310021059105497944CDE9F9
:10086000031011466846FFF773FE0FB000BD00008D
:10087000E5FFFFFFD1E900239A4202D2531C0B602F
:100880001070704710B5436913B1AFF3008001E0F9
:10089000FFF7CDFD012010BD127800F124010A7090
:1008A00000224A700122EDE711684FF0FF32E9E7BC
:1008B00000487047100000200048704710000020DA
:1008C0007546FFF7F9FFAE4605006946534620F02E
:1008D0000700854618B020B5FFF7D8FCBDE82040DA
:1008E0004FF000064FF000074FF000084FF0000BEC
:1008F000AC46ACE8C009ACE8C009ACE8C009ACE85B
:10090000C00921F007018D46704710B50446AFF3CA
:1009100000802046BDE81040FFF7A3BC0149182025
:10092000ABBEFEE72600020070470000FEE70000B5
:100930007047000072B600BFFEE700002DE9F041ED
:1009400086B0002643F630000496CDE90266CDE974
:1009500000660596C4F202000168002441F001011E
:1009600001600068C4F2020400F0010005900598DF
:1009700041F20405204610210122CEF200054FF07D
:100980001008012704F06AFB032003906946204603
:10099000CDE90087029604F091FA4EF6FC50CEF2B3
:1009A0000000016841F0807101602E6055F8040C70
:1009B00042F2DC1140F0010045F8040C55F8040C3B
:1009C000C2F2000110F00100087017D1402005901C
:1009D0000598411E0591C8B300BF0598411E0591B9
:1009E000A0B300BF0598411E059178B300BF0598DC
:1009F000411E059150B300BFEAE700BF40F2080076
:100A0000C2F2000000684DF68361C4F21B31A0FB06
:100A1000010128682B686FF0010202EA51411A1A9D
:100A20008A4213D200BF2A68121A8A420ED200BF2D
:100A30002A68121A8A4209D200BF2A68121A8A4208
:100A400004D200BF2A68121A8A42EBD306B0BDE86E
:100A5000F08100002DE9F04184B0002041F204054E
:100A6000C4F2020010210122CEF2000504F0F6FAD1
:100A700042F2DC16C2F20006307840F208084DF669
:100A800083670028C2F20008C4F21B3760D0D8F890
:100A90000000A0FB070128682A68890C01EB81018E
:100AA000121AB2EB410F15D2490000BF00BF2A68ED
:100AB000121A8A420ED200BF2A68121A8A4209D23A
:100AC00000BF2A68121A8A4204D200BF2A68121A8A
:100AD0008A42EBD340F23C14C2F20004204604F0F8
:100AE00069FE2068016821F0400101600021019148
:100AF000C1680191816801910199016841F040014B
:100B000001603078002841D0D8F800006FF0010271
:100B1000A0FB070128682B6802EA51411A1A8A4291
:100B200013D200BF2A68121A8A420ED200BF2A6866
:100B3000121A8A4209D200BF2A68121A8A4204D2C3
:100B400000BF2A68121A8A42EBD304B0BDE8F081D4
:100B50004FF4A070029000BF0298411E002802913D
:100B6000B8D000BF0298411E00280291B2D000BF49
:100B70000298411E00280291ACD000BF0298411E8D
:100B800000280291A6D000BFE6E700BF40200390F6
:100B90000398411E00280391D7D000BF0398411E3F
:100BA00000280391D1D000BF0398411E0028039173
:100BB000CBD000BF0398411E00280391C5D000BFD1
:100BC000E6E700002DE9F04784B00C4640F200084B
:100BD0000021C4F202080191010C164641F20407FB
:100BE000ADF80810ADF80A00404610210122CEF2FF
:100BF000000704F033FA42F2DC15C2F2000528784F
:100C000040F2080A4DF683690028C2F2000AC4F2D5
:100C10001B3900F08980DAF800006FF00102A0FBB8
:100C2000090138683B6802EA51411A1A8A4213D214
:100C300000BF3A68121A8A420ED200BF3A68121AEE
:100C40008A4209D200BF3A68121A8A4204D200BF0F
:100C50003A68121A8A42EBD340461021002204F06F
:100C6000FDF9287800287DD0DAF80000A0FB090102
:100C700038683A68121AB2EB914F15D2890C00BF4E
:100C800000BF3A68121A8A420ED200BF3A68121A9E
:100C90008A4209D200BF3A68121A8A4204D200BFBF
:100CA0003A68121A8A42EBD340F23C10C2F20000BA
:100CB00002A901AA0223009604F0FEFE2978064646
:100CC00000296BD0DAF80000A0FB090138683A6807
:100CD000121AB2EB914F15D2890C00BF00BF3A68CF
:100CE000121A8A420ED200BF3A68121A8A4209D2F8
:100CF00000BF3A68121A8A4204D200BF3A68121A38
:100D00008A42EBD340461021012204F0A7F9002EBD
:100D100060D0FFF79FFE0020002C4FF0000161D152
:100D200004B0BDE8F08700BF402003900398411E47
:100D30000028039190D000BF0398411E0028039122
:100D40003FF48AAF00BF0398411E002803913FF48F
:100D500083AF00BF0398411E002803913FF47CAF8E
:100D600000BFE3E7202003900398411E0028039171
:100D70009AD000BF0398411E0028039194D000BF71
:100D80000398411E002803918ED000BF0398411E96
:100D9000002803913FF488AF00BFE5E720200390CF
:100DA0000398411E00280391ACD000BF0398411E58
:100DB00000280391A6D000BF0398411E002803918C
:100DC000A0D000BF0398411E002803919AD000BF15
:100DD000E6E700BF64B1BDF80400BDF8061041EAC3
:100DE000004001212060084604B0BDE8F08700BF44
:100DF000012004B0BDE8F0872DE9F04F83B08246B2
:100E000000284FF0000000F0658141F201028A1ACB
:100E100012F5805FC0F05E81CDE900104FF0085000
:100E200000210A22FFF7CEFE90B3009802281ED3BD
:100E3000009801264442C2F2002601AF4FF6FF7B24
:100E4000554600BF304639460A22FFF7BBFEF8B1CF
:100E50000198002220EA0B01C5F24132914217D1DC
:100E60000136A119B1F1085F25F8020BEAD101A9F9
:100E700000200A22FFF7A6FE50B101984FF6FF713D
:100E8000002220EA0101C5F24132914200F0E480E3
:100E900041F20407CEF20007FFF7DCFD42F2DC105E
:100EA000C2F2000000784DF68361002840F208008D
:100EB000C2F20000C4F21B3100F010810068A0FBF8
:100EC000010138683A68890C01EB8101121AB2EB12
:100ED000410F15D2490000BF00BF3A68121A8A427A
:100EE0000ED200BF3A68121A8A4209D200BF3A688D
:100EF000121A8A4204D200BF3A68121A8A42EBD30D
:100F0000002001904FF0085000210A22FFF75AFEFE
:100F100098B30098022820D300984FF00009441E8F
:100F20004FF4083501AE4FF6FF7800BF09F1010B11
:100F3000584665F31F3031460A22FFF743FEE0B101
:100F40000198002220EA0801C5F24132914214D1F1
:100F50002AF819005C45D946E8D101A900200A22E7
:100F6000FFF730FE48B101984FF6FF71002220EAEA
:100F70000101C5F2413291426ED0FFF76BFD42F2A2
:100F8000DC10C2F200000078002800F0C98040F2B6
:100F90000800C2F2000000684DF68361C4F21B3104
:100FA000A0FB010138683A68890C01EB8101121A33
:100FB000B2EB410F14D2490000BF3A68121A8A42BC
:100FC0000ED200BF3A68121A8A4209D200BF3A68AC
:100FD000121A8A4204D200BF3A68121A8A42EBD32C
:100FE000002001904FF0085000210A22FFF7EAFD8F
:100FF000E0B3009802281FD300980026441E4FF447
:10100000083B0DF104094FF6FF7800BF751C284618
:101010006BF31F3049460A22FFF7D4FD30B3019825
:10102000002220EA0801C5F2413291421ED12AF87D
:101030001600AC422E46E9D101A900200A22FFF792
:10104000C1FD98B101984FF6FF71002220EA01011D
:10105000C5F24132914209D100990AEB410121F8D0
:10106000020C012003B0BDE8F08F00BFFFF7F2FCD7
:1010700042F2DC10C2F200000078002872D040F288
:101080000800C2F2000000684DF68361C4F21B3113
:10109000A0FB0101880C39683A6800EB8000521A05
:1010A000B2EB400F78D2420000BF3868401A90423D
:1010B00072D200BF3868401A90426DD200BF3868C3
:1010C000401A904268D200BF3868401A90424FF0F0
:1010D0000000E9D303B0BDE8F08F00BF4FF4A0706B
:1010E000029000BF0298411E002802913FF408AF11
:1010F00000BF0298411E002802913FF401AF00BFDB
:101100000298411E002802913FF4FAAE00BF0298F7
:10111000411E002802913FF4F3AE00BFE2E700BF9A
:101120004FF4A070029000BF0298411E0028029167
:101130003FF456AF00BF0298411E002802913FF4D1
:101140004FAF00BF0298411E002802913FF448AF04
:1011500000BF0298411E002802913FF441AF00BF3A
:10116000E2E700BF4FF4A070029000BF0298411E5A
:10117000029188B100BF0298411E029160B100BF88
:101180000298411E029138B100BF0298411E02919F
:1011900010B100BFEAE700BF002003B0BDE8F08F48
:1011A0002DE9F04182B004460020002C009000F0B0
:1011B000C58020604FF0045000210A22FFF702FD95
:1011C00060B1694600200A22FFF7FCFC30B10098AC
:1011D00020F00701B1F1805F00F0838042F2DC165D
:1011E000C2F20006307841F2040540F208084DF6DC
:1011F0008367CEF200050028C2F20008C4F21B3754
:1012000000F0A080D8F80000A0FB070128682A6839
:10121000890C01EB8101121AB2EB410F14D2490083
:1012200000BF2A68121A8A420ED200BF2A68121A18
:101230008A4209D200BF2A68121A8A4204D200BF29
:101240002A68121A8A42EBD34FF0045000210A2276
:10125000FFF7B8FC58B1694600200A22FFF7B2FC3C
:1012600028B1009820F00701B1F1805F39D03078C3
:10127000002800F08980D8F80000A0FB070128684A
:101280002A68890C01EB8101121AB2EB410F15D2C9
:10129000490000BF00BF2A68121A8A420ED200BF5E
:1012A0002A68121A8A4209D200BF2A68121A8A4290
:1012B00004D200BF2A68121A8A42EBD34FF00450BE
:1012C00000210A22FFF77EFC80B1694600200A2235
:1012D000FFF778FC50B1009820F00701B1F1805F72
:1012E00004D12060012002B0BDE8F08130780028F0
:1012F0006AD0D8F80000A0FB0701880C29682A688A
:1013000000EB8000521AB2EB400F77D2420000BFD0
:1013100000BF2868401A904270D200BF2868401A67
:1013200090426BD200BF2868401A904266D200BF3C
:101330002868401A90424FF00000E9D302B0BDE89F
:10134000F08100BF4FF4A070019000BF0198411ED2
:10135000002801913FF478AF00BF0198411E00289A
:1013600001913FF471AF00BF0198411E0028019127
:101370003FF46AAF00BF0198411E002801913FF47D
:1013800063AF00BFE2E700BF4FF4A070019000BF61
:101390000198411E0028019190D000BF0198411E84
:1013A000002801913FF48AAF00BF0198411E002838
:1013B00001913FF483AF00BF0198411E00280191C5
:1013C0003FF47CAF00BFE3E74FF4A070019000BF93
:1013D0000198411E019188B100BF0198411E019101
:1013E00060B100BF0198411E019138B100BF019862
:1013F000411E019110B100BFEAE700BF002002B01A
:10140000BDE8F0812DE9F04182B004460020002CB7
:10141000009018BF20604FF0005000210A22FFF713
:10142000D1FB58B1694600200A22FFF7CBFB28B157
:10143000009840F2D241884200F0808042F2DC16EF
:10144000C2F20006307841F2040540F208084DF679
:101450008367CEF200050028C2F20008C4F21B37F1
:1014600000F0A280D8F80000A0FB070128682A68D5
:10147000890C01EB8101121AB2EB410F14D2490021
:1014800000BF2A68121A8A420ED200BF2A68121AB6
:101490008A4209D200BF2A68121A8A4204D200BFC7
:1014A0002A68121A8A42EBD34FF0005000210A2218
:1014B000FFF788FB50B1694600200A22FFF782FB44
:1014C00020B1009840F2D241884237D030780028CD
:1014D00000F08C80D8F80000A0FB070128682A687B
:1014E000890C01EB8101121AB2EB410F14D24900B1
:1014F00000BF2A68121A8A420ED200BF2A68121A46
:101500008A4209D200BF2A68121A8A4204D200BF56
:101510002A68121A8A42EBD34FF0005000210A22A7
:10152000FFF750FB90B1694600200A22FFF74AFB03
:1015300060B1009840F2D241884207D1002C4FF0B0
:10154000010018BF216002B0BDE8F08130780028AA
:101550006ED0D8F80000A0FB070128682A68890C23
:1015600001EB8101121AB2EB410F15D2490000BF05
:1015700000BF2A68121A8A420ED200BF2A68121AC5
:101580008A4209D200BF2A68121A8A4204D200BFD6
:101590002A68121A8A42EBD3002C67D000990020E7
:1015A000216002B0BDE8F0814FF4A070019000BF4F
:1015B0000198411E002801913FF476AF00BF0198C9
:1015C000411E002801913FF46FAF00BF0198411EFA
:1015D000002801913FF468AF00BF0198411E002828
:1015E00001913FF461AF00BFE2E700BF4FF4A0708C
:1015F000019000BF0198411E002801913FF48CAF7B
:1016000000BF0198411E002801913FF485AF00BF43
:101610000198411E002801913FF47EAF00BF019860
:10162000411E002801913FF477AF00BFE2E700BF01
:101630004FF4A070019000BF0198411E0028019155
:10164000AAD000BF0198411E00280191A4D000BF7C
:101650000198411E002801919ED000BF0198411EB3
:101660000028019198D000BFE6E700BF002002B03B
:10167000BDE8F0812DE9F04383B045F245664FF0B7
:1016800044540028C5F241764FF0000008BF4FF0E7
:10169000405404BF44F65946C4F24E160190204609
:1016A00000210A22FFF78EFA40B101A900200A2288
:1016B000FFF788FA10B10198B0427AD042F2DC17F5
:1016C000C2F20007387841F2040540F208094DF6ED
:1016D0008368CEF200050028C2F20009C4F21B386C
:1016E00000F09880D9F80000A0FB080128682A685B
:1016F000890C01EB8101121AB2EB410F14D249009F
:1017000000BF2A68121A8A420ED200BF2A68121A33
:101710008A4209D200BF2A68121A8A4204D200BF44
:101720002A68121A8A42EBD3204600210A22FFF7C8
:1017300049FA40B101A900200A22FFF743FA10B18B
:101740000198B04235D03878002800F08580D9F86B
:101750000000A0FB080128682A68890C01EB8101C0
:10176000121AB2EB410F15D2490000BF00BF2A6820
:10177000121A8A420ED200BF2A68121A8A4209D26D
:1017800000BF2A68121A8A4204D200BF2A68121ABD
:101790008A42EBD3204600210A22FFF713FA68B1F0
:1017A00001A900200A22FFF70DFA38B10198B042D2
:1017B00004D1012003B0BDE8F08300BF38780028D1
:1017C0006AD0D9F80000A0FB0801880C29682A68B3
:1017D00000EB8000521AB2EB400F77D2420000BFFC
:1017E00000BF2868401A904270D200BF2868401A93
:1017F00090426BD200BF2868401A904266D200BF68
:101800002868401A90424FF00000E9D303B0BDE8C9
:10181000F08300BF4FF4A070029000BF0298411EF9
:10182000002802913FF480AF00BF0298411E0028BB
:1018300002913FF479AF00BF0298411E0028029147
:101840003FF472AF00BF0298411E002802913FF49E
:101850006BAF00BFE2E700BF4FF4A070029000BF83
:101860000298411E0028029194D000BF0298411EA8
:10187000002802918ED000BF0298411E00280291DC
:101880003FF488AF00BF0298411E002802913FF448
:1018900081AF00BFE4E700BF4FF4A070029000BF2B
:1018A0000298411E029188B100BF0298411E029128
:1018B00060B100BF0298411E029138B100BF02988A
:1018C000411E029110B100BFEAE700BF002003B043
:1018D000BDE8F08341F6B030C0F60100704700006B
:1018E0002DE9F0472DED108B0E4602F0FD01012988
:1018F0003ED10546E0B3042E3AD3CBB3B5EE400A51
:10190000B0EE408AF1EE10FA32DDF5EE400AB0EEAC
:10191000609AF1EE10FA2BDDB6EE00AA28EE0A0A64
:10192000B4EE409AF1EE10FA22DA18464FF4047140
:1019300091469846FEF7F7FE88EE09DA00EE109A17
:10194000B8EE400AB01E2DEE00BA00EE100AB8EE56
:10195000400AB4EE40BAF1EE10FA00F3AD81042E65
:1019600006F0030A0ED29FEDDF0A002035E000BF2B
:10197000002B00F0A18118464FF40471FEF7D3FE4E
:101980009AE100BF9FEDD70A26F00301A5F10802F6
:10199000002000BF32F9083F043001EE103AB2F9DE
:1019A0000230B8EEC11A30EE010AB2F9044001EE7D
:1019B000103AB8EEC11AB2F9067030EE010A01EE23
:1019C000104AB8EEC11A30EE010A01EE107AB8EEF4
:1019D000C11A814230EE010ADCD1BAF1000F1FD0EA
:1019E00035F91010BAF1010F01EE101AB8EEC11A54
:1019F00030EE010A14D005EB4000B0F90210BAF144
:101A0000020F01EE101AB8EEC11A30EE010A07D02B
:101A1000B0F9040001EE100AB8EEC11A30EE010A66
:101A200001EE106A9FEDB02AB8EE411A80EE01CAAD
:101A300029EE020A80EE088AB0EE480A0AF0A8F9F8
:101A4000B0EE409AB0EE480A0AF086FB042EB1EEE2
:101A5000402A80F03781DFEDA30AB7EE003A00207C
:101A6000B0EE601AB0EE605ABAF1000F00F081805B
:101A700035F9101025EE024A23EE096A36EE044AC3
:101A800006EE101AB8EEC66A36EE4C6A26EE037AF7
:101A900026EE056A20EE033A25EE095AC1B2FF2967
:101AA00035EE033A14D123EE035A64EE041A31EEF4
:101AB000855AF7EE002AB5EE405AF1EEC51AF1EE5E
:101AC00010FAC8BFF0EE612A83EE223A84EE224A71
:101AD00077EE200ABAF1010F36EE011A49D0411C07
:101AE00035F9112023EE022A05EE102AB8EEC55A68
:101AF00035EE4C5A25EE046A25EE035A24EE097A97
:101B000020EE040A23EE093AC9B237EE022AFF2971
:101B100033EE000A14D120EE003A22EE024A34EEEF
:101B2000033AB7EE007AB5EE403AB1EEC34AF1EEB1
:101B300010FAC8BFB0EE447A80EE070A82EE072A98
:101B400076EE200ABAF1020F35EE011A11D005EB3C
:101B50004000B0F9040003EE100AB8EEC33A33EEC9
:101B60004C3A23EE022A23EE000A72EE200A30EEEF
:101B7000011AB0EEE00AB0EEC12A9FEDC43A32EE8F
:101B8000000AB4EE430AF1EE10FAC0F29580B1EE0D
:101B9000410A09F0A7FFB1EE400A80EE088A4146EB
:101BA000B5EE408AF1EE10FA33DA3DEE088AB5EE72
:101BB000408AF1EE10FA2CDA3DEE088AB5EE408A42
:101BC000F1EE10FA25DA3DEE088AB5EE408AF1EE24
:101BD00010FA1EDA3DEE088AB5EE408AF1EE10FAF0
:101BE000E3DB16E038EE4D8AB4EE4D8AF1EE10FAE2
:101BF00014DB38EE4D8AB4EE4D8AF1EE10FA0DDBAF
:101C000038EE4D8AB4EE4D8AF1EE10FA06DB38EE6E
:101C10004D8AB4EE4D8AF1EE10FAE3DAF01E00EED2
:101C2000100AB7EE00EAB8EE409AB4EE4E8AF1EE32
:101C300010FA39EE4BFA1BDA3DEE088AB4EE4E8A02
:101C4000F1EE10FA14DA3DEE088AB4EE4E8AF1EEA7
:101C500010FA0DDA3DEE088AB4EE4E8AF1EE10FA73
:101C600006DA3DEE088AB4EE4E8AF1EE10FAE3DBB6
:101C7000B4EE4F8AF1EE10FA1EDC3FEE0E0A60EE73
:101C80000A8AF4EE488AF1EE10FA40F3D18038EE79
:101C9000C80A80EE0D0A0AF023F920EE0D0A30EE94
:101CA000088A3DEE080AB4EE4F0AF1EE10FA40F34E
:101CB000AF804146BCE000BF0020BDEC108BBDE80A
:101CC000F08700BFDFED070AB7EE004A26F00301F8
:101CD0002A1D0020B0EE601AB0EE446AB0EE607AC1
:101CE0004CE000BF00000000DB0FC94032F9043CAB
:101CF00032F9027C07EE903AF8EEE77A77EECC7A8A
:101D000027EE877A37EE011A07EE107AB8EEC77A17
:101D100027EE866A37EE4C7A32F9083B36EE206AB7
:101D200067EE250A27EE267A37EE011A07EE103AFB
:101D3000B8EEC77A37EE4C7A32F9063C30EE866A56
:101D400067EE230A27EE247A37EE011A07EE103ADF
:101D5000B8EEC77A37EE4C7A30EE866A67EE210A23
:101D600070EE860A27EE226A043036EE011A8142AE
:101D7000B0EE436AB0EE457A3FF476AE27EE023A13
:101D800026EE095A75EE035A20EE063A27EE095A56
:101D900075EE036A26EE823A25EE895A75EE033A0D
:101DA00020EE253A26EE895A75EE034A24EE823A51
:101DB00023EE895A75EE031A20EE233A24EE895A4F
:101DC00075EE032A22EE823A21EE895AC31C35EEC3
:101DD000033ADBB220EE215A62EE897AFF2B37EE0E
:101DE000855A83D165EE057A23EE03EA7EEE277AE3
:101DF000B1EEE7EAF5EE407AF0EE447AF1EE10FA51
:101E0000C8BFF0EE4E7A85EE275A83EE273A6DE78B
:101E100030EE681A38EE682AB0EEC11AB0EEC22A67
:101E2000B4EE421A4146F1EE10FAB8BFB0EE408A65
:101E3000B4EE4E8AF1EE10FA4FF00000C0F24F817E
:101E40003BEE080AB4EE490AF1EE10FA00F34781BE
:101E500047F6FF70C8F200009FEDA30A9FEDA35A5A
:101E60009FEDA36A48F2000CC8604FF400460020C2
:101E700047F6FF73B1EE041AB9EE002AB0EE083A45
:101E8000BEEE004ACFF6FF7C2BE000BFBD378635A3
:101E9000B5EE407AF0EE440AF1EE10FAA8BFF0EE8B
:101EA0004A0A77EE200AFDEEE00AB4EE467A10EE1A
:101EB000902AF1EE10FA1FB2D8BF6246BA4201EB87
:101EC00040077A82BCBF8A81134637B214B2BC4243
:101ED00000F10200C4BFCA811646B0F5807F00F051
:101EE000F38082B207EE102AB8EE477A2BEE077A1B
:101EF00087EE007A38EE077AFDEEC70A10EE902AD8
:101F000005EB420434F9027CF8EE600A37EE607AA1
:101F100000EE907AB4F9027035F9122002EE907A50
:101F2000F8EEE00A01EE902AF8EEE22AF8EEE11A65
:101F300070EEE23A67EE233A71EEA14A73EEE43AAC
:101F400061EE814A70EEA05AB4F9042074EEE54ABD
:101F500062EE825A75EEA44A05EE902A61EE831A6B
:101F6000F8EEE55A70EEE10A62EE831A67EE076A50
:101F700075EEA44A70EEA10A27EE267A64EEA64A10
:101F800070EEE50A74EEA33A20EE877A37EE237AF4
:101F900027EE047A37EE4C7AB4EE457AF1EE10FA79
:101FA0001EDAB5EE407AF0EE440AF1EE10FAA8BF60
:101FB000F0EE4A0A77EE200AFDEEE00AB4EE467A29
:101FC00010EE902AF1EE10FA1FB2D8BF6246BA4264
:101FD00001EB40073A82BCBF8A81134605E000BF8F
:101FE00001EB400747F6FF723A8237B214B2BC42A7
:101FF000C4BFCA811646421C92B207EE102AB8EE40
:10200000477A2BEE077A87EE007A38EE077AFDEEF4
:10201000C70A10EE902A05EB420737F9024CF8EE9A
:10202000600A37EE607A00EE904AB7F9024035F95F
:10203000122002EE904AF8EEE00A01EE902AF8EE45
:10204000E22AF8EEE11A70EEE23A67EE233A71EE18
:10205000A14A73EEE43A61EE814A70EEA05AB7F9F4
:10206000042074EEE54A62EE825A75EEA44A05EE4B
:10207000902A61EE831AF8EEE55A70EEE10A62EEFC
:10208000831A67EE076A75EEA44A70EEA10A27EE7E
:10209000267A64EEA64A70EEE50A74EEA33A20EEC4
:1020A000877A37EE237A27EE047A37EE4C7AB4EE4D
:1020B000457AF1EE10FAFFF6EBAE01EB400747F67A
:1020C000FF727A8201E700BF4FF4807048800120E0
:1020D00081F8019081ED018A81ED02BA0870BDECB2
:1020E000108BBDE8F08700BF00007F4300FEFF4675
:1020F000000000C72DE9F04F81B02DED108B88B0A6
:102100001446002818BF002C02D134B909E000BFE2
:102110000278002A18BF00290AD120464821FEF77C
:1021200002FB002008B0BDEC108B01B0BDE8F08FC1
:102130008278043A12F1030FEFD30B68002BECD036
:102140000A79002AE9D093ED000AB5EE400AF1EED3
:1021500010FAE2DD93ED010AB5EE400AF1EE10FA55
:10216000DBDD012A2ED1CDE9050120464821FEF70D
:10217000DAFADDF814909FEDD70A99F80280D9F8C1
:102180000410B8F1000F616084F8018038D0DDF8E8
:1021900018C009F1180B9CF804A0DCF800E004F169
:1021A0001805BAF1010F08F00300CDE9028004958B
:1021B0002AD19EED012AB8F1040F7BD29FEDC51AFA
:1021C0000023D7E0013A083393ED000AB5EE400A48
:1021D000F1EE10FA99DD93ED011AB5EE401AF1EE29
:1021E00010FA92DD13ED021AB4EE410AF1EE10FA84
:1021F0007FF78BAF013A03F10803E5D1B3E700BFE6
:10220000DDF818C016E300BF0EEBCA009EED002AF1
:10221000B8F1010FA0F10400019040F0F5809FEDAE
:10222000AD1A0023DDF808805FEAC87000F005826F
:102230000BEB031292ED013A05EB0313B4EE423AB5
:10224000F1EE10FA40F3CA81BAF1000F2DD0AAF1D5
:1022500002010EF1200717ED062AB4EE423AF1EE24
:1022600010FA40F3BF8101B317ED042AB4EE423AED
:10227000F1EE10FA40F3B881012916D017ED022AC9
:10228000B4EE423AF1EE10FA40F3B08102290CD0DC
:1022900097ED002AB4EE423AF1EE10FA40F3A7812E
:1022A0000439481C07F12007D5D1019890ED002A88
:1022B000AFE100BF6FF030019FED861A01EA081709
:1022C0000026B6EE003A002309EB060191ED084A1C
:1022D000A51922EE044A24EE034A85ED084A24EEAD
:1022E000044AC86934EE011A91ED0C4A0A7EE8618D
:1022F000486A22EE044A2A7624EE034A686291F87C
:10230000280085ED0C4A24EE044A34EE011A91EDC2
:10231000104A85F82800486B22EE044ACA6A6863AE
:1023200091F8380024EE034A85ED104A24EE044A61
:10233000EA6285F83800486C34EE011A91ED144ACF
:10234000CA6B686491F8480022EE044AEA6324EEFE
:10235000034ACA6C85F84800486D85ED144A24EE9E
:10236000044A403634EE011AB74203F10403EA642A
:102370006865A9D10398049D002800F05E810BEBED
:10238000031090ED023A466805EB031222EE034A71
:10239000B6EE003A1901566024EE034A039E1BF87C
:1023A0000170C06882ED024A24EE044A012E34EE28
:1023B000011A6F54D06000F04081581C0BEB0011E3
:1023C00091ED024A020122EE044A05EB001024EED0
:1023D000033A1BF80270D1F804E0C96880ED023AB4
:1023E00023EE033A022E33EE011AAF54C0F804E094
:1023F000C16000F02281981C0BEB001292ED013AB3
:1024000005EB001305E100BFAAF102009FED311AB0
:1024100008F0FE0807900EF120000023B6EE003A07
:102420001EE000BF9EED016A25EE055A35EE011A49
:1024300096ED025A05EB0712317882ED014A26EE3D
:10244000054A24EE034A1170F16882ED024A24EE37
:10245000044A0233434534EE011AD1603FF4E2AE40
:102460000BEB031696ED014AB4EE424AF1EE10FA78
:1024700032DD079DBAF1000F074625D017ED065A49
:10248000B4EE454AF1EE10FA2ADDEDB117ED045A2B
:10249000B4EE454AF1EE10FA24DD012D14D017ED0B
:1024A000025AB4EE454AF1EE10FA1DDD022D0BD0B2
:1024B00097ED005AB4EE454AF1EE10FA15DD043DF1
:1024C000691C07F12007D9D10199049D91ED005AAB
:1024D0001EE000BF000000009EED015A18E000BFA2
:1024E000183F02E0103F00E0083F17ED026A049D2C
:1024F00034EE467A35EE465A87EE055A97ED016A74
:1025000017ED017A36EE476A25EE065A35EE075A80
:10251000317805EB031282ED014A96ED024A43F051
:1025200001071170F1680BEB071625EE045A96EDC2
:10253000014A25EE035AB4EE424AF1EE10FAD16098
:1025400082ED025A7FF76EAFBAF1000F27D00799DC
:10255000054615ED066AB4EE464AF1EE10FA23DDA3
:10256000E9B115ED046AB4EE464AF1EE10FA1DDD4C
:10257000012914D015ED026AB4EE464AF1EE10FAC4
:1025800016DD02290BD095ED006AB4EE464AF1EE55
:1025900010FA0EDD04394A1C05F12005D9D1019944
:1025A00091ED006A17E000BF183D02E0103D00E029
:1025B000083D15ED027A74EE470A36EE476A80EE62
:1025C000866A95ED017A55ED010A37EE607A26EEBE
:1025D000076A36EE206A049D26E700BF9EED012AB9
:1025E00017E000BF183F02E0103F00E0083F17ED82
:1025F000024A33EE445A32EE442A85EE022A97ED1F
:10260000014A17ED015A34EE454A22EE042A32EE11
:10261000052A83ED013A92ED023A107822EE032A60
:10262000B6EE003A22EE032A1870D06883ED022A33
:1026300022EE022A32EE011AD860B6EE002A21EE0E
:10264000021AB1EEC11AB8F1000F84ED031A00F0BE
:10265000F1809FEDB18A6FF030009FEDB09A9FED51
:10266000B0AA039E00EA08174FF0000BB0EE48BA7C
:10267000B0EE48CA18E000BFB4EE4BEAF1EE10FA33
:10268000B8BFB0EE4EBADDF80880B4EE4CEAF1EE19
:1026900010FAC8BFB0EE4ECA079940F2FF708142EF
:1026A0000BF1010B80F0C4801FFA8BF000EE100AD2
:1026B000B8EE400A20EE090AB8F1040F20EE0ADA5B
:1026C000079005D24FF00008B0EE48EA5EE000BF88
:1026D0004FF0000A4FF00008B0EE48EA04EB0A0998
:1026E00099F8180099ED091A00EE100AB8EE400AA0
:1026F00020EE0D0A99ED08FA30EE010A09F048FBC8
:1027000099F828002FEE000A30EE0EEA00EE100ACB
:10271000B8EE400A99ED0D1A20EE0D0A99ED0CFA6B
:1027200030EE010A09F034FB99F838002FEE000A68
:1027300030EE0EEA00EE100AB8EE400A99ED111ADA
:1027400020EE0D0A99ED10FA30EE010A09F020FB97
:1027500099F848002FEE000A30EE0EEA00EE100A5B
:10276000B8EE400A99ED151A20EE0D0A99ED14FA0B
:1027700030EE010A09F00CFB2FEE000A0AF1400AC4
:1027800030EE0EEA574508F10408A7D1002E42D0DA
:102790004FEA0810285C05EB081500EE100AB8EEA9
:1027A000400A95ED031A20EE0D0A95ED02FA30EE7F
:1027B000010A09F0EDFA2FEE000A012E30EE0EEAC2
:1027C00028D0287C95ED071A00EE100AB8EE400AD2
:1027D00020EE0D0A95ED06FA30EE010A09F0D8FA5E
:1027E0002FEE000A022E30EE0EEA13D095F82000EC
:1027F00095ED0B1A00EE100AB8EE400A20EE0D0A15
:1028000095ED0AFA30EE010A09F0C2FA2FEE000A3D
:1028100030EE0EEA049DDDE9059C5FEA0B407FF493
:102820002BAFDDF80880B0EE4ECAB0EE4EBA33E7FB
:102830003CEE4B0A99F8030084ED020A002845D0CB
:1028400001209CF80420A07099ED041A99ED050A66
:10285000DCF80000012A84ED041A31D090ED002A42
:10286000B4EE421AF1EE10FA2ADDBAB3931E00F16B
:10287000200111ED062AB4EE421AF1EE10FA33DD12
:102880006BB311ED042AB4EE421AF1EE10FA2DDD0D
:10289000012B24D011ED022AB4EE421AF1EE10FA07
:1028A00026DD022B1BD091ED002AB4EE421AF1EE88
:1028B00010FA1EDD043B5F1C01F12001D9D10EE0AE
:1028C00090ED011A20EE010A84ED050A0120207026
:1028D00008B0BDEC108B01B0BDE8F08F002200EB1A
:1028E000C20010ED011AEDE7183902E0103900E0DE
:1028F000083911ED023A31EE431A32EE432A81EEE5
:10290000021A91ED012A11ED013A32EE432A21EE2D
:10291000021A31EE031AD5E700000000DB0FC940B0
:102920000000003A10B540F27004C2F2000400202A
:102930006060A0602070607040F29410A11CC2F230
:102940000000012203F0CCFD002808BF10BDA068E4
:102950000130A06010BD000013460A460146002861
:102960004FF0000018BF002A00D1704780B540F238
:102970009410C2F2000003F00BFEB0FA80F04009A0
:10298000BDE8804070470000F0B599B040F2840681
:10299000C2F20006746941F62F4201AD0F460346AC
:1029A000C0F60102284660210094FDF7F9FC284694
:1029B000FDF792FE4FF6FF71884238BF0146284668
:1029C0003222FFF7C9FF0020B0710420307037B108
:1029D000707820B10020F071384607F09DF819B0EA
:1029E000F0BD00002DE9F04F89B040F28405C2F23D
:1029F00000054EF66C47D5ED0B0A02464CF66C000E
:102A0000C2F200079FED2F0AC2F200004FF480517E
:102A10003B46FEF765FF08B338786C8900284FF015
:102A20000000ADF8224000F07F827988B1F5807F08
:102A300040F07A82B7F90CB0B7F90E00BBF1000F85
:102A400048BFCBF1000B5845C8BF834654B1B4F51D
:102A5000806F16D94FF48064DEE100BF002009B01A
:102A6000BDE8F08F0FF2C8400DF1220106F06CFCBA
:102A7000002800F0CF81BDF822406C81B4F5806F52
:102A8000E8D8002C00F03E824EF66C0ABBF1000F35
:102A9000C2F2000A00F0CA81B7F8029045F256521D
:102AA000601EA9F1010104F00308042CC5F255527F
:102AB000CDE9061B08D24FF0000CB8F1000F40F032
:102AC000FF80BBE18096984A09EB490103396FF01A
:102AD0000303059103EB8901049124F003014942AA
:102AE00003916FF00101CDF8048001EB49014FF033
:102AF000000C07F110080094029100BFBCFBF0F13C
:102B00004FF0010A8FB21AFA81F601FB10C538F9AD
:102B100017704E4538BF314689B2441B38F9111041
:102B20007C4305FB01414FF0EA0E91FBF0F1C1EB54
:102B3000C11191FBFBF17F3151FB02F101EBD17B24
:102B40006FF013011BF1140FD8BF8B460699BBF130
:102B5000EA0F6144B1FBF0F44FF0EA02A6B21AFAB0
:102B600084F704FB1011A8BF934638F916604F454F
:102B700038BF3C46A4B2451A38F91440754301FBEE
:102B80000451079A91FBF0F1C1EBC11191FBF2F1F5
:102B900045F256527F31C5F2555251FB02F101EB1D
:102BA000D1756FF0130115F1140FD8BF0D460299BE
:102BB000EA2D6144B1FBF0F4A8BF7546A7B21AFA3A
:102BC00084FE04FB101138F91770CE4538BF7446E7
:102BD000A4B2461A38F91440774301FB0471079AEE
:102BE00091FBF0F14FF0EA0EC1EBC11191FBF2F154
:102BF00045F256527F31C5F2555251FB02F101EBBD
:102C0000D1716FF0130211F1140FD8BF1146059A5C
:102C1000EA2902EB0C07B7FBF0F6A8BF71461AFAD7
:102C200086F206FB1077B4B24A4538BF164638F92B
:102C30001440B6B2C21B38F91660624307FB062285
:102C40000BF1140792FBF0F2DDF81CB04EF66C0AA3
:102C5000C2EBC212C2F2000A92FBFBF20AEB0306BD
:102C60001431B17102F17F0145F25652C5F255524D
:102C700051FB02F1377105F1140701EBD171777146
:102C800011F1140F6FF01304D8BF2146EA29A8BF31
:102C900071461431F17103990433194404310499D4
:102CA0008C447FF42BAF009C4EF66C47DDF804801B
:102CB00003F1040CC2F20007B8F1000F00F0BE806F
:102CC000069901250CFB01F1B1FBF0F307F1100EA1
:102CD00015FA83F503FB10119AB24D4538BF2B4608
:102CE0003EF912509BB2461A3EF91330754301FB70
:102CF000035145F2565291FBF0F1C5F25552C1EB2A
:102D0000C11191FBFBF16FF013037F3151FB02F115
:102D100001EBD17111F1140FD8BF1946EA26EA2947
:102D2000A8BF31461431B8F1010F0AF80C1000F0B9
:102D3000858006990CF101025143B1FBF0F5059233
:102D400022460124CDF8048014FA85F805FB101101
:102D50001FFA85FBC84538BF45463EF91BB0ADB2EA
:102D6000441A3EF9158004FB0BF501FB0851079F3F
:102D700091FBF0F11446C1EBC11191FBF7F145F263
:102D80005652C5F255527F3151FB02F101EBD17120
:102D900011F1140FC8BF0B46EA2BB8BF1E460199AC
:102DA000059B022906F114010AF80310069945D083
:102DB0000CF1020808FB01F3B3FBF0F5012105FB60
:102DC000103311FA85F11646AAB249453EF9122090
:102DD00038BF0D46A9B2A0EB030C3EF911100CFB55
:102DE00002F203FB012191FBF0F0C0EBC01090FB5D
:102DF000F7F07F3050FB06F000EBD07010F1140FAD
:102E0000D8BF6FF01300EA28A8BFEA2014300AF8F0
:102E1000080013E04FF40074ADF822404EF66C0A3F
:102E2000BBF1000FC2F2000A7FF436AE4EF66C0022
:102E3000C2F2000021463E22FDF76DFC610861D020
:102E4000481E032801F0030002D2002132E000BF37
:102E500021F00302002100BFCB43E718BFB21AF8EC
:102E600007601AF801500AF801600AF807504F1C71
:102E7000FF4327440AEB0103BFB21AF807605D78ED
:102E80005E700AF807508F1CFF432744BFB21AF840
:102E900007609D789E700AF80750CF1CFF432744B7
:102EA000BFB21AF80760DD7804318A42DE700AF892
:102EB0000750D1D130B3CA43224492B21AF802303B
:102EC0001AF8017001280AF801300AF8027019D0C6
:102ED0004A1CD34323449BB21AF803701AF80260C9
:102EE00002280AF802700AF803600BD0881CC1435C
:102EF000214489B21AF801201AF800300AF800209B
:102F00000AF8013041F6D444C0F6010420460021FD
:102F100008F0C4FCBDF822304EF66C02C2F200028A
:102F20002046002108F062FD09B0BDE8F08F00BF27
:102F300073300000B0B59AB040F2DC10C2F200006D
:102F40004FF40051FDF7EFFB4CF66C00C2F20000AD
:102F50004FF40051FDF7E7FB4CF22820C2F20000CD
:102F60004821FDF7E0FB4CF2E010C2F200004821DE
:102F7000FDF7D9FB4EF66C40C2F200004FF404712D
:102F8000FDF7D1FB4EF66C00C2F200004FF48061F9
:102F9000FDF7C9FB4CF26C40C2F200004FF48061B7
:102FA000FDF7C1FB40F28404C2F200040025258035
:102FB00002F05AF8C4E90405A56102F055F844F896
:102FC000245F44E9020502F04FF840F2011124F8B1
:102FD000221C44F8205CC4E90105E56002F044F8D5
:102FE0007838206102F040F87838606102F03CF8EF
:102FF0007838A06144F81A5C06F03AFBFDF79EFCB5
:103000002046FEF7FFF9236804F81C0C02AC844646
:103010000AA220466021CDF800C0FDF7C1F9204684
:10302000FDF75AFB4FF6FF71884238BF0146204634
:103030003222FFF791FC1AB0B0BD00BF475F464C8B
:103040004F572C626F6F742C69643D30782530388F
:103050006C582C6F6E6C696E653D25752C66733DE2
:10306000313235303030302C6E3D343039360D0A47
:10307000000000002DE9F04F9DB001F0F5FF804603
:1030800000208DF812000DF113000DF1120106F071
:1030900079FB40F284070028C2F2000700F0348177
:1030A00001F0E2FF9DF8131004291BD0022911D072
:1030B000012925D1796B411A7829C0F02581397809
:1030C000786311F0FB0F00F0BB800FF224701F211A
:1030D00017E100BFB9780122012908BF03228DF84A
:1030E000122012E0F96B411A7829C0F00D8139786D
:1030F000F86311F0FB0F35D00FF2B460242100E12A
:1031000001F0FE01022940F0FF80B96B411A7829D5
:10311000C0F0FA809DF81230B86303F0FD01012978
:1031200040F0F2807878BB70012809D138780138F6
:10313000022805D8012038710FF20076CEE000BFDA
:103140007879FB70012840F0C7801846FFF74AFCE9
:10315000BB780FF2E0660FF2D461002808BF0E467C
:10316000BCE000BF0FF270610546019008461721D0
:103170003222FFF7F1FB022078700120012406F0D3
:1031800079FC05F59670386343F27430ADF80C00A5
:1031900000208DF80E0041F68C50C0F60100FC8036
:1031A00090E8100641F6255BC56805A9067CC0F6C7
:1031B000010BCDF808800DF1140881E8100603A872
:1031C0005946424608958DF8246008F0CBFB43F23F
:1031D0007440ADF80C0000208DF80E0005A880E8C2
:1031E000100603A85946424608958DF8246008F059
:1031F000B9FB43F27450ADF80C0000208DF80E00BE
:1032000005A880E8100603A859464246DDF8088064
:1032100008958DF8246008F0A5FB41F6DA40C0F669
:103220000100002108F03AFB41F65340C0F60100CE
:1032300008F074FB032038700198386164E000BF27
:103240000FF2CC510646084612213222FFF784FBCA
:10325000012401207C7006F00DFC06F596703863A1
:10326000B87841F62555F8700020387141F6504085
:10327000C0F6010541F6CC42C0F60100C0F60102DD
:103280002946FC8008F06EFB41F65A4041F6A64202
:10329000C0F60100C0F60102294608F063FB41F6C2
:1032A0005D4041F6B142C0F60100C0F60102294678
:1032B00008F058FB41F6D440C0F60100002108F0A8
:1032C000EDFA41F64940C0F6010008F027FB032063
:1032D00038703E6118E000BF0FF2485641F60842D0
:1032E00005ADC0F60102284640210096FDF758F8CA
:1032F0002846FDF7F1F94FF6FF71884238BF0146C5
:1033000028463222FFF728FBF879012809D101F07D
:10331000ABFE396B401A04D40020002406F0AAFB4F
:10332000FC713878042800F0EF80002840F08E808F
:10333000B86AB8EB000000F1E7800FF2085008F01F
:10334000EDFA41F6255541F65040C0F6010541F62B
:10335000CC42C0F60100C0F60102294608F002FB8B
:1033600041F65A4041F6A642C0F60100C0F60102FD
:10337000294608F0F7FA41F65D4041F6B142C0F641
:103380000100C0F60102294608F0ECFA43F274305D
:10339000ADF80C0000208DF80E0041F68C50C0F600
:1033A0000100D0E90046CDF80880D0E9028B05A9DC
:1033B00090F8109003AF0DF1140A81E850013846DF
:1033C00029465246CDF820B08DF8249008F0CAFA6C
:1033D00043F27440ADF80C0000208DF80E0005A8F3
:1033E00080E850093846294652468DF8249008F066
:1033F000B9FA43F27450ADF80C0000208DF80E00BD
:1034000005A880E850093846294652468DF8249090
:1034100008F0A8FA002006F02DFB41F6DA40C0F6CD
:103420000100002108F03AFA41F65340C0F60100CD
:1034300008F074FA029840F2840100F5FA60C2F2D2
:10344000000188621DB0BDE8F08F00BF3969B8EB9C
:10345000010159D4032839D1B879002852D0387ADB
:1034600038B907F12400FDF7CDFF0028387200F0CD
:10347000058100200026FEF7FDF8002800F0C2803C
:103480004CF22820C2F200004821FDF74CF94CF222
:10349000E010C2F200004821FDF745F978780128D4
:1034A0000AD14EF66C40C2F200004FF40471FDF7F1
:1034B0003AF900207871F8620120C7F81C80387052
:1034C00008F1020038611DB0BDE8F08F002603A8A6
:1034D0000396FDF765FE08B30398C1074AD1F86962
:1034E000A8EB0000B0F5FA6F12D341F61D5041F67B
:1034F0009E41C0F60100C0F60101FFF745FA1DB07C
:10350000BDE8F08F002038701DB0BDE8F08F00BF1F
:1035100008F1020038611DB0BDE8F08F7C6941F60A
:103520002F4241F6FF4305ADC0F60102C0F601038C
:10353000284660210094FCF733FF2846FDF7CCF8BD
:103540004FF6FF71884238BF014628463222FFF706
:1035500003FA787804210028BE713970D4D0002095
:10356000F87141F68B40C0F6010006F0D5FA1DB0A7
:10357000BDE8F08F4FF6FF718843B0F1805F6FD1E7
:10358000397840F2DC104CF66C02C2F200000229DD
:103590004FF48051C2F2000208BF1046FDF72CFC28
:1035A000002800F095803878022800F09F800128DC
:1035B000AAD14CF2282540F2DC10C2F20005C2F27A
:1035C0000000294603F014FA002800F09F80786973
:1035D000411CC7E9051001F047FDF969401A38623E
:1035E00000F0F0FA00F036F9002800F0B5807878A5
:1035F000022840F0B78000F06BFC012000F066FE6E
:1036000094E000BF7C6941F62F4241F6175305ADA7
:10361000C0F60102C0F60103284660210094FCF7C1
:10362000BFFE2846FDF758F84FF6FF71884238BFB5
:10363000014628463222FFF78FF9787804210028C6
:10364000BE7139703FF460AF0020F87141F69440CC
:10365000C0F6010006F060FA1DB0BDE8F08F00BFB3
:1036600041F6E64041F68341C0F60100C0F6010193
:10367000FFF78AF91DB0BDE8F08F00BF7E6941F603
:103680002F4205ADC0F6010271A3284660210096C5
:10369000FCF786FE2846FDF71FF84FF6FF718842BB
:1036A00038BF014628463222FFF756F979780020C4
:1036B00004220029B8713A703FF426AFF87141F640
:1036C0006940C0F6010006F027FA1DB0BDE8F08F92
:1036D00041F6E04041F67041C0F60100C0F601013C
:1036E000FFF752F91DB0BDE8F08F00BF387928B15F
:1036F000B8780021F870397101E000BFF878FFF761
:1037000071F9D8B10120787110E000BF6878022803
:103710003AD17869411CC7E9051001F0A5FCF969A7
:10372000401A386200F008FA00F036FD01F09CFC07
:103730004FF48070F8800420E5E600BF41F6ED40CC
:10374000C0F6010041F67A41C0F60101FFF71CF90D
:103750001DB0BDE8F08F00BF41F60650C0F6010075
:1037600016E000BF01F06AFA6868F8620120FDF710
:1037700081FFB8B10220387001F076FC0230386168
:103780001DB0BDE8F08F00BF41F6F640C0F6010065
:1037900041F66041C0F60101FFF7F6F81DB0BDE843
:1037A000F08F00BF41F61250C0F60100CAE700BF1B
:1037B000475F484D492C6576656E743D667265714C
:1037C00075656E63792C69676E6F7265643D6275AD
:1037D00073790D0A00000000475F484D492C65765B
:1037E000656E743D6672657175656E63790D0A006C
:1037F000475F484D492C6576656E743D74696D650B
:103800002C69676E6F7265643D627573790D0A008D
:10381000475F484D492C6576656E743D74696D65EA
:103820000D0A00006E657874000000006572726F0A
:1038300072000000726564726177000071756575D1
:10384000656400007265665F737461720000000059
:10385000696400002DE9F0472DED048BC4B0FEF73C
:1038600039F84CF2E01A01464CF22820C2F2000A64
:10387000C2F200005246FEF73DFC40F28401C2F263
:1038800000018B69F0B19AED010AB5EE400AF1EE44
:1038900010FA1FDD9FED891AB4EE410AF1EE10FA1D
:1038A00038DAB6EE001A30EE010ABCEEC00A10EEAD
:1038B000100A9AED020AB5EE400AF1EE10FA11DC98
:1038C00031E000BF91A204A84FF48071FCF768FDBD
:1038D0000024E0E000209AED020AB5EE400AF1EE85
:1038E00010FA20DD9FED751AB4EE410AF1EE10FAE0
:1038F00032DAB6EE001A30EE010ABCEEC00A10EE63
:10390000101A9AED030AB5EE400AF1EE10FA12DC35
:103910002BE000BF4FF0FF309AED020AB5EE400AEF
:10392000F1EE10FADEDC00219AED030AB5EE400A52
:10393000F1EE10FA19DD9FED611AB4EE410AF1EED5
:1039400010FA15DAB6EE001A30EE010ABCEEC00A23
:1039500010EE102A0EE000BF4FF0FF319AED030A7F
:10396000B5EE400AF1EE10FAE5DC002202E000BFFD
:103970004FF0FF329AF801700DF110098DE8070041
:103980004FA248464FF480710397FCF709FD0028C9
:1039900070D406469AF80100002861D0FF2E5FD847
:1039A0009FED468A0AF120050124B6EE009A0FF237
:1039B000481800BF15ED010A15F8083CB5EE400A9D
:1039C000F1EE10FA16DDB4EE480AF1EE10FAAFBFD0
:1039D0004FF0FF3C30EE090ABCEEC00A10EE10CAF0
:1039E00095ED000AB5EE400AF1EE10FA0BDC4FF04F
:1039F000000E15E04FF0000C95ED000AB5EE400A00
:103A0000F1EE10FAF3DDB4EE480AF1EE10FAAFBFB2
:103A10004FF0FF3E30EE090ABCEEC00A10EE10EA8D
:103A2000C6F5807709EB060039464246CDE900CE5F
:103A3000FCF7B6FCB8424FF0FF0138BF8119B0F176
:103A4000FF3FC8BF0E4600280AD4B84208D29AF8F1
:103A50000100844204D21035FF2904F10104A9D9E0
:103A6000FD2E0FD809EB060040F60D2120F8021BB1
:103A70000EE000BF0024204644B0BDEC048BBDE83E
:103A8000F08700BF40F60D20ADF80D0109F1FF00F1
:103A900000210124017004AD2846FCF71DFE4FF6FD
:103AA000FF71884238BF014628463222FEF754FF94
:103AB000204644B0BDEC048BBDE8F087FFFF7F4F8C
:103AC000475F4D4541532C7365713D256C752C63E3
:103AD000616C3D312C66303D256C75487A2C7570D3
:103AE000703D256C756D562C75726D733D256C752A
:103AF0006D562C6E3D2575002C6825753D256C7521
:103B0000487A3A256C756D5600000000475F4D45B8
:103B100041532C7365713D256C752C63616C3D3090
:103B20002C726561736F6E3D6E6F5F6D765F746151
:103B3000626C650D0A00000010B5A4B040F284006C
:103B4000C2F200008369006A0021B0F5FA6F98BFE5
:103B5000012104AC4FF0100CCDE900010AA220466F
:103B60008021CDF808C0FCF71BFC2046FCF7B4FD13
:103B70004FF6FF71884238BF014620463222FEF7D9
:103B8000EBFE24B010BD00BF475F464C4F572C6E74
:103B90006F5F7369676E616C2C7365713D256C7521
:103BA0002C745F6D733D256C752C756E6465723277
:103BB000733D25752C7468726573686F6C643D2560
:103BC000750D0A002DE9F04F81B02DED048BC6B0C4
:103BD0004CF22829C2F2000940F2840099ED010A52
:103BE000C2F200008369B5EE400AF1EE10FA0FDD73
:103BF0009FEDAB1AB4EE410AF1EE10FA0ADAB6EE16
:103C0000001A30EE010ABCEEC00A10EE101A03E0F2
:103C1000002101E04FF0FF3199ED020A99F80220EE
:103C2000B5EE400AF1EE10FA10DD9FED9D1AB4EEEC
:103C3000410AF1EE10FA0BDAB6EE001A30EE010A84
:103C4000BCEEC00A10EE107A04E000BF002701E0CD
:103C50004FF0FF3799ED030A0026B5EE400AF1EE6A
:103C600010FA4FF0000511DD9FED8D1AB4EE410AF8
:103C7000F1EE10FA08DAB6EE001A30EE010ABCEEE8
:103C8000C00A10EE105A01E04FF0FF35006A0DF146
:103C90001808B0F5FA6F98BF01268DE8860041F646
:103CA0002952CDE90350C0F6010240464FF480711D
:103CB0000596FCF775FB002800F1EB80834699F828
:103CC0000200002863D0BBF1FF0F60D89FED748A1B
:103CD00009F120040126B6EE009A0FF2C81A00BFBF
:103CE00014ED010A14F8083CB5EE400AF1EE10FAA2
:103CF00016DDB4EE480AF1EE10FAAFBF4FF0FF3C0C
:103D000030EE090ABCEEC00A10EE10CA94ED000AAB
:103D1000B5EE400AF1EE10FA0BDC002516E000BF0C
:103D20004FF0000C94ED000AB5EE400AF1EE10FAE7
:103D3000F3DDB4EE480AF1EE10FAAFBF4FF0FF35F5
:103D400030EE090ABCEEC00A10EE105ACBF58077AF
:103D500008EB0B0039465246CDE900C5FCF720FBC5
:103D6000B8424FF0FF0138BF00EB0B01B0F1FF3F4D
:103D7000C8BF8B4600280AD4B84208D299F802007E
:103D8000864204D21034FF2906F10106A8D9BBF1FE
:103D9000FF0F69D899F8031008EB0B00CBF580767C
:103DA000F1B199ED040AB5EE400AF1EE10FA21DD09
:103DB0009FED3B1AB4EE410AF1EE10FA32DAB6EE9C
:103DC000001A30EE010ABCEEC00A10EE103A99ED6E
:103DD000050AB5EE400AF1EE10FA13DC2BE000BF45
:103DE00038A23146FCF7DCFA002830D5BBF1FD0FD4
:103DF00033D939E0002399ED050AB5EE400AF1EE1A
:103E000010FA18DD9FED261AB4EE410AF1EE10FA11
:103E100014DAB6EE001A30EE010ABCEEC00A10EE5B
:103E2000107A0DE04FF0FF3399ED050AB5EE400A28
:103E3000F1EE10FAE6DC002702E000BF4FF0FF379A
:103E40001CA231460097FCF7ABFA0028CED4B04252
:103E50000AD28344BBF1FD0F06D808EB0B0040F6F5
:103E60000D2120F8021B05E040F60D20ADF81501EC
:103E700008F1FF00002106AC01702046FCF72CFC85
:103E80004FF6FF71884238BF014620463222FEF7C6
:103E900063FD46B0BDEC048B01B0BDE8F08F00BF00
:103EA000FFFF7F4F2C6825753D256C75487A3A25B4
:103EB0006C7500002C737075723D256C75487A3AEC
:103EC000256C75002C737075723D6E6F6E65000009
:103ED0002DE9F04198B04CF2E015C2F20005687887
:103EE00048F21F5841F68C57C5F2EB18C0F601078F
:103EF000D0B195ED080A9FEDA31A20EE010AB5EEA8
:103F0000400AF1EE10FA1BDD9FED9F1AB4EE410A54
:103F1000F1EE10FA16DAB6EE001A30EE010ABCEE37
:103F2000C00A10EE100A0FE097E80F000DF1200C08
:103F30008CE80700387C0B938DF830003AE000BF26
:103F4000002001E04FF0FF30A0FB0812530964216C
:103F500003FB110641F66A5202ACC0F6010220468C
:103F600018210096FCF71CFA95ED070A2B7EB5EE9A
:103F7000400AF1EE10FA0FDD9FED831AB4EE410A0C
:103F8000F1EE10FA0ADAB6EE001A30EE010ABCEED3
:103F9000C00A10EE106A03E0002601E04FF0FF3681
:103FA00041F6BD42C0F6010208A84021CDE90064F7
:103FB000FCF7F6F941F6255174A0C0F6010108AAF4
:103FC00007F0D0FC687802281AD395ED0C0A9FED13
:103FD0006D1A20EE010AB5EE400AF1EE10FA1BDD73
:103FE0009FED691AB4EE410AF1EE10FA16DAB6EE58
:103FF000001A30EE010ABCEEC00A10EE100A0FE003
:1040000097E80F000DF1200C8CE80700387C0B932B
:104010008DF830003CE000BF002001E04FF0FF30A1
:10402000A0FB08125309642103FB110641F66A52F2
:1040300002ACC0F60102204618210096FCF7B0F948
:1040400095ED0B0A95F82830B5EE400AF1EE10FA1E
:1040500010DD9FED4D1AB4EE410AF1EE10FA0BDAC5
:10406000B6EE001A30EE010ABCEEC00A10EE106A7D
:1040700004E000BF002601E04FF0FF3641F6BD42EC
:10408000C0F6010208A84021CDE90064FCF788F9D8
:1040900041F625513EA0C0F6010108AA07F062FCD6
:1040A000687803281AD395ED100A9FED361A20EE92
:1040B000010AB5EE400AF1EE10FA1BDD9FED321A4F
:1040C000B4EE410AF1EE10FA16DAB6EE001A30EE4E
:1040D000010ABCEEC00A10EE100A0FE097E80F00CC
:1040E0000DF1200C8CE80700387C0B938DF8300024
:1040F0003CE000BF002001E04FF0FF30A0FB0812C1
:104100005309642103FB110741F66A5202ACC0F661
:104110000102204618210097FCF742F995ED0F0A9D
:1041200095F83830B5EE400AF1EE10FA10DD9FED4B
:10413000161AB4EE410AF1EE10FA0BDAB6EE001AD6
:1041400030EE010ABCEEC00A10EE107A04E000BFA7
:10415000002701E04FF0FF3741F6BD42C0F60102F3
:1041600008A84021CDE90074FCF71AF941F6255161
:1041700008A0C0F6010108AA07F0F4FB18B0BDE8DA
:10418000F08100BF0000C842FFFF7F4F7433000082
:1041900074340000743500002DE9F04F89B040F20E
:1041A0008400C2F200004078022837D0012840F095
:1041B0008A8041F6255441F65040C0F6010441F68C
:1041C000CC42C0F60100C0F60102214607F0CAFB4E
:1041D00041F65A4041F6A642C0F60100C0F601027F
:1041E000214607F0BFFB41F65D4041F6B142C0F603
:1041F0000100C0F60102214607F0B4FB41F6D440AD
:10420000C0F60100002107F049FB41F64940C0F625
:10421000010009B0BDE8F04F07F080BB43F27430F5
:10422000ADF8210000208DF8230041F68C50C0F637
:10423000010041F62559D0E90074D0E9025690F802
:104240001080C0F601090DF1210B0DF1040A58464A
:1042500049465246CDE90174039504968DF81480C1
:1042600007F080FB43F27440ADF8210000208DF888
:104270002300584649465246CDE90174CDE903561C
:104280008DF8148007F06EFB43F27450ADF82100F6
:1042900000208DF82300584649465246CDE9017466
:1042A000CDE903568DF8148007F05CFB41F6DA4047
:1042B000C0F60100002107F0F1FA41F65340C0F6C4
:1042C000010007F02BFB09B0BDE8F08F2DE9F04F9E
:1042D0009DB040F28405C2F20005AC89ADF8724091
:1042E00040B1BCB1B4F5806F21D8022C2FD200F0C0
:1042F0007EBC00BF41F6DA40C0F60100002107F0A5
:10430000CDFA41F65340C0F601001DB0BDE8F04FB4
:1043100007F004BB0FF61C100DF1720105F014F844
:1043200070B1BDF87240AC81B4F5806FDDD94FF447
:104330008064ADF87240022C09D200F058BC00BF76
:104340004FF40074ADF87240022CC0F050844CF26F
:104350002826C2F200063078002800F048844CF28B
:104360006C40C2F2000021462A22FCF7D4F9B07852
:10437000002800F03C84042800F0030140D29FEDA7
:10438000914A9FED911A9FED910A00220029B0EE0B
:10439000442A00F0568106EB021292ED072A9FEDA7
:1043A000893AB4EE432AF1EE10FAC0F211819FED82
:1043B000865AB4EE452AF1EE10FA00F3098102F1B3
:1043C000180393ED025AB5EE405AF1EE10FA40F39D
:1043D000FF80B4EE405AF1EE10FAB4EE412AC8BFA5
:1043E000B0EE450AF1EE10FAB4EE442AB8BFB0EED2
:1043F000421AF1EE10FAD8BFB0EE442AEAE000BF4C
:104400009FED702A9FED703A6FF030029FED6F0ABA
:1044100002EA001300270022B0EE431AB0EE424A2F
:1044200007E000BFB0EE454A4037BB4202F104024C
:10443000ACD0F51995ED075AB4EE425AF1EE10FAE8
:1044400028DBB4EE435AF1EE10FA23DC95ED086A4E
:10445000B5EE406AF1EE10FA1CDDB4EE406AF1EE02
:1044600010FAB4EE415AC8BFB0EE460AF1EE10FAA7
:10447000B4EE445AB8BFB0EE451AF1EE10FAD8BF08
:10448000B0EE445A95ED0B4AB4EE424AF1EE10FA02
:1044900009DA31E0B0EE445A95ED0B4AB4EE424AE7
:1044A000F1EE10FA28DBB4EE434AF1EE10FA23DC09
:1044B00095ED0C6AB5EE406AF1EE10FA1CDDB4EE33
:1044C000406AF1EE10FAB4EE414AC8BFB0EE460AB7
:1044D000F1EE10FAB4EE454AB8BFB0EE441AF1EE70
:1044E00010FAD8BFB0EE454A95ED0F5AB4EE425AD5
:1044F000F1EE10FA09DA31E0B0EE454A95ED0F5AC7
:10450000B4EE425AF1EE10FA28DBB4EE435AF1EE63
:1045100010FA23DC95ED106AB5EE406AF1EE10FA60
:104520001CDDB4EE406AF1EE10FAB4EE415AC8BF99
:10453000B0EE460AF1EE10FAB4EE445AB8BFB0EE4F
:10454000451AF1EE10FAD8BFB0EE445A95ED134A71
:10455000B4EE424AF1EE10FA0ADA63E7B0EE445ADA
:1045600095ED134AB4EE424AF1EE10FAFFF65AAF57
:10457000B4EE434AF1EE10FA3FF754AF95ED146AEA
:10458000B5EE406AF1EE10FA7FF74CAFB4EE406A38
:10459000F1EE10FAB4EE414AC8BFB0EE460AF1EEB1
:1045A00010FAB4EE454AB8BFB0EE441AF1EE10FA74
:1045B000D8BFB0EE454A4037BB4202F104027FF457
:1045C00038AFE3E600401C460024F4480000000039
:1045D000B0EE442A012934D092ED0B4AB4EE434A9E
:1045E000F1EE10FA26DB1FED085AB4EE454AF1EE63
:1045F00010FA1FDC02F1280393ED025AB5EE405A7F
:10460000F1EE10FA16DDB4EE405AF1EE10FAB4EE07
:10461000414AC8BFB0EE450AF1EE10FAB4EE424A84
:10462000B8BFB0EE441AF1EE10FAD8BFB0EE424A6D
:1046300002E000BFB0EE424A022940F0A382B0EE91
:10464000442AB5EE400AF1EE10FA40F3D082220A75
:104650000421042A38BF210A621EB4F5007F38BF46
:10466000022103EE102AC1F1010282EAE27701F190
:104670000109C7EBE277C1F102081B9209EB0702BF
:1046800088EAE877C7EBE877199209EB07021892F6
:10469000C1F1030282EAE277C7EBE277179209EBF6
:1046A00007021592C1F104021A92A9EB02021492B8
:1046B000C1F105021392A9EB02021192C1F10602A7
:1046C0001692A9EB0202109281F007020F92A9EB59
:1046D00002020E92C1F108021292A9EB02020D929F
:1046E000C1F109020C92A9EB02020692C1F10A0281
:1046F0000B92A9EB02020592C1F10B020A92A9EBFF
:1047000002020492C1F10C020992A9EB0202039287
:10471000C1F10D020892A9EB020232EE012AB6EEB7
:10472000001AB8EE433A1FED594A1FED595A9FED52
:10473000CB6ADFEDCB0ADFEDCB1A5FED5C2A02928C
:10474000C1F10E0222EE012A4FEA510B203623EE70
:10475000017A0792A9EB0202019204E0013806F106
:10476000100600F04C8256ED013AF4EE443AF1EEB8
:1047700010FAF3DBF4EE453AF1EE10FAEEDCD6ED8A
:10478000004AF5EE404AF1EE10FAE7DDC4EE804A49
:1047900064EEA04AF5EE404AF1EE10FA0EDDF4EEBA
:1047A000614AF1EE10FAAFBF4FF0FF3E74EE814A5E
:1047B000FCEEE44A14EE90EA02E000BF4FF0000E77
:1047C00073EEC23A63EE833AC3EE863AF0EE624A83
:1047D00077EE233AF5EE403AF1EE10FA08DBF4EE0C
:1047E000433AF0EE634AF1EE10FAC8BFF0EE434AE6
:1047F00074EE813AFDEEE33A13EE90CABEF1030F78
:1048000098BF4FF0030EBEF1550FACEB010A28BF65
:104810004FF0550EA2450ED20EEB0B054CF26C423A
:10482000B5FBF9F5C2F2000212F80A702A35BD4252
:1048300088BF02F80A50002990D01B9A02EB0C05A1
:10484000A54207D308EB0C05A54215D388453FF4D4
:1048500085AF27E0199A02FB0EB74CF26C42B7FB0A
:10486000F9F7C2F20002535D2A379F4288BF5755BD
:1048700008EB0C05A542E9D2189A02FB0EB34CF2E4
:104880006C42B3FBF9F3C2F20002525D03F12A0756
:10489000974282BF4CF26C42C2F2000257558845E3
:1048A0003FF45CAF179A02EB0C05A5420AD31A9AA3
:1048B00002EB0C05A5421DD31A9A8A423FF44EAF73
:1048C0002FE000BF159A4CF26C4302FB0EB2C2F20D
:1048D0000003B2FBF9F25B5D02F12A079F4282BF3F
:1048E0004CF26C42C2F2000257551A9A02EB0C05C8
:1048F000A542E1D2149A4CF26C4302FB0EB2C2F212
:104900000003B2FBF9F25B5D02F12A079F4282BF0E
:104910004CF26C42C2F2000257551A9A8A423FF496
:104920001DAF139A02EB0C05A54209D3169A02EBB0
:104930000C05A5421CD3169A8A423FF40FAF2EE015
:10494000119A4CF26C4302FB0EB2C2F20003B2FBAE
:10495000F9F25B5D02F12A079F4282BF4CF26C4282
:10496000C2F200025755169A02EB0C05A542E2D29C
:10497000109A4CF26C4302FB0EB2C2F20003B2FB7F
:10498000F9F25B5D02F12A079F4282BF4CF26C4252
:10499000C2F200025755169A8A423FF4DFAE0F9AD0
:1049A00002EB0C05A54209D3129A02EB0C05A542B5
:1049B0001CD3129A8A423FF4D1AE2EE00E9A4CF2EA
:1049C0006C4302FB0EB2C2F20003B2FBF9F25B5D74
:1049D00002F12A079F4282BF4CF26C42C2F20002EF
:1049E0005755129A02EB0C05A542E2D20D9A4CF2F1
:1049F0006C4302FB0EB2C2F20003B2FBF9F25B5D44
:104A000002F12A079F4282BF4CF26C42C2F20002BE
:104A10005755129A8A423FF4A1AE0C9A02EB0C054C
:104A2000A54221D30B9A02EB0C05A54234D30A9A76
:104A300002EB0C05A54247D3099A02EB0C05A542EF
:104A40005AD3089A02EB0C05A5426DD3079A02EBE4
:104A50000C05A542BFF482AE7FE000BF0042EFC864
:104A60000000AA42FFFF7F4F069A4CF26C4302FB04
:104A70000EB2C2F20003B2FBF9F25B5D02F12A074B
:104A80009F4282BF4CF26C42C2F2000257550B9A11
:104A900002EB0C05A542CAD2059A4CF26C4302FB0C
:104AA0000EB2C2F20003B2FBF9F25B5D02F12A071B
:104AB0009F4282BF4CF26C42C2F2000257550A9AE2
:104AC00002EB0C05A542B7D2049A4CF26C4302FBF0
:104AD0000EB2C2F20003B2FBF9F25B5D02F12A07EB
:104AE0009F4282BF4CF26C42C2F200025755099AB3
:104AF00002EB0C05A542A4D2039A4CF26C4302FBD4
:104B00000EB2C2F20003B2FBF9F25B5D02F12A07BA
:104B10009F4282BF4CF26C42C2F200025755089A83
:104B200002EB0C05A54291D2029A4CF26C4302FBB7
:104B30000EB2C2F20003B2FBF9F25B5D02F12A078A
:104B40009F4282BF4CF26C42C2F200025755079A54
:104B500002EB0C05A542BFF401AE019A4CF26C4386
:104B600002FB0EB2C2F20003B2FBF9F25B5D02F18E
:104B70002A079F4282BF4CF26C42C2F20002575594
:104B8000ECE500BF92ED0F2AB4EE432AF1EE10FAE5
:104B9000FFF655AD9FED283AB4EE432AF1EE10FA38
:104BA0003FF74DAD02F1380191ED023AB5EE403AD2
:104BB000F1EE10FA7FF743ADB4EE403AF1EE10FAA1
:104BC000B4EE412AC8BFB0EE430AF1EE10FAB4EEDB
:104BD000442AB8BFB0EE421AF1EE10FAD8BFB0EED8
:104BE000442AB5EE400AF1EE10FA3FF730AD4CF230
:104BF0006C40C2F2000021462A22FBF78CFD41F6F0
:104C00005340C0F6010006F089FE41F6DA44C0F6D2
:104C100001042046002106F041FEBDF872304CF23E
:104C20006C42C2F200022046002106F0DFFE1DB0F9
:104C3000BDE8F08F733100000024F4482DE9F04105
:104C40002DED028B98B04CF2E018C2F2000898EDFE
:104C5000010AB5EE400AF1EE10FA0FDD9FED561A8B
:104C6000B4EE410AF1EE10FA0ADAB6EE001A30EEAE
:104C7000010ABCEEC00A10EE103A03E0002301E086
:104C80004FF0FF3308AC4DA220464021FBF788FBD4
:104C900041F6504041F62551C0F60100C0F6010131
:104CA000224606F05FFE98ED020A9FED468A20EE4E
:104CB000080AB5EE400AF1EE10FA0FDD9FED3E1A3C
:104CC000B4EE410AF1EE10FA0ADAB6EE001A30EE4E
:104CD000010ABCEEC00A10EE100A03E0002001E059
:104CE0004FF0FF3048F21F57C5F2EB17A0FB071239
:104CF0005309642603FB160541F66A5202ACC0F65E
:104D00000102204618210095FBF74AFB08AD2EA2B0
:104D1000284640212346FBF743FB41F65A4041F623
:104D20002551C0F60100C0F601012A4606F01AFE20
:104D300098ED030A20EE080AB5EE400AF1EE10FAEB
:104D400010DD9FED1D1AB4EE410AF1EE10FA0BDAF8
:104D5000B6EE001A30EE010ABCEEC00A10EE100AE0
:104D600004E000BF002001E04FF0FF30A0FB07127D
:104D7000530903FB160741F66A5202ACC0F6010262
:104D8000204618210097FBF70BFB08AD11A228461F
:104D900040212346FBF704FB41F65D4041F62551D7
:104DA000C0F60100C0F601012A4606F0DBFD18B08E
:104DB000BDEC028BBDE8F081FFFF7F4F463D256CC7
:104DC00075485A000000C8425670703D2573206D2A
:104DD0005600000056726D733D2573206D5600001D
:104DE00070B5866D044600F03FF994F8351002293D
:104DF00028D105462068216C026822F01602026064
:104E0000426922F08002426109B9A16C19B10168BE
:104E100021F008010160016821F00101016000BF7B
:104E200020680068C00715D000F01EF9401B062856
:104E3000F6D320206065032084F83500002184F833
:104E4000341070BD802060650120002184F834108A
:104E500070BD00BFE06D3F2101FA00F0B06001209D
:104E600084F835000020002184F8341070BD000063
:104E700090F83510022909D1052180F83510006815
:104E8000016821F001010160002070478021416527
:104E900001207047B0B5044600F0E6F8054640F240
:104EA0000000C2F200000078611C18BF044400BF7B
:104EB00000F0DAF8401BA042FAD3B0BD2DE9F04F64
:104EC00083B000F1200200F13E4741F60045009218
:104ED00007F1FF77C4F2020508224FEAB726A8427D
:104EE00008BF072200254FF000084FF00009072EE9
:104EF00038BF4FEAB72201920AE000BF09F1010969
:104F000008F10208B9F1100F05F1040500F0A280C4
:104F10000F68012202FA09FE17EA0E0AEED0D1F854
:104F200004C003220CF003077E1E02FA08F4012ECF
:104F30006FEA040B12D88468CE6804EA0B0406FA00
:104F400008F634438460446824EA0E06CCF3001467
:104F500004FA09F42643466004E000BF032F01D1A0
:104F600003271EE0C6688C6806EA0B0604FA08F4FC
:104F70002643022FC66014D16FF00302009E02EA9E
:104F8000590756F807C005F01C040F220B69A24010
:104F90002CEA0202A3401A43F251D1F804C00CF0EB
:104FA0000307026807FA08F302EA0B021A431CF42B
:104FB000403F0260A2D0002243F644030292C4F2B2
:104FC00002031A6843F6004442F480421A601A68E9
:104FD000C4F2010402F480420292029A29F0030210
:104FE0004FF6084C2244CFF6FF7C52F80C3005F007
:104FF0000C070F26BE40B343019E06FA07F73B435A
:1050000042F80C30A2684B6842EA0A0743F60C4C9F
:10501000DE0258BF22EA0A07A760C4F2010CDCF8DE
:1050200000209E0242EA0A0758BF22EA0A07CCF88B
:10503000007062689E0342EA0A0758BF22EA0A0724
:1050400067602268DB0342EA0A0758BF22EA0A07C0
:10505000276053E703B0BDE8F08F0000002A08BFC7
:1050600009048161704700004EF6DC60C2F2000066
:105070000068704740F200004EF6DC61C2F20000AA
:10508000C2F2000100780A6810440860704700000E
:1050900080B543F60040C4F20200016841F400719B
:1050A0000160016841F480610160016841F4807130
:1050B0000160032000F086F80F2000F005F800F0F2
:1050C00027F8002080BD000070B540F20006C2F253
:1050D000000640F208013278C2F200014FF47A7300
:1050E0000968B3FBF2F20446B1FBF2F1084600F0A6
:1050F00083FE0F2C4FF0010508D838B94FF0FF3070
:1051000021460022002500F031F87460284670BD69
:1051100082B0002043F640010190C4F202014A68C7
:1051200042F480424A604A6802F480420192019A45
:105130000090086840F080500860086800F08050D7
:105140000090009802B07047002848BF704700F0F8
:105150001F01012202FA01F11C2202EAD0004EF2E4
:105160000012CEF2000281507047000010B54EF6DA
:105170000C5CCEF2000CDCF80030C3F3022E8EF093
:105180000704042C28BF0424BEF103034FF0FF3EA4
:105190000EFA04F438BF0023A14399400EFA03F33A
:1051A0009A43114300F00F0200F160430901043AF1
:1051B00003F564436244002848BF02F10C031970F0
:1051C00010BD00004EF60C51CEF200010A684FF6F9
:1051D000FF031A4060F30A2242F0806040F0FD7045
:1051E00008607047002804BF012070472DE9F04196
:1051F00043F60808C4F202080446D8F8F8030D463E
:1052000000F00700814207D988F8F853D8F8F8036E
:1052100000F00700A84277D12068810717D5410721
:1052200005D5D8F8001041F4E051C8F80010010786
:1052300005D5D8F8001041F46041C8F80010D8F83E
:105240000010A26821F0F0011143C8F80010C00757
:1052500040D1D8F8F80300F00700854207D288F85B
:10526000F853D8F8F80300F00700A8424CD12068A2
:10527000410707D5D8F80010E26821F4E051114346
:10528000C8F80010000708D5D8F80000216920F4FC
:10529000604040EAC100C8F8000000F07DF8D8F88E
:1052A00000104CF22C62C1F30311C0F60002515CF5
:1052B00040F2080220FA01F140F20400C2F20000BC
:1052C0000068C2F200021160FFF7FEFE0020BDE898
:1052D000F08100BF6068811E022907D258F8081CBF
:1052E00089015CBF0120BDE8F08111E0012807D1F0
:1052F00058F8081C89035CBF0120BDE8F08107E075
:1053000058F8081C890703D40120BDE8F08100BFCC
:10531000D8F8001021F003010843C8F80000FFF797
:10532000A3FE064641F28837D8F80000616800F015
:105330000C00B0EB810F8CD0FFF796FE801BB842BB
:10534000F2D90320BDE8F08140F2080043F60801DD
:10535000C2F20000C4F20201006809684CF23C622B
:10536000C1F38221C0F60002515CC84070470000C2
:1053700040F2080043F60801C2F20000C4F2020144
:10538000006809684CF23C62C1F34231C0F6000289
:10539000515CC8407047000010B543F60404C4F2E5
:1053A00002046168C1F3810142F20040C0F2F400DE
:1053B000DFE801F002040A0210BD00BF47F640001A
:1053C000C0F27D1010BD00BF20682168236849022B
:1053D00047F64001C0F27D1100F03F02C3F3881090
:1053E0005CBF42F20041C0F2F401A1FB00010023C6
:1053F000FAF75EFF21680222C1F3014102EB41018D
:10540000B0FBF1F010BD0000002804BF0120704780
:105410002DE9F04182B00446007843F60006C0074B
:10542000C4F202060CD0B06800F00C00042840F072
:1054300081803068800303D56068002800F06881AF
:10544000207880071BD5B06810F00C0F09D0B06829
:1054500000F00C00082840F087807068400200F1DE
:1054600083803068800703D5E068012840F05081D0
:105470003068216920F0F80040EAC10030602078EF
:10548000000713D4207840072AD4A569002D00F026
:105490003A81B06800F00C00082840F0A580012D8A
:1054A00040F00E81012002B0BDE8F0816069002863
:1054B00000F082800020C4F247200121C0F8801E45
:1054C000FFF7D2FD054600BF706F8007DAD4FFF703
:1054D000CBFD401B0228F7D9032002B0BDE8F081C4
:1054E000306C5FEAC0080AD400200190306C40F0B4
:1054F00080503064306C00F080500190019847F289
:105500000007C4F200073868C00547D4386840F483
:1055100080703860FFF7A8FD054600BF3868C005F9
:105520003CD4FFF7A1FD401B0228F7D9032002B0AD
:10553000BDE8F081B06800F00C00082803D1706865
:1055400040023FF576AF61683068B1F5803F07D023
:10555000B1F5A02F40F09A8040F480203060306890
:1055600040F4803030609AE0E068002840F20000AB
:10557000C4F247205CD001210160FFF775FD0546AC
:10558000306880073FF574AFFFF76EFD401B0228BF
:10559000F6D9032002B0BDE8F08100BFA168306FEA
:1055A000012905D0052955D140F004003067306F3E
:1055B00040F00100306756E00020C4F2472000218F
:1055C000C0F8801EFFF750FD054600BF706F8007D2
:1055D0007FF558AFFFF748FD401B0228F6D903209E
:1055E00002B0BDE8F08100BF0027C4F247270020C9
:1055F0003866FFF739FD022D05460DD13068800170
:1056000040F18A80FFF730FD401B02284FF0030075
:10561000F4D902B0BDE8F0813068800173D5FFF79E
:1056200023FD401B02284FF00300F5D9F1E700BF2E
:1056300000210160FFF718FD054600BF30688007B4
:105640007FF51DAFFFF710FD401B02284FF0030050
:10565000F4D9DEE720F001003067306F002920F038
:10566000040030677AD0FFF7FFFC054641F2883727
:10567000306F800700F18480FFF7F6FC401BB842D2
:10568000F6D9032002B0BDE8F08100BF20F48030DD
:1056900030603068002920F4802030607AD0FFF735
:1056A000E3FC0546306880033FF5CAAEFFF7DCFC3B
:1056B000401B6428F6D9032002B0BDE8F08100BF8A
:1056C0007068E16900F480028A4221D1216A00F009
:1056D0003F028A421CD147F6C071626A0140B1EBB9
:1056E000821F15D1A16A4FF6FF73C903994300F4D5
:1056F0004032A1F580318A420AD1E16A00F070603F
:10570000B0EB016F04D1002002B0BDE8F08100BF12
:10571000012002B0BDE8F08104F11C052FCD084343
:1057200040EA8210D9034FF6FF729143A1F5803110
:1057300040EA05600843706001203866FFF794FC7A
:10574000044600BF30688001DDD4FFF78DFC001BEC
:1057500002284FF00300F5D95BE700BFFFF784FC98
:10576000054641F2883700BF306F800708D5FFF744
:105770007BFC401BB8424FF00300F5D949E700BF5E
:10578000B8F1000F3FF581AE306C20F080503064EE
:105790007BE600BFFFF768FC054600BF306880036A
:1057A0007FF54EAEFFF760FC401B64284FF003000E
:1057B000F4D92EE710B584B040F20801C2F200011E
:1057C000096841F6F112C0F27652A1FB0212510AA9
:1057D000642251430291029904460391016848688A
:1057E00020F0200048604868000607D4486840065A
:1057F00037D44868800768D49CE000BF46F6AD0007
:10580000C0F600006064039810B303980138039059
:1058100094F8510007281FD00398C8B103980138A5
:10582000039094F85100072816D0039880B103988C
:105830000138039094F8510007280DD0039838B12F
:1058400003980138039094F851000728DBD103E056
:10585000606D40F040006065029803904868400623
:10586000C7D546F61900C0F600002064039818B3A7
:1058700003980138039094F85100072820D003982A
:10588000D0B103980138039094F85100072817D03D
:10589000039888B103980138039094F851000728C1
:1058A0000ED0039840B103980138039094F851004A
:1058B0000728DBD104E000BF606D40F04000606568
:1058C000029803904868800734D5A06C90B30021FB
:1058D0000165FFF785FA00281CBF4020606521683C
:1058E000486820F0020048600398F8B10398013836
:1058F0000390886880071DD40398B8B103980138D5
:1059000003908868800715D4039878B1039801380C
:105910000390886880070DD4039838B10398013844
:10592000039088688007DFD504E000BF606D40F019
:10593000400060654868C00712D0E06C80B100216B
:105940000165FFF74DFA00281CBF40206065216803
:10595000086820F040000860486820F001004860B6
:105960000023E387E386606D4FF0010C40284FF081
:1059700001001CBF636500200193CA6801928A6818
:105980000192019A019389680191019984F851C0AB
:1059900004B010BD70B528B1416A29B10021016180
:1059A000142106E0012070BD4168B1F5827F02D06C
:1059B0001C21002242500026866290F8511029B91D
:1059C00080F85060054600F03DF82846022180F836
:1059D000511090E82E0002F482720C6803F4044324
:1059E00024F040040C601A4405F4006305691A446D
:1059F00005F0020345691A4405F001038569C4698D
:105A00001A4405F400731A4404F03803046A1A4473
:105A100004F08003846A1A4304F400531A430A60B2
:105A2000436A042202EA154203F010031A444A6052
:105A3000CA6922F40062CA610121466580F85110EA
:105A4000304670BD80B586B043F200010068C4F2F4
:105A50000101002288420592CDE9032202920192BF
:105A600002D006B080BD00BF43F630000092C4F201
:105A70000200436943F480534361436903F4805354
:105A80000093009B0092036843F0010303600068E9
:105A900000F0010000900098E02001900220CDE984
:105AA0000202032004900520059001F5504001A951
:105AB000FFF704FA06B080BD2DE9F04383B01E461F
:105AC00015460F460446FFF7CFFA94F85110814669
:105AD000012909D1002F4FF0010018BF002D0FD16F
