:020000040800F2
:10000000D8E0002071020008D56C0008ED6B0008F4
:10001000D16C00082D09000825A20008000000008E
:10002000000000000000000000000000B16E0008A9
:100030003109000800000000D96C00084D97000845
:100040008B0200088B0200088B0200088B0200085C
:100050008B0200088B0200088B0200088B0200084C
:100060008B0200088B0200088B0200088B0200083C
:100070008B0200088B0200088B0200088B0200082C
:100080008B0200088B0200088B0200088B0200081C
:100090008B0200088B0200088B0200088B0200080C
:1000A0008B0200088B0200088B0200088B020008FC
:1000B0008B0200088B0200088B0200088B020008EC
:1000C0008B0200088B0200088B0200088B020008DC
:1000D0008B02000819A200088B0200088B0200089E
:1000E0008B0200088B0200088B0200088B020008BC
:1000F0008B0200088B0200088B0200088B020008AC
:100100008B0200088B0200088B0200088B0200089B
:10011000C19F00088B0200088B0200088B020008B8
:100120008B0200088B0200088B0200088B0200087B
:100130008B0200088B0200088B0200088B0200086B
:100140008B0200088B0200088B0200088B0200085B
:100150008B0200088B0200088B0200088B0200084B
:100160008B0200088B0200088B0200088B0200083B
:100170008B0200088B0200088B02000800000000C0
:100180008B0200088B02000800F002F800F060F813
:1001900014A696E8000CB244B344DA4501D100F04D
:1001A00057F8BAE80F000FA696E83000A5EB040553
:1001B00004EB0607AAEB0704A7F101074FEA1515A0
:1001C0004FEA3414A4F10104AC4201D300F040F82A
:1001D00013F0010F18BFFB1A43F0010300F001F800
:1001E000DBE71847A09C0200C09C0200103A24BF25
:1001F00078C878C1FAD8520724BF30C830C144BF8C
:1002000004680C6070470000704700000023002461
:1002100000250026103A28BF78C1FBD8520728BF16
:1002200030C148BF0B607047642900F029817529EF
:1002300000F02681782900F05F81732900F0348373
:10024000002070471FB50CF06CFA1FBD10B510BD33
:1002500000F036FB1146FFF7F5FF0BF05BFC00F0FA
:1002600054FB03B4FFF7F2FF03BC00F057FB0000A0
:100270000948804709480047FEE7FEE7FEE7FEE73A
:10028000FEE7FEE7FEE7FEE7FEE7FEE70448054976
:10029000054A064B70470000F997000889010008DD
:1002A000D8CE0020D8E00020D8D00020D8D0002020
:1002B00053EA020C00F069802DE9F04B4FF0000684
:1002C000002B1FBFB3FA83F503FA05F424FA05F6F1
:1002D0005E4012BF1643B2FA82F502FA05F4C5F188
:1002E00020051EBF22FA05FC44EA0C04203556EA1C
:1002F000044C4FEA144418BF641C4FF000084FF040
:100300000009904271EB030C39D3002919BFB1FAEF
:1003100081F701FA07F6B0FA80F700FA07F6C7F19D
:1003200020071EBF20FA07FC46EA0C062037B6FB62
:10033000F4FCA7EB0507103F07F01F0BCBF12006DD
:100340002CFA06F60CFA0BFB44BFB3460026202F0E
:10035000A4BF5E464FF0000B5BEA060C08BF4FF0EF
:10036000010B19EB0B0948EB0608ABFB027C06FB03
:1003700002CC0BFB03CCC01B71EB0C01C1E70B469D
:10038000024641464846BDE8F08B13B5084318BF06
:100390004FF0FF300146AFF30080BDE81C407047CE
:1003A0000FB41CB50C0007AA009007D04142A1422F
:1003B00002D32044401E01E04FF0FF30074B7B4446
:1003C00069460190069800F042FA0021002C01D005
:1003D000009A11701CBC5DF814FB0000B30400000F
:1003E00070B5044685690068C10601D5302600E075
:1003F0002026C00707D070BDD4E9012130469047C0
:10040000206A401C20626D1EF6D570BD70B5044692
:1004100085690078C00707D170BDD4E9012120208B
:100420009047206A401C20626D1EF6D570BD70B5E5
:100430000C460546012A05D02878800600D5EA69D1
:10044000002302E0012305E05B1C934202D2E05C42
:100450000028F9D1A869E618C01AA861286A1844CA
:1004600028622846FFF7BCFF04E0D5E9012114F813
:10047000010B9047B442F8D32846FFF7C7FF70BD81
:100480002DE9F0410646002410687529314616A56D
:1004900010D0AFF30080002802DA404213A507E035
:1004A00031688A0701D512A502E0490704D511A5D4
:1004B000012401E0AFF3008000210A2206F12407A5
:1004C00009E0B0FBF2FCB0FBF2F302FB1C003030A1
:1004D00078541846491C0028F3D123462A46304652
:1004E000BDE8F04100F054B9000000002D0000000C
:1004F0002B0000002000000070B504460D46214688
:100500001068AFF300802188090502D50F4A7A44AC
:1005100002E00E4A7A440E32002104F1240305E081
:1005200000F00F060009965D5E54491C0028F7D1C3
:1005300020780023000704D5702D02D009B10223D2
:1005400011322046BDE8704000F022B98AC2000096
:100550002DE9F05F894604464FF0000ADFF874B1D8
:10056000FB44C0F820A02046E1688847002874D0EA
:10057000252806D0D4E901219047206A401C20623A
:10058000F1E700265F462046E168884720280546B7
:1005900007DB312D05D2781910F8200C08B106437D
:1005A000F1E7B00701D526F00406C4F81CA0002727
:1005B000C4F818A02A2D09D028460CF065F838B3E5
:1005C00004EB8708303DC8F8185019E059F8041BAF
:1005D000204604EB87029161E1688847012F0546B8
:1005E00018D1E069002820DA26F020061DE0D8F8AE
:1005F000180000EB800005EB40003038C8F8180008
:100600002046E168884705460CF03EF80028EED108
:10061000012F0AD02E2D08D12046E16888477F1C83
:100620000546022F46F02006C4DBA069002803DA45
:10063000404246F00106A061F00701D026F0100606
:100640006C2D0BD0682D09D04C2D39D06A2D35D0AA
:10065000742D35D07A2D33D016E038E0E1682F467E
:1006600020468847B842054609D16C2F26D04FF462
:100670008060E168064320468847054604E06C2F09
:100680001AD04FF4807006430DB3A5F1410019282C
:1006900002D8203546F400664A46294620462660A0
:1006A0004E46FFF7C1FD80B101280BD0F61D26F0A4
:1006B000070000F1080956E74020E4E78020D8E76A
:1006C0000020D6E706F104094DE7284652E7206AE4
:1006D000BDE8F09F60C2000010B5431C02E010F8B6
:1006E000011B71B18107FAD14FF0013202C88C1A97
:1006F0008C4314EAC211F9D0C01A0A0603D0C01EF6
:1007000010BDC01A10BD0A0401D0801E10BD090220
:10071000FCD0401E10BD02F0FF0343EA032242EA70
:10072000024200F002B84FF0000200B513469446B2
:100730009646203922BFA0E80C50A0E80C50B1F139
:100740002001BFF4F7AF090728BFA0E80C5048BF4D
:100750000CC05DF804EB890028BF40F8042B08BFEB
:10076000704748BF20F8022B11F0804F18BF00F8E7
:10077000012B704770477047704710B500F098F82C
:10078000006810BD10B5044600F092F8046010BD7A
:100790002DE9F0470D4699469246044600F124089B
:1007A0000168880604D5E06921F01001216000E0AD
:1007B0000120A84201DD471B00E00027A1697A194A
:1007C00002EB0900081AA0612078C00602D4204676
:1007D000FFF706FE002608E0D4E901211AF806001A
:1007E0009047206A401C761C20624E45F4DB20783E
:1007F000C0060AD52046FFF7F3FD06E0D4E9012143
:1008000030209047206A401C2062381EA7F1010763
:10081000F4DC07E0D4E9012118F805009047206ACC
:10082000401C2062281EA5F10105F3DC2046FFF7DD
:10083000EDFD2078000602D50220BDE8F0870120FA
:10084000FBE7000001694A1C02610878704700B5A7
:100850008FB0CDE901310021059105497944CDE9F9
:10086000031011466846FFF773FE0FB000BD00008D
:10087000E5FFFFFFD1E900239A4202D2531C0B602F
:100880001070704710B5436913B1AFF3008001E0F9
:10089000FFF7CDFD012010BD127800F124010A7090
:1008A00000224A700122EDE711684FF0FF32E9E7BC
:1008B00000487047100000200048704710000020DA
:1008C0007546FFF7F9FFAE4605006946534620F02E
:1008D0000700854618B020B5FFF7D8FCBDE82040DA
:1008E0004FF000064FF000074FF000084FF0000BEC
:1008F000AC46ACE8C009ACE8C009ACE8C009ACE85B
:10090000C00921F007018D46704710B50446AFF3CA
:1009100000802046BDE81040FFF7A3BC0149182025
:10092000ABBEFEE72600020070470000FEE70000B5
:100930007047000072B600BFFEE700002DE9F041ED
:1009400086B0002643F630000496CDE90266CDE974
:1009500000660596C4F202000168002441F001011E
:1009600001600068C4F2020400F0010005900598DF
:1009700041F20405204610210122CEF200054FF07D
:100980001008012704F0CCFD03200390694620469F
:10099000CDE90087029604F0F3FC4EF6FC50CEF24F
:1009A0000000016841F0807101602E6055F8040C70
:1009B00042F2D41140F0010045F8040C55F8040C43
:1009C000C2F2000110F00100087017D1402005901C
:1009D0000598411E0591C8B300BF0598411E0591B9
:1009E000A0B300BF0598411E059178B300BF0598DC
:1009F000411E059150B300BFEAE700BF40F2080076
:100A0000C2F2000000684DF68361C4F21B31A0FB06
:100A1000010128682B686FF0010202EA51411A1A9D
:100A20008A4213D200BF2A68121A8A420ED200BF2D
:100A30002A68121A8A4209D200BF2A68121A8A4208
:100A400004D200BF2A68121A8A42EBD306B0BDE86E
:100A5000F08100002DE9F04184B0002041F204054E
:100A6000C4F2020010210122CEF2000504F058FD6C
:100A700042F2D416C2F20006307840F208084DF671
:100A800083670028C2F20008C4F21B3760D0D8F890
:100A90000000A0FB070128682A68890C01EB81018E
:100AA000121AB2EB410F15D2490000BF00BF2A68ED
:100AB000121A8A420ED200BF2A68121A8A4209D23A
:100AC00000BF2A68121A8A4204D200BF2A68121A8A
:100AD0008A42EBD340F23414C2F20004204605F0FF
:100AE000CBF82068016821F04001016000210191EC
:100AF000C1680191816801910199016841F040014B
:100B000001603078002841D0D8F800006FF0010271
:100B1000A0FB070128682B6802EA51411A1A8A4291
:100B200013D200BF2A68121A8A420ED200BF2A6866
:100B3000121A8A4209D200BF2A68121A8A4204D2C3
:100B400000BF2A68121A8A42EBD304B0BDE8F081D4
:100B50004FF4A070029000BF0298411E002802913D
:100B6000B8D000BF0298411E00280291B2D000BF49
:100B70000298411E00280291ACD000BF0298411E8D
:100B800000280291A6D000BFE6E700BF40200390F6
:100B90000398411E00280391D7D000BF0398411E3F
:100BA00000280391D1D000BF0398411E0028039173
:100BB000CBD000BF0398411E00280391C5D000BFD1
:100BC000E6E700002DE9F04784B00C4640F200084B
:100BD0000021C4F202080191010C164641F20407FB
:100BE000ADF80810ADF80A00404610210122CEF2FF
:100BF000000704F095FC42F2D415C2F200052878F3
:100C000040F2080A4DF683690028C2F2000AC4F2D5
:100C10001B3900F08980DAF800006FF00102A0FBB8
:100C2000090138683B6802EA51411A1A8A4213D214
:100C300000BF3A68121A8A420ED200BF3A68121AEE
:100C40008A4209D200BF3A68121A8A4204D200BF0F
:100C50003A68121A8A42EBD340461021002204F06F
:100C60005FFC287800287DD0DAF80000A0FB09019D
:100C700038683A68121AB2EB914F15D2890C00BF4E
:100C800000BF3A68121A8A420ED200BF3A68121A9E
:100C90008A4209D200BF3A68121A8A4204D200BFBF
:100CA0003A68121A8A42EBD340F23410C2F20000C2
:100CB00002A901AA0223009605F060F929780646E8
:100CC00000296BD0DAF80000A0FB090138683A6807
:100CD000121AB2EB914F15D2890C00BF00BF3A68CF
:100CE000121A8A420ED200BF3A68121A8A4209D2F8
:100CF00000BF3A68121A8A4204D200BF3A68121A38
:100D00008A42EBD340461021012204F009FC002E58
:100D100060D0FFF79FFE0020002C4FF0000161D152
:100D200004B0BDE8F08700BF402003900398411E47
:100D30000028039190D000BF0398411E0028039122
:100D40003FF48AAF00BF0398411E002803913FF48F
:100D500083AF00BF0398411E002803913FF47CAF8E
:100D600000BFE3E7202003900398411E0028039171
:100D70009AD000BF0398411E0028039194D000BF71
:100D80000398411E002803918ED000BF0398411E96
:100D9000002803913FF488AF00BFE5E720200390CF
:100DA0000398411E00280391ACD000BF0398411E58
:100DB00000280391A6D000BF0398411E002803918C
:100DC000A0D000BF0398411E002803919AD000BF15
:100DD000E6E700BF64B1BDF80400BDF8061041EAC3
:100DE000004001212060084604B0BDE8F08700BF44
:100DF000012004B0BDE8F0872DE9F04F83B08246B2
:100E000000284FF0000000F0658141F201028A1ACB
:100E100012F5805FC0F05E81CDE900104FF0085000
:100E200000210A22FFF7CEFE90B3009802281ED3BD
:100E3000009801264442C2F2002601AF4FF6FF7B24
:100E4000554600BF304639460A22FFF7BBFEF8B1CF
:100E50000198002220EA0B01C5F24132914217D1DC
:100E60000136A119B1F1085F25F8020BEAD101A9F9
:100E700000200A22FFF7A6FE50B101984FF6FF713D
:100E8000002220EA0101C5F24132914200F0E480E3
:100E900041F20407CEF20007FFF7DCFD42F2D41066
:100EA000C2F2000000784DF68361002840F208008D
:100EB000C2F20000C4F21B3100F010810068A0FBF8
:100EC000010138683A68890C01EB8101121AB2EB12
:100ED000410F15D2490000BF00BF3A68121A8A427A
:100EE0000ED200BF3A68121A8A4209D200BF3A688D
:100EF000121A8A4204D200BF3A68121A8A42EBD30D
:100F0000002001904FF0085000210A22FFF75AFEFE
:100F100098B30098022820D300984FF00009441E8F
:100F20004FF4083501AE4FF6FF7800BF09F1010B11
:100F3000584665F31F3031460A22FFF743FEE0B101
:100F40000198002220EA0801C5F24132914214D1F1
:100F50002AF819005C45D946E8D101A900200A22E7
:100F6000FFF730FE48B101984FF6FF71002220EAEA
:100F70000101C5F2413291426ED0FFF76BFD42F2A2
:100F8000D410C2F200000078002800F0C98040F2BE
:100F90000800C2F2000000684DF68361C4F21B3104
:100FA000A0FB010138683A68890C01EB8101121A33
:100FB000B2EB410F14D2490000BF3A68121A8A42BC
:100FC0000ED200BF3A68121A8A4209D200BF3A68AC
:100FD000121A8A4204D200BF3A68121A8A42EBD32C
:100FE000002001904FF0085000210A22FFF7EAFD8F
:100FF000E0B3009802281FD300980026441E4FF447
:10100000083B0DF104094FF6FF7800BF751C284618
:101010006BF31F3049460A22FFF7D4FD30B3019825
:10102000002220EA0801C5F2413291421ED12AF87D
:101030001600AC422E46E9D101A900200A22FFF792
:10104000C1FD98B101984FF6FF71002220EA01011D
:10105000C5F24132914209D100990AEB410121F8D0
:10106000020C012003B0BDE8F08F00BFFFF7F2FCD7
:1010700042F2D410C2F200000078002872D040F290
:101080000800C2F2000000684DF68361C4F21B3113
:10109000A0FB0101880C39683A6800EB8000521A05
:1010A000B2EB400F78D2420000BF3868401A90423D
:1010B00072D200BF3868401A90426DD200BF3868C3
:1010C000401A904268D200BF3868401A90424FF0F0
:1010D0000000E9D303B0BDE8F08F00BF4FF4A0706B
:1010E000029000BF0298411E002802913FF408AF11
:1010F00000BF0298411E002802913FF401AF00BFDB
:101100000298411E002802913FF4FAAE00BF0298F7
:10111000411E002802913FF4F3AE00BFE2E700BF9A
:101120004FF4A070029000BF0298411E0028029167
:101130003FF456AF00BF0298411E002802913FF4D1
:101140004FAF00BF0298411E002802913FF448AF04
:1011500000BF0298411E002802913FF441AF00BF3A
:10116000E2E700BF4FF4A070029000BF0298411E5A
:10117000029188B100BF0298411E029160B100BF88
:101180000298411E029138B100BF0298411E02919F
:1011900010B100BFEAE700BF002003B0BDE8F08F48
:1011A0002DE9F04182B004460020002C009000F0B0
:1011B000C58020604FF0045000210A22FFF702FD95
:1011C00060B1694600200A22FFF7FCFC30B10098AC
:1011D00020F00701B1F1805F00F0838042F2D41665
:1011E000C2F20006307841F2040540F208084DF6DC
:1011F0008367CEF200050028C2F20008C4F21B3754
:1012000000F0A080D8F80000A0FB070128682A6839
:10121000890C01EB8101121AB2EB410F14D2490083
:1012200000BF2A68121A8A420ED200BF2A68121A18
:101230008A4209D200BF2A68121A8A4204D200BF29
:101240002A68121A8A42EBD34FF0045000210A2276
:10125000FFF7B8FC58B1694600200A22FFF7B2FC3C
:1012600028B1009820F00701B1F1805F39D03078C3
:10127000002800F08980D8F80000A0FB070128684A
:101280002A68890C01EB8101121AB2EB410F15D2C9
:10129000490000BF00BF2A68121A8A420ED200BF5E
:1012A0002A68121A8A4209D200BF2A68121A8A4290
:1012B00004D200BF2A68121A8A42EBD34FF00450BE
:1012C00000210A22FFF77EFC80B1694600200A2235
:1012D000FFF778FC50B1009820F00701B1F1805F72
:1012E00004D12060012002B0BDE8F08130780028F0
:1012F0006AD0D8F80000A0FB0701880C29682A688A
:1013000000EB8000521AB2EB400F77D2420000BFD0
:1013100000BF2868401A904270D200BF2868401A67
:1013200090426BD200BF2868401A904266D200BF3C
:101330002868401A90424FF00000E9D302B0BDE89F
:10134000F08100BF4FF4A070019000BF0198411ED2
:10135000002801913FF478AF00BF0198411E00289A
:1013600001913FF471AF00BF0198411E0028019127
:101370003FF46AAF00BF0198411E002801913FF47D
:1013800063AF00BFE2E700BF4FF4A070019000BF61
:101390000198411E0028019190D000BF0198411E84
:1013A000002801913FF48AAF00BF0198411E002838
:1013B00001913FF483AF00BF0198411E00280191C5
:1013C0003FF47CAF00BFE3E74FF4A070019000BF93
:1013D0000198411E019188B100BF0198411E019101
:1013E00060B100BF0198411E019138B100BF019862
:1013F000411E019110B100BFEAE700BF002002B01A
:10140000BDE8F0812DE9F04182B004460020002CB7
:10141000009018BF20604FF0005000210A22FFF713
:10142000D1FB58B1694600200A22FFF7CBFB28B157
:10143000009840F2D241884200F0808042F2D416F7
:10144000C2F20006307841F2040540F208084DF679
:101450008367CEF200050028C2F20008C4F21B37F1
:1014600000F0A280D8F80000A0FB070128682A68D5
:10147000890C01EB8101121AB2EB410F14D2490021
:1014800000BF2A68121A8A420ED200BF2A68121AB6
:101490008A4209D200BF2A68121A8A4204D200BFC7
:1014A0002A68121A8A42EBD34FF0005000210A2218
:1014B000FFF788FB50B1694600200A22FFF782FB44
:1014C00020B1009840F2D241884237D030780028CD
:1014D00000F08C80D8F80000A0FB070128682A687B
:1014E000890C01EB8101121AB2EB410F14D24900B1
:1014F00000BF2A68121A8A420ED200BF2A68121A46
:101500008A4209D200BF2A68121A8A4204D200BF56
:101510002A68121A8A42EBD34FF0005000210A22A7
:10152000FFF750FB90B1694600200A22FFF74AFB03
:1015300060B1009840F2D241884207D1002C4FF0B0
:10154000010018BF216002B0BDE8F08130780028AA
:101550006ED0D8F80000A0FB070128682A68890C23
:1015600001EB8101121AB2EB410F15D2490000BF05
:1015700000BF2A68121A8A420ED200BF2A68121AC5
:101580008A4209D200BF2A68121A8A4204D200BFD6
:101590002A68121A8A42EBD3002C67D000990020E7
:1015A000216002B0BDE8F0814FF4A070019000BF4F
:1015B0000198411E002801913FF476AF00BF0198C9
:1015C000411E002801913FF46FAF00BF0198411EFA
:1015D000002801913FF468AF00BF0198411E002828
:1015E00001913FF461AF00BFE2E700BF4FF4A0708C
:1015F000019000BF0198411E002801913FF48CAF7B
:1016000000BF0198411E002801913FF485AF00BF43
:101610000198411E002801913FF47EAF00BF019860
:10162000411E002801913FF477AF00BFE2E700BF01
:101630004FF4A070019000BF0198411E0028019155
:10164000AAD000BF0198411E00280191A4D000BF7C
:101650000198411E002801919ED000BF0198411EB3
:101660000028019198D000BFE6E700BF002002B03B
:10167000BDE8F0812DE9F04383B045F245664FF0B7
:1016800044540028C5F241764FF0000008BF4FF0E7
:10169000405404BF44F65946C4F24E160190204609
:1016A00000210A22FFF78EFA40B101A900200A2288
:1016B000FFF788FA10B10198B0427AD042F2D417FD
:1016C000C2F20007387841F2040540F208094DF6ED
:1016D0008368CEF200050028C2F20009C4F21B386C
:1016E00000F09880D9F80000A0FB080128682A685B
:1016F000890C01EB8101121AB2EB410F14D249009F
:1017000000BF2A68121A8A420ED200BF2A68121A33
:101710008A4209D200BF2A68121A8A4204D200BF44
:101720002A68121A8A42EBD3204600210A22FFF7C8
:1017300049FA40B101A900200A22FFF743FA10B18B
:101740000198B04235D03878002800F08580D9F86B
:101750000000A0FB080128682A68890C01EB8101C0
:10176000121AB2EB410F15D2490000BF00BF2A6820
:10177000121A8A420ED200BF2A68121A8A4209D26D
:1017800000BF2A68121A8A4204D200BF2A68121ABD
:101790008A42EBD3204600210A22FFF713FA68B1F0
:1017A00001A900200A22FFF70DFA38B10198B042D2
:1017B00004D1012003B0BDE8F08300BF38780028D1
:1017C0006AD0D9F80000A0FB0801880C29682A68B3
:1017D00000EB8000521AB2EB400F77D2420000BFFC
:1017E00000BF2868401A904270D200BF2868401A93
:1017F00090426BD200BF2868401A904266D200BF68
:101800002868401A90424FF00000E9D303B0BDE8C9
:10181000F08300BF4FF4A070029000BF0298411EF9
:10182000002802913FF480AF00BF0298411E0028BB
:1018300002913FF479AF00BF0298411E0028029147
:101840003FF472AF00BF0298411E002802913FF49E
:101850006BAF00BFE2E700BF4FF4A070029000BF83
:101860000298411E0028029194D000BF0298411EA8
:10187000002802918ED000BF0298411E00280291DC
:101880003FF488AF00BF0298411E002802913FF448
:1018900081AF00BFE4E700BF4FF4A070029000BF2B
:1018A0000298411E029188B100BF0298411E029128
:1018B00060B100BF0298411E029138B100BF02988A
:1018C000411E029110B100BFEAE700BF002003B043
:1018D000BDE8F08341F6BC50C0F60100704700003F
:1018E0002DE9F0472DED0E8B0E4602F0FD0101298A
:1018F0003ED10546E0B3042E3AD3CBB3B5EE400A51
:10190000B0EE408AF1EE10FA32DDF5EE400AB0EEAC
:10191000609AF1EE10FA2BDDB6EE00AA28EE0A0A64
:10192000B4EE409AF1EE10FA22DA18464FF4047140
:1019300092469846FEF7F7FE88EE09DA00EE10AA06
:10194000B8EE400AB01E2DEE00BA00EE100AB8EE56
:10195000400AB4EE40BAF1EE10FA00F36E81042EA4
:1019600006F0030912D29FEDB70A002039E000BF4C
:10197000002B00F0628118464FF40471FEF7D3FE8D
:101980000020BDEC0E8BBDE8F08700BF9FEDAD0AD7
:1019900026F00301A5F10802002000BF32F9083F3C
:1019A000043001EE103AB2F90230B8EEC11A30EE4E
:1019B000010AB2F9047001EE103AB8EEC11AB2F998
:1019C000064030EE010A01EE107AB8EEC11A30EE90
:1019D000010A01EE104AB8EEC11A814230EE010A46
:1019E000DCD1B9F1000F1FD035F91010B9F1010F9A
:1019F00001EE101AB8EEC11A30EE010A14D005EB50
:101A00004000B0F90210B9F1020F01EE101AB8EE61
:101A1000C11A30EE010A07D0B0F9040001EE100A35
:101A2000B8EEC11A30EE010A01EE106A9FEDE42A09
:101A3000B8EE411A80EE01CA29EE020A80EE088A49
:101A4000B0EE480A0AF0E2FAB0EE409AB0EE480A68
:101A50000AF088FC042EB1EE402A80F0F580DFED1C
:101A6000790AB7EE003A0020B0EE601AB0EE605A84
:101A7000B9F1000F00F0818035F9101025EE024A0F
:101A800023EE096A36EE044A06EE101AB8EEC66A6C
:101A900036EE4C6A26EE037A26EE056A20EE033A0D
:101AA00025EE095AC1B2FF2935EE033A14D123EECF
:101AB000035A64EE041A31EE855AF7EE002AB5EEA9
:101AC000405AF1EEC51AF1EE10FAC8BFF0EE612AE5
:101AD00083EE223A84EE224A77EE200AB9F1010F12
:101AE00036EE011A49D0411C35F9112023EE022AA5
:101AF00005EE102AB8EEC55A35EE4C5A25EE046AAA
:101B000025EE035A24EE097A20EE040A23EE093A60
:101B1000C9B237EE022AFF2933EE000A14D120EEB3
:101B2000003A22EE024A34EE033AB7EE007AB5EEFE
:101B3000403AB1EEC34AF1EE10FAC8BFB0EE447AB3
:101B400080EE070A82EE072A76EE200AB9F1020F2C
:101B500035EE011A11D005EB4000B0F9040003EE98
:101B6000100AB8EEC33A33EE4C3A23EE022A23EEC3
:101B7000000A72EE200A30EE011AB0EEE00AB0EE72
:101B8000C12A9FED903A32EE000AB4EE430AF1EE1C
:101B900010FA52DBB1EE410A0AF0E2F8B1EE400A67
:101BA00080EE080AB5EE400AF1EE10FA33DA3DEEA7
:101BB000000AB5EE400AF1EE10FA2CDA3DEE000A0A
:101BC000B5EE400AF1EE10FA25DA3DEE000AB5EE68
:101BD000400AF1EE10FA1EDA3DEE000AB5EE400AB8
:101BE000F1EE10FAE3DB16E030EE4D0AB4EE4D0AEA
:101BF000F1EE10FA14DB30EE4D0AB4EE4D0AF1EEC0
:101C000010FA0DDB30EE4D0AB4EE4D0AF1EE10FA8B
:101C100006DB30EE4D0AB4EE4D0AF1EE10FAE3DACF
:101C2000701E02EE100A3BEE001AB8EE422AB4EE25
:101C3000421AF1EE10FA40F3A9800020BDEC0E8BA1
:101C4000BDE8F08700000000DFEDC90AB7EE004AEA
:101C500026F003012A1D0020B0EE601AB0EE446A9F
:101C6000B0EE607A48E000BF32F9043C32F9027C01
:101C700007EE903AF8EEE77A77EECC7A27EE877A9D
:101C800037EE011A07EE107AB8EEC77A27EE866AA9
:101C900037EE4C7A32F9083B36EE206A67EE250AB9
:101CA00027EE267A37EE011A07EE103AB8EEC77A19
:101CB00037EE4C7A32F9063C30EE866A67EE230A3C
:101CC00027EE247A37EE011A07EE103AB8EEC77AFB
:101CD00037EE4C7A30EE866A67EE210A70EE860A9D
:101CE00027EE226A043036EE011A8142B0EE436AD2
:101CF000B0EE457A3FF4BCAE27EE023A26EE095A22
:101D000075EE035A20EE063A27EE095A75EE036A7D
:101D100026EE823A25EE895A75EE033A20EE253AF0
:101D200026EE895A75EE034A24EE823A23EE895A4A
:101D300075EE031A20EE233A24EE895A75EE032A33
:101D400022EE823A21EE895AC31C35EE033ADBB209
:101D500020EE215A62EE897AFF2B37EE855A83D125
:101D600065EE057A23EE03EA7EEE277AB1EEE7EA26
:101D7000F5EE407AF0EE447AF1EE10FAC8BFF0EEDC
:101D80004E7A85EE275A83EE273A6DE747F6FF70C5
:101D9000C8F200009FED771A9FED773A9FED775AD2
:101DA00048F20003C8F80C004FF40047002047F643
:101DB000FF72B7EE002ABEEE004ACFF6FF732EE0A8
:101DC000DB0FC940BD378635B5EE406AB0EE447AC8
:101DD000F1EE10FAA8BFB0EE4A7A36EE077ABDEE01
:101DE000C77AB4EE456A17EE101AF1EE10FA16B281
:101DF000D8BF1946B14208EB40067182BCBFA8F8B3
:101E00000C100A463EB20CB2B44200F10200C4BF4C
:101E1000A8F80E100F46B0F5807F00F0978081B2D1
:101E200006EE101AB8EE466A2BEE066A86EE016AD6
:101E300030EE066ABDEEC67A17EE101A35F911605B
:101E4000013189B235F91110B8EE477A00EE901AD7
:101E500036EE476A07EE106AF8EEE00AB8EEC77A87
:101E600070EECC0A37EE4C7A66EE200A32EE466A05
:101E700027EE066A36EE206AB4EE436AF1EE10FAF7
:101E80001EDAB5EE406AB0EE447AF1EE10FAA8BF61
:101E9000B0EE4A7A36EE077ABDEEC77AB4EE456AFE
:101EA00017EE101AF1EE10FA16B2D8BF1946B14269
:101EB00008EB40063182BCBFA8F80C100A4604E0CB
:101EC00008EB400647F6FF7131823EB20CB2B442D5
:101ED000C4BFA8F80E100F46411C89B206EE101AB6
:101EE000B8EE466A2BEE066A86EE016A30EE066AA6
:101EF000BDEEC67A17EE101A35F91160013189B2BC
:101F000035F91110B8EE477A00EE901A36EE476AAE
:101F100007EE106AF8EEE00AB8EEC77A70EECC0A67
:101F200037EE4C7A66EE200A32EE466A27EE066AF3
:101F300036EE206AB4EE436AF1EE10FAFFF644AFD3
:101F400008EB400647F6FF7171825BE74FF4807043
:101F5000A8F80200012088F801A088ED010A88EDA8
:101F600002BA88F80000BDEC0E8BBDE8F08700BF18
:101F70000000000000007F4300FEFF46000000C795
:101F80002DE9F04F81B02DED108B88B0144600285C
:101F900018BF002C02D134B909E000BF0278002A32
:101FA00018BF00290AD120464821FEF7BCFB0020BB
:101FB00008B0BDEC108B01B0BDE8F08F8278043A18
:101FC00012F1030FEFD30B68002BECD00A79002A33
:101FD000E9D093ED000AB5EE400AF1EE10FAE2DD29
:101FE00093ED010AB5EE400AF1EE10FADBDD012AAD
:101FF0002CD1CDE9040120464821FEF794FBDDF801
:1020000010E09FEDA00A9EF80250DEF80410616017
:102010006570CDB3DDF814A00EF118009AF8041025
:10202000DAF80060CBB204F11807012B06F1040BBB
:102030000290039506972BD19BED002A042D05F005
:10204000030C7BD29FED8F1A0023CDE0013A0833B9
:1020500093ED000AB5EE400AF1EE10FA9BDD93ED28
:10206000011AB5EE401AF1EE10FA94DD13ED021AE2
:10207000B4EE410AF1EE10FA7FF78DAF013A03F1A9
:102080000803E5D1B5E700BFDDF814A0E6E300BF23
:1020900096ED002A0806A6F1040200F0E980012D61
:1020A00002EBC3000790CDE9003640F0ED809FEDD4
:1020B000751A00220398C00700F0D382029800EB43
:1020C000021696ED013A07EB0212B4EE423AF1EE37
:1020D00010FA40F39B820098811E019800F12003C2
:1020E00013ED062AB4EE423AF1EE10FA40F3928272
:1020F00001B313ED042AB4EE423AF1EE10FA40F3C4
:102100008B82012916D013ED022AB4EE423AF1EE89
:1021100010FA40F3838202290CD093ED002AB4EE2A
:10212000423AF1EE10FA40F37A820439481C03F186
:102130002003D5D1079890ED002A82E26FF030019C
:102140009FED501A01EA0517002600230EEB060545
:1021500095ED083AE869A1192A7E22EE033AC86192
:10216000686A81ED083A23EE033A0A7633EE011AE3
:1021700095ED0C3A486295F8280022EE033A81F872
:102180002800686B81ED0C3A23EE033A33EE011A16
:1021900095ED103AEA6A486395F8380022EE033A62
:1021A000CA6281F83800686C81ED103A23EE033A78
:1021B000EA6B33EE011A95ED143A486495F848003D
:1021C000CA6322EE033AEA6C81F84800686D81ED3B
:1021D000143A23EE033A403633EE011AB74203F1C4
:1021E0000403CA644865B1D1069FBCF1000F00F03A
:1021F0003882DDF80880190108EB031090ED023AEF
:1022000007EB031222EE033A18F801504668C06843
:1022100082ED023A23EE033ABCF1010F33EE011ACC
:102220007D545660D06000F01C82581C08EB0011F1
:1022300091ED023A020107EB001022EE033A18F882
:1022400002504E68C96880ED023A23EE033ABCF1B1
:10225000020F33EE011ABD544660C16000F00182E6
:10226000981C08EB001696ED013A07EB0012E8E126
:10227000042D05F0030C80F0E1809FED021A00258B
:102280005EE100BF00000000A3F1020C1FED031A85
:10229000029B05F0FE0006F1200900221DE000BFB0
:1022A0009BED005A24EE044A069F34EE011A95ED88
:1022B000024A297807EB061686ED013A25EE043A24
:1022C0003170E96886ED023A23EE033A0232824227
:1022D00033EE011AF1603FF4EDAE03EB021595ED1C
:1022E000013A4E46B4EE423AF1EE10FA614629DD6B
:1022F00016ED064AB4EE443AF1EE10FA26DDE9B1E5
:1023000016ED044AB4EE443AF1EE10FA20DD01294C
:1023100014D016ED024AB4EE443AF1EE10FA19DD8B
:1023200002290BD096ED004AB4EE443AF1EE10FAD1
:1023300011DD04394F1C06F12006D9D1079991ED22
:10234000004A01E09BED004A069917E0183E02E0C2
:10235000103E00E0083E16ED025A069933EE456A3B
:1023600034EE454A86EE044A96ED015A16ED016AAE
:1023700035EE465A24EE054A34EE064A2E7801EB35
:10238000021181ED013A95ED023A0E7042F001061C
:10239000EF6803EB061524EE034A95ED013A81ED53
:1023A000024AB4EE423ACF60F1EE10FA4F4661466F
:1023B0007FF776AF17ED065AB4EE453AF1EE10FA14
:1023C00024DDF1B117ED045AB4EE453AF1EE10FAFE
:1023D0001EDD012915D017ED025AB4EE453AF1EE93
:1023E00010FA17DD02290CD097ED005AB4EE453AE9
:1023F000F1EE10FA0FDD043911F1010807F12007A1
:10240000D8D1079991ED005A4CE700BF183F02E080
:10241000103F00E0083F17ED026A33EE467A35EED2
:10242000465A87EE055A97ED016A17ED017A36EEA6
:10243000476A25EE065A35EE075A33E76FF030004B
:102440001FED701A00EA0518002700250EEB07069D
:1024500096ED073A5846B4EE423AF1EE10FAC8BF8C
:102460001046E11990ED004A307E81ED073A96ED75
:10247000085A0876706A96ED0B3A24EE054A4862CF
:10248000B4EE423A584681ED084A24EE044AF1EE91
:1024900010FAC8BF104690ED005A96F8280034EEA6
:1024A000011A96ED0C4A81ED0B3A81F8280025EED1
:1024B000043A706B96ED0F4A4863B4EE424A5846B0
:1024C00081ED0C3AF1EE10FAC8BF104623EE033A44
:1024D00090ED005A96F8380033EE011A96ED103A56
:1024E00081ED0F4A81F83800706C96ED134A25EEA5
:1024F000033A81ED103A486423EE033AB4EE424ABF
:102500005846F1EE10FAC8BF104690ED005A33EE6F
:10251000011A96ED143A96F8480025EE033A81F830
:102520004800706D81ED143A23EE033A403733EEE4
:10253000011AB84505F1040581ED134A486585D1B6
:10254000069EBCF1000F00F08C80029B5F4603EBFF
:10255000051090ED013A2901B4EE423AF1EE10FA7D
:10256000C8BF174697ED004A90ED025A13F8018054
:10257000069F06EB051624EE054A07F80180069F24
:1025800086ED013AC06824EE043ABCF1010F33EE47
:10259000011A86ED024AF06063D0681C03EB00115B
:1025A00091ED013A060107EB0010B4EE423A5F46A6
:1025B000F1EE10FAC8BF174697ED004A91ED025AA6
:1025C00013F80680069F24EE054A07F80680069F4A
:1025D00080ED013AC96824EE043ABCF1020F33EEF3
:1025E000011A80ED024AC1603BD0A81C03EB001623
:1025F00096ED013AB4EE423AF1EE10FAC8BF9346B6
:102600009BED002A07EB00121BE000BF9BED002AA8
:1026100017E000BF183B02E0103B00E0083B13ED61
:10262000024A33EE445A32EE442A85EE022A93EDF2
:10263000014A13ED015A34EE454A22EE042A32EEE5
:10264000052A82ED013A96ED023A307822EE032A0D
:102650001070F06882ED022A22EE022A32EE011A90
:10266000D060B6EE002A21EE021AB1EEC11A03992B
:10267000002984ED031A00F0F1809FEDB18A6FF01C
:1026800030009FEDB09A9FEDB0AA01F0030800EA78
:1026900001170025B0EE48BAB0EE48CA16E000BFF8
:1026A000B4EE4BEAF1EE10FAB4EE4CEAB8BFB0EE7D
:1026B0004EBAF1EE10FAC8BFB0EE4ECA079A40F219
:1026C000FF70824205F1010580F0C680A8B200EEDD
:1026D000100AB8EE400A20EE090A46468B46042945
:1026E00020EE0ADA079005D24FF0000AB0EE48EA71
:1026F0005EE000BF4FF000084FF0000AB0EE48EA7D
:1027000004EB080999F8180099ED091A00EE100A6F
:10271000B8EE400A20EE0D0A99ED08FA30EE010AF3
:1027200009F074FC99F828002FEE000A30EE0EEA4A
:1027300000EE100AB8EE400A99ED0D1A20EE0D0ACF
:1027400099ED0CFA30EE010A09F060FC99F83800B6
:102750002FEE000A30EE0EEA00EE100AB8EE400A44
:1027600099ED111A20EE0D0A99ED10FA30EE010ADA
:1027700009F04CFC99F848002FEE000A30EE0EEA02
:1027800000EE100AB8EE400A99ED151A20EE0D0A77
:1027900099ED14FA30EE010A09F038FC2FEE000A28
:1027A00008F1400830EE0EEA47450AF1040AA7D1C5
:1027B000B046002E594645D006994FEA0A10085CEB
:1027C00001EB0A1600EE100AB8EE400A96ED031A65
:1027D00020EE0D0A96ED02FA30EE010A09F016FC21
:1027E0002FEE000AB8F1010F30EE0EEA29D0307C4E
:1027F00096ED071A00EE100AB8EE400A20EE0D0A18
:1028000096ED06FA30EE010A09F000FC2FEE000A00
:10281000B8F1020F30EE0EEA13D096F8200096EDD4
:102820000B1A00EE100AB8EE400A20EE0D0A96EDE3
:102830000AFA30EE010A09F0E9FB2FEE000A30EE49
:102840000EEA0399DDE904EA28047FF429AFB0EE2B
:102850004ECAB0EE4EBA31E73CEE4B0A9EF803008A
:1028600084ED020A002845D001209AF80420A070C7
:102870009EED041A9EED050ADAF80000012A84EDA7
:10288000041A31D090ED002AB4EE421AF1EE10FA9B
:102890002ADDBAB3931E00F1200111ED062AB4EE31
:1028A000421AF1EE10FA33DD6BB311ED042AB4EEE7
:1028B000421AF1EE10FA2DDD012B24D011ED022A7F
:1028C000B4EE421AF1EE10FA26DD022B1BD091ED88
:1028D000002AB4EE421AF1EE10FA1EDD043B5F1C32
:1028E00001F12001D9D10EE090ED011A20EE010A8C
:1028F00084ED050A0120207008B0BDEC108B01B0FA
:10290000BDE8F08F002200EBC20010ED011AEDE7E8
:10291000183902E0103900E0083911ED023A31EEC1
:10292000431A32EE432A81EE021A91ED012A11ED8B
:10293000013A32EE432A21EE021A31EE031AD5E7AC
:1029400000000000DB0FC9400000003A10B540F263
:102950007004C2F2000400206060A060207060700B
:1029600040F28C10A11CC2F20000012204F01AF8FF
:10297000002808BF10BDA0680130A06010BD000095
:1029800013460A46014600284FF0000018BF002AEF
:1029900000D1704780B540F28C10C2F2000004F004
:1029A00059F8B0FA80F04009BDE880407047000057
:1029B000F0B599B040F28406C2F20006746941F69F
:1029C000146201AD0F460346C0F60102284660219D
:1029D0000094FDF7E5FC2846FDF77EFE4FF6FF71FB
:1029E000884238BF014628463222FFF7C9FF00203F
:1029F0007071A6F8070004203070384607F098FA86
:102A000019B0F0BD80B54CF22021C2F20001D1ED29
:102A1000010A024640F2D4104CF664439FED080AC6
:102A2000C2F20000C2F200034FF48051FEF758FFDB
:102A300020B102F01BFA012080BD00BF002080BD44
:102A40008096984AB0B59AB040F2D410C2F2000015
:102A50004FF40051FDF767FE4CF22020C2F2000057
:102A60004821FDF760FE4CF2D810C2F20000482168
:102A7000FDF759FE4CF66440C2F200004FF40471B9
:102A8000FDF751FE4CF66400C2F200004FF4806185
:102A9000FDF749FE4CF26440C2F200004FF4806141
:102AA000FDF741FE40F28404C2F2000400252570C7
:102AB00002F03CFDC4E90405A56102F037FD44F8CD
:102AC000245F44E9020502F031FD40F2011124F8CF
:102AD000231C44F8215C24F81D5CC4E9010502F0C4
:102AE00025FD7838E06002F021FD7838206144F857
:102AF000185C04F81B5C07F013F8FDF71FFF204675
:102B0000FEF780FC236804F81A0C02AC84460AA283
:102B100020466021CDF800C0FDF742FC2046FDF7BD
:102B2000DBFD4FF6FF71884238BF01462046322256
:102B3000FFF726FF1AB0B0BD475F464C4F572C62D7
:102B40006F6F742C69643D30782530386C582C6F69
:102B50006E6C696E653D25752C66733D313235307E
:102B60003030302C6E3D343039360D0A0000000014
:102B70002DE9F04FA1B002F0D9FC814600208DF87C
:102B80000B001BA80DF10B0107F054F840F2840470
:102B90000028C2F2000453D002F0C8FC9DF86C106B
:102BA00002290FD0012915D1216B411A782947D369
:102BB0002178206311F0FB0F26D00FF6E4002021CE
:102BC0008CE100BF61780122012908BF03228DF842
:102BD0000B2003E001F0FE01022931D1616B411AA3
:102BE00078292DD39DF80B10606301F0FD02012AB6
:102BF00026D120786170421E022A00F2D78001207F
:102C0000E0700FF6EC0757E10FF6B80106460846EC
:102C100013213222FFF7B4FE0120012507F036F917
:102C200006F59670E0624FF480706178A4F80700B2
:102C30000020A4F8030003206571A17020702661B4
:102C4000E079012840F05181A179022940D0012981
:102C50001ED000295CD14CF2D810C2F2000090EDD9
:102C6000010AB5EE400AF1EE10FA40F39D809FEDA7
:102C7000A41AB4EE410AF1EE10FA80F2F780B6EE33
:102C8000001A30EE010ABCEEC00A10EE103AEFE076
:102C90004CF2D810C2F2000090ED020A9FED991A92
:102CA00020EE010AB5EE400AF1EE10FA78DD9FED54
:102CB000941AB4EE410AF1EE10FA80F28F80B6EE6B
:102CC000001A30EE010ABCEEC00A10EE100A87E0CE
:102CD0004CF2D810C2F2000090ED030A9FED891A61
:102CE00020EE010AB5EE400AF1EE10FA5ADD9FED32
:102CF000841AB4EE410AF1EE10FA80F29380B6EE37
:102D0000001A30EE010ABCEEC00A10EE100A8BE089
:102D1000052900F2C1804CF2D8120FF61007C2F25A
:102D200000020FF60400042908BF074653780FF687
:102D30000000032918BF38460BB38F1E02F1480666
:102D4000591EFAB216F8303C934200F0F382B1B14A
:102D500016F8203C934200F0EF8201290FD016F8BC
:102D6000103C934200F0EA82022908D03378934263
:102D700000F0E58204394B1C06F14006E2D141F631
:102D80007071C0F6010191E88C00CE68097C0DF1EC
:102D90000C0C8CE88C0006968DF81C1074E000BFBB
:102DA00000201DE000203FE0002361E0227904289C
:102DB0000FF22477A17040F07F80002A7CD00120A0
:102DC00007F064F8A078FFF71DFE00286CD0002003
:102DD00007F05CF80FF208776EE000BF4FF0FF30AD
:102DE00048F21F51C5F2EB11A0FB011253096421F7
:102DF00003FB110741F64E721BADC0F601022846D7
:102E000018210097FDF7CCFA41F69362C0F6010253
:102E100003A840212B46FDF7C3FA41F63860C0F6FF
:102E2000010031E04FF0FF3048F21F51C5F2EB11C5
:102E3000A0FB01125309642103FB110741F64E72F6
:102E40001BADC0F60102284618210097FDF7A8FA2D
:102E500041F69D62C0F6010203A840212B46FDF712
:102E60009FFA41F63B60C0F601000DE04FF0FF33E2
:102E700041F6B062C0F6010203A84021FDF790FAC6
:102E800041F62E60C0F6010041F60971C0F601015D
:102E900003AA08F0B5FEA179481CC1B20529A071AA
:102EA0003ED9E01D3AE000BF41F65860C0F601008F
:102EB00007F03EF80FF23067637803AD0FF2386227
:102EC000284640210097FDF76BFA2846FDF704FCE1
:102ED0004FF6FF71884238BF014628463222FFF77D
:102EE0004FFDE07901283FF4AFAE217A2078012927
:102EF00008BF042808D0042815D121B0BDE8F08F00
:102F0000FFFF7F4F0000C84202F010FBE16A401A49
:102F100006D4002006F0BAFF04F108000021017079
:102F200020780428E9D0002840F09A80A06AB9EB04
:102F30000000E2D40FF20C6008F03EFE41F6097585
:102F400041F62E60C0F6010541F6A862C0F6010008
:102F5000C0F60102294608F053FE41F6386041F6FA
:102F60007C62C0F60100C0F60102294608F048FE66
:102F700041F63B6041F68762C0F60100C0F60102EF
:102F8000294608F03DFE43F27430ADF86C00002095
:102F90008DF86E0041F67070C0F6010090E85001A7
:102FA000CDF80490D0F80C9003A990F810A01BAFB6
:102FB0000DF10C0B81E85001384629465A46CDF8F0
:102FC00018908DF81CA008F01BFE43F27440ADF879
:102FD0006C0000208DF86E0003A880E8500338468E
:102FE00029465A468DF81CA008F00AFE43F2745098
:102FF000ADF86C0000208DF86E0003A880E8500149
:1030000040F28404DDF80480384629465A46C2F26C
:103010000004CDF818908DF81CA008F0F1FD0020F8
:1030200006F034FF607A002840F04781E189ADF86E
:103030000C1061B941F63560C0F6010003A906F035
:10304000E5FB002800F01681BDF80C10E181B1F518
:10305000806F4FF0010740F212814FF480610CE164
:103060002169B9EB01013FF548AF032834D16079FC
:1030700000284DD0A07A38B904F12400FEF7C2F937
:103080000028A07200F0208100200026FEF7F2FA4E
:10309000002800F0BB804CF22020C2F20000482142
:1030A000FDF741FB4CF2D810C2F200004821FDF7B9
:1030B0003AFB4CF66440C2F200004FF40471FDF795
:1030C00032FB01202671C4F81C90207009F1020027
:1030D000206121B0BDE8F08F00261BA81B96FEF7EB
:1030E0005FF808B31B98C10748D1E069A9EB00005D
:1030F000B0F5FA6F12D341F6017041F67461C0F673
:103100000100C0F60101FFF753FC21B0BDE8F08FCC
:103110000020207021B0BDE8F08F00BF09F102004F
:10312000206121B0BDE8F08F676941F6146241F675
:10313000E36303ADC0F60102C0F601032846602137
:103140000097FDF72DF92846FDF7C6FA4FF6FF71F7
:10315000884238BF014628463222FFF711FC04207E
:10316000207041F661606671A4F80760C0F6010046
:1031700006F0DEFE21B0BDE8F08F00BF4FF6FF7114
:103180008843B0F1805F6BD140F2D410C2F20000EE
:103190004FF48051FDF730FE002800F0BD8020780C
:1031A000022800F0278101287FF4A7AE4CF22025E9
:1031B00040F2D410C2F20005C2F20000294603F02A
:1031C00079FE002800F028816069411CC4E90510DF
:1031D00002F0ACF9E169401A2062012000F088FE9B
:1031E00000F044FC00F0BAF9002800F0378101201B
:1031F000FEF740FA002800F045810220207002F01E
:1032000095F90230206121B0BDE8F08F676941F681
:10321000146241F6FB6303ADC0F60102C0F6010380
:10322000284660210097FDF7BBF82846FDF754FAC1
:103230004FF6FF71884238BF014628463222FFF719
:103240009FFB0420207041F66A606671A4F8076055
:10325000C0F6010006F06CFE21B0BDE8F08F00BFA3
:1032600041F6CA60C0F60100B9A1FFF7A1FB21B089
:10327000BDE8F08F00274FF40071ADF80C104CF250
:103280006445C2F2000528462A22FDF744FA41F6B9
:103290003160C0F6010008F08FFC41F6BE66C0F652
:1032A00001063046002108F047FCBDF80C303046DE
:1032B00000212A4608F0E8FC677208F5FA60A0626F
:1032C00021B0BDE8F08F00BF676941F6146203AD1D
:1032D000C0F60102A0A3284660210097FDF760F820
:1032E0002846FDF7F9F94FF6FF71884238BF0146CD
:1032F00028463222FFF744FB00206071A4F8070043
:103300000420207041F64760C0F6010006F010FE70
:1033100021B0BDE8F08F00BF41F6C46041F64E61B8
:10332000C0F60100C0F60101FFF742FB21B0BDE885
:10333000F08F00BF303E02E0203E00E0103E96EDF0
:10334000020A9FED771A20EE010AB5EE400AF1EE6F
:1033500010FA11DD9FED731A8046B4EE410AF1EECA
:1033600010FA0DDAB6EE001A30EE010ABCEEC00A11
:1033700010EE100A06E000BF8046002002E000BF09
:103380004FF0FF3048F21F51C5F2EB11A0FB0112C4
:103390005309642103FB110741F64E721BADC0F6C1
:1033A0000102284618210097FCF7FAFF96ED010A62
:1033B000B5EE400AF1EE10FA10DD9FED5A1AB4EEA8
:1033C000410AF1EE10FA0BDAB6EE001A30EE010AFD
:1033D000BCEEC00A10EE103A04E000BF002301E08A
:1033E0004FF0FF3353A203A840210095FCF7D8FF0C
:1033F000404649E5E0780121217128B1607800213B
:10340000A070E17001E000BFA078FFF7FBFAF8B10F
:1034100001F02CFD10E000BF6878022824D160691B
:10342000411CC4E9051002F081F8E169401A2062EC
:1034300000F0D6FA00F0A0FC02F078F800206071ED
:10344000042020700120207221B0BDE8F08F00BF61
:1034500041F6D160C0F6010018E000BF41F6EA6015
:10346000C0F6010004E000BF41F6DA60C0F60100DA
:1034700041F63E61C0F60101FFF79AFA21B0BDE8BE
:10348000F08F00BF41F6F660C0F6010041F65861CA
:10349000C0F60101FFF78CFA21B0BDE8F08F00BF44
:1034A000475F484D492C6576656E743D7374617253
:1034B000742C69676E6F7265643D627573790D0A6D
:1034C00000000000475F484D492C6576656E743DED
:1034D00073746172740D0A006E65787400000000E8
:1034E00072656472617700006572726F720000002D
:1034F0007175657565640000475F484D492C6576B8
:10350000656E743D6379636C65732C76616C75656B
:103510003D25752C6170706C793D25730D0A000096
:103520000000C842FFFF7F4F743400007435000074
:1035300074330000483D256C75485A2C25736D5630
:10354000000000007265665F737461720000000025
:103550004C454E2045525200696400002DE9F04769
:103560002DED048BCAB0FEF7B5F94CF2D818014620
:103570004CF22020C2F20008C2F200004246FEF7E0
:10358000FFFCB8B198ED010AB5EE400AF1EE10FA71
:1035900028DD9FEDC01AB4EE410AF1EE10FA23DAED
:1035A000B6EE001A30EE010ABCEEC00A10EE103A78
:1035B0001CE000BF40F28400C2F20000836904AC4A
:1035C0000FF2F03220464FF48071FCF7E9FE2046FE
:1035D000FDF782F84FF6FF71884238BF014600249C
:1035E000B3E100BF002301E04FF0FF3341F6B062CA
:1035F00004ACC0F6010220464021FCF7D1FE41F6A2
:103600002E6041F60971C0F60100C0F601012246A4
:1036100008F0F6FA98ED020A9FEDD28A20EE080A29
:10362000B5EE400AF1EE10FA10DD9FEDCD1AB4EEC2
:10363000410AF1EE10FA0BDAB6EE001A30EE010A8A
:10364000BCEEC00A10EE100A04E000BF002001E04A
:103650004FF0FF3048F21F56C5F2EB16A0FB0612E2
:103660005309642703FB170541F64E7244ACC0F6BC
:103670000102204618210095FCF792FE41F6936264
:1036800004ADC0F60102284640212346FCF788FE1F
:1036900041F6386041F60971C0F60100C0F601013B
:1036A0002A4608F0ADFA98ED030A20EE080AB5EEB6
:1036B000400AF1EE10FA0FDD9FEDA91AB4EE410AAF
:1036C000F1EE10FA0ADAB6EE001A30EE010ABCEE9C
:1036D000C00A10EE100A03E0002001E04FF0FF30B6
:1036E000A0FB0612530903FB170741F64E7244ACC8
:1036F000C0F60102204618210097FCF751FE41F662
:103700009D6204ADC0F60102284640212346FCF725
:1037100047FE41F63B6041F60971C0F60100C0F674
:1037200001012A4608F06CFA40F2840098ED010A83
:10373000C2F200008369B5EE400A40F20311F1EED7
:1037400010FAC18016DD9FED861AB4EE410AF1EE43
:1037500010FA2FDAB6EE001A30EE010ABCEEC00AFB
:1037600010EE100A98ED020AB5EE400AF1EE10FADA
:1037700008DC28E0002098ED020AB5EE400AF1EEE0
:1037800010FA20DD9FED761AB4EE410AF1EE10FA40
:1037900032DAB6EE001A30EE010ABCEEC00A10EEC4
:1037A000101A98ED030AB5EE400AF1EE10FA12DC99
:1037B0002BE000BF4FF0FF3098ED020AB5EE400A53
:1037C000F1EE10FADEDC002198ED030AB5EE400AB6
:1037D000F1EE10FA19DD9FED621AB4EE410AF1EE36
:1037E00010FA15DAB6EE001A30EE010ABCEEC00A85
:1037F00010EE102A0EE000BF4FF0FF3198ED030AE3
:10380000B5EE400AF1EE10FAE5DC002202E000BF5E
:103810004FF0FF3298F801700DF1100A8DE80700A3
:1038200051A250464FF480710397FCF7B9FD002870
:1038300072D4064698F80100002863D0FF2E61D8A4
:103840009FED478A08F120070125B6EE009A0FF296
:10385000501900BF17ED010A17F8083CB5EE400AF1
:10386000F1EE10FA18DDB4EE480AF1EE10FAAFBF2F
:103870004FF0FF3C30EE090ABCEEC00A10EE10CA51
:1038800097ED000AB5EE400AF1EE10FA0DDC4FF0AC
:10389000000E17E0FFFF7F4F4FF0000C97ED000A7E
:1038A000B5EE400AF1EE10FAF1DDB4EE480AF1EEA1
:1038B00010FAAFBF4FF0FF3E30EE090ABCEEC00A6F
:1038C00010EE10EAC6F580740AEB060021464A465F
:1038D000CDE900CEFCF764FDA0424FF0FF0138BFF8
:1038E0008119B0F1FF3FC8BF0E4600280AD4A0429C
:1038F00008D298F80100854204D21037FF2905F15B
:103900000105A7D9FD2E0FD80AEB060040F60D21C0
:1039100020F8021B0EE000BF002420464AB0BDEC98
:10392000048BBDE8F08700BF40F60D20ADF80D0117
:103930000AF1FF000021017004A8FCF7CDFE4FF64C
:10394000FF710124884238BF014689B204A832229F
:10395000FFF716F820464AB0BDEC048BBDE8F087AF
:10396000FFFF7F4F0000C842475F4D4541532C7316
:1039700065713D256C752C63616C3D312C66303D65
:10398000256C75487A2C7570703D256C756D562CBC
:1039900075726D733D256C756D562C6E3D257500E9
:1039A0002C6825753D256C75487A3A256C756D56E1
:1039B00000000000475F4D4541532C7365713D2564
:1039C0006C752C63616C3D302C726561736F6E3D5C
:1039D0006E6F5F6D765F7461626C650D0A0000004A
:1039E00010B5A4B040F28400C2F200008369006AFE
:1039F0000021B0F5FA6F98BF012104AC4FF0100C14
:103A0000CDE900010AA220468021CDF808C0FCF7CC
:103A1000C7FC2046FCF760FE4FF6FF71884238BFB6
:103A2000014620463222FEF7ABFF24B010BD00BF96
:103A3000475F464C4F572C6E6F5F7369676E616CC2
:103A40002C7365713D256C752C745F6D733D256C11
:103A5000752C756E64657232733D25752C746872B1
:103A60006573686F6C643D25750D0A002DE9F04F94
:103A700081B02DED048BC6B04CF22029C2F20009B2
:103A800040F2840099ED010AC2F200008369B5EEAC
:103A9000400AF1EE10FA0FDD9FEDAB1AB4EE410AC9
:103AA000F1EE10FA0ADAB6EE001A30EE010ABCEEB8
:103AB000C00A10EE101A03E0002101E04FF0FF31C0
:103AC00099ED020A99F80220B5EE400AF1EE10FADB
:103AD00010DD9FED9D1AB4EE410AF1EE10FA0BDAFB
:103AE000B6EE001A30EE010ABCEEC00A10EE107AF3
:103AF00004E000BF002701E04FF0FF3799ED030A13
:103B00000026B5EE400AF1EE10FA4FF0000511DD87
:103B10009FED8D1AB4EE410AF1EE10FA08DAB6EE16
:103B2000001A30EE010ABCEEC00A10EE105A01E095
:103B30004FF0FF35006A0DF11808B0F5FA6F98BF25
:103B400001268DE8860041F60D72CDE90350C0F6DE
:103B5000010240464FF480710596FCF721FC0028D5
:103B600000F1EB80834699F80200002863D0BBF196
:103B7000FF0F60D89FED748A09F120040126B6EE8C
:103B8000009A0FF2C81A00BF14ED010A14F8083C9D
:103B9000B5EE400AF1EE10FA16DDB4EE480AF1EE89
:103BA00010FAAFBF4FF0FF3C30EE090ABCEEC00A7E
:103BB00010EE10CA94ED000AB5EE400AF1EE10FACC
:103BC0000BDC002516E000BF4FF0000C94ED000A5E
:103BD000B5EE400AF1EE10FAF3DDB4EE480AF1EE6C
:103BE00010FAAFBF4FF0FF3530EE090ABCEEC00A45
:103BF00010EE105ACBF5807708EB0B003946524691
:103C0000CDE900C5FCF7CCFBB8424FF0FF0138BF4F
:103C100000EB0B01B0F1FF3FC8BF8B4600280AD470
:103C2000B84208D299F80200864204D21034FF2923
:103C300006F10106A8D9BBF1FF0F69D899F8031066
:103C400008EB0B00CBF58076F1B199ED040AB5EEE7
:103C5000400AF1EE10FA21DD9FED3B1AB4EE410A65
:103C6000F1EE10FA32DAB6EE001A30EE010ABCEECE
:103C7000C00A10EE103A99ED050AB5EE400AF1EED1
:103C800010FA13DC2BE000BF38A23146FCF788FBAA
:103C9000002830D5BBF1FD0F33D939E0002399ED71
:103CA000050AB5EE400AF1EE10FA18DD9FED261A6E
:103CB000B4EE410AF1EE10FA14DAB6EE001A30EE64
:103CC000010ABCEEC00A10EE107A0DE04FF0FF338F
:103CD00099ED050AB5EE400AF1EE10FAE6DC002790
:103CE00002E000BF4FF0FF371CA231460097FCF7FF
:103CF00057FB0028CED4B0420AD28344BBF1FD0F5B
:103D000006D808EB0B0040F60D2120F8021B05E059
:103D100040F60D20ADF8150108F1FF00002106ACBA
:103D200001702046FCF7D8FC4FF6FF71884238BF7F
:103D3000014620463222FEF723FE46B0BDEC048B3E
:103D400001B0BDE8F08F00BFFFFF7F4F2C682575E5
:103D50003D256C75487A3A256C7500002C7370759A
:103D6000723D256C75487A3A256C75002C73707518
:103D7000723D6E6F6E6500002DE9F04F89B040F224
:103D80008400C2F20000002141F60974C17141F6BD
:103D90002E60C0F6010441F6A862C0F60100C0F62C
:103DA00001022146002507F02BFF41F6386041F65D
:103DB0007C62C0F60100C0F60102214607F020FF38
:103DC00041F63B6041F68762C0F60100C0F6010291
:103DD000214607F015FF43F27430ADF8210041F69B
:103DE0007070C0F601008DF82350D0E90075D0E95D
:103DF000026890F810900DF1210B0DF1040A58465D
:103E000021465246CDE901750396CDF810808DF814
:103E1000149007F0F5FE43F27440ADF82100002045
:103E20008DF82300584621465246CDE90175CDE96B
:103E300003688DF8149007F0E3FE43F27450ADF878
:103E4000210000208DF8230002A8019740F284078A
:103E500080E86001584621465246C2F200078DF8BC
:103E6000149007F0CDFEF989ADF8041031B1B1F529
:103E7000806F4FF0010611D819E000BF41F63560A0
:103E8000C0F6010001A905F0C1FC58B1BDF804104D
:103E9000F981B1F5806F4FF0010608D94FF48061C8
:103EA00003E000BF00264FF40071ADF804104CF29F
:103EB0006444C2F2000420462A22FCF72CFC41F69E
:103EC0003160C0F6010007F077FE41F6BE65C0F62E
:103ED00001052846002107F02FFEBDF804302846D2
:103EE0000021224607F0D0FE7E7209B0BDE8F08FB7
:103EF0002DE9F04F85B040F28408C2F20008B8F80E
:103F00000E100446ADF8121031B1B1F5806F4FF0CC
:103F1000010713D804BB23E141F63560C0F6010068
:103F20000DF1120105F072FC70B1BDF81210A8F885
:103F30000E10B1F5806F4FF00107EBD94FF480619F
:103F4000ADF8121044B90BE100274FF40071ADF841
:103F50001210002C00F004810229C0F001814CF203
:103F60002024C2F200042078002800F0F9804CF2EE
:103F70006449C2F2000948462A220D46FCF7CBFBF1
:103F8000A0782946002800F0EB8004F14805431E84
:103F90009FEDCF0A28461A4610F8304C012C15D058
:103FA00092B310F8204C012C12D0012A2CD010F81A
:103FB000104C012C0ED0022A26D00478012C0AD0F5
:103FC000043A541C00F14000E6D11DE0303802E014
:103FD000203800E0103890ED011A9FEDBE2AB4EEB3
:103FE000421AF1EE10FA0FDB9FEDDD2AB4EE421A11
:103FF000F1EE10FA08DC90ED021AB5EE401AF1EE7F
:1040000010FAC8BFB0EE410A28461A4610F8304CE4
:10401000022C15D092B310F8204C022C12D0012A99
:104020002CD010F8104C022C0ED0022A26D0047886
:10403000022C0AD0043A541C00F14000E6D11DE0E5
:10404000303802E0203800E0103890ED011A9FED82
:10405000A12AB4EE421AF1EE10FA0FDB9FEDC02A4E
:10406000B4EE421AF1EE10FA08DC90ED021AB4EE4A
:10407000401AF1EE10FAC8BFB0EE410A28461A46BF
:1040800010F8304C032C15D092B310F8204C032CB0
:1040900012D0012A2CD010F8104C032C0ED0022A7A
:1040A00026D00478032C0AD0043A541C00F14000B6
:1040B000E6D11DE0303802E0203800E0103890ED05
:1040C000011A9FED842AB4EE421AF1EE10FA0FDBCA
:1040D0009FEDA32AB4EE421AF1EE10FA08DC90ED3F
:1040E000021AB4EE401AF1EE10FAC8BFB0EE410A5F
:1040F000B5EE400AF1EE10FA32DD080A4FF0040E78
:10410000042838BF4FEA112E481EB1F5007F38BF92
:104110004FF0020E03900EF101064FEA5E0A2846A8
:104120001C4610F8302C012A3ED0002C00F057829B
:1041300010F8202C012A39D0012C00F0508210F800
:10414000102C012A34D0022C00F049820278012A76
:104150002FD0043C621C00F14000E2D13FE200BFDE
:104160004CF26440C2F200002A22FCF7D4FA41F675
:104170003160C0F6010007F01FFD41F6BE64C0F6D5
:1041800001042046002107F0D7FCBDF812304CF2A4
:104190006442C2F200022046002107F075FD88F853
:1041A000097005B0BDE8F08F303802E0203800E03B
:1041B000103890ED011A9FED472AB4EE421AF1EE45
:1041C00010FAC0F20C829FED662AB4EE421AF1EEAC
:1041D00010FA00F30482B5EE401A4AF22014F1EE10
:1041E00010FAC0F2070412DD9FEDD22AB4EE421A93
:1041F000F1EE10FA0ADAB6EE002A31EE021ABCEE3F
:10420000C11A11EE102AA41A01E000BF013490ED8A
:10421000021A4BF6085081EE001A039AC0F203000E
:104220009FEDC52A04FB02004AF2A972C0F2474280
:10423000A0FB0202520B21EE021AB5EE401AF1EE7B
:1042400010FA0FDD9FEDBB2AB4EE421AF1EE10FA20
:104250000CDAB6EE002A31EE021ABCEEC11A11EEEB
:1042600010BA05E04FF0000B02E000BF4FF0FF3B3B
:10427000BBF1030F98BF4FF0030BBBF1550FA2EB3F
:104280000E0028BF4FF0550B884202920ED20BEB66
:104290000A02B2FBF6F2B44619F8006002F12A04F1
:1042A000029AB442664688BF09F80040BEF1000F8A
:1042B00000F09581CEF10104A01888420CD3CEF114
:1042C000020084188C4220D370453CD187E100BFA6
:1042D0000000000000401C4684EAE472C2EBE47275
:1042E000324402FB0BA2B446B2FBF6F219F80060AE
:1042F00002F12A04029AB442664688BF09F80040D7
:10430000CEF1020084188C42DED280EAE072C2EB69
:10431000E072324402FB0BA2B146B2FBF6F24CF261
:104320006446C2F20006365D02F12A0C029AB445D8
:104330004E464CF26449C2F2000988BF09F804C035
:10434000704500F04C81CEF10304A018884209D3D7
:10435000CEF1040084188C421DD3704533D13EE168
:104360000024F44884EAE472C2EBE472324402FBB3
:104370000BA2B446B2FBF6F219F8006002F12A046F
:10438000029AB442664688BF09F80040CEF10400A4
:1043900084188C42E1D280EAE072C2EBE0723244CF
:1043A00002FB0BA2B2FBF6FC4A46B146165D0CF1CD
:1043B0002A0CB4454E469146029A88BF09F804C0BB
:1043C000704500F00C81CEF10504A018884207D397
:1043D000CEF1060084188C421BD3704531D1FEE02B
:1043E00084EAE472C2EBE472324402FB0BA2B446EC
:1043F000B2FBF6F219F8006002F12A04029AB44204
:10440000664688BF09F80040CEF1060084188C4249
:10441000E3D280EAE072C2EBE072324402FB0BA20C
:10442000B2FBF6FC4A46B146165D0CF12A0CB445C7
:104430004E469146029A88BF09F804C0704500F0C4
:10444000CE808EF00704A018884207D3CEF1080072
:1044500084188C4217D3704529D1C0E0321B02FB6F
:104460000BA2B446B2FBF6F219F8006002F12A047E
:10447000029AB442664688BF09F80040CEF10800AF
:1044800084188C42E7D2321A02FB0BA2B2FBF6FC74
:104490004A46B146165D0CF12A0CB4454E4691468B
:1044A000029A88BF09F804C0704500F09880CEF1E8
:1044B0000904A018884207D3CEF10A0084188C4260
:1044C00017D3704528D18AE0321B02FB0BA2B446F9
:1044D000B2FBF6F219F8006002F12A04029AB44223
:1044E000664688BF09F80040CEF10A0084188C4265
:1044F000E7D2321A02FB0BA2B2FBF6FC4A46B146E7
:10450000165D0CF12A0CB4454E469146029A88BFBE
:1045100009F804C0704562D0CEF10B04A01888429F
:104520000CD3CEF10C0084188C421CD370452DD1D5
:1045300055E000BFFFFF7F4F0000AA42321B02FB85
:104540000BA2B446B2FBF6F219F8006002F12A049D
:10455000029AB442664688BF09F80040CEF10C00CA
:1045600084188C42E2D2321A02FB0BA2B2FBF6FC98
:104570004A46B146165D0CF12A0CB4454E469146AA
:10458000029A88BF09F804C0704528D0CEF10D0406
:10459000A01888420FD2321B02FB0BA2B446B2FB1A
:1045A000F6F219F8006002F12A04029AB442664653
:1045B00088BF09F80040CEF10E04A01888420ED240
:1045C000321B02FB0BA2B446B2FBF6F219F80060F4
:1045D00002F12A04B442664688BF09F80040284622
:1045E0001C4610F8302C022A1AD0002C00F02E8223
:1045F00010F8202C022A15D0012C00F0278210F888
:10460000102C022A10D0022C00F020820278022AFC
:104610000BD0043C621C00F14000E2D116E200BF66
:10462000303802E0203800E0103890ED011A1FED1C
:10463000D72AB4EE421AF1EE10FAC0F207821FED4B
:10464000B82AB4EE421AF1EE10FA00F3FF81B5EE8B
:10465000401A4AF22014F1EE10FAC0F2070412DDFB
:104660001FED4C2AB4EE421AF1EE10FA0ADAB6EE59
:10467000002A31EE021ABCEEC11A11EE102AA41A59
:1046800001E000BF013490ED021A4BF6085081EEB4
:10469000001A039AC0F203001FED592A04FB02001E
:1046A0004AF2A972C0F24742A0FB0202520B21EE6D
:1046B000021AB5EE401AF1EE10FA0FDD1FED632A73
:1046C000B4EE421AF1EE10FA0CDAB6EE002A31EE30
:1046D000021ABCEEC11A11EE10BA05E04FF0000B41
:1046E00002E000BF4FF0FF3BBBF1030F98BF4FF05C
:1046F000030BBBF1550FA2EB0E0028BF4FF0550B7B
:10470000884202920ED20BEB0A02B2FBF6F2B446DA
:1047100019F8006002F12A04029AB442664688BF82
:1047200009F80040BEF1000F00F09081CEF10104C5
:10473000A018884208D3CEF1020084188C421CD302
:10474000704500F0838133E084EAE472C2EBE472E6
:10475000324402FB0BA2B446B2FBF6F219F8006039
:1047600002F12A04029AB442664688BF09F8004062
:10477000CEF1020084188C42E2D280EAE072C2EBF1
:10478000E072324402FB0BA2CDF804A0B2FBF6F2B9
:10479000B24619F8046002F12A0C029AB445564652
:1047A000DDF804A088BF09F804C0704500F04E8110
:1047B000CEF10304A018884208D3CEF10400841877
:1047C0008C421CD3704500F0418130E084EAE472F1
:1047D000C2EBE472324402FB0BA2B446B2FBF6F227
:1047E00019F8006002F12A04029AB442664688BFB2
:1047F00009F80040CEF1040084188C42E2D280EA2D
:10480000E072C2EBE072324402FB0BA2B2FBF6FC98
:104810004A46B146165D0CF12A0CB4454E46914607
:10482000029A88BF09F804C0704500F00F81CEF1EC
:104830000504A018884209D3CEF1060084188C42E2
:104840001DD3704500F0028131E000BF84EAE472BC
:10485000C2EBE472324402FB0BA2B446B2FBF6F2A6
:1048600019F8006002F12A04029AB442664688BF31
:1048700009F80040CEF1060084188C42E1D280EAAB
:10488000E072C2EBE072324402FB0BA2B2FBF6FC18
:104890004A46B146165D0CF12A0CB4454E46914687
:1048A000029A88BF09F804C0704500F0CF808EF0EE
:1048B0000704A018884209D3CEF1080084188C425E
:1048C00019D3704500F0C28029E000BF321B02FB03
:1048D0000BA2B446B2FBF6F219F8006002F12A040A
:1048E000029AB442664688BF09F80040CEF108003B
:1048F00084188C42E5D2321A02FB0BA2B2FBF6FC02
:104900004A46B146165D0CF12A0CB4454E46914616
:10491000029A88BF09F804C0704500F09780CEF174
:104920000904A018884209D3CEF10A0084188C42E9
:1049300019D3704500F08A8028E000BF321B02FBCB
:104940000BA2B446B2FBF6F219F8006002F12A0499
:10495000029AB442664688BF09F80040CEF10A00C8
:1049600084188C42E5D2321A02FB0BA2B2FBF6FC91
:104970004A46B146165D0CF12A0CB4454E469146A6
:10498000029A88BF09F804C070455FD0CEF10B04CD
:10499000A018884208D3CEF10C0084188C4218D39A
:1049A000704553D028E000BF321B02FB0BA2B44677
:1049B000B2FBF6F219F8006002F12A04029AB4423E
:1049C000664688BF09F80040CEF10C0084188C427E
:1049D000E6D2321A02FB0BA2B2FBF6FC4A46B14603
:1049E000165D0CF12A0CB4454E469146029A88BFDA
:1049F00009F804C0704529D0CEF10D04A0188842F2
:104A00000FD2321B02FB0BA2B446B2FBF6F219F82E
:104A1000006002F12A04029AB442664688BF09F88F
:104A20000040CEF10E04A01888420FD2321B02FBC8
:104A30000BA2B446B2FBF6F219F8006002F12A04A8
:104A4000B442664688BF09F8004000BF15F8300C34
:104A500003281BD0002B3FF48AAB15F8200C032849
:104A600016D0012B3FF483AB15F8100C032811D09E
:104A7000022B3FF47CAB287803280CD0043B581C55
:104A800005F14005E2D1FFF772BB00BF303D02E007
:104A9000203D00E0103D95ED011A9FED432AB4EE54
:104AA000421AF1EE10FAFFF662AB9FED402AB4EE27
:104AB000421AF1EE10FA3FF75AABB5EE401A4AF23D
:104AC0002010F1EE10FAC0F2070012DD9FEDE52A8A
:104AD000B4EE421AF1EE10FA0ADAB6EE002A31EE1E
:104AE000021ABCEEC11A11EE102A801A01E000BFB2
:104AF000013095ED021A4BF6085281EE000A039B35
:104B0000C0F203029FEDD81A00FB03204AF2A972FB
:104B1000C0F24742A0FB02024FEA523C20EE010ADB
:104B2000B5EE400AF1EE10FA10DD9FEDCE1AB4EEAC
:104B3000410AF1EE10FA0BDAB6EE001A30EE010A75
:104B4000BCEEC00A10EE103A04E000BF002301E002
:104B50004FF0FF33032B98BF0323552BACEB0E050F
:104B600028BF55238D420BD203EB0A00B0FBF6F0B1
:104B700019F8052000F12A04944288BF09F805407D
:104B8000BEF1000F3FF4F3AACEF1010404EB0C05D3
:104B90008D420DD3CEF1020505EB0C048C421ED3E1
:104BA00075453FF4E4AA2DE000401C460024F4487B
:104BB00084EAE470C0EBE470304400FB03A019F811
:104BC0000520B0FBF6F000F12A04944288BF09F8F2
:104BD0000540CEF1020505EB0C048C42E0D285EADB
:104BE000E570C0EBE570304400FB03A019F8042029
:104BF000B0FBF6F02A30904288BF09F804007545F2
:104C00003FF4B5AACEF1030404EB0C058D4209D3A1
:104C1000CEF1040505EB0C048C4219D375453FF425
:104C2000A6AA28E084EAE470C0EBE470304400FBFC
:104C300003A019F80520B0FBF6F02A30904288BF97
:104C400009F80500CEF1040505EB0C048C42E5D211
:104C500085EAE570C0EBE570304400FB03A019F86D
:104C60000420B0FBF6F02A30904288BF09F8040017
:104C700075453FF47CAACEF1050404EB0C058D428A
:104C80000AD3CEF1060505EB0C048C421AD3754508
:104C90003FF46DAA29E000BF84EAE470C0EBE47041
:104CA000304400FB03A019F80520B0FBF6F02A30D1
:104CB000904288BF09F80500CEF1060505EB0C040B
:104CC0008C42E4D285EAE570C0EBE570304400FB2D
:104CD00003A019F80420B0FBF6F02A30904288BFF8
:104CE00009F8040075453FF442AA8EF0070404EB6E
:104CF0000C058D420AD3CEF1080505EB0C048C425D
:104D000016D375453FF433AA21E000BF301B00FBEA
:104D100003A019F80520B0FBF6F02A30904288BFB6
:104D200009F80500CEF1080505EB0C048C42E8D229
:104D3000701B00FB03A019F80420B0FBF6F02A302A
:104D4000904288BF09F8040075453FF410AACEF1DF
:104D5000090404EB0C058D420AD3CEF10A0505EBDC
:104D60000C048C4216D375453FF401AA21E000BF24
:104D7000301B00FB03A019F80520B0FBF6F02A3029
:104D8000904288BF09F80500CEF10A0505EB0C0436
:104D90008C42E8D2701B00FB03A019F80420B0FB82
:104DA000F6F02A30904288BF09F8040075453FF4B8
:104DB000DEA9CEF10B0404EB0C058D420AD3CEF133
:104DC0000C0505EB0C048C4216D375453FF4CFA9B6
:104DD00021E000BF301B00FB03A019F80520B0FB49
:104DE000F6F02A30904288BF09F80500CEF10C0594
:104DF00005EB0C048C42E8D2701B00FB03A019F8F1
:104E00000420B0FBF6F02A30904288BF09F8040075
:104E100075453FF4ACA9CEF10D0404EB0C058D42B1
:104E20000BD2301B00FB03A019F80520B0FBF6F0F5
:104E30002A30904288BF09F80500CEF10E0202EB3D
:104E40000C008842BFF493A9B11A01FB03A119F821
:104E50000020B1FBF6F12A31914288BF09F8001019
:104E6000FFF785B9FFFF7F4F0000AA422DE9F04F01
:104E700089B04CF6644440F28406C2F20004C2F2E7
:104E800000062078B1890028ADF8221000F00482D5
:104E90006088B0F5807F40F0FF81B4F90C00B4F970
:104EA0000E50079031B1B1F5806F11D94FF4806188
:104EB000D0E100BFFAA00DF1220104F0A7FC002808
:104EC00000F0C681BDF82210B181B1F5806FEDD838
:104ED000002900F0CF810798A5EB000BBBF1010F73
:104EE000C0F2C181B4F8029045F256564B1EA9F1AA
:104EF000010E01F003058F084FF0000AC5F2555668
:104F000000F0FA80009509EB4905E81E0490484638
:104F10006FF0030909EB800105900391AAEB87016B
:104F20006FF00107DDF814C007EB400004F1100832
:104F300002910190CDF818B0BAFBF3F7012007FBFE
:104F400013A1BAB210FA87F038F91220604538BFC1
:104F50000746B8B25C1A38F91000624301FB002022
:104F6000079990FBF3F00124401AC0EBC0104000F9
:104F700090FBFBF0EA2250FB06F000EBD07B6FF0D9
:104F800013001BF1140FD8BF83460EEB0A00B0FBD1
:104F9000F3F1BBF1EA0F8FB214FA81F401FB1300B5
:104FA000A8BF934638F91770644538BF214689B2C7
:104FB0001A1A38F911107A4300FB0120079990FB67
:104FC000F3F0EA25401AC0EBC0100699400090FBB0
:104FD000F1F050FB06F000EBD0776FF0130017F103
:104FE000140FD8BF07460198EA2F5044B0FBF3F1E5
:104FF000A8BF2F46354601268CB216FA81F601FB72
:10500000130038F91440664538BF314689B21A1A80
:1050100038F91110624300FB0120079990FBF3F06F
:105020002E46401AC0EBC0100699400090FBF1F0EC
:10503000012450FB05F0754600EBD07E6FF01300A5
:105040001EF1140FD8BF86460498BEF1EA0F5044F3
:10505000B0FBF3F14FF0EA0214FA81F4A8BF9646D0
:1050600001FB13008AB2644538BF214638F912208B
:1050700089B21C1A38F91110624300FB01204CF66A
:105080006402C2F200020BF114014A44117107F1EB
:10509000140190FBF3F0079FDDF818B0C01BC0EBC4
:1050A000C010400090FBFBF0517150FB06F00EF178
:1050B000140100EBD070917110F1140F6FF0130117
:1050C000D8BF0846EA284FF0EA01A8BF08461430C6
:1050D000D071029809F10409484404300398AE469F
:1050E00082447FF429AF09F1040ADDF814904CF6EC
:1050F0006444009DC2F20004002D00F0BB800EFB52
:105100000AF0B0FBF3F2012111FA82F102FB130065
:1051100097B2494538BF0A4604F1100C3CF91740D4
:1051200092B2191A3CF912204C4300FB0240079935
:1051300090FBF3F06FF01308401AC0EBC010400072
:1051400090FBFBF0EA2750FB06F000EBD07010F16B
:10515000140FD8BF4046EA28A8BF38464CF6640270
:105160001430012DC2F2000202F80A0000F0828021
:105170000AF1010005900EFB00F0B0FBF3F22946A6
:105180007546B646012616FA82F602FB130094B263
:105190004E4538BF32463CF9144092B21E1A3CF9D3
:1051A0001220664300FB0260079A90FBF3F0801A1E
:1051B000C0EBC010400090FBFBF04CF6640250FBCB
:1051C0000EF000EBD07010F1140FC8BF8046B8F19C
:1051D000EA0FB8BF47460229059907F11400C2F249
:1051E0000002505446D00AF1020705FB07F0B0FB5D
:1051F000F3F2012515FA82F594B202FB13004D4536
:105200003CF9144038BF2A4692B21E1A3CF91210DB
:1052100006FB04F200FB0120079990FBF3F0401A13
:10522000C0EBC010400090FBFBF04CF6640150FB5B
:105230000EF000EBD07010F1140FD8BF6FF0130018
:10524000EA28A8BFEA201430C2F20001C85511E0D4
:105250004FF40071ADF822100798A5EB000BBBF1DD
:10526000010FBFF63FAE4CF66400C2F200001422FC
:10527000FBF751FA41F6B864C0F60104204600215C
:1052800006F05AFCBDF822304CF66402C2F200026D
:105290002046002106F0F8FC09B0BDE8F08F00BF01
:1052A0007330000070B5866D044600F03FF994F845
:1052B0003510022928D105462068216C026822F0A9
:1052C00016020260426922F08002426109B9A16CB3
:1052D00019B1016821F008010160016821F00101A4
:1052E000016000BF20680068C00715D000F01EF9FB
:1052F000401B0628F6D320206065032084F8350083
:10530000002184F8341070BD8020606501200021E8
:1053100084F8341070BD00BFE06D3F2101FA00F049
:10532000B060012084F835000020002184F834109A
:1053300070BD000090F83510022909D1052180F8D0
:1053400035100068016821F00101016000207047FC
:105350008021416501207047B0B5044600F0E6F8B1
:10536000054640F20000C2F200000078611C18BF40
:10537000044400BF00F0DAF8401BA042FAD3B0BDED
:105380002DE9F04F83B000F1200200F13E4741F6D5
:105390000045009207F1FF77C4F2020508224FEAA8
:1053A000B726A84208BF072200254FF000084FF09B
:1053B0000009072E38BF4FEAB72201920AE000BF6A
:1053C00009F1010908F10208B9F1100F05F104050E
:1053D00000F0A2800F68012202FA09FE17EA0E0A05
:1053E000EED0D1F804C003220CF003077E1E02FAAF
:1053F00008F4012E6FEA040B12D88468CE6804EA20
:105400000B0406FA08F634438460446824EA0E0666
:10541000CCF3001404FA09F42643466004E000BF0C
:10542000032F01D103271EE0C6688C6806EA0B062D
:1054300004FA08F42643022FC66014D16FF0030269
:10544000009E02EA590756F807C005F01C040F2217
:105450000B69A2402CEA0202A3401A43F251D1F890
:1054600004C00CF00307026807FA08F302EA0B0213
:105470001A431CF4403F0260A2D0002243F64403CA
:105480000292C4F202031A6843F6004442F48042D6
:105490001A601A68C4F2010402F480420292029A6D
:1054A00029F003024FF6084C2244CFF6FF7C52F855
:1054B0000C3005F00C070F26BE40B343019E06FAE0
:1054C00007F73B4342F80C30A2684B6842EA0A07F0
:1054D00043F60C4CDE0258BF22EA0A07A760C4F26A
:1054E000010CDCF800209E0242EA0A0758BF22EABB
:1054F0000A07CCF8007062689E0342EA0A0758BFA8
:1055000022EA0A0767602268DB0342EA0A0758BFFB
:1055100022EA0A07276053E703B0BDE8F08F0000D6
:10552000002A08BF09048161704700004CF6D4606E
:10553000C2F200000068704740F200004CF6D461EF
:10554000C2F20000C2F2000100780A68104408604C
:105550007047000080B543F60040C4F202000168C5
:1055600041F400710160016841F4806101600168EB
:1055700041F480710160032000F086F80F2000F0F4
:1055800005F800F027F8002080BD000070B540F25B
:105590000006C2F2000640F208013278C2F20001B1
:1055A0004FF47A730968B3FBF2F20446B1FBF2F1EF
:1055B000084600F083FE0F2C4FF0010508D838B9DB
:1055C0004FF0FF3021460022002500F031F87460D2
:1055D000284670BD82B0002043F640010190C4F21D
:1055E00002014A6842F480424A604A6802F48042FA
:1055F0000192019A0090086840F0805008600868A5
:1056000000F080500090009802B07047002848BF1A
:10561000704700F01F01012202FA01F11C2202EA88
:10562000D0004EF20012CEF200028150704700000E
:1056300010B54EF60C5CCEF2000CDCF80030C3F373
:10564000022E8EF00704042C28BF0424BEF10303AD
:105650004FF0FF3E0EFA04F438BF0023A1439940F7
:105660000EFA03F39A43114300F00F0200F1604376
:105670000901043A03F564436244002848BF02F17B
:105680000C03197010BD00004EF60C51CEF2000153
:105690000A684FF6FF031A4060F30A2242F0806066
:1056A00040F0FD7008607047002804BF012070477B
:1056B0002DE9F04143F60808C4F202080446D8F880
:1056C000F8030D4600F00700814207D988F8F85327
:1056D000D8F8F80300F00700A84277D120688107C6
:1056E00017D5410705D5D8F8001041F4E051C8F8A6
:1056F0000010010705D5D8F8001041F46041C8F842
:105700000010D8F80010A26821F0F0011143C8F889
:105710000010C00740D1D8F8F80300F00700854218
:1057200007D288F8F853D8F8F80300F00700A84229
:105730004CD12068410707D5D8F80010E26821F461
:10574000E0511143C8F80010000708D5D8F8000050
:10575000216920F4604040EAC100C8F8000000F070
:105760007DF8D8F800104CF63802C1F30311C0F6EA
:105770000002515C40F2080220FA01F140F20400FC
:10578000C2F200000068C2F200021160FFF7FEFEE4
:105790000020BDE8F08100BF6068811E022907D2A9
:1057A00058F8081C89015CBF0120BDE8F08111E0B8
:1057B000012807D158F8081C89035CBF0120BDE807
:1057C000F08107E058F8081C890703D40120BDE8E0
:1057D000F08100BFD8F8001021F003010843C8F899
:1057E0000000FFF7A3FE064641F28837D8F8000014
:1057F000616800F00C00B0EB810F8CD0FFF796FED3
:10580000801BB842F2D90320BDE8F08140F20800C5
:1058100043F60801C2F20000C4F202010068096800
:105820004CF64802C1F38221C0F60002515CC84028
:105830007047000040F2080043F60801C2F2000081
:10584000C4F20201006809684CF64802C1F3423113
:10585000C0F60002515CC8407047000010B543F626
:105860000404C4F202046168C1F3810142F2004001
:10587000C0F2F400DFE801F002040A0210BD00BF2C
:1058800047F64000C0F27D1010BD00BF20682168BF
:105890002368490247F64001C0F27D1100F03F0243
:1058A000C3F388105CBF42F20041C0F2F401A1FBD7
:1058B00000010023FAF7FCFC21680222C1F3014138
:1058C00002EB4101B0FBF1F010BD0000002804BF65
:1058D000012070472DE9F04182B00446007843F67C
:1058E0000006C007C4F202060CD0B06800F00C003D
:1058F000042840F081803068800303D56068002868
:1059000000F06881207880071BD5B06810F00C0F7C
:1059100009D0B06800F00C00082840F0878070685B
:10592000400200F183803068800703D5E0680128D9
:1059300040F050813068216920F0F80040EAC10051
:1059400030602078000713D4207840072AD4A56956
:10595000002D00F03A81B06800F00C00082840F0FB
:10596000A580012D40F00E81012002B0BDE8F0813C
:105970006069002800F082800020C4F247200121E5
:10598000C0F8801EFFF7D2FD054600BF706F80078C
:10599000DAD4FFF7CBFD401B0228F7D9032002B071
:1059A000BDE8F081306C5FEAC0080AD400200190A5
:1059B000306C40F080503064306C00F080500190CA
:1059C000019847F20007C4F200073868C00547D4C1
:1059D000386840F480703860FFF7A8FD054600BFC6
:1059E0003868C0053CD4FFF7A1FD401B0228F7D959
:1059F000032002B0BDE8F081B06800F00C00082878
:105A000003D1706840023FF576AF61683068B1F548
:105A1000803F07D0B1F5A02F40F09A8040F480205D
:105A20003060306840F4803030609AE0E0680028F0
:105A300040F20000C4F247205CD001210160FFF772
:105A400075FD0546306880073FF574AFFFF76EFDC2
:105A5000401B0228F6D9032002B0BDE8F08100BF48
:105A6000A168306F012905D0052955D140F0040007
:105A70003067306F40F00100306756E00020C4F21C
:105A800047200021C0F8801EFFF750FD054600BFEB
:105A9000706F80077FF558AFFFF748FD401B022865
:105AA000F6D9032002B0BDE8F08100BF0027C4F2A0
:105AB000472700203866FFF739FD022D05460DD136
:105AC0003068800140F18A80FFF730FD401B0228DA
:105AD0004FF00300F4D902B0BDE8F08130688001D6
