:020000040800F2
:10000000C0DA002071020008415100085950000870
:100010003D5100087109000809880008000000002F
:100020000000000000000000000000006D52000809
:100030007509000800000000455100083D7E0008D9
:100040008B0200088B0200088B0200088B0200085C
:100050008B0200088B0200088B0200088B0200084C
:100060008B0200088B0200088B0200088B0200083C
:100070008B0200088B0200088B0200088B0200082C
:100080008B0200088B0200088B0200088B0200081C
:100090008B0200088B0200088B0200088B0200080C
:1000A0008B0200088B0200088B0200088B020008FC
:1000B0008B0200088B0200088B0200088B020008EC
:1000C0008B0200088B0200088B0200088B020008DC
:1000D0008B020008FD8700088B0200088B020008D5
:1000E0008B0200088B0200088B0200088B020008BC
:1000F0008B0200088B0200088B0200088B020008AC
:100100008B0200088B0200088B0200088B0200089B
:10011000A58500088B0200088B0200088B020008EE
:100120008B0200088B0200088B0200088B0200087B
:100130008B0200088B0200088B0200088B0200086B
:100140008B0200088B0200088B0200088B0200085B
:100150008B0200088B0200088B0200088B0200084B
:100160008B0200088B0200088B0200088B0200083B
:100170008B0200088B0200088B02000800000000C0
:100180008B0200088B02000800F002F800F060F813
:1001900014A696E8000CB244B344DA4501D100F04D
:1001A00057F8BAE80F000FA696E83000A5EB040553
:1001B00004EB0607AAEB0704A7F101074FEA1515A0
:1001C0004FEA3414A4F10104AC4201D300F040F82A
:1001D00013F0010F18BFFB1A43F0010300F001F800
:1001E000DBE718477882020098820200103A24BFA9
:1001F00078C878C1FAD8520724BF30C830C144BF8C
:1002000004680C6070470000704700000023002461
:1002100000250026103A28BF78C1FBD8520728BF16
:1002200030C148BF0B607047642900F029817529EF
:1002300000F02681782900F05F81732900F0568351
:10024000002070471FB50AF05AFD1FBD10B510BD44
:1002500000F058FB1146FFF7F5FF09F04DFF00F0E5
:1002600076FB03B4FFF7F2FF03BC00F079FB00005C
:100270000948804709480047FEE7FEE7FEE7FEE73A
:10028000FEE7FEE7FEE7FEE7FEE7FEE70448054976
:10029000054A064B70470000E97E00088901000806
:1002A000C0C80020C0DA0020C0CA0020C0CA002098
:1002B00053EA020C00F069802DE9F04B4FF0000684
:1002C000002B1FBFB3FA83F503FA05F424FA05F6F1
:1002D0005E4012BF1643B2FA82F502FA05F4C5F188
:1002E00020051EBF22FA05FC44EA0C04203556EA1C
:1002F000044C4FEA144418BF641C4FF000084FF040
:100300000009904271EB030C39D3002919BFB1FAEF
:1003100081F701FA07F6B0FA80F700FA07F6C7F19D
:1003200020071EBF20FA07FC46EA0C062037B6FB62
:10033000F4FCA7EB0507103F07F01F0BCBF12006DD
:100340002CFA06F60CFA0BFB44BFB3460026202F0E
:10035000A4BF5E464FF0000B5BEA060C08BF4FF0EF
:10036000010B19EB0B0948EB0608ABFB027C06FB03
:1003700002CC0BFB03CCC01B71EB0C01C1E70B469D
:10038000024641464846BDE8F08B13B5084318BF06
:100390004FF0FF300146AFF30080BDE81C407047CE
:1003A0000FB41CB50C0007AA009007D04142A1422F
:1003B00002D32044401E01E04FF0FF30074B7B4446
:1003C00069460190069800F064FA0021002C01D0E3
:1003D000009A11701CBC5DF814FB0000F7040000CB
:1003E00070B5044685690068C10601D5302600E075
:1003F0002026C00707D070BDD4E9012130469047C0
:10040000206A401C20626D1EF6D570BD70B5044692
:1004100085690078C00707D170BDD4E9012120208B
:100420009047206A401C20626D1EF6D570BD70B5E5
:100430000C460546012A05D02878800600D5EA69D1
:10044000002302E0012305E05B1C934202D2E05C42
:100450000028F9D1A869E618C01AA861286A1844CA
:1004600028622846FFF7BCFF04E0D5E9012114F813
:10047000010B9047B442F8D32846FFF7C7FF70BD81
:100480002DE9F0410646002410687529314616A56D
:1004900010D0AFF30080002802DA404213A507E035
:1004A00031688A0701D512A502E0490704D511A5D4
:1004B000012401E0AFF3008000210A2206F12407A5
:1004C00009E0B0FBF2FCB0FBF2F302FB1C003030A1
:1004D00078541846491C0028F3D123462A46304652
:1004E000BDE8F04100F076B9000000002D000000EA
:1004F0002B0000002000000070B504460D46214688
:100500001068AFF300802188090502D50F4A7A44AC
:1005100002E00E4A7A440E32002104F1240305E081
:1005200000F00F060009965D5E54491C0028F7D1C3
:1005300020780023000704D5702D02D009B10223D2
:1005400011322046BDE8704000F044B906A8000012
:100550002DE9F05F894604464FF0000ADFF874B1D8
:10056000FB44C0F820A02046E1688847002874D0EA
:10057000252806D0D4E901219047206A401C20623A
:10058000F1E700265F462046E168884720280546B7
:1005900007DB312D05D2781910F8200C08B106437D
:1005A000F1E7B00701D526F00406C4F81CA0002727
:1005B000C4F818A02A2D09D028460AF099FB38B3B0
:1005C00004EB8708303DC8F8185019E059F8041BAF
:1005D000204604EB87029161E1688847012F0546B8
:1005E00018D1E069002820DA26F020061DE0D8F8AE
:1005F000180000EB800005EB40003038C8F8180008
:100600002046E168884705460AF072FB0028EED1D3
:10061000012F0AD02E2D08D12046E16888477F1C83
:100620000546022F46F02006C4DBA069002803DA45
:10063000404246F00106A061F00701D026F0100606
:100640006C2D0BD0682D09D04C2D39D06A2D35D0AA
:10065000742D35D07A2D33D016E038E0E1682F467E
:1006600020468847B842054609D16C2F26D04FF462
:100670008060E168064320468847054604E06C2F09
:100680001AD04FF4807006430DB3A5F1410019282C
:1006900002D8203546F400664A46294620462660A0
:1006A0004E46FFF7C1FD80B101280BD0F61D26F0A4
:1006B000070000F1080956E74020E4E78020D8E76A
:1006C0000020D6E706F104094DE7284652E7206AE4
:1006D000BDE8F09FDCA7000010B5431C02E010F855
:1006E000011B71B18107FAD14FF0013202C88C1A97
:1006F0008C4314EAC211F9D0C01A0A0603D0C01EF6
:1007000010BDC01A10BD0A0401D0801E10BD090220
:10071000FCD0401E10BD02F0FF0343EA032242EA70
:10072000024200F024B84FF000020429C0F0128009
:1007300010F0030C00F01B80CCF1040CBCF1020F94
:1007400018BF00F8012BA8BF20F8022BA1EB0C0169
:1007500000F00DB85FEAC17C24BF00F8012B00F85F
:10076000012B48BF00F8012B70474FF0000200B585
:10077000134694469646203922BFA0E80C50A0E8C4
:100780000C50B1F12001BFF4F7AF090728BFA0E872
:100790000C5048BF0CC05DF804EB890028BF40F83E
:1007A000042B08BF704748BF20F8022B11F0804F80
:1007B00018BF00F8012B704770477047704710B59D
:1007C00000F098F8006810BD10B5044600F092F8EB
:1007D000046010BD2DE9F0470D4699469246044647
:1007E00000F124080168880604D5E06921F01001B1
:1007F000216000E00120A84201DD471B00E0002746
:10080000A1697A1902EB0900081AA0612078C006D4
:1008100002D42046FFF7E4FD002608E0D4E90121D8
:100820001AF806009047206A401C761C20624E454C
:10083000F4DB2078C0060AD52046FFF7D1FD06E09C
:10084000D4E9012130209047206A401C2062381EE4
:10085000A7F10107F4DC07E0D4E9012118F805004D
:100860009047206A401C2062281EA5F10105F3DC98
:100870002046FFF7CBFD2078000602D50220BDE818
:10088000F0870120FBE7000001694A1C026108783B
:10089000704700B58FB0CDE90131002105910549C0
:1008A0007944CDE9031011466846FFF751FE0FB0B9
:1008B00000BD0000E5FFFFFFD1E900239A4202D20C
:1008C000531C0B601070704710B5436913B1AFF340
:1008D000008001E0FFF7ABFD012010BD127800F1B0
:1008E00024010A7000224A700122EDE711684FF0DE
:1008F000FF32E9E7004870471000002000487047C9
:10090000100000207546FFF7F9FFAE460500694666
:10091000534620F00700854618B020B5FFF7B6FC17
:10092000BDE820404FF000064FF000074FF00008F0
:100930004FF0000BAC46ACE8C009ACE8C009ACE82D
:10094000C009ACE8C00921F007018D46704710B519
:100950000446AFF300802046BDE81040FFF781BC9D
:1009600001491820ABBEFEE72600020070470000D8
:10097000FEE700007047000072B600BFFEE700000F
:10098000F0B587B0002543F630000695CDE9045553
:10099000CDE902550195C4F202000168002441F03E
:1009A000010101600068C4F2020400F0010001903E
:1009B00001982046102101221026012703F0D6F8C5
:1009C0000320059002A92046CDE90267049502F0B4
:1009D000FDFF07B0F0BD00002DE9F04F83B04FF0F0
:1009E000000728B3804641F20100081A0C4610F5B2
:1009F000805F1DD30026C4F202064FF40850029017
:100A0000304610210022019703F0B0F840F2681040
:100A10000A25C2F2000002A901AA0223009503F0F0
:100A2000E3FC054630461021012203F09FF81DB17A
:100A3000384603B0BDE8F08F022C39D30DF1080918
:100A400001AFC24601204FF0000B00BF0021019111
:100A50004FF408516FF31F30ADF80810ADF80A00DD
:100A600030461021002203F081F840F26810C2F2F3
:100A7000000049463A4602230A25009503F0B4FCDB
:100A8000054630461021012203F070F8E5BBBDF8A1
:100A9000040045F24131884236D1BDF806100BF111
:100AA000010B012010FA8BF0A0422AF8021BCDD3D3
:100AB00000200190029030461021002203F056F8E9
:100AC00040F268100A27C2F2000002A901AA02231C
:100AD000009703F089FC054630461021012203F0FF
:100AE00045F88DB9BDF8040045F2413188420BD17B
:100AF000BDF8060008EB4401012721F8020C384636
:100B000003B0BDE8F08F00BF0027384603B0BDE852
:100B1000F08F00002DE9F04184B04FF00005F8B1EE
:100B20000024C4F20204804605604FF40450039090
:100B3000204610210022029503F018F840F26810B8
:100B40000A27C2F2000003A902AA0223009703F0B9
:100B50004BFC064620461021012203F007F81EB187
:100B6000284604B0BDE8F0810020029003902046A2
:100B70001021002202F0FAFF40F26810C2F20000D9
:100B800003A902AA0223009703F02EFC0546204683
:100B90001021012202F0EAFF25B10025284604B009
:100BA000BDE8F081BDF80800BDF80A10012541EA52
:100BB0000040C8F80000284604B0BDE8F0810000FD
:100BC0002DE9F04184B0044600281CBF00202060BD
:100BD0000025C4F202054FF4005000260390284679
:100BE00010210022029602F0C1FF40F268104FF07F
:100BF0000A08C2F2000003A902AA0223CDF800806D
:100C000003F0F2FB074628461021012202F0AEFF56
:100C100027B1304604B0BDE8F08100BF284610215E
:100C200000220296039602F0A1FF40F26810C2F281
:100C3000000003A902AA0223CDF8008003F0D4FB30
:100C4000064628461021012202F090FF26B1002618
:100C5000304604B0BDE8F081BDF80800BDF80A10C8
:100C6000002C41EA004018BF2060A0F2D240B0FA48
:100C700080F04609304604B0BDE8F081B0B584B0DC
:100C800000214FF4445200240291002808BF4FF481
:100C90004052C4F20204ADF80C20ADF80E1020460C
:100CA0001021002202F062FF40F268100A25C2F211
:100CB000000003A902AA0223009503F095FB054654
:100CC00020461021012202F051FFB5FA85F04009BB
:100CD00004B0B0BD40F27830C0F6010070470000AB
:100CE0002DE9F0472DED0E8B0E4602F0FD01012996
:100CF0003ED10546E0B3042E3AD3CBB3B5EE400A5D
:100D0000B0EE408AF1EE10FA32DDF5EE400AB0EEB8
:100D1000609AF1EE10FA2BDDB6EE00AA28EE0A0A70
:100D2000B4EE409AF1EE10FA22DA18464FF404714C
:100D300092469846FFF719FD88EE09DA00EE10AAF0
:100D4000B8EE400AB01E2DEE00BA00EE100AB8EE62
:100D5000400AB4EE40BAF1EE10FA00F36E81042EB0
:100D600006F0030912D29FEDB70A002039E000BF58
:100D7000002B00F0628118464FF40471FFF7F5FC78
:100D80000020BDEC0E8BBDE8F08700BF9FEDAD0AE3
:100D900026F00301A5F10802002000BF32F9083F48
:100DA000043001EE103AB2F90230B8EEC11A30EE5A
:100DB000010AB2F9047001EE103AB8EEC11AB2F9A4
:100DC000064030EE010A01EE107AB8EEC11A30EE9C
:100DD000010A01EE104AB8EEC11A814230EE010A52
:100DE000DCD1B9F1000F1FD035F91010B9F1010FA6
:100DF00001EE101AB8EEC11A30EE010A14D005EB5C
:100E00004000B0F90210B9F1020F01EE101AB8EE6D
:100E1000C11A30EE010A07D0B0F9040001EE100A41
:100E2000B8EEC11A30EE010A01EE106A9FEDE42A15
:100E3000B8EE411A80EE01CA29EE020A80EE088A55
:100E4000B0EE480A09F0A4FBB0EE409AB0EE480AB2
:100E500009F0BCFD042EB1EE402A80F0F580DFEDF4
:100E6000790AB7EE003A0020B0EE601AB0EE605A90
:100E7000B9F1000F00F0818035F9101025EE024A1B
:100E800023EE096A36EE044A06EE101AB8EEC66A78
:100E900036EE4C6A26EE037A26EE056A20EE033A19
:100EA00025EE095AC1B2FF2935EE033A14D123EEDB
:100EB000035A64EE041A31EE855AF7EE002AB5EEB5
:100EC000405AF1EEC51AF1EE10FAC8BFF0EE612AF1
:100ED00083EE223A84EE224A77EE200AB9F1010F1E
:100EE00036EE011A49D0411C35F9112023EE022AB1
:100EF00005EE102AB8EEC55A35EE4C5A25EE046AB6
:100F000025EE035A24EE097A20EE040A23EE093A6C
:100F1000C9B237EE022AFF2933EE000A14D120EEBF
:100F2000003A22EE024A34EE033AB7EE007AB5EE0A
:100F3000403AB1EEC34AF1EE10FAC8BFB0EE447ABF
:100F400080EE070A82EE072A76EE200AB9F1020F38
:100F500035EE011A11D005EB4000B0F9040003EEA4
:100F6000100AB8EEC33A33EE4C3A23EE022A23EECF
:100F7000000A72EE200A30EE011AB0EEE00AB0EE7E
:100F8000C12A9FED903A32EE000AB4EE430AF1EE28
:100F900010FA52DBB1EE410A09F0A4F9B1EE400AB1
:100FA00080EE080AB5EE400AF1EE10FA33DA3DEEB3
:100FB000000AB5EE400AF1EE10FA2CDA3DEE000A16
:100FC000B5EE400AF1EE10FA25DA3DEE000AB5EE74
:100FD000400AF1EE10FA1EDA3DEE000AB5EE400AC4
:100FE000F1EE10FAE3DB16E030EE4D0AB4EE4D0AF6
:100FF000F1EE10FA14DB30EE4D0AB4EE4D0AF1EECC
:1010000010FA0DDB30EE4D0AB4EE4D0AF1EE10FA97
:1010100006DB30EE4D0AB4EE4D0AF1EE10FAE3DADB
:10102000701E02EE100A3BEE001AB8EE422AB4EE31
:10103000421AF1EE10FA40F3A9800020BDEC0E8BAD
:10104000BDE8F08700000000DFEDC90AB7EE004AF6
:1010500026F003012A1D0020B0EE601AB0EE446AAB
:10106000B0EE607A48E000BF32F9043C32F9027C0D
:1010700007EE903AF8EEE77A77EECC7A27EE877AA9
:1010800037EE011A07EE107AB8EEC77A27EE866AB5
:1010900037EE4C7A32F9083B36EE206A67EE250AC5
:1010A00027EE267A37EE011A07EE103AB8EEC77A25
:1010B00037EE4C7A32F9063C30EE866A67EE230A48
:1010C00027EE247A37EE011A07EE103AB8EEC77A07
:1010D00037EE4C7A30EE866A67EE210A70EE860AA9
:1010E00027EE226A043036EE011A8142B0EE436ADE
:1010F000B0EE457A3FF4BCAE27EE023A26EE095A2E
:1011000075EE035A20EE063A27EE095A75EE036A89
:1011100026EE823A25EE895A75EE033A20EE253AFC
:1011200026EE895A75EE034A24EE823A23EE895A56
:1011300075EE031A20EE233A24EE895A75EE032A3F
:1011400022EE823A21EE895AC31C35EE033ADBB215
:1011500020EE215A62EE897AFF2B37EE855A83D131
:1011600065EE057A23EE03EA7EEE277AB1EEE7EA32
:10117000F5EE407AF0EE447AF1EE10FAC8BFF0EEE8
:101180004E7A85EE275A83EE273A6DE747F6FF70D1
:10119000C8F200009FED771A9FED773A9FED775ADE
:1011A00048F20003C8F80C004FF40047002047F64F
:1011B000FF72B7EE002ABEEE004ACFF6FF732EE0B4
:1011C000DB0FC940BD378635B5EE406AB0EE447AD4
:1011D000F1EE10FAA8BFB0EE4A7A36EE077ABDEE0D
:1011E000C77AB4EE456A17EE101AF1EE10FA16B28D
:1011F000D8BF1946B14208EB40067182BCBFA8F8BF
:101200000C100A463EB20CB2B44200F10200C4BF58
:10121000A8F80E100F46B0F5807F00F0978081B2DD
:1012200006EE101AB8EE466A2BEE066A86EE016AE2
:1012300030EE066ABDEEC67A17EE101A35F9116067
:10124000013189B235F91110B8EE477A00EE901AE3
:1012500036EE476A07EE106AF8EEE00AB8EEC77A93
:1012600070EECC0A37EE4C7A66EE200A32EE466A11
:1012700027EE066A36EE206AB4EE436AF1EE10FA03
:101280001EDAB5EE406AB0EE447AF1EE10FAA8BF6D
:10129000B0EE4A7A36EE077ABDEEC77AB4EE456A0A
:1012A00017EE101AF1EE10FA16B2D8BF1946B14275
:1012B00008EB40063182BCBFA8F80C100A4604E0D7
:1012C00008EB400647F6FF7131823EB20CB2B442E1
:1012D000C4BFA8F80E100F46411C89B206EE101AC2
:1012E000B8EE466A2BEE066A86EE016A30EE066AB2
:1012F000BDEEC67A17EE101A35F91160013189B2C8
:1013000035F91110B8EE477A00EE901A36EE476ABA
:1013100007EE106AF8EEE00AB8EEC77A70EECC0A73
:1013200037EE4C7A66EE200A32EE466A27EE066AFF
:1013300036EE206AB4EE436AF1EE10FAFFF644AFDF
:1013400008EB400647F6FF7171825BE74FF480704F
:10135000A8F80200012088F801A088ED010A88EDB4
:1013600002BA88F80000BDEC0E8BBDE8F08700BF24
:101370000000000000007F4300FEFF46000000C7A1
:101380002DE9F04F81B02DED108B88B01446002868
:1013900018BF002C02D134B909E000BF0278002A3E
:1013A00018BF00290AD120464821FFF7DEF90020A6
:1013B00008B0BDEC108B01B0BDE8F08F8278043A24
:1013C00012F1030FEFD30B68002BECD00A79002A3F
:1013D000E9D093ED000AB5EE400AF1EE10FAE2DD35
:1013E00093ED010AB5EE400AF1EE10FADBDD012AB9
:1013F0002CD1CDE9040120464821FFF7B6F9DDF8EC
:1014000010E09FEDA00A9EF80250DEF80410616023
:101410006570CDB3DDF814A00EF118009AF8041031
:10142000DAF80060CBB204F11807012B06F1040BC7
:101430000290039506972BD19BED002A042D05F011
:10144000030C7BD29FED8F1A0023CDE0013A0833C5
:1014500093ED000AB5EE400AF1EE10FA9BDD93ED34
:10146000011AB5EE401AF1EE10FA94DD13ED021AEE
:10147000B4EE410AF1EE10FA7FF78DAF013A03F1B5
:101480000803E5D1B5E700BFDDF814A0E6E300BF2F
:1014900096ED002A0806A6F1040200F0E980012D6D
:1014A00002EBC3000790CDE9003640F0ED809FEDE0
:1014B000751A00220398C00700F0D382029800EB4F
:1014C000021696ED013A07EB0212B4EE423AF1EE43
:1014D00010FA40F39B820098811E019800F12003CE
:1014E00013ED062AB4EE423AF1EE10FA40F392827E
:1014F00001B313ED042AB4EE423AF1EE10FA40F3D0
:101500008B82012916D013ED022AB4EE423AF1EE95
:1015100010FA40F3838202290CD093ED002AB4EE36
:10152000423AF1EE10FA40F37A820439481C03F192
:101530002003D5D1079890ED002A82E26FF03001A8
:101540009FED501A01EA0517002600230EEB060551
:1015500095ED083AE869A1192A7E22EE033AC8619E
:10156000686A81ED083A23EE033A0A7633EE011AEF
:1015700095ED0C3A486295F8280022EE033A81F87E
:101580002800686B81ED0C3A23EE033A33EE011A22
:1015900095ED103AEA6A486395F8380022EE033A6E
:1015A000CA6281F83800686C81ED103A23EE033A84
:1015B000EA6B33EE011A95ED143A486495F8480049
:1015C000CA6322EE033AEA6C81F84800686D81ED47
:1015D000143A23EE033A403633EE011AB74203F1D0
:1015E0000403CA644865B1D1069FBCF1000F00F046
:1015F0003882DDF80880190108EB031090ED023AFB
:1016000007EB031222EE033A18F801504668C0684F
:1016100082ED023A23EE033ABCF1010F33EE011AD8
:101620007D545660D06000F01C82581C08EB0011FD
:1016300091ED023A020107EB001022EE033A18F88E
:1016400002504E68C96880ED023A23EE033ABCF1BD
:10165000020F33EE011ABD544660C16000F00182F2
:10166000981C08EB001696ED013A07EB0012E8E132
:10167000042D05F0030C80F0E1809FED021A002597
:101680005EE100BF00000000A3F1020C1FED031A91
:10169000029B05F0FE0006F1200900221DE000BFBC
:1016A0009BED005A24EE044A069F34EE011A95ED94
:1016B000024A297807EB061686ED013A25EE043A30
:1016C0003170E96886ED023A23EE033A0232824233
:1016D00033EE011AF1603FF4EDAE03EB021595ED28
:1016E000013A4E46B4EE423AF1EE10FA614629DD77
:1016F00016ED064AB4EE443AF1EE10FA26DDE9B1F1
:1017000016ED044AB4EE443AF1EE10FA20DD012958
:1017100014D016ED024AB4EE443AF1EE10FA19DD97
:1017200002290BD096ED004AB4EE443AF1EE10FADD
:1017300011DD04394F1C06F12006D9D1079991ED2E
:10174000004A01E09BED004A069917E0183E02E0CE
:10175000103E00E0083E16ED025A069933EE456A47
:1017600034EE454A86EE044A96ED015A16ED016ABA
:1017700035EE465A24EE054A34EE064A2E7801EB41
:10178000021181ED013A95ED023A0E7042F0010628
:10179000EF6803EB061524EE034A95ED013A81ED5F
:1017A000024AB4EE423ACF60F1EE10FA4F4661467B
:1017B0007FF776AF17ED065AB4EE453AF1EE10FA20
:1017C00024DDF1B117ED045AB4EE453AF1EE10FA0A
:1017D0001EDD012915D017ED025AB4EE453AF1EE9F
:1017E00010FA17DD02290CD097ED005AB4EE453AF5
:1017F000F1EE10FA0FDD043911F1010807F12007AD
:10180000D8D1079991ED005A4CE700BF183F02E08C
:10181000103F00E0083F17ED026A33EE467A35EEDE
:10182000465A87EE055A97ED016A17ED017A36EEB2
:10183000476A25EE065A35EE075A33E76FF0300057
:101840001FED701A00EA0518002700250EEB0706A9
:1018500096ED073A5846B4EE423AF1EE10FAC8BF98
:101860001046E11990ED004A307E81ED073A96ED81
:10187000085A0876706A96ED0B3A24EE054A4862DB
:10188000B4EE423A584681ED084A24EE044AF1EE9D
:1018900010FAC8BF104690ED005A96F8280034EEB2
:1018A000011A96ED0C4A81ED0B3A81F8280025EEDD
:1018B000043A706B96ED0F4A4863B4EE424A5846BC
:1018C00081ED0C3AF1EE10FAC8BF104623EE033A50
:1018D00090ED005A96F8380033EE011A96ED103A62
:1018E00081ED0F4A81F83800706C96ED134A25EEB1
:1018F000033A81ED103A486423EE033AB4EE424ACB
:101900005846F1EE10FAC8BF104690ED005A33EE7B
:10191000011A96ED143A96F8480025EE033A81F83C
:101920004800706D81ED143A23EE033A403733EEF0
:10193000011AB84505F1040581ED134A486585D1C2
:10194000069EBCF1000F00F08C80029B5F4603EB0B
:10195000051090ED013A2901B4EE423AF1EE10FA89
:10196000C8BF174697ED004A90ED025A13F8018060
:10197000069F06EB051624EE054A07F80180069F30
:1019800086ED013AC06824EE043ABCF1010F33EE53
:10199000011A86ED024AF06063D0681C03EB001167
:1019A00091ED013A060107EB0010B4EE423A5F46B2
:1019B000F1EE10FAC8BF174697ED004A91ED025AB2
:1019C00013F80680069F24EE054A07F80680069F56
:1019D00080ED013AC96824EE043ABCF1020F33EEFF
:1019E000011A80ED024AC1603BD0A81C03EB00162F
:1019F00096ED013AB4EE423AF1EE10FAC8BF9346C2
:101A00009BED002A07EB00121BE000BF9BED002AB4
:101A100017E000BF183B02E0103B00E0083B13ED6D
:101A2000024A33EE445A32EE442A85EE022A93EDFE
:101A3000014A13ED015A34EE454A22EE042A32EEF1
:101A4000052A82ED013A96ED023A307822EE032A19
:101A50001070F06882ED022A22EE022A32EE011A9C
:101A6000D060B6EE002A21EE021AB1EEC11A039937
:101A7000002984ED031A00F0F1809FEDB18A6FF028
:101A800030009FEDB09A9FEDB0AA01F0030800EA84
:101A900001170025B0EE48BAB0EE48CA16E000BF04
:101AA000B4EE4BEAF1EE10FAB4EE4CEAB8BFB0EE89
:101AB0004EBAF1EE10FAC8BFB0EE4ECA079A40F225
:101AC000FF70824205F1010580F0C680A8B200EEE9
:101AD000100AB8EE400A20EE090A46468B46042951
:101AE00020EE0ADA079005D24FF0000AB0EE48EA7D
:101AF0005EE000BF4FF000084FF0000AB0EE48EA89
:101B000004EB080999F8180099ED091A00EE100A7B
:101B1000B8EE400A20EE0D0A99ED08FA30EE010AFF
:101B200008F036FD99F828002FEE000A30EE0EEA94
:101B300000EE100AB8EE400A99ED0D1A20EE0D0ADB
:101B400099ED0CFA30EE010A08F022FD99F8380000
:101B50002FEE000A30EE0EEA00EE100AB8EE400A50
:101B600099ED111A20EE0D0A99ED10FA30EE010AE6
:101B700008F00EFD99F848002FEE000A30EE0EEA4C
:101B800000EE100AB8EE400A99ED151A20EE0D0A83
:101B900099ED14FA30EE010A08F0FAFC2FEE000A73
:101BA00008F1400830EE0EEA47450AF1040AA7D1D1
:101BB000B046002E594645D006994FEA0A10085CF7
:101BC00001EB0A1600EE100AB8EE400A96ED031A71
:101BD00020EE0D0A96ED02FA30EE010A08F0D8FC6C
:101BE0002FEE000AB8F1010F30EE0EEA29D0307C5A
:101BF00096ED071A00EE100AB8EE400A20EE0D0A24
:101C000096ED06FA30EE010A08F0C2FC2FEE000A4B
:101C1000B8F1020F30EE0EEA13D096F8200096EDE0
:101C20000B1A00EE100AB8EE400A20EE0D0A96EDEF
:101C30000AFA30EE010A08F0ABFC2FEE000A30EE93
:101C40000EEA0399DDE904EA28047FF429AFB0EE37
:101C50004ECAB0EE4EBA31E73CEE4B0A9EF8030096
:101C600084ED020A002845D001209AF80420A070D3
:101C70009EED041A9EED050ADAF80000012A84EDB3
:101C8000041A31D090ED002AB4EE421AF1EE10FAA7
:101C90002ADDBAB3931E00F1200111ED062AB4EE3D
:101CA000421AF1EE10FA33DD6BB311ED042AB4EEF3
:101CB000421AF1EE10FA2DDD012B24D011ED022A8B
:101CC000B4EE421AF1EE10FA26DD022B1BD091ED94
:101CD000002AB4EE421AF1EE10FA1EDD043B5F1C3E
:101CE00001F12001D9D10EE090ED011A20EE010A98
:101CF00084ED050A0120207008B0BDEC108B01B006
:101D0000BDE8F08F002200EBC20010ED011AEDE7F4
:101D1000183902E0103900E0083911ED023A31EECD
:101D2000431A32EE432A81EE021A91ED012A11ED97
:101D3000013A32EE432A21EE021A31EE031AD5E7B8
:101D400000000000DB0FC9400000003A10B540F26F
:101D50007004C2F2000400206060A0602070607017
:101D600040F2C010A11CC2F20000012203F050F8A2
:101D7000002808BF10BDA0680130A06010BD0000A1
:101D800013460A46014600284FF0000018BF002AFB
:101D900000D1704780B540F2C010C2F2000003F0DD
:101DA0008FF8B0FA80F04009BDE88040704700002D
:101DB000B0B59AB040F20820C2F200004FF40051D2
:101DC000FEF7D3FC40F28404C2F2000404F12000C8
:101DD0004821FEF7CAFC4CF20820C2F2000048215C
:101DE000FEF7C3FC4CF24C60C2F200004FF40471E9
:101DF000FEF7BBFC4CF24C50C2F200004FF4807175
:101E0000FEF7B3FC4CF24C40C2F200004FF480717C
:101E1000FEF7ABFC0025257001F0AEFEC4E901051C
:101E2000E56001F0A9FE44F8185F44E9020501F0FD
:101E3000A3FE6060012004F8170C06F05DF9FEF7C0
:101E40009FFD2046FEF7BCFE236804F8160C02AC8A
:101E500084460AA220466021CDF800C0FEF7A0FA11
:101E60002046FEF739FC4FF6FF71884238BF014625
:101E700020463222FFF784FF1AB0B0BD475F464CC0
:101E80004F572C626F6F742C69643D307825303861
:101E90006C582C6F6E6C696E653D25752C66733DB4
:101EA000313235303030302C6E3D343039360D0A19
:101EB000000000002DE9F0419CB001F05DFE0446F9
:101EC00000208DF80F0002A80DF10F0106F088F92F
:101ED00040F28407C2F20007C0B39DF80800022850
:101EE0000ED0012814D1BCA013213222FFF748FFE5
:101EF000387868BB0320387001F03EFE786025E03A
:101F000078780123012808BF03238DF80F3005E0FE
:101F100000F0FE00022819D19DF80F3003F0FD00FB
:101F200004AD0128B1A228464FF0300108BF7B70F4
:101F3000FEF736FA2846FEF7CFFB4FF6FF718842D0
:101F400038BF014628463222FFF71AFF387888B397
:101F50007968611A36D4032838D1B87838B907F1CE
:101F60001800FEF72DFE0028B87000F0C380002096
:101F7000FEF784FE00284FD007F120004821FEF72D
:101F8000F4FB4CF20820C2F200004821FEF7EDFB02
:101F90004CF24C60C2F200004FF40471FEF7E5FB16
:101FA0000120387002203C61204478601CB0BDE8FC
:101FB000F08100BFF869201A04D401F0DBFB04F5BE
:101FC000FA60F8611CB0BDE8F08100BF002002900B
:101FD00002A8FEF79FFD48B10298C10724D1022054
:101FE000204478601CB0BDE8F08100BFBE6840F2BC
:101FF000424204ADC0F6010292A328466021009639
:10200000FEF7CEF92846FEF767FB4FF6FF718842D0
:1020100038BF0146284660E0BE6840F24242C0F642
:1020200001028AA36CE000BF4FF6FF75A843B0F130
:10203000805F3DD140F20820C2F200004FF4805191
:10204000FEF7CAFC002875D03878012840F080805F
:1020500040F2082007F12001C2F2000003F0BCFBAF
:10206000002800F08F80B868411CC7E9021001F019
:1020700083FD3969401A78614CF24C40C2F200008D
:102080004FF4807103F0F4F800F05CFE00F004F906
:102090000120FEF7F3FD002800F090800220387048
:1020A00001F06AFD023078601CB0BDE8F08100BF2D
:1020B000BE6840F242420DF11008C0F6010253A37F
:1020C000404660210096FEF76BF94046FEF704FBA0
:1020D000A84238BF0546404629463222FFF750FE47
:1020E000032038704FF4FA70204478601CB0BDE8CB
:1020F000F08100BFBE6840F24242C0F6010255A323
:1021000004AD284660210096FEF74AF92846FEF7FE
:10211000E3FA4FF6FF71884238BF01462846322263
:10212000FFF72EFE4FF4FA70204478601CB0BDE833
:10213000F08100BF41A000F08FF80320387001F05B
:102140001BFD00F5FA7078601CB0BDE8F08100BF9F
:10215000D7ED090A7A7840F208204CF24C639FEDE3
:102160002D0AC2F20000C2F200034FF48051FEF7C4
:10217000B7FD08B301F000FD3969401A00F066FFB1
:1021800021E000BF4CF24C40C2F200004FF48071DD
:1021900003F06EF897F82100022811D1B868411CAD
:1021A000C7E9021001F0E8FC3969401A786100F0D3
:1021B00083FD01F0C1FA06E017A002E019A000E0DB
:1021C0001BA000F049F801F0D7FC03213970FA3068
:1021D00078601CB0BDE8F081475F484D492C6576BA
:1021E000656E743D73746172740D0A00475F484DEB
:1021F000492C6576656E743D6379636C65732C76E6
:10220000616C75653D25750D0A0000006C656E6793
:10221000746800008096984A77617665666F726D83
:1022200000000000776176655F737461727400006E
:10223000737065637472756D000000006672616D85
:1022400065000000737461747573000072657374C7
:102250006172740069640000B0B59AB040F2840104
:10226000C2F200018C6840F2424202AD0346C0F661
:102270000102284660210094FEF792F82846FEF7F6
:102280002BFA4FF6FF71884238BF014628463222AA
:10229000FFF776FD1AB0B0BD2DE9F0472DED048BA8
:1022A000C6B0FEF717FD40F284054CF20828C2F2D2
:1022B0000005C2F20008014605F120004246FFF782
:1022C0005FF8B8B198ED010AB5EE400AF1EE10FAE8
:1022D00020DD9FEDC71AB4EE410AF1EE10FA1BDAC9
:1022E000B6EE001A30EE010ABCEEC00A10EE103A4B
:1022F00014E000BFEB6840F2B8320DF11504C0F6EF
:10230000010220464FF48071FEF74AF8204600F0A3
:1023100081BC00BF002301E04FF0FF330DF1150435
:102320000FF6181220462821FEF73AF840F25C40DA
:1023300040F2A541C0F60100C0F60101224607F0B7
:102340002BFF98ED020AB5EE400AF1EE10FA0FDD10
:102350009FEDA71AB4EE410AF1EE10FA0ADAB6EED2
:10236000001A30EE010ABCEEC00A10EE103A03E08B
:10237000002301E04FF0FF330DF115040FF6C80202
:1023800020462821FEF70CF840F25F4040F2A541BC
:10239000C0F60100C0F60101224607F0FDFE98EDEF
:1023A000030AB5EE400AF1EE10FA0FDD9FED901A28
:1023B000B4EE410AF1EE10FA0ADAB6EE001A30EE87
:1023C000010ABCEEC00A10EE103A03E0002301E05F
:1023D0004FF0FF330DF115040FF678022046282147
:1023E000FDF7DEFF40F2624040F2A541C0F6010079
:1023F000C0F60101224607F0CFFE98F80100F8B1BF
:1024000098ED070A98F81800B5EE400AF1EE10FAB8
:1024100020DD9FED771AB4EE410AF1EE10FA31DAC1
:10242000B6EE001A30EE010ABCEEC00A10EE101A29
:1024300098ED080AB5EE400AF1EE10FA12DC2AE037
:1024400040F29142C0F601020DF11500282101234E
:1024500031E000BF002198ED080AB5EE400AF1EE28
:1024600010FA18DD9FED621AB4EE410AF1EE10FA8F
:1024700014DAB6EE001A30EE010ABCEEC00A10EE15
:10248000107A0DE04FF0FF3198ED080AB5EE400AE2
:10249000F1EE10FAE6DC002702E000BF4FF0FF3754
:1024A00040F27042CDE90001C0F601020DF11500C5
:1024B000282101230297FDF773FF40F2A5410FF297
:1024C000A070C0F601010DF1150207F065FE98F845
:1024D0000100012820D998ED0B0A98F82800B5EEE4
:1024E000400AF1EE10FA21DD9FED411AB4EE410AE7
:1024F000F1EE10FA32DAB6EE001A30EE010ABCEE56
:10250000C00A10EE101A98ED0C0AB5EE400AF1EE72
:1025100010FA13DC2BE000BF40F29142C0F601023A
:102520000DF115002821022331E000BF002198EDB4
:102530000C0AB5EE400AF1EE10FA18DD9FED2C1AE8
:10254000B4EE410AF1EE10FA14DAB6EE001A30EEEB
:10255000010ABCEEC00A10EE107A0DE04FF0FF3118
:1025600098ED0C0AB5EE400AF1EE10FAE6DC002711
:1025700002E000BF4FF0FF3740F27042CDE90001AA
:10258000C0F601020DF11500282102230297FDF784
:1025900007FF40F2A5410FF2CC60C0F601010DF13A
:1025A000150207F0F9FD98F80100022822D998EDEC
:1025B0000F0A98F83800B5EE400AF1EE10FA23DD64
:1025C0009FED0B1AB4EE410AF1EE10FA34DAB6EED2
:1025D000001A30EE010ABCEEC00A10EE101A98ED97
:1025E000100AB5EE400AF1EE10FA15DC2DE000BF3E
:1025F000FFFF7F4F40F29142C0F601020DF115003E
:102600002821032331E000BF002198ED100AB5EE28
:10261000400AF1EE10FA18DD1FED0B1AB4EE410A74
:10262000F1EE10FA14DAB6EE001A30EE010ABCEE42
:10263000C00A10EE107A0DE04FF0FF3198ED100A4D
:10264000B5EE400AF1EE10FAE6DC002702E000BF2A
:102650004FF0FF3740F27042CDE90001C0F60102B1
:102660000DF11500282103230297FDF799FE40F292
:10267000A5410FF2F450C0F601010DF1150207F06B
:102680008BFD98F8011043F27460ADF8150100203D
:102690008DF81701D9B108F14800013910F8302C34
:1026A000012A1DD099B110F8202C012A22D001292D
:1026B0000DD010F8102C012A38D0022907D002784A
:1026C000012A18D004394A1C00F14000E6D140F23A
:1026D0006542C0F601020DF115002821012337E003
:1026E000303890ED020AB5EE400AF1EE10FA09DC3E
:1026F00024E000BF203890ED020AB5EE400AF1EE6A
:1027000010FA1BDD1FED461AB4EE410AF1EE10FA85
:1027100008DAB6EE001A30EE010ABCEEC00A10EE7E
:10272000107A0CE04FF0FF3709E000BF103890ED51
:10273000020AB5EE400AF1EE10FAE3DC002740F29F
:102740008642C0F601020DF11500282101230097F1
:10275000FDF726FE40F2A541C0F601010DF215106D
:102760000DF1150207F018FD98F8011043F274708E
:10277000ADF8150100208DF81701D9B108F1480016
:10278000013910F8302C022A1ED099B110F8202CF3
:10279000022A23D001290DD010F8102C022A39D09A
:1027A000022907D00278022A19D004394A1C00F104
:1027B0004000E6D140F26542C0F601020DF115007D
:1027C0002821022338E000BF303890ED020AB5EE30
:1027D000400AF1EE10FA09DC24E000BF203890ED49
:1027E000020AB5EE400AF1EE10FA1BDD1FED801A69
:1027F000B4EE410AF1EE10FA08DAB6EE001A30EE45
:10280000010ABCEEC00A10EE107A0CE04FF0FF3760
:1028100009E000BF103890ED020AB5EE400AF1EE73
:1028200010FAE3DC002740F28642C0F601020DF107
:102830001500282102230097FDF7B2FD40F2A541C3
:10284000C0F601010DF215100DF1150207F0A4FC00
:1028500098F8011043F67400ADF8150100208DF8CA
:102860001701D9B108F14800013910F8302C032ABA
:102870001ED099B110F8202C032A23D001290DD0A5
:1028800010F8102C032A39D0022907D00278032A25
:1028900019D004394A1C00F14000E6D140F26542EB
:1028A000C0F601020DF115002821032338E000BF16
:1028B000303890ED020AB5EE400AF1EE10FA09DC6C
:1028C00024E000BF203890ED020AB5EE400AF1EE98
:1028D00010FA1BDD9FEDD81AB4EE410AF1EE10FAA2
:1028E00008DAB6EE001A30EE010ABCEEC00A10EEAD
:1028F000107A0CE04FF0FF3709E000BF103890ED80
:10290000020AB5EE400AF1EE10FAE3DC002740F2CD
:102910008642C0F601020DF115002821032300971D
:10292000FDF73EFD40F2A541C0F601010DF2151084
:102930000DF1150207F030FC98F8011043F6741001
:10294000ADF8150100208DF81701D9B108F1480044
:10295000013910F8302C042A1ED099B110F8202C1F
:10296000042A23D001290DD010F8102C042A39D0C4
:10297000022907D00278042A19D004394A1C00F130
:102980004000E6D140F26542C0F601020DF11500AB
:102990002821042338E000BF303890ED020AB5EE5C
:1029A000400AF1EE10FA09DC24E000BF203890ED77
:1029B000020AB5EE400AF1EE10FA1BDD9FED9E1AF9
:1029C000B4EE410AF1EE10FA08DAB6EE001A30EE73
:1029D000010ABCEEC00A10EE107A0CE04FF0FF378F
:1029E00009E000BF103890ED020AB5EE400AF1EEA2
:1029F00010FAE3DC002740F28642C0F601020DF136
:102A00001500282104230097FDF7CAFC40F2A541D8
:102A1000C0F601010DF215100DF1150207F0BCFB17
:102A200098ED010AEB68B5EE400AF1EE10FA17DDF9
:102A30009FED811AB4EE410AF1EE10FA30DAB6EEEB
:102A4000001A30EE010ABCEEC00A10EE100A98ED32
:102A5000020AB5EE400AF1EE10FA09DC29E000BFE7
:102A6000002098ED020AB5EE400AF1EE10FA20DDE2
:102A70009FED711AB4EE410AF1EE10FA32DAB6EEB9
:102A8000001A30EE010ABCEEC00A10EE101A98EDE2
:102A9000030AB5EE400AF1EE10FA12DC2BE000BF9B
:102AA0004FF0FF3098ED020AB5EE400AF1EE10FA51
:102AB000DEDC002198ED030AB5EE400AF1EE10FAD3
:102AC00019DD9FED5D1AB4EE410AF1EE10FA15DA48
:102AD000B6EE001A30EE010ABCEEC00A10EE102A63
:102AE0000EE000BF4FF0FF3198ED030AB5EE400A4B
:102AF000F1EE10FAE5DC002202E000BF4FF0FF32F9
:102B000098F801700DF1150A8DE8070057A250469C
:102B10004FF480710397FDF743FC002800F1878094
:102B2000064698F80100002860D0FF2E5ED89FED81
:102B3000428A08F120070125B6EE009A0FF26419C7
:102B400017ED010A17F8083CB5EE400AF1EE10FA4D
:102B500016DDB4EE480AF1EE10FAAFBF4FF0FF3CBD
:102B600030EE090ABCEEC00A10EE10CA97ED000A5A
:102B7000B5EE400AF1EE10FA0BDC4FF0000E15E056
:102B80004FF0000C97ED000AB5EE400AF1EE10FA96
:102B9000F3DDB4EE480AF1EE10FAAFBF4FF0FF3E9E
:102BA00030EE090ABCEEC00A10EE10EAC6F58074D9
:102BB0000AEB060021464A46CDE900CEFDF7F0FBC0
:102BC000A0424FF0FF0138BF8119B0F1FF3FC8BFED
:102BD0000E4600280AD4A04208D298F80100854287
:102BE00004D21037FF2905F10105A9D9FD2E07D818
:102BF0000AEB060040F60D2120F8021B06E000BF9C
:102C000040F60D20ADF812010AF1FF00002101701D
:102C10000DF11500FDF760FD4FF6FF71884238BFDA
:102C2000014689B20DF115003222FFF7A9F846B02E
:102C3000BDEC048BBDE8F087FFFF7F4F66303D257C
:102C40006C7520487A0000005570703D256C752029
:102C50006D56000055726D733D256C75206D5600E4
:102C6000743300007434000074350000475F4D4534
:102C700041532C7365713D256C752C63616C3D313E
:102C80002C66303D256C75487A2C7570703D256C2E
:102C9000756D562C75726D733D256C756D562C6E69
:102CA0003D2575002C6825753D256C75487A3A25BB
:102CB0006C756D560000000010B5A4B040F28400A1
:102CC000C2F20000C36840690021B0F5FA6F98BFF6
:102CD000012104AC4FF0100CCDE900010AA22046FE
:102CE0008021CDF808C0FDF75BFB2046FDF7F4FC22
:102CF0004FF6FF71884238BF014620463222FFF767
:102D00003FF824B010BD00BF475F464C4F572C6EB4
:102D10006F5F7369676E616C2C7365713D256C75AF
:102D20002C745F6D733D256C752C756E6465723205
:102D3000733D25752C7468726573686F6C643D25EE
:102D4000750D0A002DE9F04F81B02DED048BC6B052
:102D500040F2840AC2F2000A9AED090ADAF80C304D
:102D6000B5EE400AF1EE10FA10DD9FEDAC1AB4EEAC
:102D7000410AF1EE10FA0BDAB6EE001A30EE010A53
:102D8000BCEEC00A10EE100A04E000BF002001E013
:102D90004FF0FF309AED0A0A9AF82210B5EE400A79
:102DA000F1EE10FA10DD9FED9D1AB4EE410AF1EE3E
:102DB00010FA0BDAB6EE001A30EE010ABCEEC00AC9
:102DC00010EE102A04E000BF002201E04FF0FF32B5
:102DD0009AED0B0A0027B5EE400AF1EE10FA4FF01B
:102DE000000611DD9FED8D1AB4EE410AF1EE10FAE6
:102DF00008DAB6EE001A30EE010ABCEEC00A10EE98
:102E0000106A01E04FF0FF36DAF814500DF118089F
:102E1000B5F5FA6F98BF01278DE8470040F2A94247
:102E2000C0F6010240464FF4807104950597FDF706
:102E3000B7FA002800F1EB8083469AF822000028B8
:102E400063D0BBF1FF0F60D89FED748A0AF1400692
:102E50000124B6EE009A0FF2C81900BF16ED010A60
:102E600016F8083CB5EE400AF1EE10FA16DDB4EEA5
:102E7000480AF1EE10FAAFBF4FF0FF3C30EE090AFE
:102E8000BCEEC00A10EE10CA96ED000AB5EE400A7C
:102E9000F1EE10FA0BDC002516E000BF4FF0000C3D
:102EA00096ED000AB5EE400AF1EE10FAF3DDB4EE4D
:102EB000480AF1EE10FAAFBF4FF0FF3530EE090AC5
:102EC000BCEEC00A10EE105ACBF5807708EB0B0071
:102ED00039464A46CDE900C5FDF762FAB8424FF0DF
:102EE000FF0138BF00EB0B01B0F1FF3FC8BF8B46BD
:102EF00000280AD4B84208D29AF82200844204D2A8
:102F00001036FF2904F10104A8D9BBF1FF0F69D8DD
:102F10009AF8231008EB0B00CBF58076F1B19AED0F
:102F20000C0AB5EE400AF1EE10FA21DD9FED3B1AD6
:102F3000B4EE410AF1EE10FA32DAB6EE001A30EED3
:102F4000010ABCEEC00A10EE103A9AED0D0AB5EE79
:102F5000400AF1EE10FA13DC2BE000BF38A2314634
:102F6000FDF71EFA002830D5BBF1FD0F33D939E04B
:102F700000239AED0D0AB5EE400AF1EE10FA18DDC5
:102F80009FED261AB4EE410AF1EE10FA14DAB6EE0D
:102F9000001A30EE010ABCEEC00A10EE107A0DE005
:102FA0004FF0FF339AED0D0AB5EE400AF1EE10FA3C
:102FB000E6DC002702E000BF4FF0FF371CA23146DD
:102FC0000097FDF7EDF90028CED4B0420AD2834431
:102FD000BBF1FD0F06D808EB0B0040F60D2120F8E1
:102FE000021B05E040F60D20ADF8150108F1FF00C9
:102FF000002106AC01702046FDF76EFB4FF6FF7115
:10300000884238BF014620463222FEF7B9FE46B05C
:10301000BDEC048B01B0BDE8F08F00BFFFFF7F4F18
:103020002C6825753D256C75487A3A256C7500002D
:103030002C737075723D256C75487A3A256C750055
:103040002C737075723D6E6F6E6500002DE9F04F48
:10305000C9B04CF24C6BC2F2000B9BF80010002977
:1030600000F0C880BBF80210B1F5807F40F0C2804C
:103070000890BBF90C00BBF90E10091A0129C0F227
:103080008B804CF24C5CABF1100200234FF0FE0938
:10309000C2F2000CB2F92060B2F92EE0361AC6EB8B
:1030A000C616760096FBF1F6103226EAE675FE2D7E
:1030B000A8BF4D460CF803500BEB4305B5F9124081
:1030C000B5F91470241AC4EBC41464003F1A94FBBD
:1030D000F1F4C7EBC7177F00B5F916A024EAE47432
:1030E00097FBF1F70CEB0306B5F91880FE2CA8BF8F
:1030F0004C46747027EAE774AAEB0007C7EBC717C2
:103100007F0097FBF1F7FE2CA8BF4C46B47027EA6E
:10311000E774A8EB0007C7EBC7177F0097FBF1F731
:10312000FE2CA8BF4C46F47027EAE774B5F91A7074
:10313000FE2CA7EB0007C7EBC717A8BF4C467F00C4
:10314000B5F91C5097FBF1F72D1A347127EAE77493
:10315000C5EBC515AEEB00076D00C7EBC71795FBB8
:10316000F1F57F00FE2CA8BF4C4697FBF1F7747178
:1031700025EAE574FE2C27EAE777A8BF4C46FE2F28
:1031800003F10803B471A8BF4F46B3F5807FF77110
:103190007FF480AF09E000BF4CF24C50C2F2000057
:1031A0004FF480717F22FDF7B6FA40F29945C0F6E0
:1031B00001052846002106F0B1FF4CF24C52C2F244
:1031C0000002284600214FF4807307F025F840F2F2
:1031D0009F45C0F601052846002106F09FFF4CF2EE
:1031E0004C42C2F20002284600214FF4807307F0DF
:1031F00013F8089840F28401C2F20001CB689907E5
:1032000004D049B0BDE8F08FFFFF7F4F9BED010A6E
:103210009BF801C0BBF80210B5EE400AF1EE10FABF
:1032200010DD1FED071AB4EE410AF1EE10FA0BDAC9
:10323000B6EE001A30EE010ABCEEC00A10EE102AFB
:1032400004E000BF002201E04FF0FF329BED020AD4
:103250000027B5EE400AF1EE10FA4FF0000611DD3E
:103260001FED171AB4EE410AF1EE10FA08DAB6EEC5
:10327000001A30EE010ABCEEC00A10EE106A01E03E
:103280004FF0FF36BBF90C50BBF90E40B0F5FA6FAA
:1032900098BF0127CDE90226CDE9045440F2E2327D
:1032A00009ADCDE900C10690C0F6010228464FF4F1
:1032B00080710797FDF774F82846FDF70DFA4FF671
:1032C000FF740146A04228464FF0320228BF214633
:1032D000FEF756FDBBF80200002892D000264FF002
:1032E000000800BF40F28400C2F20000C368284614
:1032F0004FF480710FF224420096FDF751F8002838
:103300003FF57FAF0746BBF802001FFA88FA8245F7
:1033100080F0E48106F11009D14540F2DF810BEB2A
:103320004A01B1F91030C7F5807640F24452E819ED
:103330003146C0F60102FDF733F800283FF561AFD2
:10334000B042BFF45EAFBBF802204AF001019142E7
:10335000074480F0C381894540F2C0810BEB4101F5
:10336000B1F91030C7F5807640F24452E819314681
:10337000C0F60102FDF714F800283FF542AFB04255
:10338000BFF43FAFBBF802204AF00201914207446C
:1033900080F0A481894540F2A1810BEB4101B1F994
:1033A0001030C7F5807640F24452E8193146C0F635
:1033B0000102FCF7F5FF00283FF523AFB042BFF450
:1033C00020AFBBF802204AF003019142074480F08D
:1033D0008581894540F282810BEB4101B1F91030C2
:1033E000C7F5807640F24452E8193146C0F6010232
:1033F000FCF7D6FF00283FF504AFB042BFF401AFA1
:10340000BBF802204AF004019142074480F0668133
:10341000894540F263810BEB4101B1F91030C7F5EA
:10342000807640F24452E8193146C0F60102FCF7BA
:10343000B7FF00283FF5E5AEB042BFF4E2AEBBF8FF
:1034400002204AF005019142074480F047818945F6
:1034500040F244810BEB4101B1F91030C7F58076A1
:1034600040F24452E8193146C0F60102FCF798FFD9
:1034700000283FF5C6AEB042BFF4C3AEBBF8022091
:103480004AF006019142074480F02881894540F2C4
:1034900025810BEB4101B1F91030C7F5807640F280
:1034A0004452E8193146C0F60102FCF779FF0028C2
:1034B0003FF5A7AEB042BFF4A4AEBBF802204AF07D
:1034C00007019142074480F00981894540F2068155
:1034D0000BEB4101B1F91030C7F5807640F2445250
:1034E000E8193146C0F60102FCF75AFF00283FF503
:1034F00088AEB042BFF485AEBBF802204AF00801A6
:103500009142074480F0EA80894540F2E7800BEB66
:103510004101B1F91030C7F5807640F24452E81904
:103520003146C0F60102FCF73BFF00283FF569AECB
:10353000B042BFF466AEBBF802204AF009019142E6
:10354000074480F0CB80894540F2C8800BEB4101F5
:10355000B1F91030C7F5807640F24452E81931468F
:10356000C0F60102FCF71CFF00283FF54AAEB0424E
:10357000BFF447AEBBF802204AF00A01914207446B
:1035800080F0AC80894540F2A9800BEB4101B1F994
:103590001030C7F5807640F24452E8193146C0F643
:1035A0000102FCF7FDFE00283FF52BAEB042BFF450
:1035B00028AEBBF802204AF00B019142074480F08C
:1035C0008D80894540F28A800BEB4101B1F91030C2
:1035D000C7F5807640F24452E8193146C0F6010240
:1035E000FCF7DEFE00283FF50CAEB042BFF409AE9A
:1035F000BBF802204AF00C01914207446ED2894583
:103600006CD90BEB4101B1F91030C7F5807640F26F
:103610004452E8193146C0F60102FCF7C1FE002809
:103620003FF5EFADB042BFF4ECADBBF802204AF07D
:103630000D019142074451D289454FD90BEB41010D
:10364000B1F91030C7F5807640F24452E81931469E
:10365000C0F60102FCF7A4FE00283FF5D2ADB0424F
:10366000BFF4CFADBBF802204AF00E0191420744EF
:1036700034D2894532D90BEB4101B1F91030C7F58D
:10368000807640F24452E8193146C0F60102FCF758
:1036900087FE00283FF5B5ADB042BFF4B2ADBBF830
:1036A00002204AF00F019142074417D2894515D9EB
:1036B0000BEB4101B1F91030C7F5807640F244526E
:1036C000E8193146C0F60102FCF76AFE00283FF512
:1036D00098ADB042BFF495AD074400BFFD2F3FF653
:1036E00090AD40F60D21E819E9530021817028467C
:1036F000FCF7F2FF0146A04228464FF0320228BFF5
:103700002146FEF73DFB08F11008BBF802001FFA46
:1037100088F68642FFF4E6AD73E500BF475F574188
:1037200056455F444154412C7365713D256C752CA1
:103730006F66663D2575000010B500F01BF840F27D
:103740009940C0F60100002106F0E8FC40F29F44D9
:10375000C0F601042046002106F0E0FC4CF24C4289
:10376000C2F20002204600214FF48073BDE81040F1
:1037700006F052BD2DE9F04186B040F2A54440F27A
:103780005C40C0F60104C0F6010050A2214606F0DC
:1037900003FD40F25F40C0F601004FA2214606F053
:1037A000FBFC40F26240C0F601004EA2214606F04A
:1037B000F3FC40F2914643F27430C0F601060DF17D
:1037C0000105ADF815004FF0000828460C213246DF
:1037D00001238DF81780FCF7E3FD0DF1150738463E
:1037E00021462A4606F0D8FC43F27440ADF8150095
:1037F00028460C21324602238DF81780FCF7D0FDB5
:10380000384621462A4606F0C7FC43F27450ADF80C
:10381000150028460C21324603238DF81780FCF74B
:10382000BFFD384621462A4606F0B6FC40F2654602
:1038300043F27460C0F601060DF10105ADF8150004
:1038400028461421324601238DF81780FCF7A8FD85
:103850000DF11507384621462A4606F09DFC43F235
:103860007470ADF8150028461421324602238DF8F5
:103870001780FCF795FD384621462A4606F08CFC59
:1038800043F67400ADF81500284614213246032390
:103890008DF81780FCF784FD384621462A4606F04D
:1038A0007BFC43F67410ADF815002846142132460F
:1038B00004238DF81780FCF773FD384621462A460D
:1038C00006F06AFC06B0BDE8F08100BF66303D58E6
:1038D000585820487A0000005570703D58585820BC
:1038E0006D56000055726D733D585858206D560046
:1038F00070B5866D044600F03FF994F83510022942
:1039000028D105462068216C026822F01602026068
:10391000426922F08002426109B9A16C19B10168C3
:1039200021F008010160016821F00101016000BF80
:1039300020680068C00715D000F01EF9401B06285B
:10394000F6D320206065032084F83500002184F838
:10395000341070BD802060650120002184F834108F
:1039600070BD00BFE06D3F2101FA00F0B0600120A2
:1039700084F835000020002184F8341070BD000068
:1039800090F83510022909D1052180F8351000681A
:10399000016821F00101016000207047802141652C
:1039A00001207047B0B5044600F0E6F8054640F245
:1039B0000000C2F200000078611C18BF044400BF80
:1039C00000F0DAF8401BA042FAD3B0BD2DE9F04F69
:1039D00083B000F1200200F13E4741F6004500921D
:1039E00007F1FF77C4F2020508224FEAB726A84282
:1039F00008BF072200254FF000084FF00009072EEE
:103A000038BF4FEAB72201920AE000BF09F101096D
:103A100008F10208B9F1100F05F1040500F0A280C9
:103A20000F68012202FA09FE17EA0E0AEED0D1F859
:103A300004C003220CF003077E1E02FA08F4012ED4
:103A40006FEA040B12D88468CE6804EA0B0406FA05
:103A500008F634438460446824EA0E06CCF300146C
:103A600004FA09F42643466004E000BF032F01D1A5
:103A700003271EE0C6688C6806EA0B0604FA08F401
:103A80002643022FC66014D16FF00302009E02EAA3
:103A9000590756F807C005F01C040F220B69A24015
:103AA0002CEA0202A3401A43F251D1F804C00CF0F0
:103AB0000307026807FA08F302EA0B021A431CF430
:103AC000403F0260A2D0002243F644030292C4F2B7
:103AD00002031A6843F6004442F480421A601A68EE
:103AE000C4F2010402F480420292029A29F0030215
:103AF0004FF6084C2244CFF6FF7C52F80C3005F00C
:103B00000C070F26BE40B343019E06FA07F73B435E
:103B100042F80C30A2684B6842EA0A0743F60C4CA4
:103B2000DE0258BF22EA0A07A760C4F2010CDCF8E3
:103B300000209E0242EA0A0758BF22EA0A07CCF890
:103B4000007062689E0342EA0A0758BF22EA0A0729
:103B500067602268DB0342EA0A0758BF22EA0A07C5
:103B6000276053E703B0BDE8F08F0000002A08BFCC
:103B700009048161704700004CF6BC00C2F20000ED
:103B80000068704740F200004CF6BC01C2F2000031
:103B9000C2F2000100780A68104408607047000013
:103BA00080B543F60040C4F20200016841F40071A0
:103BB0000160016841F480610160016841F4807135
:103BC0000160032000F086F80F2000F005F800F0F7
:103BD00027F8002080BD000070B540F20006C2F258
:103BE000000640F208013278C2F200014FF47A7305
:103BF0000968B3FBF2F20446B1FBF2F1084600F0AB
:103C000093FD0F2C4FF0010508D838B94FF0FF3065
:103C100021460022002500F031F87460284670BD6E
:103C200082B0002043F640010190C4F202014A68CC
:103C300042F480424A604A6802F480420192019A4A
:103C40000090086840F080500860086800F08050DC
:103C50000090009802B07047002848BF704700F0FD
:103C60001F01012202FA01F11C2202EAD0004EF2E9
:103C70000012CEF2000281507047000010B54EF6DF
:103C80000C5CCEF2000CDCF80030C3F3022E8EF098
:103C90000704042C28BF0424BEF103034FF0FF3EA9
:103CA0000EFA04F438BF0023A14399400EFA03F33F
:103CB0009A43114300F00F0200F160430901043AF6
:103CC00003F564436244002848BF02F10C031970F5
:103CD00010BD00004EF60C51CEF200010A684FF6FE
:103CE000FF031A4060F30A2242F0806040F0FD704A
:103CF00008607047002804BF012070472DE9F0419B
:103D000043F60808C4F202080446D8F8F8030D4642
:103D100000F00700814207D988F8F853D8F8F80373
:103D200000F00700A84277D12068810717D5410726
:103D300005D5D8F8001041F4E051C8F8001001078B
:103D400005D5D8F8001041F46041C8F80010D8F843
:103D50000010A26821F0F0011143C8F80010C0075C
:103D600040D1D8F8F80300F00700854207D288F860
:103D7000F853D8F8F80300F00700A8424CD12068A7
:103D8000410707D5D8F80010E26821F4E05111434B
:103D9000C8F80010000708D5D8F80000216920F401
:103DA000604040EAC100C8F8000000F07DF8D8F893
:103DB00000104AF6F452C1F30311C0F60002515C40
:103DC00040F2080220FA01F140F20400C2F20000C1
:103DD0000068C2F200021160FFF7FEFE0020BDE89D
:103DE000F08100BF6068811E022907D258F8081CC4
:103DF00089015CBF0120BDE8F08111E0012807D1F5
:103E000058F8081C89035CBF0120BDE8F08107E079
:103E100058F8081C890703D40120BDE8F08100BFD1
:103E2000D8F8001021F003010843C8F80000FFF79C
:103E3000A3FE064641F28837D8F80000616800F01A
:103E40000C00B0EB810F8CD0FFF796FE801BB842C0
:103E5000F2D90320BDE8F08140F2080043F60801E2
:103E6000C2F20000C4F20201006809684AF6046266
:103E7000C1F38221C0F60002515CC84070470000C7
:103E800040F2080043F60801C2F20000C4F2020149
:103E9000006809684AF60462C1F34231C0F60002C4
:103EA000515CC8407047000010B543F60404C4F2EA
:103EB00002046168C1F3810142F20040C0F2F400E3
:103EC000DFE801F002040A0210BD00BF47F640001F
:103ED000C0F27D1010BD00BF206821682368490230
:103EE00047F64001C0F27D1100F03F02C3F3881095
:103EF0005CBF42F20041C0F2F401A1FB00010023CB
:103F0000FCF7D6F921680222C1F3014102EB41011D
:103F1000B0FBF1F010BD0000002804BF0120704785
:103F20002DE9F04182B00446007843F60006C00750
:103F3000C4F202060CD0B06800F00C00042840F077
:103F400081803068800303D56068002800F06881B4
:103F5000207880071BD5B06810F00C0F09D0B0682E
:103F600000F00C00082840F087807068400200F1E3
:103F700083803068800703D5E068012840F05081D5
:103F80003068216920F0F80040EAC10030602078F4
:103F9000000713D4207840072AD4A569002D00F02B
:103FA0003A81B06800F00C00082840F0A580012D8F
:103FB00040F00E81012002B0BDE8F0816069002868
:103FC00000F082800020C4F247200121C0F8801E4A
:103FD000FFF7D2FD054600BF706F8007DAD4FFF708
:103FE000CBFD401B0228F7D9032002B0BDE8F081C9
:103FF000306C5FEAC0080AD400200190306C40F0B9
:1040000080503064306C00F080500190019847F28D
:104010000007C4F200073868C00547D4386840F488
:1040200080703860FFF7A8FD054600BF3868C005FE
:104030003CD4FFF7A1FD401B0228F7D9032002B0B2
:10404000BDE8F081B06800F00C00082803D170686A
:1040500040023FF576AF61683068B1F5803F07D028
:10406000B1F5A02F40F09A8040F480203060306895
:1040700040F4803030609AE0E068002840F20000B0
:10408000C4F247205CD001210160FFF775FD0546B1
:10409000306880073FF574AFFFF76EFD401B0228C4
:1040A000F6D9032002B0BDE8F08100BFA168306FEF
:1040B000012905D0052955D140F004003067306F43
:1040C00040F00100306756E00020C4F24720002194
:1040D000C0F8801EFFF750FD054600BF706F8007D7
:1040E0007FF558AFFFF748FD401B0228F6D90320A3
:1040F00002B0BDE8F08100BF0027C4F247270020CE
:104100003866FFF739FD022D05460DD13068800174
:1041100040F18A80FFF730FD401B02284FF003007A
:10412000F4D902B0BDE8F0813068800173D5FFF7A3
:1041300023FD401B02284FF00300F5D9F1E700BF33
:1041400000210160FFF718FD054600BF30688007B9
:104150007FF51DAFFFF710FD401B02284FF0030055
:10416000F4D9DEE720F001003067306F002920F03D
:10417000040030677AD0FFF7FFFC054641F288372C
:10418000306F800700F18480FFF7F6FC401BB842D7
:10419000F6D9032002B0BDE8F08100BF20F48030E2
:1041A00030603068002920F4802030607AD0FFF73A
:1041B000E3FC0546306880033FF5CAAEFFF7DCFC40
:1041C000401B6428F6D9032002B0BDE8F08100BF8F
:1041D0007068E16900F480028A4221D1216A00F00E
:1041E0003F028A421CD147F6C071626A0140B1EBBE
:1041F000821F15D1A16A4FF6FF73C903994300F4DA
:104200004032A1F580318A420AD1E16A00F0706043
:10421000B0EB016F04D1002002B0BDE8F08100BF17
:10422000012002B0BDE8F08104F11C052FCD084348
:1042300040EA8210D9034FF6FF729143A1F5803115
:1042400040EA05600843706001203866FFF794FC7F
:10425000044600BF30688001DDD4FFF78DFC001BF1
:1042600002284FF00300F5D95BE700BFFFF784FC9D
:10427000054641F2883700BF306F800708D5FFF749
:104280007BFC401BB8424FF00300F5D949E700BF63
:10429000B8F1000F3FF581AE306C20F080503064F3
:1042A0007BE600BFFFF768FC054600BF306880036F
:1042B0007FF54EAEFFF760FC401B64284FF0030013
:1042C000F4D92EE770B528B1416A29B10021016106
:1042D000142106E0012070BD4168B1F5827F02D053
:1042E0001C21002242500026866290F8511029B904
:1042F00080F85060054600F03DF82846022180F81D
:10430000511090E82E0002F482720C6803F404430A
:1043100024F040040C601A4405F4006305691A4453
:1043200005F0020345691A4405F001038569C46973
:104330001A4405F400731A4404F03803046A1A445A
:1043400004F08003846A1A4304F400531A430A6099
:10435000436A042202EA154203F010031A444A6039
:10436000CA6922F40062CA610121466580F85110D1
:10437000304670BD80B586B043F200010068C4F2DB
:104380000101002288420592CDE9032202920192A6
:1043900002D006B080BD00BF43F630000092C4F2E8
:1043A0000200436943F480534361436903F480533B
:1043B0000093009B0092036843F0010303600068D0
:1043C00000F0010000900098E02001900220CDE96B
:1043D0000202032004900520059001F5504001A938
:1043E000FFF7F4FA06B080BD2DE9F04383B01E4616
:1043F00015460F460446FFF7BFFB94F8511081465F
:10440000012909D1002F4FF0010018BF002D0FD155
:1044100003B0BDE8F08300BF6068B0F5827F0DD1C6
:1044200004294FF00200F3D1A1680029EAD0EFE798
:10443000002EEDD094F85000012803D1022003B0E3
:10444000BDE8F083012084F8500094F85100002169
:1044500004281CBF052084F851006165A563E68728
:10446000A6872763E6862068A686216461640168C2
:10447000490603D4016841F0400101606168731E80
:10448000E268B1FA81F1B3FA83F3DDF828804909D3
:104490005B09B2F5006F41EA030165D131B137F82C
:1044A000021BC1602763E08E0138E086012518F108
:1044B000010032D102E000BFFFF75EFBE08E18B9C9
:1044C000E08F002800F0B8802068816889070CD54B
:1044D000E18E51B1012D08D1216B002531F8022B5D
:1044E000C2602163E18E0139E1868168C907E3D0AA
:1044F000E18F0029E0D0C068A16B012521F8020BF3
:10450000A163E08F0138E087D6E700BFFFF734FBF7
:10451000A0EB0900404580F0A580E08E18B9E08F3F
:10452000002800F089802068816889070CD5E18E19
:1045300051B1012D08D1216B002531F8022BC26049
:104540002163E18E0139E1868168C907DED0E18F00
:104550000029DBD0C068A16B012521F8020BA16303
:10456000E08F0138E087D1E739B139780173206BEA
:1045700001302063E08E0138E086012518F101004A
:1045800032D101E0FFF7F8FAE08E10B9E08F002891
:1045900052D02068816889070ED5E18E61B1012D66
:1045A0000AD1216B002509780173216B2068013144
:1045B0002163E18E0139E1868168C907E2D0E18F8C
:1045C0000029DFD0C068A16B01250870A06B013005
:1045D000A063E08F0138E087D4E700BFFFF7CCFA93
:1045E000A0EB090040453DD2E08E08B9E08F18B33A
:1045F0002068816889070ED5E18E61B1012D0AD14D
:10460000216B002509780173216B2068013121633A
:10461000E18E0139E1868168C907DFD0E18F002989
:10462000DCD0C068A16B01250870A06B0130A063CD
:10463000E08F0138E087D1E720460221012243467E
:10464000CDF8009000F080FDB0B1606D40F020002A
:10465000606520206065002084F85000012003B0D0
:10466000BDE8F083012084F85100002084F8500058
:10467000032003B0BDE8F08340F20800C2F200005E
:10468000006849F68171C1F25E61A0FB0101480D2D
:104690004FF47A71484302906068B0F5827F0BD185
:1046A0002046802100224346CDF8009000F04CFDCA
:1046B0000028CAD121E000BF0298F0B10298013869
:1046C000029020688168090617D50299A9B102995C
:1046D00001390291816809060FD5029969B10299E1
:1046E000013902918168090607D5029929B1029919
:1046F0000139029180680006DED4A06838B9002034
:1047000001902068C16801918068019001980120A2
:1047100084F85100002084F85000606D002818BF14
:10472000012003B0BDE8F083411E0020B0EB116F03
:104730001CBF012070474EF21002CEF20002516001
:104740004EF62351CEF20001F0230B70072190604A
:10475000116070477047000040F2C011C2F20001C2
:10476000884218BF704710B540F27004C2F20004CE
:10477000A068A11C0130A06040F2C010C2F200008D
:10478000012200F045FB10B1A0680130A060BDE837
:1047900010407047B0B582B001680A68CC684B69B8
:1047A00002F02F05202D04F0200505D125B102B01F
:1047B000BDE8B04003F02EBF5FEA027C1EBF03F0ED
:1047C000010E04F4907313EB0E0341D1036BD50675
:1047D00018D5012B16D114F0100313D0002201922A
:1047E0000A6801924A680192019A496949064BD4C4
:1047F000818DC28DC38D002B18BF914240F006827F
:1048000002B0B0BD13062DD514F080032AD090F865
:104810004120212AF4D18268B2F5805F03D1026978
:10482000002A00F07982026A531C036212784A60FF
:10483000C28C013A1304C284E2D1C86820F080001F
:10484000C860C86840F04000C86002B0B0BD00BF9A
:10485000D30718BF14F4807340F0E280530700F1CF
:10486000E580EAE05206CBD514F04002C8D0CA6811
:1048700022F04002CA60202180F8411002B0BDE859
:10488000B04000F0E7BB00BFC26B11684B68858D7C
:1048900099B2002900F0B480A94280F0B180C385AC
:1048A000D169B1F5807F00F0A080016851E8031F55
:1048B000026821F4807142E80313DBB1016851E81A
:1048C000031F026821F4807142E8031393B1016869
:1048D00051E8031F026821F4807142E803134BB1D1
:1048E000016851E8031F026821F4807142E8031354
:1048F000002BDAD1016851E8051F026821F001019F
:1049000042E80513BBB3016851E8051F026821F0B6
:10491000010142E8051373B3016851E8051F0268FD
:1049200021F0010142E805132BB3016851E8051F8E
:10493000026821F0010142E80513002BDAD11AE0E8
:10494000016851E8051F026821F0400142E80513A3
:10495000DBB1016851E8051F026821F0400142E81F
:10496000051393B1016851E8051F026821F0400169
:1049700042E805134BB1016851E8051F026821F0B8
:10498000400142E80513002BDAD1202180F84210C3
:1049900000210163016851E8031F026821F0100142
:1049A00042E80313DBB1016851E8031F026821F0FC
:1049B000100142E8031393B1016851E8031F026834
:1049C00021F0100142E803134BB1016851E8031FC5
:1049D000026821F0100142E80313002BDAD1C16B09
:1049E00004460846FEF784FF204602214163818D7C
:1049F000C28D891A89B202B0BDE8B040FFF7AABEE5
:104A00008D427FF4FDAED269B2F5807F7FF4F8AEBF
:104A10000222426302B0BDE8B040FFF79BBE00BF78
:104A2000436C43F001034364530706D5BEF1000F06
:104A300003D0436C43F002034364930706D5BEF1F1
:104A4000000F03D0436C43F004034364BCF1000F38
:104A500006D55EEA050303D0436C43F008034364C4
:104A6000436C002B3FF4CCAE920605D525B104462D
:104A700003F0D0FD216820464969426C01F04001F5
:104A800002F00802891800F0B98000BF016851E8FF
:104A9000031F026821F4907142E80313BBB301685D
:104AA00051E8031F026821F4907142E8031373B3C5
:104AB000016851E8031F026821F4907142E8031372
:104AC0002BB3016851E8031F026821F4907142E89A
:104AD0000313002BDAD11AE0016851E8051F0268C0
:104AE00021F0010142E80513DBB1016851E8051F1F
:104AF000026821F0010142E8051393B1016851E811
:104B0000051F026821F0010142E805134BB101685D
:104B100051E8051F026821F0010142E80513002B4E
:104B2000DAD1016B012924D1016851E8031F026821
:104B300021F0100142E80313DBB1016851E8031FC3
:104B4000026821F0100142E8031393B1016851E8B3
:104B5000031F026821F0100142E803134BB1016802
:104B600051E8031F026821F0100142E80313002BF3
:104B7000DAD1202180F842100021016301684969DF
:104B8000490640F1C380016851E8051F026821F021
:104B9000400142E80513DBB1016851E8051F0268D6
:104BA00021F0400142E8051393B1016851E8051F67
:104BB000026821F0400142E805134BB1016851E859
:104BC000051F026821F0400142E80513002BDAD1ED
:104BD000C16B002900F09A8048F20962C0F6000219
:104BE000044608460A65FEF7CBFE00283FF408AEEF
:104BF000E06B016D02B0BDE8B04008470446FFF726
:104C0000ABFD0020606402B0B0BD00BF891A00BFD8
:104C1000026852E8032F036822F4907243E80325E8
:104C2000BDB3026852E8032F036822F4907243E890
:104C3000032575B3026852E8032F036822F49072CB
:104C400043E803252DB3026852E8032F036822F4DA
:104C5000907243E80325002DDAD11AE0026852E889
:104C6000052F036822F0010243E80525DDB1026843
:104C700052E8052F036822F0010243E8052595B1AB
:104C8000026852E8052F036822F0010243E8052577
:104C90004DB1026852E8052F036822F0010243E893
:104CA0000525002DDAD1202280F84220002202635F
:104CB000026852E8032F036822F0100243E803253C
:104CC000DDB1026852E8032F036822F0100243E8C6
:104CD000032595B1026852E8032F036822F0100201
:104CE00043E803254DB1026852E8032F036822F020
:104CF000100243E80325002DDAD1022289B2426373
:104D000002B0BDE8B040FFF725BD00BF02B0BDE86E
:104D1000B040FFF721BD00BF026A32F8023B6FF3DB
:104D20005F234B60026283E5002804BF01207047C7
:104D300010B5044690F8410028B9002084F84000DE
:104D4000204600F021F8242084F841002068C16842
:104D500021F40051C160204603F0DCFC20680169A9
:104D600021F490410161416921F02A014161C1684A
:104D700041F40051C16000202021606484F841109A
:104D800084F84210606310BD80B586B041F2000126
:104D90000068C4F20101002288420592CDE9032295
:104DA0000292019202D006B080BD00BF43F63000EF
:104DB0000092C4F20200436943F010034361436967
:104DC00003F010030093009B0092036843F001037B
:104DD0000360006800F00100009000984FF4C0608C
:104DE00001900220CDE902020320049007200590E3
:104DF00001F5704001A9FEF7E9FD252005210022FB
:104E0000FEF73CFF2520FEF727FF06B080BD00001F
:104E100090F84230202B07D100294FF0010318BF32
:104E2000002A05D11846704702231846704700BF74
:104E300000230363816222218285C285436480F856
:104E400042100169006819B1C16841F48071C16004
:104E5000416941F001014161C16841F02001C16037
:104E60001846704740F2C011C2F20001884218BFD4
:104E7000704710B540F27004C2F20004606801305F
:104E8000606020786178013000F00700884203D12B
:104E9000A0680130A06004E02178A27821440A7360
:104EA000207040F2C010A11CC2F200000122FFF7E6
:104EB000AFFF10B1A0680130A060BDE8104070479E
:104EC0002DE9F04381B0044690F84100202809D133
:104ED00000294FF0010018BF002A07D101B0BDE83A
:104EE000F08300BF022001B0BDE8F08300206064C1
:104EF00021201D460E4684F841001746FEF73CFE71
:104F0000A784E784A1688146B1F5805F02D120695A
:104F100000285DD037460020E28C2168002A5DD051
:104F20006A1C24D0002D4AD0804600BF08680006C5
:104F300008D4FEF721FEA0EB0900A8427AD8216828
:104F4000C868F3E717B117F8010B04E038F8020B53
:104F500000276FF35F204860E08C0138E084E08C2C
:104F60000028E3D13AE000BF0A68120609D40A68B3
:104F7000120606D40A6812065CBF0A685FEA02627B
:104F8000F2D51FB117F8012B05E000BF30F8022B56
:104F900000276FF35F224A60E28C013AE284E28CE0
:104FA000002AE4D11AE000BF30F8022B00276FF38B
:104FB0005F224A60E28C013AE284E28C72B10A68B4
:104FC000120635D5002FEFD017F8012BF1E700BFFF
:104FD00000273046E28C2168002AA1D108684006EB
:104FE0001ED42DB3681C14D1086840062AD4086862
:104FF000400627D40868400624D4086840064FF0CD
:105000000000F1D50DE000BF2068C16800684006CF
:1050100018D4FEF7B1FDA0EB0900A842F4D909E0CD
:105020000020202184F8411001B0BDE8F08300BFCA
:10503000FEF7A2FD0320202184F8411001B0BDE855
:10504000F08300BF0020202184F8411001B0BDE8AA
:10505000F083000070470000FEE70000F0B587B065
:10506000002543F630000695CDE90455CDE90255FB
:105070000195C4F202000168002441F001010160C1
:105080000068C4F2020400F001000190019820467B
:105090001021012210260127FEF768FD032005904C
:1050A00002A92046CDE902670495FEF78FFC07B000
:1050B000F0BD000010B540F2681043F20001C2F2EA
:1050C0000000C4F201014FF4827200234FF4006C1F
:1050D0004FF4007E282480E80E100A21C0E9043332
:1050E000C0E906E4C0E90833C0E90A31FFF7EAF88D
:1050F000002808BF10BDBDE81040FBF73DBC000014
:1051000080B540F2C01041F20001C2F20000C4F2CA
:10511000010100234FF00C0C4FF4E13280E80E0047
:10512000C0E90333C0E905C3C361FFF7FDFD0028F3
:1051300008BF80BDBDE88040FBF71EBCFEE7000055
:10514000FEE70000704700002DE9F04381B0089CA5
:10515000984615460E468146FEF70EFD201A00EBD6
:105160000804FEF709FD40F20801C2F200010968D7
:10517000C1F3CB3161430091D9F800108A68324005
:10518000921BB2FA82F25209954203D1002001B07B
:10519000BDE8F083074618F101000ED130E000BFF2
:1051A000009801380090D9F8000080683040801BDA
:1051B000B0FA80F040098542E8D0FEF7DDFCC01B64
:1051C000A04227D200980028EAD10024EBE700BFD4
:1051D00088683040801BB0FA80F040098542D5D005
:1051E00088683040801BB0FA80F040098542CDD0FD
:1051F00088683040801BB0FA80F040098542C5D0F5
:1052000088683040801BB0FA80F040098542DFD1C9
:10521000BCE700BFD9E900014268B1F5827F22F006
:10522000E00242600BD1D9F80810B1F5004F02D06E
:10523000B1F5806F03D1016821F040010160D9F818
:105240002810B1F5005F07D1016821F40051016019
:10525000016841F400510160012089F851000020EB
:1052600089F85000032001B0BDE8F08370470000CA
:105270002DE9F04F81B02DED108B824600284FF0C4
:10528000000000F098820C46002900F0948240F261
:10529000EC01C2F200010978002900F08C8246F28C
:1052A0000829C2F2000999ED010A99ED001A9FED53
:1052B0009F2A20EE000A21EE011A40F2466C40F2CD
:1052C000676E0023B0EE428A0EE000BFB4EE483AAB
:1052D000F1EE10FA00F10100C8BFB0EE438AA0421F
:1052E00003F2466300F0048100FB0CF1B1FBF4F221
:1052F00001F24661B1FBF4F102F121052131ADB2B9
:105300008EB2AE4298BF02F122018FB2774528BF1C
:105310007746BD42B0EE423AD8D2B3FBF4F101F188
:105320002102B91A11F0030195B25FD0B0EE414AE3
:1053300085B1B5F5006FB0EE404A0BD009EBC50260
:1053400092ED013A92ED004A23EE033A24EE044A2C
:1053500034EE034AB5EE404AF1EE10FAB0EE423AAE
:10536000C8BFB0EE443A012905F1010641D0B2B2FE
:10537000B0EE414A82B1B2F5006FB0EE404A0BD0B8
:1053800009EBC60292ED014A92ED005A24EE044A5E
:1053900025EE055A35EE044AB4EE434AF1EE10FA12
:1053A000C8BFB0EE443A022905F1020621D0B1B2DD
:1053B000B0EE414A81B1B1F5006FB0EE404A0BD07A
:1053C00009EBC60191ED014A91ED005A24EE044A21
:1053D00025EE055A35EE044AB4EE434AEE1CF1EED2
:1053E00010FAC8BFB0EE443A03E000BF2E46B0EE5C
:1053F000423AE94339440329FFF468AF09EBC60197
:1054000001F11C050EE000BFB4EE434AF1EE10FAC4
:1054100006F10406C8BFB0EE443ABE4205F12005CD
:10542000BFF454AFB1B2B0EE414A71B1B1F5006F03
:10543000B0EE404A09D015ED064A15ED075A24EEA4
:10544000044A25EE055A35EE044AB4EE434A711C6F
:10545000F1EE10FA89B2C8BFB0EE443AB0EE414A5C
:1054600071B1B1F5006FB0EE404A09D015ED044AB4
:1054700015ED055A24EE044A25EE055A35EE044A88
:10548000B4EE434AB11CF1EE10FA89B2C8BFB0EED7
:10549000443AB0EE414A71B1B1F5006FB0EE404A06
:1054A00009D015ED024A15ED035A24EE044A25EE03
:1054B000055A35EE044AB4EE434AF11CF1EE10FAF7
:1054C00089B2C8BFB0EE443A0029B0EE414A9BD041
:1054D000B1F5006FB0EE404A96D095ED004A15ED5B
:1054E000015A24EE044A25EE055A35EE044A8BE7AC
:1054F000B5EE408AF1EE10FA40F358819FEDB09A74
:105500009FEDB0AA9FEDB0CA9FEDB0DA9FEDB0EA73
:105510009FEDB0FA002740F2466840F2676BB2EEAA
:1055200004BAF6EE008A00252DE000BF000000005E
:1055300005F0D6F820EE0B0AB4EE4C0AF1EE10FAA4
:10554000B8BFB0EE4C0A30EE0D0A20EE0E0AB5EEF2
:10555000400AF1EE10FAB8BFB0EE490AB4EE4F0AB5
:10556000F1EE10FAC8BFB0EE4F0A30EE280ABDEED9
:10557000C00A10EE100A0AF807000137A74205F228
:10558000466500F0178107FB08F0B0FBF4F100F26C
:105590004660B0FBF4F001F12102213092B283B2F7
:1055A000934298BF01F1220080B2584528BF584667
:1055B0008242B0EE492A76D2B5FBF4F199ED010AA8
:1055C00099ED001A2131421A20EE000A21EE011A4B
:1055D00012F003038AB25FD0B0EE413A82B1B2F565
:1055E000006FB0EE403A0BD009EBC20191ED012AF9
:1055F00091ED003A22EE022A23EE033A33EE023A0C
:10560000B5EE403AF1EE10FAB0EE492AC8BFB0EE5E
:10561000432A012B02F1010141D08EB2B0EE413A92
:1056200086B1B6F5006FB0EE403A0BD009EBC10180
:1056300091ED013A91ED004A23EE033A24EE044A3B
:1056400034EE033AB4EE423AF1EE10FAC8BFB0EECF
:10565000432A022B02F1020121D08BB2B0EE413A73
:1056600083B1B3F5006FB0EE403A0BD009EBC10146
:1056700091ED013A91ED004A23EE033A24EE044AFB
:1056800034EE033AB4EE423AD11CF1EE10FAC8BF40
:10569000B0EE432A03E000BF1146B0EE492AD243E0
:1056A0000244032A0AD282EE080AB4EE4A0AF1EE54
:1056B00010FA3FF73DAF00205DE700BF09EBC102E4
:1056C0001C320CE0B4EE423AF1EE10FA01F10401A2
:1056D000C8BFB0EE432A814202F12002E3D28BB26E
:1056E000B0EE413A73B1B3F5006FB0EE403A09D075
:1056F00012ED063A12ED074A23EE033A24EE044A6D
:1057000034EE033AB4EE423A4B1CF1EE10FA9BB27F
:10571000C8BFB0EE432AB0EE413A73B1B3F5006FA3
:10572000B0EE403A09D012ED043A12ED054A23EEEC
:10573000033A24EE044A34EE033AB4EE423A8B1CA8
:10574000F1EE10FA9BB2C8BFB0EE432AB0EE413A78
:1057500073B1B3F5006FB0EE403A09D012ED023AE2
:1057600012ED034A23EE033A24EE044A34EE033AE0
:10577000B4EE423ACB1CF1EE10FA9BB2C8BFB0EEC9
:10578000432A002BB0EE413A9CD0B3F5006FB0EE47
:10579000403A97D092ED003A12ED014A23EE033AD7
:1057A00024EE044A34EE033A8CE700BF504621460B
:1057B000FAF7B9FF0120BDEC108B01B0BDE8F08F06
:1057C00000000000BD378635000070C20000704246
:1057D0007777874000007E432DE9F04F81B02DEDB3
:1057E000108BADF51C7D824600284FF0000018BFDD
:1057F00000290FD10DF51C7DBDEC108B01B0BDE86B
:10580000F08F00BFDB0FC94000F07F4500FEFF4670
:105810000000000040F2EC08C2F2000888F8000026
:10582000079108464821FAF7A0FF1AA8C021FAF705
:105830009CFF98F802004AF208290028C2F20009E9
:1058400040F0F1801FED118A1FED119A1FED11BA82
:1058500000276FF00706BEEE00AAB6EE00CA00BF32
:10586000B8B200EE100AB8EE400A20EE080A80EE48
:10587000090A04F08DFE781C80B201EE100AB8EE21
:10588000411A21EE081A81EE091A20EE0A0A30EEBA
:105890000C0A20EE0B0A30EE0C0ABDEEC00A10EE28
:1058A000100A09EB06042081B0EE410A04F070FEF4
:1058B000B81C80B201EE100AB8EE411A21EE081AA7
:1058C00081EE091A20EE0A0A30EE0C0A20EE0B0ACD
:1058D00030EE0C0ABDEEC00A10EE100A09EB4701CB
:1058E0004880B0EE410A04F053FEF81C80B201EE8D
:1058F000100AB8EE411A21EE081A81EE091A20EEBC
:105900000A0A30EE0C0A20EE0B0A30EE0C0ABDEE4D
:10591000C00A10EE100AA081B0EE410A04F038FE71
:10592000381D80B201EE100AB8EE411A21EE081AB5
:1059300081EE091A20EE0A0A30EE0C0A20EE0B0A5C
:1059400030EE0C0ABDEEC00A10EE100AE081B0EE97
:10595000410A04F01DFE781D80B201EE100AB8EE77
:10596000411A21EE081A81EE091A20EE0A0A30EED9
:105970000C0A20EE0B0A30EE0C0ABDEEC00A10EE47
:10598000100A2082B0EE410A04F002FEB81D80B277
:1059900001EE100AB8EE411A21EE081A81EE091A3A
:1059A00020EE0A0A30EE0C0A20EE0B0A30EE0C0A4A
:1059B000BDEEC00A10EE100A6082B0EE410A04F09B
:1059C000E7FDF81D80B201EE100AB8EE411A21EE93
:1059D000081A81EE091A20EE0A0A30EE0C0A20EEAF
:1059E0000B0A30EE0C0ABDEEC00A10EE100AA082BF
:1059F000B0EE410A04F0CCFD20EE0A0A30EE0C0AAB
:105A000020EE0B0A30EE0C0ABDEEC00A083710EE8D
:105A1000100AB7F5805F06F11006E0827FF420AF30
:105A2000012088F8020098F8010058B908F1040034
:105A30004FF4805104F012FB002841F0C283012092
:105A400088F801001FED8E0A0AF12000002100BF36
:105A50003AF901300AEB010201EE103AB2F90230D4
:105A6000B8EEC11A30EE010AB2F9047001EE103A34
:105A7000B8EEC11AB2F9066030EE010A01EE107AF2
:105A8000B8EEC11AB2F9085030EE010A01EE106A00
:105A9000B8EEC11A30EE010A01EE105AB2F90A301E
:105AA000B8EEC11A30EE010A01EE103AB2F90C302C
:105AB000B8EEC11A30EE010A01EE103AB2F90E301A
:105AC000B8EEC11A30EE010A01EE103AB2F9103008
:105AD000B8EEC11A30EE010A01EE103AB2F91230F6
